:100000000C946C080C9494080C9494080C94940828
:100010000C9494080C9494080C9494080C949408F0
:100020000C9494080C9494080C9494080C949408E0
:100030000C9494080C9494080C9494080C949408D0
:100040000C94E0160C9494080C9494080C94940866
:100050000C9494080C9494080C9494080C949408B0
:100060000C9494080C949408381BAB1B7B1B751BD9
:10007000901B941B9F1B9B1D9E1DA11DA41DA71DB6
:10008000AA1DAD1DB01DB31D01060D00FE090166C0
:1000900002D620FFFE0BFE0AFE0D006022196980C9
:1000A0008080808080800080183363A0A0A00357E8
:1000B000675050F850F850500259692078A0A0704D
:1000C0002828F02002596948A85010204050A890D4
:1000D00002586840A0A040A09890682813638080D0
:1000E00080113B6B20404080808080804040201108
:1000F0003B6B8040402020202020404080065565FA
:1001000020A870A8200455652020F8202011336312
:10011000604080065161F811336340E04002596944
:1001200008081010204040808002596920508888BB
:1001300088888850200259692060A0202020202033
:10014000F80259697088880810204080F8025969BF
:10015000F808102070080888700259691010305093
:100160005090F81010025969F88080B0C8080888CB
:100170007002596970888080F08888887002596997
:10018000F808101020204040400259697088888883
:10019000708888887002596970888888780808880B
:1001A0007011386840E040000040E040113868407D
:1001B000E040000060408002596908102040804003
:1001C000201008045464F80000F8025969804020A7
:1001D000100810204080025969708888081020207B
:1001E000002002596970888898A8A8B080780259C0
:1001F000692050888888F8888888025969F04848BA
:100200004870484848F00259697088808080808032
:100210008870025969F048484848484848F00259EF
:1002200069F8808080F0808080F8025969F88080C9
:1002300080F08080808002596970888080809888F2
:10024000887002596988888888F88888888812396F
:1002500069E040404040404040E002596938101099
:10026000101010109060025969888890A0C0A0906A
:1002700088880259698080808080808080F8025957
:10028000698888D8A8A88888888802596988C8C8D1
:10029000A8A898988888025969708888888888886A
:1002A0008870025969F0888888F080808080015ABF
:1002B0006A70888888888888A87008025969F088D8
:1002C0008888F0A0908888025969708880807008BA
:1002D000088870025969F820202020202020200260
:1002E00059698888888888888888700259698888C8
:1002F0008888505050202002596988888888A8A88A
:10030000A8A8500259698888505020505088880207
:100310005969888850502020202020025969F80807
:10032000101020404080F8113B6BE080808080807E
:1003300080808080E0025969808040402010100851
:1003400008113B6BE0202020202020202020E00806
:100350005363205088015161F82A2262804002567E
:1003600066700878889868025969808080F088886B
:100370008888F00256667088808088700259690803
:1003800008087888888888780256667088F8808897
:100390007002596930484040F04040404000586881
:1003A0007088888878088870025969808080B0C811
:1003B000888888881238684000C040404040E0008B
:1003C0004A6A100030101010109090600259698035
:1003D000808090A0C0A09088123969C04040404001
:1003E000404040E0025666D0A8A8A8A888025666F9
:1003F000B0C88888888802566670888888887000A7
:100400005868F0888888F0808080005868788888EC
:100410008878080808025666B0C880808080025636
:10042000667088601088700258684040F040404014
:100430004830025666888888889868025666888898
:10044000885050200256668888A8A8A85002566690
:1004500088502020508800586888888898680888C4
:1004600070025666F810204080F8015B6B1820205F
:100470002020C020202020182219698080808080C0
:1004800080808080015B6BC02020202018202020ED
:1004900020C008536348A890FFFFFFFFFFFFFFFF46
:1004A000FFFFFFFFFFFFFFFFFFFFFFFFFFFFFFFF5C
:1004B000FFFFFFFFFFFFFFFFFF0D006022196980B4
:1004C00000808080808080800358682070A8A0A071
:1004D000A8702002596930484040E0404048B003CD
:1004E000566688705050708802596988885050F854
:1004F00020F8202022196980808080008080808000
:10050000124A6A609080609090601090601A326227
:10051000A0A00359697088A8D8C8D8A888700457C3
:1005200067700878887800F80356662850A0A050B5
:1005300028045363F80808163161E003596970888C
:10054000E8D8D8E8D888700A5161F81744646090F8
:1005500090600357672020F8202000F80735654099
:10056000A02040E007356540A04020C02A2262401C
:10057000800058688888888898E88080025969785F
:10058000E8E8E8E868282828262161C0202262409F
:100590008007356540C04040E00457677088888810
:1005A0007000F8035666A050282850A0025A6A40EE
:1005B000C04040E00818283808025A6A40C040404D
:1005C000E01028081038025A6A40A04020A04818BD
:1005D000283808025969200020204080888870024D
:1005E0005A6A40200020508888F88888025A6A1089
:1005F000200020508888F88888025A6A30480020F5
:10060000508888F88888025A6A28500020508888C4
:10061000F88888025A6A50500020508888F88888E4
:10062000025A6A20502020508888F8888802596928
:1006300058A0A0A0B0E0A0A0B8005B6B708880803C
:1006400080808088702040025A6A402000F88080B4
:10065000F08080F8025A6A102000F88080F08080D4
:10066000F8025A6A304800F88080F08080F8025A18
:100670006A505000F88080F08080F8123A6A80401A
:1006800000E04040404040E0123A6A204000E04034
:1006900040404040E0124A6A609000E040404040E4
:1006A00040E0123A6AA0A000E04040404040E00232
:1006B0005969F0484848E8484848F0025A6A2850C2
:1006C000008888C8A8988888025A6A4020007088E4
:1006D0008888888870025A6A102000708888888804
:1006E0008870025A6A30480070888888888870024A
:1006F0005A6A28500070888888888870025A6A5020
:10070000500070888888888870035565885020500C
:1007100088015B6B08709898A8A8A8C8C870800268
:100720005A6A40200088888888888870025A6A102F
:10073000200088888888888870025A6A3048008833
:10074000888888888870025A6A505000888888880B
:10075000888870025A6A1020008888502020202043
:1007600002596980F0888888F08080800259696029
:100770009090A0A0908888B002596940200070082D
:1007800078889868025969102000700878889868FD
:1007900002596930480070087888986802596928B9
:1007A00050007008788898680259695050007008A5
:1007B00078889868025A6A304830007008788898BB
:1007C00068025666702870A0A8500058687088802B
:1007D00080887020400259694020007088F8808825
:1007E000700259691020007088F880887002596979
:1007F0003048007088F88088700259695050007045
:1008000088F8808870123969804000C040404040BC
:10081000E0123969204000C040404040E012496980
:10082000609000C040404040E0123969A0A000C084
:1008300040404040E0025A6A50206010708888882A
:100840008870025969285000B0C888888888025981
:1008500069402000708888888870025969102000DB
:100860007088888888700259693048007088888844
:1008700088700259692850007088888888700259E9
:10088000695050007088888888700357672020005E
:10089000F8002020015868087098A8A8C870800245
:1008A0005969402000888888889868025969102012
:1008B0000088888888986802596930480088888844
:1008C000889868025969505000888888889868001C
:1008D0005B6B1020008888889868088870005A6AC6
:1008E0008080B0C88888C8B08080005B6B505000A2
:1008F000888888986808887001060A00FE07013613
:10090000026820FFFE08FE07FE0A006022176780CB
:10091000808080800080163363A0A0A002576750BB
:1009200050F850F850500257672070A0702870207F
:1009300002576748A8502050A89002576740A0A0CF
:1009400040A890682613638080801237672040801B
:10095000808040201237678040202020408003554F
:10096000658850F850880355652020F82020113301
:1009700063604080055161F811336340E0400257E5
:1009800067080810204080800257672050888888B8
:1009900050200257672060A0202020F8025767707F
:1009A0008808304080F8025767F8081030088870CF
:1009B00002576710305090F81010025767F880B057
:1009C000C8088870025767304080B0C888700257E6
:1009D00067F80810102040400257677088887088B8
:1009E00088700257677088986808106011376740F0
:1009F000E0400040E04011376740E0400060408048
:100A000012476710204080402010045363F800F81C
:100A1000124767804020102040800257677088107E
:100A200020200020025767708898A8B08070025775
:100A30006720508888F88888025767F048487048CF
:100A400048F002576770888080808870025767F08E
:100A50004848484848F0025767F88080F08080F89E
:100A6000025767F88080F080808002576770888026
:100A700080988870025767888888F8888888123735
:100A800067E04040404040E00257673810101010C7
:100A900090600257678890A0C0A090880257678036
:100AA0008080808080F80257678888D8A8888888E6
:100AB0000257678888C8A89888880257677088880E
:100AC00088888870025767F08888F0808080015895
:100AD000687088888888A87008025767F08888F04E
:100AE000A0908802576770888070088870025767E6
:100AF000F82020202020200257678888888888884E
:100B0000700257678888885050502002576788883D
:100B100088A8A8D8880257678888502050888802FB
:100B2000576788885020202020025767F808102037
:100B30004080F8123767E08080808080E00257674D
:100B400080804020100808123767E02020202020F5
:100B5000E0065363205088015161F82822628040EA
:100B600002556570087888780257678080B0C88819
:100B7000C8B0025565708880887002576708086899
:100B8000988898680255657088F8807002576730B9
:100B90004840F0404040005767788888780888705F
:100BA0000257678080B0C88888881237674000C0C5
:100BB000404040E0104969100030101010909060E3
:100BC00002576780808890E09088123767C0404065
:100BD000404040E0025565D0A8A8A888025565B0FD
:100BE000C88888880255657088888870005767B003
:100BF000C888C8B0808000576768988898680808D7
:100C0000025565B0C880808002556570807008F01C
:100C10000257674040F04040483002556588888858
:100C2000986802556588885050200255658888A8C4
:100C3000A8500255658850205088005767888898CA
:100C400068088870025565F8102040F81247673030
:100C50004020C020403022176780808080808080C4
:100C6000124767C02040304020C006536348A89018
:100C7000FFFFFFFFFFFFFFFFFFFFFFFFFFFFFFFF84
:100C8000FFFFFFFFFFFFFFFFFFFFFFFFFFFFFFFF74
:100C9000FF0A0060221767800080808080800157F3
:100CA000672078A0A0A07820025767304840E04035
:100CB00048B002556588705070880158688888501F
:100CC00020F820202022176780808000808080010B
:100CD00058687080E09048380870193161A0025758
:100CE000677088A8C8A888701346667090B05000D6
:100CF000F00265652448904824144262F0101541C2
:100D000061F00257677088E8C8C88870095161F8B7
:100D100016336340A0400256662020F82020F815C4
:100D2000456560902040F0154565E0106010E028B2
:100D300022624080015666888888C8B08002576762
:100D400078E8E86828282825116180202262408000
:100D500015356540C04040E01346666090906000E5
:100D6000F0026565904824489001696940C04040A0
:100D7000E40C143C0401696940C04040E8140408D4
:100D80001C015969C0204020C818287808025767FC
:100D9000200020204088700258684020708888F821
:100DA00088880258681020708888F88888025868F7
:100DB0002050708888F8888802586848B070888801
:100DC000F888880258685000708888F88888025827
:100DD000682050708888F888880267673C50909C2B
:100DE000F0909C0059697088808080887020400253
:100DF000586840F88080F08080F802586810F880C9
:100E000080F08080F802586820F88080F08080F8B8
:100E100002586850F88080F08080F812386880406E
:100E2000E040404040E01238682040E04040404010
:100E3000E012386840A0E040404040E0123868A02E
:100E400000E040404040E0025767F04848E848482A
:100E5000F0025868285088C8A898888802586840C6
:100E60002070888888887002586810207088888868
:100E70008870025868205070888888887002586886
:100E80002850708888888870025868500070888858
:100E9000888870025565885020508802576770987E
:100EA00098A8C8C8700258684020888888888870C8
:100EB00002586810208888888888700258682050F6
:100EC00000888888887002586850008888888888D8
:100ED00070025868102088885020202002576780B0
:100EE000F088F0808080025767708890A09088B06A
:100EF00002586840200070087888780258681020EE
:100F00000070087888780258682050007008788847
:100F1000780258682850007008788878025767501F
:100F20000070087888780258682050207008788807
:100F30007802656578147C907C005767708880889B
:100F40007020400258684020007088F88070025875
:100F5000681020007088F880700258682050007077
:100F600088F8807002576750007088F880701238D7
:100F700068804000C0404040E0123868408000C0B7
:100F8000404040E012386840A000C0404040E012BD
:100F90003767A000C0404040E0025767C03070880B
:100FA000888870025868285000B0C888888802581D
:100FB000684020007088888870025868102000708F
:100FC000888888700258682050007088888870026D
:100FD00058682850007088888870025767500070E1
:100FE000888888700355652000F8002002556578D0
:100FF00098A8C8F00258684020008888889868023D
:101000005868102000888888986802586820500026
:101010008888889868025767500088888898680090
:10102000596910208888986808887000586880F08E
:10103000888888F0808000596950008888986808FE
:10104000887000000000250028002B000404040420
:101050000404040402020202020203030303030362
:10106000010204081020408001020408102001023F
:10107000040810200000000800020100000304071B
:101080000000000000000000000000002400270015
:101090002A00FFE0FFD1AFFF32FFD0FFFEFFE0FFED
:1010A000D1AEFFD0FFFEFFE0FFD11000FFFEFFD06A
:1010B000FFE0FFC1FFD1AED580A83FD300408D1423
:1010C0002000A1C8DA1281CFD9F1DB402EA4A6AF4F
:1010D000FFD0FFFE1A1E121E11241FBECFEFD8E054
:1010E000DEBFCDBF12E0A0E0B1E0E4E0F8E402C072
:1010F00005900D92A037B107D9F723E0A0E7B2E041
:1011000001C01D92A634B207E1F718E0CBE6D8E0A3
:1011100004C02197FE010E943321CA36D107C9F7C6
:101120000E94CF1E0C94F5230C940000FC018681D4
:1011300097810A979783868397FF18C0828193814E
:1011400001979383828397FF0DC08FEF9FEF938367
:10115000828395838483978386839187808793870F
:101160008287089582E390E0978386830895FC0147
:10117000868197810196F1F0828193810196D1F069
:1011800080859185019641F484819581019621F4B1
:101190001186108615821482808591850A96918722
:1011A0008087CC9739F484819581019695838483D7
:1011B000118610860895CF93DF93EC018E819F8175
:1011C000019641F48A819B81019621F41F821E823F
:1011D0001B821A828E819F81892B39F48A819B819F
:1011E000892B19F4CE010E94B7088E819F810A963F
:1011F0009F838E83CC9739F48A819B8101969B8350
:101200008A831F821E822A813B818C819D812817BF
:10121000390761F4288539858E819F812817390720
:1012200029F4CE01DF91CF910C94B708DF91CF91D3
:1012300008950895EF92FF920F931F93CF93DF933A
:1012400000D000D000D0CDB7DEB78C017B0164E5C3
:1012500071E00E947F16F701848195818F3FFFEF37
:101260009F0731F46CE471E0C8010E94201620C091
:101270000A9764F46BE971E0C8010E940A16F7014D
:1012800064817581C8010E94DA1512C0F70162817C
:1012900073814AE0CE0101960E945316BE016F5F32
:1012A0007F4FC8010E941916CE0101960E944E166A
:1012B0006FE471E0C8010E940A16F701608571852C
:1012C0006F3FFFEF7F0731F46CE471E0C8010E94CB
:1012D0000A161EC06A30710564F46BE971E0C8013A
:1012E0000E940A16F70160857185C8010E94DA150F
:1012F0000FC04AE0CE0101960E945316BE016F5FF7
:101300007F4FC8010E941916CE0101960E944E1609
:10131000C80126960FB6F894DEBF0FBECDBFDF9191
:10132000CF911F910F91FF90EF900895EF92FF9250
:101330000F931F93CF93DF9300D000D000D0CDB791
:10134000DEB78C017B0164E571E00E947F16F70136
:10135000628173816F3FFFEF7F0731F46CE471E0CE
:10136000C8010E940A161EC06A30710564F46BE958
:1013700071E0C8010E940A16F70162817381C801F9
:101380000E94DA150FC04AE0CE0101960E94531662
:10139000BE016F5F7F4FC8010E941916CE010196F2
:1013A0000E944E166FE471E0C8010E940A16F70110
:1013B000668177816F3FFFEF7F0731F46CE471E066
:1013C000C8010E940A161EC06A30710564F46BE9F8
:1013D00071E0C8010E940A16F70166817781C80191
:1013E0000E94DA150FC04AE0CE0101960E94531602
:1013F000BE016F5F7F4FC8010E941916CE01019692
:101400000E944E16C80126960FB6F894DEBF0FBE96
:10141000CDBFDF91CF911F910F91FF90EF90089575
:101420000C94E221CF93DF93EC0180E391E0998368
:1014300088838A819B810E94E2211B821A82CE01CD
:1014400046960E944E16CE0140960E944E16CE0140
:101450000A960E944E16CE010496DF91CF910C940D
:101460004E16CF93DF93EC010E94120ACE01DF915A
:10147000CF910C94E2210F931F93CF93DF93EC0154
:1014800088E191E0998388838A8D9B8D0E94E22177
:101490001B8E1A8E8E010E5F1F4F49F06A96C01781
:1014A000D10729F02697CE010E944E16F8CFDF9182
:1014B000CF911F910F910895CF93DF93EC010E947C
:1014C0003B0ACE01DF91CF910C94E221CF92DF92C3
:1014D000EF92FF920F931F93CF93DF931F92CDB79D
:1014E000DEB76C01DC01DC961C91DC97DB960C917D
:1014F0007C01B4E0EB0EF11CDC015996ED91FC91FE
:101500005A97C70169830995482F410F2981602F98
:10151000C7010E94191CF60123AD082E000C990B7F
:10152000820F911D83AF81E090E00F90DF91CF910A
:101530001F910F91FF90EF90DF90CF900895AF92A1
:10154000BF92CF92DF92FF920F931F93CF93DF93BF
:1015500000D0CDB7DEB7F62E042F6C0144E0C40EE8
:10156000D11CDC015996ED91FC915A97C601298353
:101570003A830995080F2981A22E3A81B32E10E0F3
:10158000F50121915F01222341F0402F6F2DC6010B
:101590000E94191CF80E180FF3CF812F0F900F9097
:1015A000DF91CF911F910F91FF90DF90CF90BF906F
:1015B000AF900895EF92FF920F931F93CF93DF9315
:1015C000EC018DAD8E010C5F1F4F811105C081E0D4
:1015D0008DAFC8010E94E817EE80FF80EDA9FEA93B
:1015E00082E00995EDA9FEA981E0099520E030E0AF
:1015F00044E1B701C8010E9483179E01295C3F4F57
:1016000047E1B701C8010E948317EDA9FEA980E058
:10161000DF91CF911F910F91FF90EF9009942F923E
:101620003F924F925F926F927F928F929F92AF9272
:10163000BF92CF92DF92EF92FF920F931F93CF93BF
:10164000DF93CDB7DEB7C654D1400FB6F894DEBFF6
:101650000FBECDBF2DB73EB7CD5BDE4F398328839C
:10166000C354D14088E491E09A838983CE018B965C
:101670005E013DEBA31A3EEFB30AF0E48F2EF1E0DA
:101680009F2EA8E36A2EA1E07A2ECC24CA94DC2CEB
:1016900018E0212E11E0312E28E231E0FC01B6974E
:1016A000918280827C0144E2E41AF108D70111960C
:1016B0007C926E921396DC92CE9212971596DC92E3
:1016C000CE9214971796DC92CE9216971996DC92CA
:1016D000CE9218971B96DC92CE921A97BCE0EB0E36
:1016E000F11CE816F90611F78EE390E0CB5BDE4FB4
:1016F0002883C554D140CA5BDE4F3883C654D140DD
:101700000E944D218C01FC011382128240E251E0C3
:101710005183408313AE14AE15AE2C0154E0450E38
:10172000511CC2010E945D17D80117963C922E925F
:101730001697EAE09B96EC939B97F9E09C96FC93B6
:101740009C974CE099964C9399975BE098965C93A4
:10175000989788E097968C93C2010E94E817CB5B1C
:10176000DE4F2881C554D140CA5BDE4F3881C65454
:10177000D140D8012D933C93F70111830083C70119
:1017800088968A159B0509F089CF8EE390E00E9428
:101790004D218C01DC0113961C921E92129780E25F
:1017A00091E011969C938E93DB961C92DB97DC96CE
:1017B0001C92DC97DD961C927801B4E0EB0EF11CD4
:1017C000C7010E945D1788E091E0F8019783868346
:1017D0008AE083A789E084A78CE081A78BE080A7BB
:1017E00088E087A3C7010E94E81788E291E0D8014A
:1017F0008D939C931C830B8380E090E00E947C1D62
:101800008C3109F04FC1FE0131966F0101E010E00B
:101810005801FFE0AF0EB11C7601C8010E947C1D8B
:1018200090E08F3F910511F48FEF9FEFD70119964C
:101830009C938E931897C80101960E947C1D90E09E
:101840008F3F910511F48FEF9FEFF7019587848704
:10185000C80102960E947C1D90E08F3F910511F413
:101860008FEF9FEFD7011B969C938E931A97C80119
:1018700003960E947C1D90E08F3F910511F48FEF3D
:101880009FEFF70197878687C80104960E947C1D09
:1018900090E08F3F910511F48FEF9FEFD7015196A4
:1018A0009C938E9350970B5F1F4FBCE0EB0EF11C87
:1018B0000A151B0509F0B1CFE8E2CE0ED11C0A369D
:1018C000110509F0A5CFEEC0012B09F4F2C08B8100
:1018D0009C810E94DA0A28E2249DC001259D900D7A
:1018E00011249C012A5F3F4FCF5BDE4F3983288351
:1018F000C154D140B201CE0101960E947E1DEB8001
:10190000FC8068EF78E0C70104960E945218EEE16F
:101910009E2E00E010E0CDB6DEB6CF5BDE4FA88095
:10192000B980C154D140A00EB11E41E050E04C0F2F
:101930005D1FA40EB51EB501CE01835E9E4F0E94B1
:10194000C31DB501CE018D5D9E4F0E941A09B501E0
:10195000CE01875D9E4F0E94960963E571E0CE013E
:10196000815D9E4F0E947F16BE01675D7E4FCE0156
:10197000815D9E4F0E94C71561E571E00E94AE1522
:10198000BE016D5D7E4F0E94C71563E571E00E9448
:10199000AE15BE01635E7E4F0E94C71563E571E020
:1019A0000E94AE15CB5CDE4F19821882C553D14020
:1019B000C95CDE4F19821882C753D140C75CDE4F25
:1019C00019821882C953D140BC01CE018B5C9E4F55
:1019D0000E943716CE01815D9E4F0E944E16CE01A9
:1019E000875D9E4F0E944E16CE018D5D9E4F0E94D8
:1019F0004E16CE01835E9E4F0E944E16C75CDE4F90
:101A000048815981C953D1404F5F5F4F8DB79EB711
:101A1000841B950B0FB6F8949EBF0FBE8DBFADB75C
:101A2000BEB711965D01BD01CE018B5C9E4F0E9439
:101A300085159501492D61E0C7010E949F0ACE01DD
:101A40008B5C9E4F0E944E160FB6F894DEBE0FBE02
:101A5000CDBE045F1F4FBEE09B0EE8E49E125BCF3D
:101A60008B819C8104960E94B617811143CF0E94FE
:101A700072156CE870E00E941F218B010E943B15DB
:101A80000115110591F002301105B9F0033011056F
:101A900009F01ACF5FEF451A550A87E0481651043E
:101AA0000CF415CF412C512C12CF4114510409F4E0
:101AB000C4C6F1E04F1A51080ACFC55CDE4F188248
:101AC000CB53D140E12CF12C00E010E088E2849D62
:101AD0006001859DD00C112422242394312C2C0EDE
:101AE0003D1E2C0C3D1CD1011C96C35CDE4FB983FE
:101AF000A883CD53D1408B819C810E94DA0AB20128
:101B0000CE0101960E947E1DEB81FC81C15CDE4FFF
:101B1000F983E883CF53D14068EF78E0CF01049692
:101B20000E94521864E571E0CE018B5C9E4F0E94CA
:101B30007F16612C712CFEE1C45CDE4FF883CC5320
:101B4000D140812C912C64E571E0CE018B5C9E4FDD
:101B50000E9420168016910609F028C121E0E216A5
:101B6000F10409F453C032E0E316F10409F4B7C0FC
:101B700065E571E0CE018B5C9E4F0E940A164CE039
:101B8000489D5001499DB00C1124AC0CBD1C56E081
:101B9000A50EB11C81E090E08C0F9D1FA80EB91E10
:101BA000B501845E9E4F0E949609BE01635E7E4F22
:101BB000CE018B5C9E4F0E941916CE01835E9E4F14
:101BC0000E944E1662E472E0CE018B5C9E4F0E9432
:101BD0000A1662E571E0CE018B5C9E4F0E940A16E8
:101BE000B501CE01835E9E4F0E941A09BE01635E5D
:101BF0007E4FCE018B5C9E4F0E941916CE01835EF4
:101C00009E4F0E944E1663E571E04EC063E571E0A1
:101C1000CE018B5C9E4F0E940A169CE0989D50015D
:101C2000999DB00C1124AC0CBD1CA6E0AA0EB11CF1
:101C3000E1E0F0E0EC0FFD1FAE0EBF1EB501CE01DE
:101C4000835E9E4F0E949609BE01635E7E4FCE0169
:101C50008B5C9E4F0E941916CE01835E9E4F0E94A0
:101C60004E1667E571E0CE018B5C9E4F0E940A160E
:101C700065E571E0CE018B5C9E4F0E940A16B501AE
:101C8000CE01835E9E4F0E941A09BE01635E7E4FA5
:101C9000CE018B5C9E4F0E941916CE01835E9E4F33
:101CA0000E944E1662E472E0CE018B5C9E4F0E9451
:101CB0000A16B501CE01835E9E4F0E94C31DBE0170
:101CC000635E7E4FCE018B5C9E4F0E941916CE0143
:101CD000835E9E4F0E944E1663E571E061C063E52E
:101CE00071E0CE018B5C9E4F0E940A16FCE0F89DCD
:101CF0005001F99DB00C1124AC0CBD1C26E0A20EC5
:101D0000B11C41E050E04C0F5D1FA40EB51EB501A3
:101D1000CE01835E9E4F0E949609BE01635E7E4F98
:101D2000CE018B5C9E4F0E941916CE01835E9E4FA2
:101D30000E944E1661E571E0CE018B5C9E4F0E94C1
:101D40000A16B501CE01835E9E4F0E941A09BE019C
:101D5000635E7E4FCE018B5C9E4F0E941916CE01B2
:101D6000835E9E4F0E944E1665E571E0CE018B5C4E
:101D70009E4F0E940A16B501CE01835E9E4F0E94BF
:101D8000C31DBE01635E7E4FCE018B5C9E4F0E94E1
:101D90001916CE01835E9E4F0E944E1662E472E0D9
:101DA000CE018B5C9E4F0E940A165FC0CF5BDE4F58
:101DB000A880B980C154D140A60CB71C81E090E046
:101DC0008C0F9D1FA80EB91EB501CE01835E9E4FDC
:101DD0000E94C31DB501CE018D5D9E4F0E941A0960
:101DE000B501CE01875D9E4F0E94960963E571E0C3
:101DF000CE01815D9E4F0E947F16BE01675D7E4FC2
:101E0000CE01815D9E4F0E94C71561E571E00E9481
:101E1000AE15BE016D5D7E4F0E94C71563E571E092
:101E20000E94AE15BE01635E7E4F0E94C71563E53A
:101E300071E00E94AE15BC01CE018B5C9E4F0E94EA
:101E40003716CE01815D9E4F0E944E16CE01875DF2
:101E50009E4F0E944E16CE018D5D9E4F0E944E16E3
:101E6000CE01835E9E4F0E944E16C75CDE4F4881B6
:101E70005981C953D1404F5F5F4FADB6BEB6ADB7C4
:101E8000BEB7A41BB50B0FB6F894BEBF0FBEADBF57
:101E90002DB73EB72F5F3F4FB901CE018B5C9E4FF0
:101EA000CB5BDE4F2883C554D140CA5BDE4F3883FD
:101EB000C654D1400E948515CB5BDE4F2881C554A6
:101EC000D140CA5BDE4F3881C654D140C45CDE4F7E
:101ED0004881CC53D14061E0C15CDE4F888199815B
:101EE000CF53D1400E949F0A0FB6F894BEBE0FBEDA
:101EF000ADBEBFEF8B1A9B0AC45CDE4FE881CC53AA
:101F0000D140E25FC45CDE4FE883CC53D140FCE0BB
:101F10006F0E711CE83409F016CECE018B5C9E4F1B
:101F20000E944E168B819C8104960E94B6178111E7
:101F3000E6CD0E9472156CE870E00E941F215B01E3
:101F40000E943B1525E0A216B10441F4C55CDE4FAA
:101F50003881CB53D140311158C408C0C55CDE4F25
:101F60004881CB53D140442309F480C201151105A7
:101F7000F9F0C80101973C01E114F104D9F18CE0BA
:101F8000809FF001819FF00D1124EC0DFD1DA1E05B
:101F9000B0E0AC0FBD1FEA0FFB1F8485958501964D
:101FA00009F452C080859185019609F040C44CC067
:101FB000E114F10409F419C1C35CDE4FA881B981B1
:101FC000CD53D1408D919C91019639F421E0C55CAF
:101FD000DE4F2883CB53D1408ECDF1018085918592
:101FE000019609F055C031E0C55CDE4F3883CB5314
:101FF000D14081CD95E0A916B10431F58CE0809FE8
:10200000F001819FF00D1124EC0DFD1D21E030E069
:102010002C0F3D1FE20FF31F84859585019609F46F
:10202000A9C28CE0809FF001819FF00D1124EC0D7E
:10203000FD1D41E050E04C0F5D1FE40FF51F808552
:102040009185019609F496C28CE0869DF001879DEA
:10205000F00D1124EC0DFD1D21E030E02C0F3D1F93
:10206000E20FF31F84859585019639F441E0C55C44
:10207000DE4F4883CB53D1403ECD8085918501967C
:1020800061F451E0C55CDE4F5883CB53D14033CD72
:10209000E5E0AE16B10409F4B8C021E0E216F1049F
:1020A00009F4BEC032E0E316F10409F478C141E05E
:1020B000A416B10409F057C06CE0B62EB09E7001B2
:1020C000B19EF00C1124EC0CFD1CC7010696A1E09A
:1020D000B0E0AC0FBD1F8A0F9B1F0E94DB08980168
:1020E0002F5F3F4FB29EF001B39EF00D1124EC0D17
:1020F000FD1D41E050E04C0F5D1FE40FF51F808592
:10210000918597FD99C2DA01AE0DBF1D1A964D91CA
:102110005C911B974817590751F41E964D915C919D
:102120001F9784859585841795075CF085C2841771
:1021300095073CF081E0C55CDE4F8883CB53D140EE
:10214000ADC24CE0429FC001439F900D11248C0D05
:102150009D1D0696A1E0B0E0AC0FBD1F8A0F9B1F2E
:102160000E94DB0869C2B2E0AB16B10439F091E01D
:10217000C55CDE4F9883CB53D14090C26CE0609F2A
:10218000F001619FF00D1124EC0DFD1DCF010696AD
:1021900021E030E02C0F3D1F820F931F980121504A
:1021A000310941E050E04C0F5D1FE40FF51F629FC5
:1021B000D001639FB00D1124AC0DBD1DA40FB51F40
:1021C000448555851E962D913C911F9742175307C4
:1021D00009F039C2208531851A964D915C911B9783
:1021E0002417350709F02FC237C2F5E0AF16B10446
:1021F00009F05DCFC35CDE4FA881B981CD53D140DA
:102200008D919C91019609F4E2C2F101808591853E
:10221000019609F4DCC221E0E216F10409F0FBC2E8
:1022200051E0A516B10409F05AC05CE0B52EB09E8D
:102230007001B19EF00C1124EC0CFD1CC701069638
:10224000A1E0B0E0AC0FBD1F8A0F9B1F0E94B70832
:1022500098012F5F3F4FB29ED001B39EB00D112465
:10226000AC0DBD1DE1E0F0E0EC0FFD1FAE0FBF1F98
:1022700018968D919C91199797FD13C2E1E0F0E0BB
:10228000EC0FFD1FEE0DFF1D4285538548175907C2
:1022900051F4468557851C968D919C911D97841706
:1022A00095075CF0FEC1841795073CF0A1E0C55C82
:1022B000DE4FA883CB53D14013C24CE0429FC001F4
:1022C000439F900D11248C0D9D1D069621E030E05A
:1022D0002C0F3D1F820F931F0E94DB08E2C132E0EA
:1022E000A316B10439F0B1E0C55CDE4FB883CB531F
:1022F000D140F6C18CE0809FF001819FF00D112448
:10230000EC0DFD1D41E050E04C0F5D1FE40FF51F8B
:1023100024853585A80141505109849FD001859FAE
:10232000B00D1124AC0DBD1D41E050E04C0F5D1F00
:10233000A40FB51F1E964D915C911F97241735076A
:1023400009F0D2C1408551851A966D917C911B97F9
:102350004617570709F0C8C12FEF3FEF3187208795
:10236000338722873587248737872687A8014F5FE1
:102370005F4F849FF001859FF00D1124EC0DFD1D32
:1023800081E090E08C0F9D1FE80FF91F35832483B7
:1023900091E0C55CDE4F9883CB53D140A1C181E071
:1023A000A816B10471F58CE0809FF001819FF00DBB
:1023B0001124EC0DFD1DA1E0B0E0AC0FBD1FEA0F34
:1023C000FB1F248535852F3F3F4F09F417C2208519
:1023D00031852F3F3F4F09F411C298012F5F3F4FC6
:1023E000829FF001839FF00D1124EC0DFD1D21E073
:1023F00030E02C0F3D1FE20FF31F84819581019681
:1024000032C032E0A316B10409F0EDCD8CE0809F1C
:10241000F001819FF00D1124EC0DFD1D41E050E015
:102420004C0F5D1FE40FF51F248535852F3F3F4F6F
:1024300009F41CCE208531852F3F3F4F09F421CE72
:1024400098012F5F3F4F829FF001839FF00D112471
:10245000EC0DFD1DA1E0B0E0AC0FBD1FEA0FFB1FAE
:1024600084819581019795838483C8C1E1E0AE168C
:10247000B104B1F01CF4AB2851F0C7C122E0A216A0
:10248000B104E1F033E0A316B10409F1BEC141E0AB
:10249000E41AF10808F0B9C142E0E42EF12CB5C10C
:1024A0000115110521F481E0E114F10409F080E047
:1024B00001501109B8F402E010E014C00F5F1F4F83
:1024C000033011050CF4A1C100E010E09EC1AFEF94
:1024D000EA1AFA0AB3E0EB16F10409F096C1E12C0E
:1024E000F12C93C1882309F406CB6CE180E090E0E5
:1024F0000E947A1DFE0131964F0101E010E0580163
:102500002FE0A20EB11CAE014F5F5F4F6A01740154
:10251000D70118966C91C8010E947A1DF701648555
:10252000C80101960E947A1DD7011A966C91C801C4
:1025300002960E947A1DF7016685C80103960E94E3
:102540007A1DD60150966C91C80104960E947A1D9E
:102550000B5F1F4FBCE0EB0EF11CE4E3CE0ED11C71
:102560000A151B05A9F6F8E28F0E911C0A36110513
:1025700031F6ADC98CE0869DF001879DF00D1124E8
:10258000EC0DFD1D81E090E08C0F9D1FE80FF91F01
:1025900084859585019629F480859185019609F4B5
:1025A00053CD2CE0209FC001219F900D11248C0D54
:1025B0009D1D88248394912C8C0E9D1E880E991E3F
:1025C000269DF001279DF00D1124EC0DFD1DA1E0CD
:1025D000B0E0AC0FBD1FEA0FFB1F26853785D40185
:1025E0001D963C932E931C974285538519965C93B8
:1025F0004E9318971B965C934E931A971F963C9395
:102600002E931E970696E1E0F0E0EC0FFD1F8E0F73
:102610009F1F0E94B708D4011E968D919C911F9711
:10262000C3970CF411CDF401178616868285938525
:1026300001969387828708CDE1E0C55CDE4FE88391
:10264000CB53D1402BC00E949608F1E0C55CDE4F11
:10265000F883CB53D14022C08FEF9FEF91878087C3
:1026600093878287958784879787868798012F5FCE
:102670003F4F629FF001639FF00D1124EC0DFD1D93
:1026800021E030E02C0F3D1FE20FF31F9583848380
:1026900031E0C55CDE4F3883CB53D140E12CF12CC7
:1026A0002ACA41E0C55CDE4F4883CB53D14018C0F5
:1026B0002CE0209FF001219FF00D1124EC0DFD1D59
:1026C00081E090E08C0F9D1FE80FF91F80859185B8
:1026D0000196A1F4E1E0C55CDE4FE883CB53D14025
:1026E000EE24E394F12C07CA2F3F3F4F09F781E016
:1026F000C55CDE4F8883CB53D140F2CF868597856A
:102700000A979787868797FF28C0828593850197C8
:102710009387828797FF1DC08FEF9FEF91878087F8
:10272000938782879587848797878687A8014F5FDD
:102730005F4F249FF001259FF00D1124EC0DFD1D2E
:1027400021E030E02C0F3D1FE20FF31F95838483BF
:1027500004C082E390E0978786872CE0209FC00129
:10276000219F900D11248C0D9D1DE1E0F0E0EC0FF8
:10277000FD1FE80FF91F40855185228533854217DB
:10278000530739F0F1E0C55CDE4FF883CB53D140FD
:10279000A7CF46855785248535854217530739F0DD
:1027A00021E0C55CDE4F2883CB53D14099CF0696FC
:1027B00041E050E04C0F5D1F840F951F0E9496086A
:1027C00051E0C55CDE4F5883CB53D14089CFC35C09
:1027D000DE4FE881F981CD53D14011821082D101C1
:1027E00019961C921E9218978AE090E01F969C936F
:1027F0008E931E971B961C921E921A97B1E0C55C91
:10280000DE4FB883CB53D14076C9C55CDE4F18820A
:10281000CB53D14070C932E0E316F10409F047CC44
:1028200091E0C55CDE4F9883CB53D14064C945E04D
:10283000A416B10409F008CCF4CBCE0101960E9495
:10284000BA1BCD5BDE4F88819981C354D1400FB64E
:10285000F8949EBF0FBE8DBFCA5BDE4F0FB6F894D3
:10286000DEBF0FBECDBFDF91CF911F910F91FF90C3
:10287000EF90DF90CF90BF90AF909F908F907F9020
:102880006F905F904F903F902F9008953FB7F894CE
:102890008091350390913603A0913703B0913803AE
:1028A00026B5A89B05C02F3F19F00196A11DB11DAB
:1028B0003FBFBA2FA92F982F8827820F911DA11DE6
:1028C000B11DBC01CD0142E0660F771F881F991F23
:1028D0004A95D1F70895CF92DF92EF92FF920F932E
:1028E0001F93CF93DF936C017A018B01C0E0D0E09E
:1028F000CE15DF0589F0D8016D918D01D601ED91DE
:10290000FC910190F081E02DC6010995892B11F40D
:102910007E0102C02196ECCFC701DF91CF911F91BC
:102920000F91FF90EF90DF90CF9008950895DC0114
:102930001696ED91FC91179712968C91481B477053
:1029400081E090E001C0880F4A95EAF7E60FF11D9B
:102950003081222311F0832B02C080958323808352
:1029600008950E9444230F931F93CF93DF93EC01AC
:1029700088819981009729F02A813B8126173707A2
:1029800088F48B016F5F7F4F0E947A22009761F07D
:10299000998388831B830A832C813D81232B11F427
:1029A000FC01108281E001C080E0DF91CF911F9196
:1029B0000F910895EF92FF920F931F93CF93DF93A0
:1029C000FC01248135816115710511F480E019C085
:1029D00041155105A9F07B01EC018A01020F131F7B
:1029E000B8010E94B314882389F3288139818C812E
:1029F0009D81B701820F931F0E9452231D830C8378
:102A000081E0DF91CF911F910F91FF90EF9008959A
:102A1000CF93DF93EC0188819981009711F00E9498
:102A2000E221198218821D821C821B821A82DF9188
:102A3000CF910895EF92FF920F931F93CF93DF935F
:102A4000EC017B018A01BA010E94B314811104C018
:102A5000CE010E94081507C01D830C83B701888131
:102A600099810E945223CE01DF91CF911F910F9146
:102A7000FF90EF9008958F929F92AF92BF92CF9266
:102A8000DF92EF92FF920E9446144B015C0182E8B4
:102A9000C82ED12CE12CF12C0E944614DC01CB0174
:102AA00088199909AA09BB09883E9340A105B10577
:102AB00058F021E0C21AD108E108F10888EE880E2A
:102AC00083E0981EA11CB11CC114D104E104F104DF
:102AD00019F7FF90EF90DF90CF90BF90AF909F904D
:102AE0008F90089581E480937C0080917A008064C7
:102AF00080937A0080917A0086FDFCCF80917800E7
:102B00002091790090E0922B08950F931F93CF931B
:102B1000DF9341155105E9F061157105D1F0FC0114
:102B2000248135812115310519F4FB01108211C072
:102B3000EA0121972C173D0708F4E9018B01FC01FC
:102B400060817181AE01C8010E945923C00FD11F5D
:102B50001882DF91CF911F910F910895CF93DF934A
:102B6000EC016115710561F0FB0101900020E9F7AE
:102B70003197AF01461B570B0E94DA14811103C035
:102B8000CE010E940815CE01DF91CF910895CF9319
:102B9000DF93EC01FB0144815581608171810E94CA
:102BA000DA14811103C0CE010E940815CE01DF9115
:102BB000CF910895EF92FF920F931F93CF93DF93DE
:102BC000CDB7DEB728970FB6F894DEBF0FBECDBFE6
:102BD0007C01CB014AE08E010F5F1F4FB8010E94BC
:102BE0007323F80101900020E9F73197AF01401BF2
:102BF000510BB801C7010E94DA1428960FB6F89459
:102C0000DEBF0FBECDBFDF91CF911F910F91FF901F
:102C1000EF9008956115710551F0FB0101900020BE
:102C2000E9F73197AF01461B570B0C94DA1480E09B
:102C30000895FB0144815581608171810C94DA14FF
:102C4000CF93DF93EC016115710559F0FB01019001
:102C50000020E9F73197AF01461B570B0E941A1568
:102C600002C00E940815CE01DF91CF910895CF9345
:102C7000DF93EC01FB018617970761F0608171819A
:102C80006115710529F0448155810E941A1502C011
:102C90000E940815CE01DF91CF910895FC0180813B
:102CA00091810C94E2210F931F93CF93DF93CDB7C3
:102CB000DEB762970FB6F894DEBF0FBECDBF8C01B2
:102CC000CB01F801118210821382128215821482C4
:102CD00050E0BE016F5F7F4F0E946823BE016F5FAF
:102CE0007F4FC8010E94201662960FB6F894DEBF8F
:102CF0000FBECDBFDF91CF911F910F910895FC01C1
:102D0000118210821382128215821482611571055C
:102D100051F0FB0101900020E9F73197AF01461B0C
:102D2000570B0C941A15089590E0FC01EC58FF4ED7
:102D30003491FC01E05AFF4E2491FC01E45BFF4E0C
:102D4000E491EE2309F43BC0332339F1333091F0A1
:102D500038F43130A9F0323001F584B58F7D12C0DE
:102D6000373091F03830A1F03430B9F480918000E0
:102D70008F7D03C0809180008F77809380000DC08D
:102D800084B58F7784BD09C08091B0008F7703C070
:102D90008091B0008F7D8093B000F0E0EE0FFF1FB8
:102DA000EE5BFF4EA591B4918FB7F894EC91611151
:102DB00003C020952E2301C02E2B2C938FBF089586
:102DC0001F920F920FB60F9211242F933F938F9360
:102DD0009F93AF93BF938091310390913203A09161
:102DE0003303B09134033091300323E0230F2D37A8
:102DF00020F40196A11DB11D05C026E8230F0296FF
:102E0000A11DB11D209330038093310390933203B1
:102E1000A0933303B093340380913503909136032C
:102E2000A0913703B09138030196A11DB11D809385
:102E3000350390933603A0933703B0933803BF91C3
:102E4000AF919F918F913F912F910F900FBE0F9057
:102E50001F901895FB014181DC0112962C9112976D
:102E6000421768F013962C911397241740F0608155
:102E700015962C91621718F424810C9497140895D8
:102E8000FC0180819281980F92832181921760F4D6
:102E900094819F5F94839381890F821710F08FEF45
:102EA000820F838381E0089580E00895FC011282FF
:102EB00080818150838314820895FC0115821482DD
:102EC00017821682118681E0808782E282871786C8
:102ED0001686DF019396CF01C1962FEF2D93A81789
:102EE000B907E1F781E080A32AEA38E1368B258B28
:102EF000878B108E118E80E4828F138E86E994E189
:102F000092AB81AB0895DB01ED91FC910994DF92C6
:102F1000EF92FF920F931F93CF93DF93EC018CA955
:102F20009EA99F30D8F08031C8F48BA98038B0F4C6
:102F300010E08FE0D82E0FEF7E018CE1E80EF11C3F
:102F40006A817B811C8FDD8E1F8E0E8F97014BE374
:102F5000CE010E948317185F103891F7DF91CF914F
:102F60001F910F91FF90EF90DF900895EF92FF92E5
:102F70001F93CF93DF93EC01EE85FF85309709F027
:102F80000995EA80FB80E9A9FAA982E00995E9A9F7
:102F9000FAA981E0099520E030E045E1B701CE01D2
:102FA0000E948317182F882341F09E012D5C3F4F0C
:102FB00047E1B701CE010E948317E9A9FAA980E091
:102FC0000995812FDF91CF911F91FF90EF90089588
:102FD000EF92FF920F931F93CF93DF931F92CDB782
:102FE000DEB78C01DC011296ED90FC901397D19620
:102FF000ED91FC91D29782E0099520E030E04AE023
:10300000B701C8010E948317F82ED801D196ED911F
:10301000FC91D29783E00995D801D196ED91FC916E
:10302000D29780E00995FF20A1F1F80162817381B8
:103030009E012F5F3F4F46E4C8010E94831789819C
:10304000D8018C9312966D917C9113979E012F5FFE
:103050003F4F47E4C8010E9483178981F8018183AB
:103060006281738120E030E048E4C8010E94831748
:10307000D8011B968C931B9798012D5C3F4F12969D
:103080006D917C91139747E1C8010E94831781E0FD
:1030900001C080E00F90DF91CF911F910F91FF90C1
:1030A000EF900895DC0114968D919C9115978617E9
:1030B000970709F44EC015967C936E93149761158B
:1030C000710509F440C057968C915797FB01811107
:1030D00008C03596E4915896EC935897FB013C96BE
:1030E00011C0813041F43F96E4915896EC93589783
:1030F000FB01709607C03D96E4915896EC93589763
:10310000FB013E96649159966C93599758968C9111
:103110005897082E000C990B59962C915997821BA1
:10312000910927FD93955A962C915A97203441F096
:10313000829FC001112426E0969587952A95E1F794
:103140005B968C935B978AEA98E156969C938E9354
:103150005597089580E008950B96FC018491089599
:103160000A96FC0184910895FC01849108950E94BF
:10317000B418882321F0823011F083E0089586E0AE
:103180000895FC01E60FF11D849190E0982F8827A7
:103190003196E4918E0F911D089568E00C94C1184A
:1031A00066E00C94C1182EE93FE0009729F0F90180
:1031B0003197F1F70197F9CF08955091410360914C
:1031C000400340913F0330913E03A0913C03B091F6
:1031D0003D03E0913A03F0913B039FB7909339038D
:1031E000F89498E02C9187FF02C0252B01C026237C
:1031F0002C932081242B2083880F2081232320835C
:10320000915081F7809139038FBF0895282F30E0C6
:10321000F901E45BFF4EE491F0E0EE0FFF1FEE5B7F
:10322000FF4E8591949190933D0380933C0370E011
:10323000FB01E45BFF4E9491E92FF0E0EE0FFF1FDE
:10324000EE5BFF4E8591949190933B0380933A03FC
:10325000F901E05AFF4E249120934103FB01E05A0B
:10326000FF4E649160933F03609560933E03209509
:10327000209340030895DB011496ED91FC9115977E
:1032800020E030E065E00994DB011496ED91FC91BB
:10329000159720E030E062E00994DB011496ED918F
:1032A000FC91159720E030E063E00994CF92DF9223
:1032B000EF92FF920F931F93CF93DF938C017B01CB
:1032C0006A0180E0F601C49181110BC0CF3F09F47F
:1032D0004CC04C2FB701C8010E943B19811143C05B
:1032E00049C0CF3F11F44FEFF5CFCE3F09F444C0B2
:1032F000C03FC8F5C03E38F04C2F4F70B701C80131
:103300000E94441930C0C03D38F04C2F4F70B701B7
:10331000C8010E944D1927C0C03CF8F0D70114968F
:10332000ED91FC91159720E030E040E064E0C801A9
:103330000995C295C07FCE5FD0E0CE010E94D31820
:10334000D7011496ED91FC91159720E030E041E013
:1033500064E0C8010995CE0104C0C7FD04C08C2FEC
:1033600090E00E94D31880E001C081E0BFEFCB1A4B
:10337000DB0AA8CF80E001C081E0DF91CF911F91EF
:103380000F91FF90EF90DF90CF9008958F929F92D2
:10339000AF92BF92CF92DF92FF920F931F93CF9382
:1033A000DF9300D0CDB7DEB76C018B01F42E49015D
:1033B00020E1421709F467C0241700F13AE04317EF
:1033C00029F18FE0481369C041E0C6010E944D1900
:1033D00040E0B801C6010E94441941E8B801C601A5
:1033E0000E943B19F4014081B801C6010E943B19BB
:1033F00040E0B801C6010E944D1908C1A1E14A1779
:1034000009F444C0B5E14B1791F047C0DB011496B5
:10341000ED91FC91159720E030E042E061E00995E4
:103420004EEA50E1B801C6010E94561936C0FB01B0
:10343000A280B38046EA50E10E945619D501149645
:103440004C91406BB801C6010E943B1941E0B801A4
:10345000C6010E944419F50126813781D8011496CE
:10346000ED91FC911597D50115964C9166E0C6013A
:103470000995811102C080E0CAC040E0B801C601D0
:103480000E944D190AC04DE950E102C042E950E1E5
:10349000B801C6010E945619B9C0D80112960D9103
:1034A0001C911397B2E3FB1609F474C0BF15B8F072
:1034B000E5E1FE1609F47BC0F7E1FF1609F48DC0C3
:1034C00024E1F212A3C0D8011696ED91FC91179752
:1034D00015968C919F01280F311DC90160C036E4FB
:1034E000F31609F48AC087E4F81609F48AC0ABE33E
:1034F000FA128CC0F40181819381913029F09330CC
:1035000031F4482F885004C048E0480F01C0482FCC
:1035100021E0D80113963C91381708F420E031E0FF
:10352000F8015281451708F430E051E0481708F0DF
:1035300050E0822F852B382319F4252309F466C027
:10354000D4011296FC90913051F030F0923049F055
:10355000933051F42FEF09C020E031E007C021E0A3
:1035600004C020E03FEF02C020E030E0F7FE08C0DA
:10357000B401C8012A8339830E942A1739812A811C
:10358000F4018081830F80838181820F8183FF0C0E
:1035900069F73CC0B401C8010E942A1737C01192D4
:1035A000E817F907E1F7C8010E9456172FC0C801B4
:1035B0000E944017882309F45ECFD8011696ED913A
:1035C000FC91179715968C919F01280F311DC90109
:1035D0001192E817F907E1F719C0D4011C92F8011C
:1035E000828111968C9311978581815012968C93CC
:1035F0001297838113968C9309C0D80115968C91EC
:1036000003C0D80111968C91F401808381E00F9062
:103610000F90DF91CF911F910F91FF90DF90CF908E
:10362000BF90AF909F908F900895860F911DFC01E1
:1036300083A18F3F19F0642F0C9494160895CF92B4
:10364000DF92EF92FF920F931F93CF93DF931F921E
:10365000CDB7DEB76C018901862F90E0FC01319770
:10366000E730F10508F07BC0EC5CFF4F0C94332190
:10367000760183E2E80EF11C8601005D1F4FF70121
:1036800020812F3F21F130E0F901E05AFF4E4491B3
:10369000F901E45BFF4E24912223A1F030E0220FD8
:1036A000331FF901E857FF4EA591B491F901EE5B84
:1036B000FF4E859194918FB7F8949C91E92FE42B5C
:1036C000EC938FBF61E0F70180810E949416FFEFB9
:1036D000EF1AFF0AE016F10691F640E064E0C60139
:1036E0000E94151B40E065E012C0F60183A18F3FE8
:1036F000B1F160E031C0411103C041E062E02CC093
:1037000040E064E0C6010E94151B40E062E0C60193
:103710000E94151BF60167A180A50E9406191FC013
:10372000842F0E94DD181BC04423C9F0F801819149
:103730008F0149830E94DD1849814150F5CF442310
:1037400071F0F801849149830E94DD180F5F1F4FCB
:1037500049814150F4CF61E0C6010E94151B81E010
:103760000F90DF91CF911F910F91FF90EF90DF901D
:10377000CF9008950F931F93CF93DF93EC0188E4CC
:1037800091E0998388838A819B810E94E2211B8238
:103790001A828E010C5F1F4F71F0C45EDE4FC0179E
:1037A000D10749F0A897E881F9810190F081E02DD7
:1037B000CE010995F4CFDF91CF911F910F9108951C
:1037C000CF93DF93EC010E94BA1BCE01DF91CF9122
:1037D0000C94E2210F931F93CF93DF93EC0180E4CD
:1037E00091E0998388838EA19FA10E94E2211FA26C
:1037F0001EA28E010E5F1F4F69F0A696C017D1075B
:1038000049F02C97E881F9810190F081E02DCE01FB
:103810000995F4CFDF91CF911F910F910895CF9328
:10382000DF93EC010E94EA1BCE01DF91CF910C9453
:10383000E2214F925F926F927F928F929F92AF920E
:10384000BF92CF92DF92EF92FF920F931F93CF938D
:10385000DF931F92CDB7DEB72C01E62EF42EC22ED9
:10386000DC0114960D911C911597C8010E94B418A3
:10387000D82EF201848195810E94B718982EF1E02C
:10388000DF1203C02FE0A22E02C0AA24AA94D20104
:1038900014968D919C9115970E94B018D82EF20124
:1038A000848195810E94AC18B82ED20114968D9116
:1038B0009C9115970E94CD18B0E6BC1538F400977E
:1038C00029F0080F191F91E6D92E11C0F201848149
:1038D00095810E94D018F0E4FC1538F4009729F087
:1038E000080F191F81E4D82E02C00F5E1F4FBC14B1
:1038F00080F4D20150961C92509753961C92539785
:1039000054961C92549751961C92519752961C9221
:10391000A0C0BD1470F3892D90E0F80124912F3FD1
:1039200019F40F5F1F4F5AC0DC104FC0D20114961C
:103930008D919C9115970E94B41898012F5F3F4F6D
:10394000F801882311F08230E1F48491D20153967A
:103950008C935397F901249154962C935497F80122
:103960003396E4915096EC935097F8013496E49195
:103970005196EC935197F8013596E4915296EC9359
:1039800020C08491982F9F709250D20152969C93A0
:10399000529782958F7051968C935197F90124918B
:1039A000822F8F7054968C93549722952F70539634
:1039B0002C935397F8013296E491E295EF7050966C
:1039C000EC930115110579F444C0F8013296E491A5
:1039D000EA219C012E0F311D020F131FDB1409F485
:1039E00088CFD3949ACFF201848195810E94B71831
:1039F000D20153963C91539754962C9154975196DB
:103A00005C91519752969C915297920FF91A9FEFA1
:103A1000920F9F0DD4964C91D497D6966C916F15BA
:103A200018F0941728F402C0941780F09F1570F4D2
:103A3000E50E9FEF930F9E0DD201D3964C91D39735
:103A4000D5965C915E1538F4941738F4F2018089AC
:103A50003FC080E03DC0941710F49E15B8F7080FE2
:103A6000111D395F732E7694769476946F2C620EC6
:103A70005201FCE1AF0EB11C872C912CF61431F3EE
:103A80005E2D68018C2D801B8715F0F4F601849162
:103A9000D20112966D917C9113975C965C935C9722
:103AA0005D96FC925D975F961C925F975E968C93F5
:103AB00095014BE3C20159830E948317BFEFCB1AD4
:103AC000DB0A5981585FDECF080D191DF394D6CF5C
:103AD0000F90DF91CF911F910F91FF90EF90DF90AA
:103AE000CF90BF90AF909F908F907F906F905F909E
:103AF0004F9008950C94B0230C94A8230F931F9318
:103B0000CF93DF938C01EB01DC0112968D919C9198
:103B1000139768E870E004960E945218C930D105E6
:103B200040F5FE01E55CFF4FD80112968D919C9106
:103B300013970C9433212AEA31E017C020EC31E0CE
:103B400014C026ED31E011C02CEE31E00EC022E0B1
:103B500032E00BC028E132E008C02EE232E005C0BE
:103B600024E432E002C02AE532E04DE060E00E9449
:103B70009F0AF801828193810496DF91CF911F9172
:103B80000F910C948717EF92FF920F931F93CF938F
:103B9000DF9300D000D000D0CDB7DEB78C017B0121
:103BA00064E571E00E947F16F701628573856F3FBF
:103BB000FFEF7F0731F46CE471E0C8010E940A1640
:103BC0001EC06A30710564F46BE971E0C8010E949F
:103BD0000A16F70162857385C8010E94DA150FC0C5
:103BE0004AE0CE0101960E945316BE016F5F7F4FDF
:103BF000C8010E941916CE0101960E944E1667EA6E
:103C000071E0C8010E940A16C80126960FB6F89402
:103C1000DEBF0FBECDBFDF91CF911F910F91FF90FF
:103C2000EF90089580EF92E00E943B0A80E193E0DC
:103C30000C94120A0F931F93CF93DF9380E391E0CC
:103C4000909311038093100364E571E084E193E0A5
:103C50000E947F1664E571E08AE193E00E947F167E
:103C600064E571E080E293E00E947F1664E571E014
:103C700086E293E00E947F168EE390E00E944D2141
:103C8000EC011B821A8280E291E0998388831BAE4B
:103C90001CAE1DAE8E010C5F1F4FC8010E945D1748
:103CA00088E091E09F838E838AE08BA789E08CA7D0
:103CB0008CE089A78BE088A788E08FA3C8010E94C9
:103CC000E81788E291E099838883D0931303C09327
:103CD000120388E191E09093F1028093F002C0E03A
:103CE000D0E064E571E0CE018E509D4F0E947F16BA
:103CF0002696C831D105A9F78EE390E00E944D21A8
:103D0000EC011B821A8280E291E0998388831BAECA
:103D10001CAE1DAE8E010C5F1F4FC8010E945D17C7
:103D200088E091E09F838E838AE08BA789E08CA74F
:103D30008CE089A78BE088A788E08FA3C8010E9448
:103D4000E81788E291E099838883D0930B03C093AE
:103D50000A0310920D0310920C038FEF9FEF9093C4
:103D60000F0380930E036AE571E082EF92E00E94F8
:103D7000201668E671E088EF92E00E94201666E760
:103D800071E08EEF92E00E94201660E871E084E01E
:103D900093E0DF91CF911F910F910C942016CF9358
:103DA000DF9300D000D000D0CDB7DEB7789484B5D3
:103DB000826084BD84B5816084BD85B5826085BD27
:103DC00085B5816085BD80916E00816080936E00B5
:103DD00010928100809181008260809381008091A7
:103DE0008100816080938100809180008160809358
:103DF00080008091B10084608093B1008091B00018
:103E000081608093B00080917A00846080937A0012
:103E100080917A00826080937A0080917A0081603C
:103E200080937A0080917A00806880937A00109263
:103E3000C1000CE810E033E0432E512C80912C039C
:103E400090912D038130910561F18230910519F433
:103E500026E0D22E82C1892B09F0BBC180911203CA
:103E6000909113030E94DA0A809112039091130338
:103E700068E870E004960E94521824E531E04DE0B5
:103E80006AE080911203909113030E949F0A80912F
:103E900012039091130304960E94B6178111E4CF88
:103EA00098C16DB67EB66CE871E084E193E00E9443
:103EB000201667E971E08AE193E00E9420166DE91F
:103EC00071E080E293E00E94201665EA71E086E2EC
:103ED00093E00E94201640911803509119034F5F00
:103EE0005F4F2DB73EB7241B350B0FB6F8943EBF7E
:103EF0000FBE2DBF8DB79EB701964C0180911E035A
:103F000090911F030196281B390B0FB6F8943EBF02
:103F10000FBE2DBF8DB79EB701965C018091240323
:103F2000909125030196281B390B0FB6F8943EBFDC
:103F30000FBE2DBF8DB79EB701966C0180912A03ED
:103F400090912B030196281B390B0FB6F8943EBFB6
:103F50000FBE2DBF8DB79EB701967C01B40184E1E1
:103F600093E00E94851540911E0350911F034F5FFF
:103F70005F4FB5018AE193E00E94851540912403CB
:103F8000509125034F5F5F4FB60180E293E00E949E
:103F9000851540912A0350912B034F5F5F4FB70166
:103FA00086E293E00E94851580911203909113039D
:103FB0000E94DA0A809112039091130368E870E07E
:103FC00004960E94521894014DE06AE08091120319
:103FD000909113030E949F0A95014DE06BE480913C
:103FE0001203909113030E949F0A960146E268E231
:103FF00080911203909113030E949F0A970147E357
:1040000068E280911203909113030E949F0A8091AD
:1040100012039091130304960E94B6178111CACF20
:104020000FB6F8947EBE0FBE6DBED3C080910A035A
:1040300090910B0368EF78E004960E94521864E5B3
:1040400071E0CE0101960E947F1682EFA82E82E0D9
:10405000B82E9AE0C92EE12CF12C8DB69EB664E5FF
:1040600071E0CE0101960E94201680910C03909180
:104070000D038E159F0509F077C065E571E0CE014F
:1040800001960E940A16DE9CB001DF9C700D11247F
:104090006E507D4FCE0101960E94191662E472E0C7
:1040A000CE0101960E940A164D815E814F5F5F4FDF
:1040B0002DB73EB7241B350B0FB6F8943EBF0FBE8D
:1040C0002DBF8DB79EB701963C01BC01CE01019674
:1040D0000E94851593014C2D6AE080910A0390910E
:1040E0000B030E949F0A0FB6F8949EBE0FBE8DBEB2
:1040F0009FEFE91AF90A2FE0C20E36E0A30EB11CB9
:1041000086E4C812AACFCE0101960E944E16809175
:104110000A0390910B0304960E94B617811186CF73
:104120000E947215B8010E941F2170930F036093C3
:104130000E030E943B1580910E0390910F03823075
:10414000910561F185309105D9F10197D9F0809100
:104150000E0390910F03892BE1F180910A03909156
:104160000B030E94DA0A62CF63E571E0CE0101968B
:104170000E940A16B501CE0101960E94191663E548
:1041800071E08ECF80910C0390910D03019797FF02
:104190000DC050920D0340920C03D9CF80910C03B7
:1041A00090910D030196843091052CF490930D03AA
:1041B00080930C03CCCF10920D0310920C03C7CF49
:1041C00080910C0390910D03892B09F60E940F0B2F
:1041D000BECF0E947215B8010E941F217B0170930F
:1041E0002F0360932E030E943B15E114F10429F084
:1041F00095E0E916F10469F01AC080912C039091C2
:104200002D03019797FF0FC010922D0310922C03DE
:104210000EC080912C0390912D030196833091055F
:1042200014F082E090E090932D0380932C0380E0C3
:1042300090E0892B09F402CE0E940000FCCD97FB90
:10424000072E16F4009407D077FD09D00E9439217B
:1042500007FC05D03EF4909581959F4F0895709589
:1042600061957F4F0895EE0FFF1F0590F491E02DAB
:104270000994AA1BBB1B51E107C0AA1FBB1FA617AD
:10428000B70710F0A61BB70B881F991F5A95A9F7FF
:1042900080959095BC01CD010895CF93DF93823036
:1042A000910510F482E090E0E0914403F091450321
:1042B00020E030E0C0E0D0E0309711F14081518142
:1042C00048175907C0F04817590761F48281938154
:1042D000209719F09B838A832BC09093450380938A
:1042E000440326C02115310519F04217530718F46D
:1042F0009A01BE01DF01EF010280F381E02DDCCFE6
:104300002115310509F1281B390B2430310590F4B2
:1043100012968D919C9113976115710521F0FB0107
:104320009383828304C09093450380934403FD01EB
:10433000329644C0FD01E20FF31F81939193225006
:1043400031092D933C933AC02091420330914303AD
:10435000232B41F42091100130911101309343033C
:104360002093420320910E0130910F012115310558
:1043700041F42DB73EB74091120150911301241B17
:10438000350BE0914203F0914303E217F307A0F4E9
:104390002E1B3F0B2817390778F0AC014E5F5F4F9B
:1043A0002417350748F04E0F5F1F50934303409387
:1043B00042038193919302C0E0E0F0E0CF01DF91EE
:1043C000CF9108950F931F93CF93DF93009709F434
:1043D0008CC0FC0132971382128200914403109129
:1043E00045030115110581F420813181820F931F4E
:1043F00020914203309143032817390779F5F09350
:104400004303E093420371C0D80140E050E0AE178F
:10441000BF0750F412962D913C911397AD012115D1
:10442000310509F1D901F3CF9D01DA0133832283EC
:1044300060817181860F971F8217930769F4EC01E1
:1044400028813981260F371F2E5F3F4F318320830C
:104450008A819B8193838283452B29F4F0934503C2
:10446000E093440342C01396FC93EE931297ED0140
:10447000499159919E01240F351FE217F30771F4FA
:1044800080819181840F951F029611969C938E9343
:104490008281938113969C938E931297E0E0F0E0D3
:1044A000D80112968D919C911397009719F0F801FD
:1044B0008C01F6CF8D919C9198012E5F3F4F820F1A
:1044C000931F20914203309143032817390769F461
:1044D000309729F4109245031092440302C01382CE
:1044E00012821093430300934203DF91CF911F91F7
:1044F0000F910895A0E0B0E0E0E8F2E20C94C2234E
:10450000EC01009721F4CB010E944D21B8C0FC01C1
:10451000E60FF71F9C0122503109E217F30708F458
:10452000ACC0D9010D911C91119706171707B0F077
:104530000530110508F49FC0C80104978617970736
:1045400008F499C002501109061B170B019311932F
:104550006D937C93CF010E94E2218DC05B01A01A74
:10456000B10A4C01800E911EA0914403B091450305
:1045700040E050E0E12CF12C109709F44AC0A81556
:10458000B905D1F56D907C901197630182E0C80E5A
:10459000D11CCA14DB0480F1A3014A195B096A012A
:1045A00082E0C80ED11C1296BC9012971396AC9163
:1045B000B5E0CB16D10440F0B282A383518340838F
:1045C000D9016D937C930AC00E5F1F4FC301800F0A
:1045D000911FF90191838083EB2DFA2FE114F104EF
:1045E00031F0D7011396FC93EE93129744C0F093E9
:1045F0004503E09344033FC08D919C911197481768
:10460000590708F4AC017D0112960D90BC91A02DC4
:10461000B3CF809142039091430388159905E1F44B
:1046200046175707C8F480910E0190910F0100972B
:1046300041F48DB79EB74091120150911301841B34
:10464000950BE817F907C8F4F0934303E09342038E
:10465000F901718360830FC0CB010E944D217C0161
:10466000009759F0A801BE010E944923CE010E9483
:10467000E221C70104C0CE0102C080E090E0CDB7C6
:10468000DEB7EEE00C94DE2381E090E0F8940C9429
:10469000F523FB01DC0102C001900D924150504016
:1046A000D8F70895FB01DC0101900D920020E1F79D
:1046B0000895FB01DC014150504048F001900D92FB
:1046C0000020C9F701C01D9241505040E0F7089505
:1046D0004532510520F4423010F00C947323FB0155
:1046E0001082CB010895BB274A3031F4992322F47C
:1046F000BDE2909581959F4F0C947F23BB27FB01D2
:104700005527AA27880F991FAA1FA41710F0A41BCA
:1047100083955051B9F7A05DAA3308F0A95DA19324
:10472000009779F7B111B1931192CB010C949823B2
:10473000DC01FC01672F71917723E1F7329704C008
:104740007C916D9370836291AE17BF07C8F3089593
:10475000F999FECF92BD81BDF89A992780B5089549
:10476000262FF999FECF1FBA92BD81BD20BD0FB68D
:10477000F894FA9AF99A0FBE019608952F923F92F3
:104780004F925F926F927F928F929F92AF92BF9261
:10479000CF92DF92EF92FF920F931F93CF93DF930D
:1047A000CDB7DEB7CA1BDB0B0FB6F894DEBF0FBE6A
:1047B000CDBF09942A88398848885F846E847D84B7
:1047C0008C849B84AA84B984C884DF80EE80FD80B9
:1047D0000C811B81AA81B981CE0FD11D0FB6F8942F
:1047E000DEBF0FBECDBFED01089518E0CBE6D8E0E7
:1047F00004C0FE010E9433212196CC36D107C9F7AF
:04480000F894FFCF5A
:104804000840000000807002C61900011F1B000050
:1048140046038000000000003B0A5C0A0000000020
:10482400660A6B1400000000660A6B1400000000A6
:10483400120A310A000000001909100A00000000E1
:10484400EA1B0F1C00000000BA1BE01B2D2D003AD0
:1048540000202D20005B00202D0053455420544996
:104864004D455441424C4500534554204441544520
:104874002F54494D450053455420414C2F41460087
:104884005345542053494D2F534D530031322E304C
:10489400332E323031360031353A333000417574BD
:1048A4006F2F414C0032322043005B505D20552075
:1048B400205320204320205020205320204E20002D
:1048C4002050205B555D2053202043202050202081
:1048D4005320204E20002050202055205B535D2083
:1048E4004320205020205320204E20002050202000
:1048F40055202053205B435D205020205320204E20
:1049040020002050202055202053202043205B509D
:104914005D205320204E200020502020552020537D
:10492400202043202050205B535D204E2000205047
:104934002020552020532020432020502020532085
:104944005B4E5D005B505D5B555D5B535D5B435D42
:104954005B505D205320204E200020502020552005
:104964002053202043202050205B535D5B4E5D008C
:00000001FF
