:100000000C9463080C948B080C948B080C948B084C
:100010000C948B080C948B080C948B080C948B0814
:100020000C948B080C948B080C948B080C948B0804
:100030000C948B080C948B080C948B080C948B08F4
:100040000C9454100C948B080C948B080C948B0813
:100050000C948B080C948B080C948B080C948B08D4
:100060000C948B080C948B08B50C280DF80CF20C32
:100070000D0D110D1C0D00000000240027002A00AA
:10008000FFE0FFD1AFFF32FFD0FFFEFFE0FFD1AEB8
:10009000FFD0FFFEFFE0FFD11000FFFEFFD0FFE02A
:1000A000FFC1FFD1AED580A83FD300408D14200002
:1000B000A1C8DA1281CFD9F1DB402EA4A6AFFFD0C0
:1000C000FFFE01060D00FE09016602D620FFFE0BB1
:1000D000FE0AFE0D00602219698080808080808089
:1000E0000080183363A0A0A00357675050F850F861
:1000F00050500259692078A0A0702828F020025999
:100100006948A85010204050A89002586840A0A00C
:1001100040A0989068281363808080113B6B20403A
:10012000408080808080404020113B6B8040402098
:100130002020202040408006556520A870A820047B
:1001400055652020F82020113363604080065161FE
:10015000F811336340E0400259690808101020404C
:100160004080800259692050888888888850200201
:1001700059692060A02020202020F8025969708849
:10018000880810204080F8025969F808102070088B
:10019000088870025969101030505090F810100201
:1001A0005969F88080B0C808088870025969708859
:1001B0008080F088888870025969F8081010202023
:1001C0004040400259697088888870888888700229
:1001D000596970888888780808887011386840E004
:1001E00040000040E04011386840E04000006040BE
:1001F000800259690810204080402010080454648F
:10020000F80000F802596980402010081020408052
:1002100002596970888808102020002002596970EE
:10022000888898A8A8B08078025969205088888862
:10023000F8888888025969F048484870484848F06A
:10024000025969708880808080808870025969F0C6
:1002500048484848484848F0025969F8808080F08A
:10026000808080F8025969F8808080F080808080EA
:1002700002596970888080809888887002596988DE
:10028000888888F888888888123969E0404040402A
:10029000404040E002596938101010101010906072
:1002A000025969888890A0C0A09088880259698006
:1002B00080808080808080F80259698888D8A8A8CA
:1002C0008888888802596988C8C8A8A898988888A2
:1002D000025969708888888888888870025969F00E
:1002E000888888F080808080015A6A708888888831
:1002F0008888A87008025969F0888888F0A09088DA
:10030000880259697088808070080888700259696D
:10031000F820202020202020200259698888888801
:100320008888888870025969888888885050502049
:100330002002596988888888A8A8A8A85002596905
:1003400088885050205050888802596988885050B9
:100350002020202020025969F808101020404080F9
:10036000F8113B6BE0808080808080808080E0029C
:100370005969808040402010100808113B6BE02034
:100380002020202020202020E008536320508801D6
:100390005161F82A22628040025666700878889877
:1003A00068025969808080F088888888F0025666E3
:1003B0007088808088700259690808087888888861
:1003C00088780256667088F88088700259693048CB
:1003D0004040F04040404000586870888888780865
:1003E0008870025969808080B0C8888888881238EF
:1003F000684000C040404040E0004A6A10003010B1
:1004000010101090906002596980808090A0C0A068
:100410009088123969C040404040404040E0025658
:1004200066D0A8A8A8A888025666B0C88888888818
:10043000025666708888888870005868F0888888B6
:10044000F0808080005868788888887808080802DA
:100450005666B0C8808080800256667088601088BA
:10046000700258684040F04040404830025666886C
:100470008888889868025666888888505020025676
:10048000668888A8A8A85002566688502020508800
:100490000058688888889868088870025666F8103E
:1004A000204080F8015B6B1820202020C0202020F5
:1004B0002018221969808080808080808080015B84
:1004C0006BC0202020201820202020C00853634823
:1004D000A890FFFFFFFFFFFFFFFFFFFFFFFFFFFFF2
:1004E000FFFFFFFFFFFFFFFFFFFFFFFFFFFFFFFF1C
:1004F000FFFFFF0D006022196980008080808080EE
:1005000080800358682070A8A0A0A87020025969B4
:1005100030484040E0404048B00356668870505034
:10052000708802596988885050F820F820202219D4
:1005300069808080800080808080124A6A6090801C
:10054000609090601090601A3262A0A003596970A8
:1005500088A8D8C8D8A888700457677008788878A1
:1005600000F80356662850A0A05028045363F808EA
:1005700008163161E00359697088E8D8D8E8D8884E
:10058000700A5161F81744646090906003576720C7
:1005900020F8202000F807356540A02040E007350E
:1005A0006540A04020C02A226240800058688888A8
:1005B000888898E8808002596978E8E8E8E868283F
:1005C0002828262161C0202262408007356540C06E
:1005D0004040E0045767708888887000F8035666CA
:1005E000A050282850A0025A6A40C04040E0081895
:1005F000283808025A6A40C04040E01028081038E5
:10060000025A6A40A04020A04818283808025969B8
:10061000200020204080888870025A6A40200020F4
:10062000508888F88888025A6A10200020508888EC
:10063000F88888025A6A30480020508888F88888EC
:10064000025A6A28500020508888F88888025A6A1E
:1006500050500020508888F88888025A6A2050201C
:1006600020508888F8888802596958A0A0A0B0E076
:10067000A0A0B8005B6B708880808080808870202C
:1006800040025A6A402000F88080F08080F8025AC8
:100690006A102000F88080F08080F8025A6A3048A2
:1006A00000F88080F08080F8025A6A505000F8808C
:1006B00080F08080F8123A6A804000E0404040407C
:1006C00040E0123A6A204000E04040404040E012E2
:1006D0004A6A609000E04040404040E0123A6AA020
:1006E000A000E04040404040E0025969F0484848DE
:1006F000E8484848F0025A6A2850008888C8A898F4
:100700008888025A6A402000708888888888700229
:100710005A6A10200070888888888870025A6A3067
:10072000480070888888888870025A6A285000704B
:10073000888888888870025A6A5050007088888833
:100740008888700355658850205088015B6B08705D
:100750009898A8A8A8C8C87080025A6A4020008843
:10076000888888888870025A6A102000888888885B
:10077000888870025A6A304800888888888888701B
:10078000025A6A50500088888888888870025A6A9D
:100790001020008888502020202002596980F0888D
:1007A0008888F0808080025969609090A0A090882D
:1007B00088B002596940200070087888986802590A
:1007C00069102000700878889868025969304800DC
:1007D00070087888986802596928500070087888ED
:1007E0009868025969505000700878889868025AD1
:1007F0006A30483000700878889868025666702819
:1008000070A0A850005868708880808870204002CE
:1008100059694020007088F880887002596910205A
:10082000007088F88088700259693048007088F834
:100830008088700259695050007088F88088701262
:100840003969804000C040404040E0123969204092
:1008500000C040404040E0124969609000C0404004
:100860004040E0123969A0A000C040404040E00292
:100870005A6A5020601070888888887002596928E8
:100880005000B0C888888888025969402000708864
:10089000888888700259691020007088888888705C
:1008A0000259693048007088888888700259692820
:1008B000500070888888887002596950500070888C
:1008C00088888870035767202000F800202001588E
:1008D00068087098A8A8C8708002596940200088EC
:1008E00088888898680259691020008888888898C4
:1008F0006802596930480088888888986802596970
:10090000505000888888889868005B6B10200088A9
:1009100088889868088870005A6A8080B0C888887B
:10092000C8B08080005B6B50500088888898680849
:10093000887001060A00FE070136026820FFFE08E3
:10094000FE07FE0A0060221767808080808000809A
:10095000163363A0A0A00257675050F850F85050CB
:100960000257672070A07028702002576748A8506F
:100970002050A89002576740A0A040A89068261376
:10098000638080801237672040808080402012374B
:1009900067804020202040800355658850F85088AB
:1009A0000355652020F820201133636040800551F5
:1009B00061F811336340E040025767080810204097
:1009C000808002576720508888885020025767200F
:1009D00060A0202020F8025767708808304080F817
:1009E000025767F8081030088870025767103050B7
:1009F00090F81010025767F880B0C8088870025746
:100A000067304080B0C88870025767F8081010201F
:100A100040400257677088887088887002576770F6
:100A200088986808106011376740E0400040E04057
:100A300011376740E0400060408012476710204057
:100A400080402010045363F800F81247678040206C
:100A50001020408002576770881020200020025725
:100A600067708898A8B0807002576720508888F80F
:100A70008888025767F04848704848F00257677006
:100A8000888080808870025767F04848484848F05E
:100A9000025767F88080F08080F8025767F88080FE
:100AA000F080808002576770888080988870025735
:100AB00067888888F8888888123767E04040404017
:100AC00040E0025767381010101090600257678896
:100AD00090A0C0A09088025767808080808080F8B6
:100AE0000257678888D8A88888880257678888C886
:100AF000A898888802576770888888888870025705
:100B000067F08888F08080800158687088888888BD
:100B1000A87008025767F08888F0A090880257678D
:100B200070888070088870025767F8202020202085
:100B30002002576788888888888870025767888865
:100B40008850505020025767888888A8A8D8880203
:100B500057678888502050888802576788885020B7
:100B6000202020025767F80810204080F8123767CD
:100B7000E08080808080E0025767808040201008FD
:100B800008123767E02020202020E0065363205021
:100B900088015161F828226280400255657008780A
:100BA00088780257678080B0C888C8B002556570E1
:100BB0008880887002576708086898889868025586
:100BC000657088F88070025767304840F0404040B8
:100BD000005767788888780888700257678080B0E7
:100BE000C88888881237674000C0404040E01049FC
:100BF0006910003010101090906002576780808854
:100C000090E09088123767C04040404040E0025575
:100C100065D0A8A8A888025565B0C88888880255FC
:100C2000657088888870005767B0C888C8B08080B1
:100C300000576768988898680808025565B0C880AA
:100C4000808002556570807008F00257674040F060
:100C50004040483002556588888898680255658804
:100C6000885050200255658888A8A850025565888C
:100C70005020508800576788889868088870025507
:100C800065F8102040F8124767304020C0204030FF
:100C900022176780808080808080124767C0204054
:100CA000304020C006536348A890FFFFFFFFFFFFBE
:100CB000FFFFFFFFFFFFFFFFFFFFFFFFFFFFFFFF44
:100CC000FFFFFFFFFFFFFFFFFFFFFF0A006022178C
:100CD00067800080808080800157672078A0A0A076
:100CE0007820025767304840E04048B00255658898
:100CF0007050708801586888885020F82020202281
:100D00001767808080008080800158687080E09044
:100D100048380870193161A00257677088A8C8A8C0
:100D200088701346667090B05000F00265652448E4
:100D3000904824144262F010154161F00257677028
:100D400088E8C8C88870095161F816336340A0402C
:100D50000256662020F82020F81545656090204056
:100D6000F0154565E0106010E028226240800156D1
:100D700066888888C8B08002576778E8E8682828BD
:100D80002825116180202262408015356540C040D1
:100D900040E01346666090906000F0026565904800
:100DA00024489001696940C04040E40C143C0401AF
:100DB000696940C04040E81404081C015969C0201A
:100DC0004020C81828780802576720002020408853
:100DD000700258684020708888F888880258681027
:100DE00020708888F888880258682050708888F8B1
:100DF000888802586848B0708888F88888025868DF
:100E00005000708888F88888025868205070888858
:100E1000F888880267673C50909CF0909C00596964
:100E200070888080808870204002586840F88080F8
:100E3000F08080F802586810F88080F08080F80216
:100E4000586820F88080F08080F802586850F88058
:100E500080F08080F81238688040E040404040E0F8
:100E60001238682040E040404040E012386840A01E
:100E7000E040404040E0123868A000E04040404080
:100E8000E0025767F04848E84848F00258682850A0
:100E900088C8A89888880258684020708888888800
:100EA00070025868102070888888887002586820FE
:100EB00050708888888870025868285070888888A0
:100EC000887002586850007088888888700255655C
:100ED0008850205088025767709898A8C8C8700238
:100EE0005868402088888888887002586810208850
:100EF00088888888700258682050008888888870A0
:100F000002586850008888888888700258681020C5
:100F100088885020202002576780F088F0808080E9
:100F2000025767708890A09088B0025868402000EF
:100F300070087888780258681020007008788878DF
:100F40000258682050007008788878025868285045
:100F500000700878887802576750007008788878A1
:100F600002586820502070087888780265657814E7
:100F70007C907C0057677088808870204002586899
:100F80004020007088F88070025868102000708837
:100F9000F880700258682050007088F880700257FE
:100FA0006750007088F88070123868804000C04038
:100FB0004040E0123868408000C0404040E01238B5
:100FC0006840A000C0404040E0123767A000C04029
:100FD0004040E0025767C0307088888870025868C7
:100FE000285000B0C888888802586840200070885F
:100FF00088887002586810200070888888700258AD
:1010000068205000708888887002586828500070E6
:1010100088888870025767500070888888700355E8
:10102000652000F800200255657898A8C8F002589D
:1010300068402000888888986802586810200088D6
:1010400088889868025868205000888888986802C4
:1010500057675000888888986800596910208888E8
:10106000986808887000586880F0888888F08080C8
:10107000005969500088889868088870000000004E
:10108000250028002B0004040404040404040202C4
:1010900002020202030303030303010204081020F7
:1010A0004080010204081020010204081020000002
:1010B0000008000201000003040700000000000017
:1010C00000009F11971111241FBECFEFD8E0DEBFA3
:1010D000CDBF11E0A0E0B1E0ECE5FFE202C0059079
:1010E0000D92AE3AB107D9F722E0AEEAB1E001C005
:1010F0001D92A438B207E1F718E0C2E6D8E004C0B8
:101100002197FE010E943515C136D107C9F70E940B
:1011100054120C94A1170C94000080E008950B96D3
:10112000FC01849108950A96FC0184910895FC01C4
:10113000849108950E949708882321F0823011F04D
:1011400083E0089586E00895FC01E60FF11D849187
:1011500090E0982F88273196E4918E0F911D089585
:1011600068E00C94A40866E00C94A4082EE93FE023
:10117000009729F0F9013197F1F70197F9CF089518
:101180005091B6016091B5014091B4013091B30125
:10119000A091B101B091B201E091AF01F091B00125
:1011A0009FB79093AE01F89498E02C9187FF02C00E
:1011B000252B01C026232C932081242B2083880FEC
:1011C000208123232083915081F78091AE018FBF2E
:1011D0000895282F30E0F901EA57FF4EE491F0E03E
:1011E000EE0FFF1FE458FF4E859194919093B2014A
:1011F0008093B10170E0FB01EA57FF4E9491E92F13
:10120000F0E0EE0FFF1FE458FF4E8591949190930C
:10121000B0018093AF01F901E656FF4E249120936F
:10122000B601FB01E656FF4E64916093B4016095F0
:101230006093B30120952093B5010895DB011496C6
:10124000ED91FC91159720E030E065E00994DB0119
:101250001496ED91FC91159720E030E062E009943E
:10126000DB011496ED91FC91159720E030E063E0EE
:101270000994CF92DF92EF92FF920F931F93CF9337
:10128000DF938C017B016A0180E0F601C49181113A
:101290000BC0CF3F09F44CC04C2FB701C8010E94CE
:1012A0001E09811143C049C0CF3F11F44FEFF5CF64
:1012B000CE3F09F444C0C03FC8F5C03E38F04C2FC3
:1012C0004F70B701C8010E94270930C0C03D38F0F7
:1012D0004C2F4F70B701C8010E94300927C0C03C95
:1012E000F8F0D7011496ED91FC91159720E030E0CD
:1012F00040E064E0C8010995C295C07FCE5FD0E0B0
:10130000CE010E94B608D7011496ED91FC91159775
:1013100020E030E041E064E0C8010995CE0104C05E
:10132000C7FD04C08C2F90E00E94B60880E001C089
:1013300081E0BFEFCB1ADB0AA8CF80E001C081E0DB
:10134000DF91CF911F910F91FF90EF90DF90CF90A1
:1013500008954F925F926F927F928F929F92AF9279
:10136000BF92CF92DF92EF92FF920F931F93CF9392
:10137000DF931F92CDB7DEB72C01E62EF42EC22EDE
:10138000DC0114960D911C911597C8010E949708D5
:10139000D82EF201848195810E949A08982EF1E05E
:1013A000DF1203C02FE0A22E02C0AA24AA94D20109
:1013B00014968D919C9115970E949308D82EF20156
:1013C000848195810E948F08B82ED20114968D9148
:1013D0009C9115970E94B008B0E6BC1538F40097B0
:1013E00029F0080F191F91E6D92E11C0F20184814E
:1013F00095810E94B308F0E4FC1538F4009729F0B9
:10140000080F191F81E4D82E02C00F5E1F4FBC14B5
:1014100080F4D20150961C92509753961C92539789
:1014200054961C92549751961C92519752961C9226
:10143000A0C0BD1470F3892D90E0F80124912F3FD6
:1014400019F40F5F1F4F5AC0DC104FC0D201149621
:101450008D919C9115970E94970898012F5F3F4F9F
:10146000F801882311F08230E1F48491D20153967F
:101470008C935397F901249154962C935497F80127
:101480003396E4915096EC935097F8013496E4919A
:101490005196EC935197F8013596E4915296EC935E
:1014A00020C08491982F9F709250D20152969C93A5
:1014B000529782958F7051968C935197F901249190
:1014C000822F8F7054968C93549722952F70539639
:1014D0002C935397F8013296E491E295EF70509671
:1014E000EC930115110579F444C0F8013296E491AA
:1014F000EA219C012E0F311D020F131FDB1409F48A
:1015000088CFD3949ACFF201848195810E949A0862
:10151000D20153963C91539754962C9154975196DF
:101520005C91519752969C915297920FF91A9FEFA6
:10153000920F9F0DD4964C91D497D6966C916F15BF
:1015400018F0941728F402C0941780F09F1570F4D7
:10155000E50E9FEF930F9E0DD201D3964C91D3973A
:10156000D5965C915E1538F4941738F4F2018089B1
:101570003FC080E03DC0941710F49E15B8F7080FE7
:10158000111D395F732E7694769476946F2C620ECB
:101590005201FCE1AF0EB11C872C912CF61431F3F3
:1015A0005E2D68018C2D801B8715F0F4F601849167
:1015B000D20112966D917C9113975C965C935C9727
:1015C0005D96FC925D975F961C925F975E968C93FA
:1015D00095014BE3C20159830E94F710BFEFCB1A6C
:1015E000DB0A5981585FDECF080D191DF394D6CF61
:1015F0000F90DF91CF911F910F91FF90EF90DF90AF
:10160000CF90BF90AF909F908F907F906F905F90A2
:101610004F900895CF92DF92EF92FF920F931F9316
:10162000CF93DF931F92CDB7DEB76C01DC01DC9660
:101630001C91DC97DB960C917C01B4E0EB0EF11C65
:10164000DC015996ED91FC915A97C7016983099580
:10165000482F410F2981602FC7010E94A909F60177
:1016600023AD082E000C990B820F911D83AF81E0F2
:1016700090E00F90DF91CF911F910F91FF90EF902D
:10168000DF90CF9008958F929F92AF92BF92CF92AA
:10169000DF92FF920F931F93CF93DF9300D0CDB7CC
:1016A000DEB76C018B01F42E490120E1421709F4E9
:1016B00067C0241700F13AE0431729F18FE048137F
:1016C00069C041E0C6010E94300940E0B801C6018E
:1016D0000E94270941E8B801C6010E941E09F401D1
:1016E0004081B801C6010E941E0940E0B801C60150
:1016F0000E94300908C1A1E14A1709F444C0B5E1CC
:101700004B1791F047C0DB011496ED91FC911597B2
:1017100020E030E042E061E009954CE950E0B8019A
:10172000C6010E94390936C0FB01A280B38044E99A
:1017300050E00E943909D50114964C91406BB801D4
:10174000C6010E941E0941E0B801C6010E94270996
:10175000F50126813781D8011496ED91FC911597FA
:10176000D50115964C9166E0C6010995811102C01C
:1017700080E0CAC040E0B801C6010E9430090AC03A
:101780004BE850E002C040E850E0B801C6010E94BA
:101790003909B9C0D80112960D911C911397B2E383
:1017A000FB1609F474C0BF15B8F0E5E1FE1609F4A4
:1017B0007BC0F7E1FF1609F48DC024E1F212A3C04B
:1017C000D8011696ED91FC91179715968C919F0173
:1017D000280F311DC90160C036E4F31609F48AC030
:1017E00087E4F81609F48AC0ABE3FA128CC0F4015E
:1017F00081819381913029F0933031F4482F8850C2
:1018000004C048E0480F01C0482F21E0D8011396DA
:101810003C91381708F420E031E0F8015281451777
:1018200008F430E051E0481708F050E0822F852B93
:10183000382319F4252309F466C0D4011296FC90CC
:10184000913051F030F0923049F0933051F42FEF55
:1018500009C020E031E007C021E004C020E03FEFF4
:1018600002C020E030E0F7FE08C0B401C8012A83BE
:1018700039830E949E1039812A81F4018081830F6F
:1018800080838181820F8183FF0C69F73CC0B401A2
:10189000C8010E949E1037C01192E817F907E1F7BE
:1018A000C8010E94CA102FC0C8010E94B41088232A
:1018B00009F45ECFD8011696ED91FC911797159615
:1018C0008C919F01280F311DC9011192E817F9076A
:1018D000E1F719C0D4011C92F801828111968C9312
:1018E00011978581815012968C931297838113965C
:1018F0008C9309C0D80115968C9103C0D80111961C
:101900008C91F401808381E00F900F90DF91CF9153
:101910001F910F91FF90DF90CF90BF90AF909F905D
:101920008F900895860F911DFC0183A18F3F19F0C0
:10193000642F0C9408100895CF92DF92EF92FF92DB
:101940000F931F93CF93DF931F92CDB7DEB76C0138
:101950008901862F90E0FC013197E730F10508F00E
:101960007BC0EC5CFF4F0C943515760183E2E80EEA
:10197000F11C8601005D1F4FF70120812F3F21F1EF
:1019800030E0F901E656FF4E4491F901EA57FF4E67
:1019900024912223A1F030E0220F331FF901EA58ED
:1019A000FF4FA591B491F901E458FF4E85919491B0
:1019B0008FB7F8949C91E92FE42BEC938FBF61E0F3
:1019C000F70180810E940810FFEFEF1AFF0AE0166E
:1019D000F10691F640E064E0C6010E94920C40E0FE
:1019E00065E012C0F60183A18F3FB1F160E031C024
:1019F000411103C041E062E02CC040E064E0C60158
:101A00000E94920C40E062E0C6010E94920CF60136
:101A100067A180A50E94E9081FC0842F0E94C0080A
:101A20001BC04423C9F0F80181918F0149830E94B2
:101A3000C00849814150F5CF442371F0F8018491E9
:101A400049830E94C0080F5F1F4F49814150F4CF66
:101A500061E0C6010E94920C81E00F90DF91CF916E
:101A60001F910F91FF90EF90DF90CF90089520E4A9
:101A700031E0FC0131832083828193810C94E41551
:101A8000CF93DF93EC010E94370DCE01DF91CF9110
:101A90000C94E415CF93DF93EC0180E291E09983FD
:101AA00088838A819B810E94E4151B821A828E8919
:101AB0009F890E94E415888999890E94E4158A8586
:101AC0009B850E94E4158C819D81DF91CF910C94C0
:101AD000E415CF93DF93EC010E944A0DCE01DF9114
:101AE000CF910C94E4150F931F93CF93DF93EC01E8
:101AF00088E191E0998388838A8D9B8D0E94E4150B
:101B00001B8E1A8E8E010E5F1F4F51F06A96C01702
:101B1000D10731F02697888199810E94E415F7CF8B
:101B2000DF91CF911F910F910895CF93DF93EC0137
:101B30000E94730DCE01DF91CF910C94E415DC016E
:101B400014968D919C9115978617970709F44EC0AE
:101B500015967C936E9314976115710509F440C036
:101B600057968C915797FB01811108C03596E491E7
:101B70005896EC935897FB013C9611C0813041F484
:101B80003F96E4915896EC935897FB01709607C0E6
:101B90003D96E4915896EC935897FB013E966491DC
:101BA00059966C93599758968C915897082E000C1B
:101BB000990B59962C915997821B910927FD939562
:101BC0005A962C915A97203441F0829FC0011124DB
:101BD00026E0969587952A95E1F75B968C935B971F
:101BE0008DE898E056969C938E9355970895AF9202
:101BF000BF92DF92EF92FF920F931F93CF93DF93E9
:101C000000D0CDB7DEB77C01D62E042FDC0155966F
:101C1000ED91FC91569729833A830995080F298104
:101C2000A22E3A81B32E10E0F50121915F0122230B
:101C300041F0402F6D2DC7010E94A909D80E180F41
:101C4000F3CF812F0F900F90DF91CF911F910F91C4
:101C5000FF90EF90DF90BF90AF900895EF92FF92CA
:101C60000F931F93CF93DF93EC018DAD8E010C5F2B
:101C70001F4F811105C081E08DAFC8010E942D1159
:101C8000EE80FF80EDA9FEA982E00995EDA9FEA9ED
:101C900081E0099520E030E044E1B701C8010E94ED
:101CA000F7109E01295C3F4F47E1B701C8010E9430
:101CB000F710EDA9FEA980E0DF91CF911F910F9160
:101CC000FF90EF90099481E480937C0080917A00EA
:101CD000806480937A0080917A0086FDFCCF8091A9
:101CE00078002091790090E0922B08953FB7F89406
:101CF00080917C0290917D02A0917E02B0917F0242
:101D000026B5A89B05C02F3F19F00196A11DB11D56
:101D10003FBFBA2FA92F982F8827820F911DA11D91
:101D2000B11DBC01CD0142E0660F771F881F991FCE
:101D30004A95D1F708958F929F92AF92BF92CF921A
:101D4000DF92EF92FF920E94760E4B015C0182E8D7
:101D5000C82ED12CE12CF12C0E94760EDC01CB0197
:101D600088199909AA09BB09883E9340A105B105C4
:101D700058F021E0C21AD108E108F10888EE880E77
:101D800083E0981EA11CB11CC114D104E104F1042C
:101D900019F7FF90EF90DF90CF90BF90AF909F909A
:101DA0008F900895CF92DF92EF92FF920F931F933F
:101DB000CF93DF936C017A018B01C0E0D0E0CE15A8
:101DC000DF0589F0D8016D918D01D601ED91FC916F
:101DD0000190F081E02DC6010995892B11F47E0157
:101DE00002C02196ECCFC701DF91CF911F910F91D7
:101DF000FF90EF90DF90CF9008950895DC01169644
:101E0000ED91FC91179712968C91481B477081E0D9
:101E100090E001C0880F4A95EAF7E60FF11D308186
:101E2000222311F0832B02C08095832380830895A1
:101E30000F931F93CF93DF9341155105E9F061157F
:101E40007105D1F0FC01248135812115310519F48A
:101E5000FB01108211C0EA0121972C173D0708F4FD
:101E6000E9018B01FC0160817181AE01C8010E9412
:101E70005B17C00FD11F1882DF91CF911F910F9177
:101E800008950E9446170F931F93CF93DF93EC01A1
:101E900088819981009729F02A813B81261737078D
:101EA00088F48B016F5F7F4F0E947C16009761F072
:101EB000998388831B830A832C813D81232B11F412
:101EC000FC01108281E001C080E0DF91CF911F9181
:101ED0000F910895EF92FF920F931F93CF93DF938B
:101EE000FC01248135816115710511F480E019C070
:101EF00041155105A9F07B01EC018A01020F131F66
:101F0000B8010E94430F882389F3288139818C818D
:101F10009D81B701820F931F0E9454171D830C836C
:101F200081E0DF91CF911F910F91FF90EF90089585
:101F30006115710551F0FB0101900020E9F731971F
:101F4000AF01461B570B0C946A0F80E00895EF9287
:101F5000FF920F931F93CF93DF93EC017B018A01D4
:101F6000BA010E94430F2881398181110DC02115CA
:101F7000310519F0C9010E94E415198218821D82E9
:101F80001C821B821A8206C01D830C83B701C90103
:101F90000E945417CE01DF91CF911F910F91FF90B6
:101FA000EF900895CF93DF93EC016115710559F01F
:101FB000FB0101900020E9F73197AF01461B570B59
:101FC0000E94A70F0CC088819981009711F00E9490
:101FD000E415198218821D821C821B821A82CE018E
:101FE000DF91CF910895FC01118210821382128239
:101FF000158214826115710551F0FB0101900020DA
:10200000E9F73197AF01461B570B0C94A70F0895C2
:1020100090E0FC01E255FF4E3491FC01E656FF4E84
:102020002491FC01EA57FF4EE491EE2309F43BC0F2
:10203000332339F1333091F038F43130A9F03230B4
:1020400001F584B58F7D12C0373091F03830A1F0A2
:102050003430B9F4809180008F7D03C0809180007E
:102060008F77809380000DC084B58F7784BD09C0C1
:102070008091B0008F7703C08091B0008F7D8093F6
:10208000B000F0E0EE0FFF1FE458FF4EA591B491B1
:102090008FB7F894EC91611103C020952E2301C0F5
:1020A0002E2B2C938FBF08951F920F920FB60F9275
:1020B00011242F933F938F939F93AF93BF9380915E
:1020C000780290917902A0917A02B0917B023091CE
:1020D000770223E0230F2D3720F40196A11DB11DB7
:1020E00005C026E8230F0296A11DB11D209377029B
:1020F0008093780290937902A0937A02B0937B0246
:1021000080917C0290917D02A0917E02B0917F022D
:102110000196A11DB11D80937C0290937D02A09336
:102120007E02B0937F02BF91AF919F918F913F91BB
:102130002F910F900FBE0F901F901895FB014181BA
:10214000DC0112962C911297421768F013962C918D
:102150001397241740F0608115962C91621718F49C
:1021600024810C94FE0E0895FC0180819281980FC9
:1021700092832181921760F494819F5F948393816D
:10218000890F821710F08FEF820F838381E008950B
:1021900080E00895FC011282808181508383148243
:1021A0000895FC011582148217821682118681E03F
:1021B000808782E2828717861686DF019396CF0199
:1021C000C1962FEF2D93A817B907E1F781E080A3FF
:1021D0002DE838E0368B258B878B108E118E80E4AE
:1021E000828F138E8DEF9EE092AB81AB0895DB0161
:1021F000ED91FC910994EF92FF921F93CF93DF939F
:10220000EC01EE85FF85309709F00995EA80FB80A7
:10221000E9A9FAA982E00995E9A9FAA981E0099555
:1022200020E030E045E1B701CE010E94F710182F01
:10223000882341F09E012D5C3F4F47E1B701CE015D
:102240000E94F710E9A9FAA980E00995812FDF9192
:10225000CF911F91FF90EF900895EF92FF920F930F
:102260001F93CF93DF931F92CDB7DEB78C01DC01B4
:102270001296ED90FC901397D196ED91FC91D29728
:1022800082E0099520E030E04AE0B701C8010E94F1
:10229000F710F82ED801D196ED91FC91D29783E0FA
:1022A0000995D801D196ED91FC91D29780E00995DE
:1022B000FF20A1F1F801628173819E012F5F3F4FE2
:1022C00046E4C8010E94F7108981D8018C931296C8
:1022D0006D917C9113979E012F5F3F4F47E4C8019A
:1022E0000E94F7108981F80181836281738120E067
:1022F00030E048E4C8010E94F710D8011B968C9387
:102300001B9798012D5C3F4F12966D917C9113970E
:1023100047E1C8010E94F71081E001C080E00F9002
:10232000DF91CF911F910F91FF90EF90089587EB70
:1023300091E00E94730D87ED91E00C944A0D0F938C
:102340001F93CF93DF9380E291E09093D801809325
:10235000D70169E971E08BED91E00E94F30F69E923
:1023600071E081EE91E00E94F30F69E971E087EE80
:1023700091E00E94F30F69E971E08DEE91E00E9417
:10238000F30F8EE390E00E944F15EC011B821A823E
:1023900088E291E0998388831BAE1CAE1DAE8E014E
:1023A0000C5F1F4FC8010E94D11088E091E09F830D
:1023B0008E838AE08BA789E08CA78CE089A78BE0CD
:1023C00088A788E08FA3C8010E942D1188E391E0BF
:1023D00099838883D093DA01C093D90188E191E091
:1023E0009093B8018093B701C0E0D0E069E971E053
:1023F000CE0187549E4F0E94F30F2696C831D10517
:10240000A9F78EE390E00E944F15EC011B821A821F
:1024100088E291E0998388831BAE1CAE1DAE8E01CD
:102420000C5F1F4FC8010E94D11088E091E09F838C
:102430008E838AE08BA789E08CA78CE089A78BE04C
:1024400088A788E08FA3C8010E942D1188E391E03E
:1024500099838883D093D201C093D1011092D40183
:102460001092D3018FEF9FEF9093D6018093D50107
:1024700064E471E089EB91E00E94D20F62E571E0C3
:102480008FEB91E00E94D20F60E671E085EC91E065
:102490000E94D20F6AE671E08BEC91E0DF91CF9160
:1024A0001F910F910C94D20FCF93DF9300D000D0E7
:1024B00000D0CDB7DEB7789484B5826084BD84B592
:1024C000816084BD85B5826085BD85B5816085BD2F
:1024D00080916E00816080936E00109281008091E7
:1024E000810082608093810080918100816080936F
:1024F0008100809180008160809380008091B10094
:1025000084608093B1008091B00081608093B000BE
:1025100080917A00846080937A0080917A00826052
:1025200080937A0080917A00816080937A00809114
:102530007A00806880937A001092C1000CE810E065
:1025400040E4442E41E0542E809173029091740235
:102550008130910589F18230910539F426E0222EEF
:1025600038E2632E31E0732E9AC1892B09F033C211
:102570008091D9019091DA010E942E0E8091D901AB
:102580009091DA0162EC70E004960E949F0D8091B8
:10259000D9019091DA0129E931E04DE06AE0049631
:1025A0000E94F70D8091D9019091DA0104960E9462
:1025B000FB108111E3CF0FC26DB67EB666E771E006
:1025C0008BED91E00E94D20F61E871E081EE91E025
:1025D0000E94D20F67E871E087EE91E00E94D20F6F
:1025E0006FE871E08DEE91E00E94D20F4091DF0123
:1025F0005091E0014F5F5F4F2DB73EB7241B350B65
:102600000FB6F8943EBF0FBE2DBF8DB79EB7019693
:102610004C018091E5019091E6010196EDB7FEB77E
:10262000E81BF90B0FB6F894FEBF0FBEEDBF2DB738
:102630003EB72F5F3F4F59018091EB019091EC0124
:102640000196E81BF90B0FB6F894FEBF0FBEEDBF65
:102650002DB73EB72F5F3F4F69018091F1019091F7
:10266000F2010196E81BF90B0FB6F894FEBF0FBEFE
:10267000EDBF2DB73EB72F5F3F4F7901B4018BED12
:1026800091E00E94180F4091E5015091E6014F5FE3
:102690005F4FB50181EE91E00E94180F4091EB0170
:1026A0005091EC014F5F5F4FB60187EE91E00E94C1
:1026B000180F4091F1015091F2014F5F5F4FB70148
:1026C0008DEE91E00E94180F8091D9019091DA016E
:1026D0000E942E0E8091D9019091DA0162EC70E097
:1026E00004960E949F0D8091D9019091DA01940186
:1026F0004DE06AE004960E94F70D8091D901909117
:10270000DA0195014DE06BE404960E94F70D80918B
:10271000D9019091DA01960146E268E204960E949E
:10272000F70D8091D9019091DA01970147E368E2B2
:1027300004960E94F70D8091D9019091DA010496D8
:102740000E94FB108111C6CF0FB6F8947EBE0FBE5B
:102750006DBE41C18091D1019091D20162E379E0D7
:1027600004960E949F0D69E971E0CE0101960E94D6
:10277000F30F87EBE82E81E0F82E9AE0392EA12C9A
:10278000B12C8DB69EB669E971E0CE0101960E942A
:10279000D20F8091D3019091D401F50131966F0150
:1027A0008A159B0509F082C064E971E0CE010196AB
:1027B0000E94980F2C9CF0012D9CF00D1124E954DF
:1027C000FE4F408151812A9CF0012B9CF00D112479
:1027D000E954FE4F62817381CE0101960E946A0F17
:1027E00066E971E0CE0101960E94980F4D815E81ED
:1027F0004F5F5F4F2DB73EB7241B350B0FB6F894D4
:102800003EBF0FBE2DBF8DB79EB701965C01BC01C8
:10281000CE0101960E94180F8091D1019091D201B2
:102820009501432D6AE004960E94F70D0FB6F894C7
:102830009EBE0FBE8DBE56019FE0390EE6E0EE0E45
:10284000F11CF6E43F129DCF89819A810E94E41524
:102850008091D1019091D20104960E94FB108111C8
:1028600079CF0E94630EB8010E9421157093D601A2
:102870006093D5010E949B0E8091D5019091D60165
:102880008230910579F185309105F1F1019701F1DF
:102890008091D5019091D601892B09F49CC080913B
:1028A000D1019091D2010E942E0E54CF68E971E0BF
:1028B000CE0101960E94980FF701468157816281EF
:1028C0007381CE0101960E946A0F68E971E08ACF98
:1028D0008091D3019091D401019797FF0BC083E0C1
:1028E00090E008C08091D3019091D401019684308A
:1028F00091052CF49093D4018093D301C9CF109209
:10290000D4011092D301C4CF8091D3019091D4010E
:10291000892B09F0BDCF5A8249828EE390E00E9454
:102920004F157C01FC01138212827182608213AE0A
:1029300014AE15AE6C01F4E0CF0ED11CC6010E949E
:10294000D11028E031E0F701378326833AE033A73E
:1029500089E084A78CE081A78BE080A788E087A32B
:10296000C6010E942D1188E391E0F70191838083D5
:10297000FC82EB828FEF9FEF9E838D838B819C8106
:102980000E942E0E8B819C8162E379E004960E9466
:102990009F0D8B819C812AE931E04AE06AE0049630
:1029A0000E94F70D8B819C8104960E94FB1081117F
:1029B000E9CF0E94630EB8010E9421157E836D83CA
:1029C0000E949B0E8D819E81892BC1F6CE010196BE
:1029D0000E94370D5DCF0E94630EB8010E94211541
:1029E0007B0170937602609375020E949B0EE11446
:1029F000F10429F0F5E0EF16F10469F01AC08091B6
:102A0000730290917402019797FF0FC010927402A5
:102A1000109273020EC0809173029091740201961D
:102A20008330910514F082E090E0909374028093DB
:102A3000730280E090E0892B09F486CD0E940000AB
:102A40007FCD97FB072E16F4009407D077FD09D0B1
:102A50000E943B1507FC05D03EF4909581959F4F51
:102A60000895709561957F4F0895EE0FFF1F0590B3
:102A7000F491E02D0994AA1BBB1B51E107C0AA1FCA
:102A8000BB1FA617B70710F0A61BB70B881F991F0F
:102A90005A95A9F780959095BC01CD010895CF93E3
:102AA000DF938230910510F482E090E0E0918202A1
:102AB000F091830220E030E0C0E0D0E0309711F1E7
:102AC0004081518148175907C0F04817590761F4F0
:102AD00082819381209719F09B838A832BC09093E6
:102AE00083028093820226C02115310519F0421716
:102AF000530718F49A01BE01DF01EF010280F38150
:102B0000E02DDCCF2115310509F1281B390B2430CC
:102B1000310590F412968D919C9113976115710572
:102B200021F0FB019383828304C0909383028093FE
:102B30008202FD01329644C0FD01E20FF31F819332
:102B40009193225031092D933C933AC020918002F9
:102B500030918102232B41F4209110013091110119
:102B6000309381022093800220910E0130910F0159
:102B70002115310541F42DB73EB740911201509116
:102B80001301241B350BE0918002F0918102E217C2
:102B9000F307A0F42E1B3F0B2817390778F0AC0180
:102BA0004E5F5F4F2417350748F04E0F5F1F50935D
:102BB0008102409380028193919302C0E0E0F0E0B3
:102BC000CF01DF91CF9108950F931F93CF93DF93A0
:102BD000009709F48CC0FC01329713821282009195
:102BE0008202109183020115110581F42081318147
:102BF000820F931F2091800230918102281739079C
:102C000079F5F0938102E093800271C0D80140E031
:102C100050E0AE17BF0750F412962D913C911397D8
:102C2000AD012115310509F1D901F3CF9D01DA017B
:102C30003383228360817181860F971F82179307E8
:102C400069F4EC0128813981260F371F2E5F3F4F31
:102C5000318320838A819B8193838283452B29F44E
:102C6000F0938302E093820242C01396FC93EE93AA
:102C70001297ED01499159919E01240F351FE217DA
:102C8000F30771F480819181840F951F029611964C
:102C90009C938E938281938113969C938E9312972B
:102CA000E0E0F0E0D80112968D919C911397009787
:102CB00019F0F8018C01F6CF8D919C9198012E5F4F
:102CC0003F4F820F931F209180023091810228177D
:102CD000390769F4309729F4109283021092820226
:102CE00002C0138212821093810200938002DF914E
:102CF000CF911F910F910895A0E0B0E0E2E8F6E1D6
:102D00000C946E17EC01009721F4CB010E944F1533
:102D1000B8C0FC01E60FF71F9C0122503109E217F1
:102D2000F30708F4ACC0D9010D911C911197061757
:102D30001707B0F00530110508F49FC0C8010497CB
:102D40008617970708F499C002501109061B170B44
:102D5000019311936D937C93CF010E94E4158DC074
:102D60005B01A01AB10A4C01800E911EA091820253
:102D7000B091830240E050E0E12CF12C109709F46F
:102D80004AC0A815B905D1F56D907C9011976301E3
:102D900082E0C80ED11CCA14DB0480F1A3014A19D9
:102DA0005B096A0182E0C80ED11C1296BC90129792
:102DB0001396AC91B5E0CB16D10440F0B282A38358
:102DC00051834083D9016D937C930AC00E5F1F4FDE
:102DD000C301800F911FF90191838083EB2DFA2F9E
:102DE000E114F10431F0D7011396FC93EE9312979E
:102DF00044C0F0938302E09382023FC08D919C9186
:102E000011974817590708F4AC017D0112960D90EF
:102E1000BC91A02DB3CF8091800290918102881542
:102E20009905E1F446175707C8F480910E01909177
:102E30000F01009741F48DB79EB740911201509158
:102E40001301841B950BE817F907C8F4F09381026E
:102E5000E0938002F901718360830FC0CB010E946F
:102E60004F157C01009759F0A801BE010E944B1735
:102E7000CE010E94E415C70104C0CE0102C080E06B
:102E800090E0CDB7DEB7EEE00C948A1781E090E0D9
:102E9000F8940C94A117FB01DC0102C001900D9283
:102EA00041505040D8F70895FB01DC0101900D928C
:102EB0000020E1F70895FB01DC014150504048F04B
:102EC00001900D920020C9F701C01D924150504061
:102ED000E0F708952F923F924F925F926F927F9208
:102EE0008F929F92AF92BF92CF92DF92EF92FF921A
:102EF0000F931F93CF93DF93CDB7DEB7CA1BDB0BC6
:102F00000FB6F894DEBF0FBECDBF09942A8839886A
:102F100048885F846E847D848C849B84AA84B98471
:102F2000C884DF80EE80FD800C811B81AA81B9817D
:102F3000CE0FD11D0FB6F894DEBF0FBECDBFED0191
:102F4000089518E0C2E6D8E004C0FE010E943515DD
:0C2F50002196C336D107C9F7F894FFCFD3
:102F5C00084000000080F301430B00019C0C0000B2
:102F6C008402800000000000730D950D000000002D
:102F7C004A0D690D000000000A0BD20E0000000083
:102F8C00410FD20E000000000A0BD20E0000000010
:102F9C00370D400D5345542054494D455441424C36
:102FAC00450053455420444154452F54494D450048
:102FBC0053455420414C2F4146005345542053490E
:102FCC004D2F534D530031322E30332E323031369B
:102FDC000031353A3330004175746F2F414C00325B
:102FEC00322043005B005D00200054696D65746104
:0E2FFC00626C65206163746976697479000007
:00000001FF
