:100000000C94BE040C94E6040C94E6040C94E604F0
:100010000C94E6040C94E6040C94E6040C94E604B8
:100020000C94E6040C94E6040C94E6040C94E604A8
:100030000C94E6040C94E6040C94E6040C94E60498
:100040000C94540C0C94E6040C94E6040C94E60412
:100050000C94E6040C94E6040C94E6040C94E60478
:100060000C94E6040C94E6043109A40974096E09A1
:1000700089098D09980900000000240027002A0042
:10008000FFE0FFD1AFFF32FFD0FFFEFFE0FFD1AEB8
:10009000FFD0FFFEFFE0FFD11000FFFEFFD0FFE02A
:1000A000FFC1FFD1AED580A83FD300408D14200002
:1000B000A1C8DA1281CFD9F1DB402EA4A6AFFFD0C0
:1000C000FFFE01060D00FE09016602D620FFFE0BB1
:1000D000FE0AFE0D00602219698080808080808089
:1000E0000080183363A0A0A00357675050F850F861
:1000F00050500259692078A0A0702828F020025999
:100100006948A85010204050A89002586840A0A00C
:1001100040A0989068281363808080113B6B20403A
:10012000408080808080404020113B6B8040402098
:100130002020202040408006556520A870A820047B
:1001400055652020F82020113363604080065161FE
:10015000F811336340E0400259690808101020404C
:100160004080800259692050888888888850200201
:1001700059692060A02020202020F8025969708849
:10018000880810204080F8025969F808102070088B
:10019000088870025969101030505090F810100201
:1001A0005969F88080B0C808088870025969708859
:1001B0008080F088888870025969F8081010202023
:1001C0004040400259697088888870888888700229
:1001D000596970888888780808887011386840E004
:1001E00040000040E04011386840E04000006040BE
:1001F000800259690810204080402010080454648F
:10020000F80000F802596980402010081020408052
:1002100002596970888808102020002002596970EE
:10022000888898A8A8B08078025969205088888862
:10023000F8888888025969F048484870484848F06A
:10024000025969708880808080808870025969F0C6
:1002500048484848484848F0025969F8808080F08A
:10026000808080F8025969F8808080F080808080EA
:1002700002596970888080809888887002596988DE
:10028000888888F888888888123969E0404040402A
:10029000404040E002596938101010101010906072
:1002A000025969888890A0C0A09088880259698006
:1002B00080808080808080F80259698888D8A8A8CA
:1002C0008888888802596988C8C8A8A898988888A2
:1002D000025969708888888888888870025969F00E
:1002E000888888F080808080015A6A708888888831
:1002F0008888A87008025969F0888888F0A09088DA
:10030000880259697088808070080888700259696D
:10031000F820202020202020200259698888888801
:100320008888888870025969888888885050502049
:100330002002596988888888A8A8A8A85002596905
:1003400088885050205050888802596988885050B9
:100350002020202020025969F808101020404080F9
:10036000F8113B6BE0808080808080808080E0029C
:100370005969808040402010100808113B6BE02034
:100380002020202020202020E008536320508801D6
:100390005161F82A22628040025666700878889877
:1003A00068025969808080F088888888F0025666E3
:1003B0007088808088700259690808087888888861
:1003C00088780256667088F88088700259693048CB
:1003D0004040F04040404000586870888888780865
:1003E0008870025969808080B0C8888888881238EF
:1003F000684000C040404040E0004A6A10003010B1
:1004000010101090906002596980808090A0C0A068
:100410009088123969C040404040404040E0025658
:1004200066D0A8A8A8A888025666B0C88888888818
:10043000025666708888888870005868F0888888B6
:10044000F0808080005868788888887808080802DA
:100450005666B0C8808080800256667088601088BA
:10046000700258684040F04040404830025666886C
:100470008888889868025666888888505020025676
:10048000668888A8A8A85002566688502020508800
:100490000058688888889868088870025666F8103E
:1004A000204080F8015B6B1820202020C0202020F5
:1004B0002018221969808080808080808080015B84
:1004C0006BC0202020201820202020C00853634823
:1004D000A890FFFFFFFFFFFFFFFFFFFFFFFFFFFFF2
:1004E000FFFFFFFFFFFFFFFFFFFFFFFFFFFFFFFF1C
:1004F000FFFFFF0D006022196980008080808080EE
:1005000080800358682070A8A0A0A87020025969B4
:1005100030484040E0404048B00356668870505034
:10052000708802596988885050F820F820202219D4
:1005300069808080800080808080124A6A6090801C
:10054000609090601090601A3262A0A003596970A8
:1005500088A8D8C8D8A888700457677008788878A1
:1005600000F80356662850A0A05028045363F808EA
:1005700008163161E00359697088E8D8D8E8D8884E
:10058000700A5161F81744646090906003576720C7
:1005900020F8202000F807356540A02040E007350E
:1005A0006540A04020C02A226240800058688888A8
:1005B000888898E8808002596978E8E8E8E868283F
:1005C0002828262161C0202262408007356540C06E
:1005D0004040E0045767708888887000F8035666CA
:1005E000A050282850A0025A6A40C04040E0081895
:1005F000283808025A6A40C04040E01028081038E5
:10060000025A6A40A04020A04818283808025969B8
:10061000200020204080888870025A6A40200020F4
:10062000508888F88888025A6A10200020508888EC
:10063000F88888025A6A30480020508888F88888EC
:10064000025A6A28500020508888F88888025A6A1E
:1006500050500020508888F88888025A6A2050201C
:1006600020508888F8888802596958A0A0A0B0E076
:10067000A0A0B8005B6B708880808080808870202C
:1006800040025A6A402000F88080F08080F8025AC8
:100690006A102000F88080F08080F8025A6A3048A2
:1006A00000F88080F08080F8025A6A505000F8808C
:1006B00080F08080F8123A6A804000E0404040407C
:1006C00040E0123A6A204000E04040404040E012E2
:1006D0004A6A609000E04040404040E0123A6AA020
:1006E000A000E04040404040E0025969F0484848DE
:1006F000E8484848F0025A6A2850008888C8A898F4
:100700008888025A6A402000708888888888700229
:100710005A6A10200070888888888870025A6A3067
:10072000480070888888888870025A6A285000704B
:10073000888888888870025A6A5050007088888833
:100740008888700355658850205088015B6B08705D
:100750009898A8A8A8C8C87080025A6A4020008843
:10076000888888888870025A6A102000888888885B
:10077000888870025A6A304800888888888888701B
:10078000025A6A50500088888888888870025A6A9D
:100790001020008888502020202002596980F0888D
:1007A0008888F0808080025969609090A0A090882D
:1007B00088B002596940200070087888986802590A
:1007C00069102000700878889868025969304800DC
:1007D00070087888986802596928500070087888ED
:1007E0009868025969505000700878889868025AD1
:1007F0006A30483000700878889868025666702819
:1008000070A0A850005868708880808870204002CE
:1008100059694020007088F880887002596910205A
:10082000007088F88088700259693048007088F834
:100830008088700259695050007088F88088701262
:100840003969804000C040404040E0123969204092
:1008500000C040404040E0124969609000C0404004
:100860004040E0123969A0A000C040404040E00292
:100870005A6A5020601070888888887002596928E8
:100880005000B0C888888888025969402000708864
:10089000888888700259691020007088888888705C
:1008A0000259693048007088888888700259692820
:1008B000500070888888887002596950500070888C
:1008C00088888870035767202000F800202001588E
:1008D00068087098A8A8C8708002596940200088EC
:1008E00088888898680259691020008888888898C4
:1008F0006802596930480088888888986802596970
:10090000505000888888889868005B6B10200088A9
:1009100088889868088870005A6A8080B0C888887B
:10092000C8B08080005B6B50500088888898680849
:10093000887000000000250028002B000404040437
:100940000404040402020202020203030303030379
:100950000102040810204080010204081020010256
:100960000408102000000008000201000003040732
:100970000000000000000000B80CB40C11241FBEE1
:10098000CFEFD8E0DEBFCDBF11E0A0E0B1E0E8E6F8
:10099000F3E202C005900D92AA34B107D9F722E024
:1009A000AAE4B1E001C01D92A030B207E1F714E063
:1009B000CDEBD4E004C02197FE010E943B0FCC3B5D
:1009C000D107C9F70E94290D0C94A7110C940000BF
:1009D000FC0180819281980F92832181921760F4AB
:1009E00094819F5F94839381890F821710F08FEF1A
:1009F000820F838381E0089580E00895FC011282D4
:100A000080818150838314820895DB01ED91FC91F4
:100A1000099480E008950B96FC01849108950A964C
:100A2000FC0184910895FC01849108950E941305AE
:100A3000882321F0823011F083E0089586E0089544
:100A4000FC01E60FF11D849190E0982F88273196E4
:100A5000E4918E0F911D089568E00C94200566E0E6
:100A60000C9420054F925F926F927F928F929F928B
:100A7000AF92BF92CF92DF92EF92FF920F931F93AC
:100A8000CF93DF931F92CDB7DEB72C01E62EF42E65
:100A9000C22EDC0114960D911C911597C8010E947D
:100AA0001305D82EF201848195810E941605982E97
:100AB000F1E0DF1203C02FE0A22E02C0AA24AA9404
:100AC000D20114968D919C9115970E940F05D82EF6
:100AD000F201848195810E940B05B82ED2011496F3
:100AE0008D919C9115970E942C05B0E6BC1538F4A9
:100AF000009729F0080F191F91E6D92E11C0F201B5
:100B0000848195810E942F05F0E4FC1538F400974C
:100B100029F0080F191F81E4D82E02C00F5E1F4F65
:100B2000BC1480F4D20150961C92509753961C929C
:100B3000539754961C92549751961C9251975296E3
:100B40001C92A0C0BD1470F3892D90E0F80124918F
:100B50002F3F19F40F5F1F4F5AC0DC104FC0D20156
:100B600014968D919C9115970E94130598012F5F03
:100B70003F4FF801882311F08230E1F48491D201D3
:100B800053968C935397F901249154962C93549730
:100B9000F8013396E4915096EC935097F80134960F
:100BA000E4915196EC935197F8013596E491529661
:100BB000EC9320C08491982F9F709250D20152964E
:100BC0009C93529782958F7051968C935197F9010F
:100BD0002491822F8F7054968C93549722952F7066
:100BE00053962C935397F8013296E491E295EF7067
:100BF0005096EC930115110579F444C0F801329632
:100C0000E491EA219C012E0F311D020F131FDB140A
:100C100009F488CFD3949ACFF201848195810E9400
:100C20001605D20153963C91539754962C915497A4
:100C300051965C91519752969C915297920FF91A46
:100C40009FEF920F9F0DD4964C91D497D6966C91AE
:100C50006F1518F0941728F402C0941780F09F15B0
:100C600070F4E50E9FEF930F9E0DD201D3964C9139
:100C7000D397D5965C915E1538F4941738F4F20149
:100C800080893FC080E03DC0941710F49E15B8F7EE
:100C9000080F111D395F732E7694769476946F2C1D
:100CA000620E5201FCE1AF0EB11C872C912CF614A0
:100CB00031F35E2D68018C2D801B8715F0F4F60151
:100CC0008491D20112966D917C9113975C965C93FE
:100CD0005C975D96FC925D975F961C925F975E961F
:100CE0008C9395014BE3C20159830E940505BFEF28
:100CF000CB1ADB0A5981585FDECF080D191DF3941A
:100D0000D6CF0F90DF91CF911F910F91FF90EF9071
:100D1000DF90CF90BF90AF909F908F907F906F901B
:100D20005F904F9008952EE93FE0009729F0F90178
:100D30003197F1F70197F9CF08955091D201609161
:100D4000D1014091D0013091CF01A091CD01B0915E
:100D5000CE01E091CB01F091CC019FB79093CA01F5
:100D6000F89498E02C9187FF02C0252B01C0262320
:100D70002C932081242B2083880F20812323208300
:100D8000915081F78091CA018FBF0895282F30E0DC
:100D9000F901E45CF64FE491F0E0EE0FFF1FEE5C2A
:100DA000F64F859194919093CE018093CD0170E0A0
:100DB000FB01E45CF64F9491E92FF0E0EE0FFF1F8A
:100DC000EE5CF64F859194919093CC018093CB018A
:100DD000F901E05BF64F24912093D201FB01E05B27
:100DE000F64F64916093D00160956093CF01209598
:100DF0002093D1010895DB011496ED91FC91159794
:100E000020E030E065E00994DB011496ED91FC915F
:100E1000159720E030E062E00994DB011496ED9133
:100E2000FC91159720E030E063E00994CF92DF92C7
:100E3000EF92FF920F931F93CF93DF938C017B016F
:100E40006A0180E0F601C49181110BC0CF3F09F423
:100E50004CC04C2FB701C8010E94FB06811143C052
:100E600049C0CF3F11F44FEFF5CFCE3F09F444C056
:100E7000C03FC8F5C03E38F04C2F4F70B701C801D5
:100E80000E94040730C0C03D38F04C2F4F70B701AE
:100E9000C8010E940D0727C0C03CF8F0D701149686
:100EA000ED91FC91159720E030E040E064E0C8014E
:100EB0000995C295C07FCE5FD0E0CE010E94930617
:100EC000D7011496ED91FC91159720E030E041E0B8
:100ED00064E0C8010995CE0104C0C7FD04C08C2F91
:100EE00090E00E94930680E001C081E0BFEFCB1A42
:100EF000DB0AA8CF80E001C081E0DF91CF911F9194
:100F00000F91FF90EF90DF90CF900895CF92DF92F6
:100F1000EF92FF920F931F93CF93DF931F92CDB762
:100F2000DEB76C01DC01DC961C91DC97DB960C9142
:100F30007C01B4E0EB0EF11CDC015996ED91FC91C3
:100F40005A97C70169830995482F410F2981602F5E
:100F5000C7010E943205F60123AD082E000C990B43
:100F6000820F911D83AF81E090E00F90DF91CF91D0
:100F70001F910F91FF90EF90DF90CF9008958F9287
:100F80009F92AF92BF92CF92DF92FF920F931F93E7
:100F9000CF93DF9300D0CDB7DEB76C018B01F42E79
:100FA000490120E1421709F467C0241700F13AE033
:100FB000431729F18FE0481369C041E0C6010E9440
:100FC0000D0740E0B801C6010E94040741E8B801DE
:100FD000C6010E94FB06F4014081B801C6010E94CF
:100FE000FB0640E0B801C6010E940D0708C1A1E15F
:100FF0004A1709F444C0B5E14B1791F047C0DB0133
:101000001496ED91FC91159720E030E042E061E00C
:1010100009954CE950E0B801C6010E94160736C098
:10102000FB01A280B38044E950E00E941607D5017D
:1010300014964C91406BB801C6010E94FB0641E03A
:10104000B801C6010E940407F50126813781D80145
:101050001496ED91FC911597D50115964C9166E08B
:10106000C6010995811102C080E0CAC040E0B80104
:10107000C6010E940D070AC04BE850E002C040E8DC
:1010800050E0B801C6010E941607B9C0D8011296F7
:101090000D911C911397B2E3FB1609F474C0BF15B0
:1010A000B8F0E5E1FE1609F47BC0F7E1FF1609F49C
:1010B0008DC024E1F212A3C0D8011696ED91FC91E7
:1010C000179715968C919F01280F311DC90160C09B
:1010D00036E4F31609F48AC087E4F81609F48AC0E6
:1010E000ABE3FA128CC0F40181819381913029F035
:1010F000933031F4482F885004C048E0480F01C0B5
:10110000482F21E0D80113963C91381708F420E0CD
:1011100031E0F8015281451708F430E051E04817FA
:1011200008F050E0822F852B382319F4252309F489
:1011300066C0D4011296FC90913051F030F092309C
:1011400049F0933051F42FEF09C020E031E007C09F
:1011500021E004C020E03FEF02C020E030E0F7FED5
:1011600008C0B401C8012A8339830E949E0C3981CA
:101170002A81F4018081830F80838181820F8183A2
:10118000FF0C69F73CC0B401C8010E949E0C37C037
:101190001192E817F907E1F7C8010E94FE042FC079
:1011A000C8010E94E804882309F45ECFD80116968E
:1011B000ED91FC91179715968C919F01280F311D89
:1011C000C9011192E817F907E1F719C0D4011C927F
:1011D000F801828111968C93119785818150129626
:1011E0008C931297838113968C9309C0D80115961E
:1011F0008C9103C0D80111968C91F401808381E019
:101200000F900F90DF91CF911F910F91FF90DF9082
:10121000CF90BF90AF909F908F900895860F911DB3
:10122000FC0183A18F3F19F0642F0C94080C0895E2
:10123000CF92DF92EF92FF920F931F93CF93DF93A2
:101240001F92CDB7DEB76C018901862F90E0FC01BB
:101250003197E730F10508F07BC0EC5CFF4F0C9450
:101260003B0F760183E2E80EF11C8601005D1F4F03
:10127000F70120812F3F21F130E0F901E05BF64FCB
:101280004491F901E45CF64F24912223A1F030E06F
:10129000220F331FF901EA58FF4FA591B491F901CC
:1012A000EE5CF64F859194918FB7F8949C91E92F5D
:1012B000E42BEC938FBF61E0F70180810E94080C62
:1012C000FFEFEF1AFF0AE016F10691F640E064E046
:1012D000C6010E940E0940E065E012C0F60183A13C
:1012E0008F3FB1F160E031C0411103C041E062E0E5
:1012F0002CC040E064E0C6010E940E0940E062E0BC
:10130000C6010E940E09F60167A180A50E94C606CB
:101310001FC0842F0E949D061BC04423C9F0F80102
:1013200081918F0149830E949D0649814150F5CFEB
:10133000442371F0F801849149830E949D060F5F58
:101340001F4F49814150F4CF61E0C6010E940E0950
:1013500081E00F90DF91CF911F910F91FF90EF905F
:10136000DF90CF900895CF93DF93EC0188E291E076
:10137000998388838A819B810E94EA0F1B821A824B
:101380008E899F890E94EA0F888999890E94EA0FB5
:101390008A859B850E94EA0F8C819D81DF91CF9188
:1013A0000C94EA0FCF93DF93EC010E94B309CE01B6
:1013B000DF91CF910C94EA0FDC011696ED91FC9130
:1013C000179712968C91481B477081E090E001C0FE
:1013D000880F4A95EAF7E60FF11D3081222311F0BC
:1013E000832B02C08095832380830895EF92FF9220
:1013F0001F93CF93DF93EC01EE85FF85309709F0C3
:101400000995EA80FB80E9A9FAA982E00995E9A992
:10141000FAA981E0099520E030E045E1B701CE016D
:101420000E940505182F882341F09E012D5C3F4F37
:1014300047E1B701CE010E940505E9A9FAA980E0BC
:101440000995812FDF91CF911F91FF90EF90089523
:10145000EF92FF920F931F93CF93DF931F92CDB71D
:10146000DEB78C01DC011296ED90FC901397D196BB
:10147000ED91FC91D29782E0099520E030E04AE0BE
:10148000B701C8010E940505F82ED801D196ED914B
:10149000FC91D29783E00995D801D196ED91FC910A
:1014A000D29780E00995FF20A1F1F8016281738154
:1014B0009E012F5F3F4F46E4C8010E9405058981C8
:1014C000D8018C9312966D917C9113979E012F5F9A
:1014D0003F4F47E4C8010E9405058981F8018183D7
:1014E0006281738120E030E048E4C8010E94050574
:1014F000D8011B968C931B9798012D5C3F4F129639
:101500006D917C91139747E1C8010E94050581E028
:1015100001C080E00F90DF91CF911F910F91FF905C
:10152000EF9008950F931F93CF93DF93EC018B01FE
:10153000E9A9FAA982E00995E9A9FAA981E0099542
:1015400020E030E044E1B801CE010E9405059E0193
:101550002D5C3F4F47E1B801CE010E940505E9A986
:10156000FAA980E0DF91CF911F910F910994DC01DE
:1015700014962D913C9115972115310509F43FC022
:1015800057968C915797F901811108C03596E491CF
:101590005896EC935897F9013C9611C0813041F46C
:1015A0003F96E4915896EC935897F901709607C0CE
:1015B0003D96E4915896EC935897F9013E96E49144
:1015C0005996EC93599758968C915897082E000C81
:1015D000990B59962C915997821B910927FD939548
:1015E0005A962C915A97203441F0829FC0011124C1
:1015F00026E0969587952A95E1F75B968C9308955A
:10160000AF92BF92DF92EF92FF920F931F93CF930F
:10161000DF9300D0CDB7DEB77C01D62E042FDC01DE
:101620005596ED91FC91569729833A830995080FB9
:101630002981A22E3A81B32E10E0F50121915F019C
:10164000222341F0402F6D2DC7010E943205D80E94
:10165000180FF3CF812F0F900F90DF91CF911F9133
:101660000F91FF90EF90DF90BF90AF9008953FB73C
:10167000F8948091F8019091F901A091FA01B0914C
:10168000FB0126B5A89B05C02F3F19F00196A11DAF
:10169000B11D3FBFBA2FA92F982F8827820F911D08
:1016A000A11DB11DBC01CD0142E0660F771F881F4F
:1016B000991F4A95D1F70895CF92DF92EF92FF924A
:1016C0000F931F93CF93DF936C017A018B01C0E0DE
:1016D000D0E0CE15DF0589F0D8016D918D01D601DE
:1016E000ED91FC910190F081E02DC6010995892BC7
:1016F00011F47E0102C02196ECCFC701DF91CF919A
:101700001F910F91FF90EF90DF90CF900895089573
:101710000F931F93CF93DF9341155105E9F06115A6
:101720007105D1F0FC01248135812115310519F4B1
:10173000FB01108211C0EA0121972C173D0708F424
:10174000E9018B01FC0160817181AE01C8010E9439
:101750006111C00FD11F1882DF91CF911F910F919E
:1017600008950E944C11EF92FF920F931F93CF9315
:10177000DF93EC017B018A0188819981009729F030
:101780002A813B8124173507F8F4B8016F5F7F4F3A
:101790000E948210009759F0998388831B830A83E3
:1017A0002C813D81232B81F4FC0110820DC08881A6
:1017B0009981009711F00E94EA0F198218821D8208
:1017C0001C821B821A8207C01D830C83B70188818B
:1017D00099810E945A11CE01DF91CF911F910F91F3
:1017E000FF90EF900895FC01118210821382128203
:1017F000158214826115710551F0FB0101900020E2
:10180000E9F73197AF01461B570B0C94B30B0895C2
:1018100090E0FC01EC59F64F3491FC01E05BF64F8F
:101820002491FC01E45CF64FE491EE2309F43BC003
:10183000332339F1333091F038F43130A9F03230BC
:1018400001F584B58F7D12C0373091F03830A1F0AA
:101850003430B9F4809180008F7D03C08091800086
:101860008F77809380000DC084B58F7784BD09C0C9
:101870008091B0008F7703C08091B0008F7D8093FE
:10188000B000F0E0EE0FFF1FEE5CF64FA591B491B3
:101890008FB7F894EC91611103C020952E2301C0FD
:1018A0002E2B2C938FBF08951F920F920FB60F927D
:1018B00011242F933F938F939F93AF93BF93809166
:1018C000F4019091F501A091F601B091F7013091EA
:1018D000F30123E0230F2D3720F40196A11DB11D44
:1018E00005C026E8230F0296A11DB11D2093F30128
:1018F0008093F4019093F501A093F601B093F70162
:101900008091F8019091F901A091FA01B091FB0149
:101910000196A11DB11D8093F8019093F901A09348
:10192000FA01B093FB01BF91AF919F918F913F91CD
:101930002F910F900FBE0F901F901895FB014181C2
:10194000DC0112962C911297421768F013962C9195
:101950001397241740F0608115962C91621718F4A4
:1019600024810C94DC09089583ED91E00C94B30973
:10197000CF93DF9388E291E09093D4018093D301D9
:101980006CE371E087ED91E00E94F30B6CE371E092
:101990008DED91E00E94F30B6CE371E083EE91E03A
:1019A0000E94F30B6CE371E089EE91E00E94F30B6F
:1019B0008EE390E00E94550FEC011B821A8288E1B1
:1019C00091E0998388831BAE1CAE1DAE9E012C5FF7
:1019D0003F4F198618861B861A861D8681E08C87E4
:1019E00082E28E871B8A1A8AFE01B796CE01C596BF
:1019F0004FEF4193E817F907E1F791E09CA349E025
:101A000055E05A8F498F9B8F1C8E1D8E80E48E8FE0
:101A10001F8E87E89BE09EAB8DAB88E091E09F83B3
:101A20008E838AE08BA789E08CA78CE089A78BE066
:101A300088A788E08FA3C9010E94280A80E291E06C
:101A400099838883D093D601C093D501DF91CF913C
:101A50000895CF93DF9300D0CDB7DEB7789484B5E7
:101A6000826084BD84B5816084BD85B5826085BD9A
:101A700085B5816085BD80916E00816080936E0028
:101A8000109281008091810082608093810080911A
:101A900081008160809381008091800081608093CB
:101AA00080008091B10084608093B1008091B0008B
:101AB00081608093B00080917A00846080937A0086
:101AC00080917A00826080937A0080917A008160B0
:101AD00080937A0080917A00806880937A001092D7
:101AE000C10002EC10E099E0E92E95E0F92E80911A
:101AF000EF019091F001009721F0019709F441C0A6
:101B000036C1A090D501B090D601F50185AD950103
:101B10002C5F3F4F6901811105C031E035AFC6012F
:101B20000E94280AF50166817781C6010E94920A07
:101B3000C090D501D090D601C6010496F60120854B
:101B40003185225C304041F0F601118700870E9408
:101B5000B70AF601F28EE18E8091D5019091D601FF
:101B60002CE331E04DE06AE004960E94000B809186
:101B7000D5019091D60104960E94F6098111D8CF23
:101B8000F6C02DB73EB73A8329834AE050E06CE2B5
:101B900071E087ED91E00E94B30B45E050E067E310
:101BA00071E08DED91E00E94B30B47E050E06DE3F2
:101BB00071E083EE91E00E94B30B44E050E065E4F5
:101BC00071E089EE91E00E94B30B4091DB015091EE
:101BD000DC014F5F5F4F8DB79EB7841B950B0FB62F
:101BE000F8949EBF0FBE8DBFEDB7FEB731964F0183
:101BF0008091E1019091E20101962DB73EB7281B3B
:101C0000390B0FB6F8943EBF0FBE2DBF8DB79EB7F0
:101C100001965C018091E7019091E8010196EDB792
:101C2000FEB7E81BF90B0FB6F894FEBF0FBEEDBF71
:101C30002DB73EB72F5F3F4F69018091ED01909125
:101C4000EE010196E81BF90B0FB6F894FEBF0FBE2C
:101C5000EDBF2DB73EB72F5F3F4F1901B40187EDA0
:101C600091E00E94880B4091E1015091E2014F5FA9
:101C70005F4FB5018DED91E00E94880B4091E70127
:101C80005091E8014F5F5F4FB60183EE91E00E94F3
:101C9000880B4091ED015091EE014F5F5F4FB10114
:101CA00089EE91E00E94880B6090D5017090D6017A
:101CB000F30185AD93012C5F3F4F2901811105C0D0
:101CC00031E035AFC2010E94280AF30166817781B5
:101CD000C2010E94920A6090D5017090D601C301A2
:101CE0000496F30120853185225C304041F0F301F8
:101CF000118700870E94B70AF301F28EE18E80916E
:101D0000D5019091D60194014DE06AE004960E94BD
:101D1000000B8091D5019091D60195014DE06BE4C7
:101D200004960E94000B8091D5019091D6019601F6
:101D300046E268E204960E94000B8091D5019091E2
:101D4000D601910147E368E204960E94000B80915E
:101D5000D5019091D60104960E94F6098111BBCF5E
:101D600029813A810FB6F8943EBF0FBE2DBF31E4F2
:101D700030937C0080917A00806480937A00809117
:101D80007A0086FDFCCF809178002091790090E068
:101D9000922B6CE870E00E94270F6B017093F201A8
:101DA0006093F1010E94370B2B013C0182E8882EE1
:101DB000912CA12CB12C0E94370BDC01CB01841992
:101DC0009509A609B709883E9340A105B10558F0C9
:101DD00041E0841A9108A108B10888EE480E83E01A
:101DE000581E611C711C81149104A104B10419F7DF
:101DF000C114D10429F0F5E0CF16D10469F01FC059
:101E00008091EF019091F001019797FF0DC0109222
:101E1000F0011092EF0113C08091EF019091F00159
:101E20000196823091052CF49093F0018093EF019C
:101E300006C021E030E03093F0012093EF0180E014
:101E400090E0892B09F453CE0E94000050CE97FBFE
:101E5000072E16F4009407D077FD09D00E94410F99
:101E600007FC05D03EF4909581959F4F089570959D
:101E700061957F4F0895EE0FFF1F0590F491E02DBF
:101E80000994AA1BBB1B51E107C0AA1FBB1FA617C1
:101E9000B70710F0A61BB70B881F991F5A95A9F713
:101EA00080959095BC01CD010895CF93DF9382304A
:101EB000910510F482E090E0E091FE01F091FF01C5
:101EC00020E030E0C0E0D0E0309711F14081518156
:101ED00048175907C0F04817590761F48281938168
:101EE000209719F09B838A832BC09093FF018093E6
:101EF000FE0126C02115310519F04217530718F4C9
:101F00009A01BE01DF01EF010280F381E02DDCCFF9
:101F10002115310509F1281B390B2430310590F4C6
:101F200012968D919C9113976115710521F0FB011B
:101F30009383828304C09093FF018093FE01FD018F
:101F4000329644C0FD01E20FF31F8193919322501A
:101F500031092D933C933AC02091FC013091FD0151
:101F6000232B41F420911001309111013093FD0198
:101F70002093FC0120910E0130910F0121153105B4
:101F800041F42DB73EB74091120150911301241B2B
:101F9000350BE091FC01F091FD01E217F307A0F48D
:101FA0002E1B3F0B2817390778F0AC014E5F5F4FAF
:101FB0002417350748F04E0F5F1F5093FD014093E3
:101FC000FC018193919302C0E0E0F0E0CF01DF914A
:101FD000CF9108950F931F93CF93DF93009709F448
:101FE0008CC0FC013297138212820091FE01109185
:101FF000FF010115110581F420813181820F931FAA
:102000002091FC013091FD012817390779F5F093F3
:10201000FD01E093FC0171C0D80140E050E0AE1733
:10202000BF0750F412962D913C911397AD012115E5
:10203000310509F1D901F3CF9D01DA013383228300
:1020400060817181860F971F8217930769F4EC01F5
:1020500028813981260F371F2E5F3F4F3183208320
:102060008A819B8193838283452B29F4F093FF011E
:10207000E093FE0142C01396FC93EE931297ED019C
:10208000499159919E01240F351FE217F30771F40E
:1020900080819181840F951F029611969C938E9357
:1020A0008281938113969C938E931297E0E0F0E0E7
:1020B000D80112968D919C911397009719F0F80111
:1020C0008C01F6CF8D919C9198012E5F3F4F820F2E
:1020D000931F2091FC013091FD012817390769F405
:1020E000309729F41092FF011092FE0102C0138272
:1020F00012821093FD010093FC01DF91CF911F919B
:102100000F910895A0E0B0E0E8E8F0E10C947411BC
:10211000EC01009721F4CB010E94550FB8C0FC01DF
:10212000E60FF71F9C0122503109E217F30708F46C
:10213000ACC0D9010D911C91119706171707B0F08B
:102140000530110508F49FC0C8010497861797074A
:1021500008F499C002501109061B170B0193119343
:102160006D937C93CF010E94EA0F8DC05B01A01A92
:10217000B10A4C01800E911EA091FE01B091FF01A9
:1021800040E050E0E12CF12C109709F44AC0A8156A
:10219000B905D1F56D907C901197630182E0C80E6E
:1021A000D11CCA14DB0480F1A3014A195B096A013E
:1021B00082E0C80ED11C1296BC9012971396AC9177
:1021C000B5E0CB16D10440F0B282A38351834083A3
:1021D000D9016D937C930AC00E5F1F4FC301800F1E
:1021E000911FF90191838083EB2DFA2FE114F10403
:1021F00031F0D7011396FC93EE93129744C0F093FD
:10220000FF01E093FE013FC08D919C91119748170B
:10221000590708F4AC017D0112960D90BC91A02DD8
:10222000B3CF8091FC019091FD0188159905E1F4EF
:1022300046175707C8F480910E0190910F0100973F
:1022400041F48DB79EB74091120150911301841B48
:10225000950BE817F907C8F4F093FD01E093FC0132
:10226000F901718360830FC0CB010E94550F7C017F
:10227000009759F0A801BE010E945111CE010E94A1
:10228000EA0FC70104C0CE0102C080E090E0CDB7E4
:10229000DEB7EEE00C94901181E090E0F8940C949D
:1022A000A711FB01DC0102C001900D92415050408A
:1022B000D8F70895FB01DC0101900D920020E1F7B1
:1022C0000895FB01DC014150504048F001900D920F
:1022D0000020C9F701C01D9241505040E0F7089519
:1022E0002F923F924F925F926F927F928F929F9226
:1022F000AF92BF92CF92DF92EF92FF920F931F9314
:10230000CF93DF93CDB7DEB7CA1BDB0B0FB6F894C4
:10231000DEBF0FBECDBF09942A88398848885F8404
:102320006E847D848C849B84AA84B984C884DF8075
:10233000EE80FD800C811B81AA81B981CE0FD11D59
:102340000FB6F894DEBF0FBECDBFED01089514E0C7
:10235000CDEBD4E004C0FE010E943B0F2196CE3BA2
:08236000D107C9F7F894FFCF83
:102368000840000000804A01BF070001180900006A
:10237800000280000000000086075C0B00000000DF
:1023880086075C0B00000000B309D20931322E30F9
:10239800332E323031360031353A333000417574DE
:0A23A8006F2F414C00323220430039
:00000001FF
