:100000000C946C080C9494080C9494080C94940828
:100010000C9494080C9494080C9494080C949408F0
:100020000C9494080C9494080C9494080C949408E0
:100030000C9494080C9494080C9494080C949408D0
:100040000C94A9140C9494080C9494080C9494089F
:100050000C9494080C9494080C9494080C949408B0
:100060000C9494080C949408A9191C1AEC19E6191C
:10007000011A051A101A3E1B411B441B471B4A1B41
:100080004D1B501B531B561B01060D00FE0901663C
:1000900002D620FFFE0BFE0AFE0D006022196980C9
:1000A0008080808080800080183363A0A0A00357E8
:1000B000675050F850F850500259692078A0A0704D
:1000C0002828F02002596948A85010204050A890D4
:1000D00002586840A0A040A09890682813638080D0
:1000E00080113B6B20404080808080804040201108
:1000F0003B6B8040402020202020404080065565FA
:1001000020A870A8200455652020F8202011336312
:10011000604080065161F811336340E04002596944
:1001200008081010204040808002596920508888BB
:1001300088888850200259692060A0202020202033
:10014000F80259697088880810204080F8025969BF
:10015000F808102070080888700259691010305093
:100160005090F81010025969F88080B0C8080888CB
:100170007002596970888080F08888887002596997
:10018000F808101020204040400259697088888883
:10019000708888887002596970888888780808880B
:1001A0007011386840E040000040E040113868407D
:1001B000E040000060408002596908102040804003
:1001C000201008045464F80000F8025969804020A7
:1001D000100810204080025969708888081020207B
:1001E000002002596970888898A8A8B080780259C0
:1001F000692050888888F8888888025969F04848BA
:100200004870484848F00259697088808080808032
:100210008870025969F048484848484848F00259EF
:1002200069F8808080F0808080F8025969F88080C9
:1002300080F08080808002596970888080809888F2
:10024000887002596988888888F88888888812396F
:1002500069E040404040404040E002596938101099
:10026000101010109060025969888890A0C0A0906A
:1002700088880259698080808080808080F8025957
:10028000698888D8A8A88888888802596988C8C8D1
:10029000A8A898988888025969708888888888886A
:1002A0008870025969F0888888F080808080015ABF
:1002B0006A70888888888888A87008025969F088D8
:1002C0008888F0A0908888025969708880807008BA
:1002D000088870025969F820202020202020200260
:1002E00059698888888888888888700259698888C8
:1002F0008888505050202002596988888888A8A88A
:10030000A8A8500259698888505020505088880207
:100310005969888850502020202020025969F80807
:10032000101020404080F8113B6BE080808080807E
:1003300080808080E0025969808040402010100851
:1003400008113B6BE0202020202020202020E00806
:100350005363205088015161F82A2262804002567E
:1003600066700878889868025969808080F088886B
:100370008888F00256667088808088700259690803
:1003800008087888888888780256667088F8808897
:100390007002596930484040F04040404000586881
:1003A0007088888878088870025969808080B0C811
:1003B000888888881238684000C040404040E0008B
:1003C0004A6A100030101010109090600259698035
:1003D000808090A0C0A09088123969C04040404001
:1003E000404040E0025666D0A8A8A8A888025666F9
:1003F000B0C88888888802566670888888887000A7
:100400005868F0888888F0808080005868788888EC
:100410008878080808025666B0C880808080025636
:10042000667088601088700258684040F040404014
:100430004830025666888888889868025666888898
:10044000885050200256668888A8A8A85002566690
:1004500088502020508800586888888898680888C4
:1004600070025666F810204080F8015B6B1820205F
:100470002020C020202020182219698080808080C0
:1004800080808080015B6BC02020202018202020ED
:1004900020C008536348A890FFFFFFFFFFFFFFFF46
:1004A000FFFFFFFFFFFFFFFFFFFFFFFFFFFFFFFF5C
:1004B000FFFFFFFFFFFFFFFFFF0D006022196980B4
:1004C00000808080808080800358682070A8A0A071
:1004D000A8702002596930484040E0404048B003CD
:1004E000566688705050708802596988885050F854
:1004F00020F8202022196980808080008080808000
:10050000124A6A609080609090601090601A326227
:10051000A0A00359697088A8D8C8D8A888700457C3
:1005200067700878887800F80356662850A0A050B5
:1005300028045363F80808163161E003596970888C
:10054000E8D8D8E8D888700A5161F81744646090F8
:1005500090600357672020F8202000F80735654099
:10056000A02040E007356540A04020C02A2262401C
:10057000800058688888888898E88080025969785F
:10058000E8E8E8E868282828262161C0202262409F
:100590008007356540C04040E00457677088888810
:1005A0007000F8035666A050282850A0025A6A40EE
:1005B000C04040E00818283808025A6A40C040404D
:1005C000E01028081038025A6A40A04020A04818BD
:1005D000283808025969200020204080888870024D
:1005E0005A6A40200020508888F88888025A6A1089
:1005F000200020508888F88888025A6A30480020F5
:10060000508888F88888025A6A28500020508888C4
:10061000F88888025A6A50500020508888F88888E4
:10062000025A6A20502020508888F8888802596928
:1006300058A0A0A0B0E0A0A0B8005B6B708880803C
:1006400080808088702040025A6A402000F88080B4
:10065000F08080F8025A6A102000F88080F08080D4
:10066000F8025A6A304800F88080F08080F8025A18
:100670006A505000F88080F08080F8123A6A80401A
:1006800000E04040404040E0123A6A204000E04034
:1006900040404040E0124A6A609000E040404040E4
:1006A00040E0123A6AA0A000E04040404040E00232
:1006B0005969F0484848E8484848F0025A6A2850C2
:1006C000008888C8A8988888025A6A4020007088E4
:1006D0008888888870025A6A102000708888888804
:1006E0008870025A6A30480070888888888870024A
:1006F0005A6A28500070888888888870025A6A5020
:10070000500070888888888870035565885020500C
:1007100088015B6B08709898A8A8A8C8C870800268
:100720005A6A40200088888888888870025A6A102F
:10073000200088888888888870025A6A3048008833
:10074000888888888870025A6A505000888888880B
:10075000888870025A6A1020008888502020202043
:1007600002596980F0888888F08080800259696029
:100770009090A0A0908888B002596940200070082D
:1007800078889868025969102000700878889868FD
:1007900002596930480070087888986802596928B9
:1007A00050007008788898680259695050007008A5
:1007B00078889868025A6A304830007008788898BB
:1007C00068025666702870A0A8500058687088802B
:1007D00080887020400259694020007088F8808825
:1007E000700259691020007088F880887002596979
:1007F0003048007088F88088700259695050007045
:1008000088F8808870123969804000C040404040BC
:10081000E0123969204000C040404040E012496980
:10082000609000C040404040E0123969A0A000C084
:1008300040404040E0025A6A50206010708888882A
:100840008870025969285000B0C888888888025981
:1008500069402000708888888870025969102000DB
:100860007088888888700259693048007088888844
:1008700088700259692850007088888888700259E9
:10088000695050007088888888700357672020005E
:10089000F8002020015868087098A8A8C870800245
:1008A0005969402000888888889868025969102012
:1008B0000088888888986802596930480088888844
:1008C000889868025969505000888888889868001C
:1008D0005B6B1020008888889868088870005A6AC6
:1008E0008080B0C88888C8B08080005B6B505000A2
:1008F000888888986808887001060A00FE07013613
:10090000026820FFFE08FE07FE0A006022176780CB
:10091000808080800080163363A0A0A002576750BB
:1009200050F850F850500257672070A0702870207F
:1009300002576748A8502050A89002576740A0A0CF
:1009400040A890682613638080801237672040801B
:10095000808040201237678040202020408003554F
:10096000658850F850880355652020F82020113301
:1009700063604080055161F811336340E0400257E5
:1009800067080810204080800257672050888888B8
:1009900050200257672060A0202020F8025767707F
:1009A0008808304080F8025767F8081030088870CF
:1009B00002576710305090F81010025767F880B057
:1009C000C8088870025767304080B0C888700257E6
:1009D00067F80810102040400257677088887088B8
:1009E00088700257677088986808106011376740F0
:1009F000E0400040E04011376740E0400060408048
:100A000012476710204080402010045363F800F81C
:100A1000124767804020102040800257677088107E
:100A200020200020025767708898A8B08070025775
:100A30006720508888F88888025767F048487048CF
:100A400048F002576770888080808870025767F08E
:100A50004848484848F0025767F88080F08080F89E
:100A6000025767F88080F080808002576770888026
:100A700080988870025767888888F8888888123735
:100A800067E04040404040E00257673810101010C7
:100A900090600257678890A0C0A090880257678036
:100AA0008080808080F80257678888D8A8888888E6
:100AB0000257678888C8A89888880257677088880E
:100AC00088888870025767F08888F0808080015895
:100AD000687088888888A87008025767F08888F04E
:100AE000A0908802576770888070088870025767E6
:100AF000F82020202020200257678888888888884E
:100B0000700257678888885050502002576788883D
:100B100088A8A8D8880257678888502050888802FB
:100B2000576788885020202020025767F808102037
:100B30004080F8123767E08080808080E00257674D
:100B400080804020100808123767E02020202020F5
:100B5000E0065363205088015161F82822628040EA
:100B600002556570087888780257678080B0C88819
:100B7000C8B0025565708880887002576708086899
:100B8000988898680255657088F8807002576730B9
:100B90004840F0404040005767788888780888705F
:100BA0000257678080B0C88888881237674000C0C5
:100BB000404040E0104969100030101010909060E3
:100BC00002576780808890E09088123767C0404065
:100BD000404040E0025565D0A8A8A888025565B0FD
:100BE000C88888880255657088888870005767B003
:100BF000C888C8B0808000576768988898680808D7
:100C0000025565B0C880808002556570807008F01C
:100C10000257674040F04040483002556588888858
:100C2000986802556588885050200255658888A8C4
:100C3000A8500255658850205088005767888898CA
:100C400068088870025565F8102040F81247673030
:100C50004020C020403022176780808080808080C4
:100C6000124767C02040304020C006536348A89018
:100C7000FFFFFFFFFFFFFFFFFFFFFFFFFFFFFFFF84
:100C8000FFFFFFFFFFFFFFFFFFFFFFFFFFFFFFFF74
:100C9000FF0A0060221767800080808080800157F3
:100CA000672078A0A0A07820025767304840E04035
:100CB00048B002556588705070880158688888501F
:100CC00020F820202022176780808000808080010B
:100CD00058687080E09048380870193161A0025758
:100CE000677088A8C8A888701346667090B05000D6
:100CF000F00265652448904824144262F0101541C2
:100D000061F00257677088E8C8C88870095161F8B7
:100D100016336340A0400256662020F82020F815C4
:100D2000456560902040F0154565E0106010E028B2
:100D300022624080015666888888C8B08002576762
:100D400078E8E86828282825116180202262408000
:100D500015356540C04040E01346666090906000E5
:100D6000F0026565904824489001696940C04040A0
:100D7000E40C143C0401696940C04040E8140408D4
:100D80001C015969C0204020C818287808025767FC
:100D9000200020204088700258684020708888F821
:100DA00088880258681020708888F88888025868F7
:100DB0002050708888F8888802586848B070888801
:100DC000F888880258685000708888F88888025827
:100DD000682050708888F888880267673C50909C2B
:100DE000F0909C0059697088808080887020400253
:100DF000586840F88080F08080F802586810F880C9
:100E000080F08080F802586820F88080F08080F8B8
:100E100002586850F88080F08080F812386880406E
:100E2000E040404040E01238682040E04040404010
:100E3000E012386840A0E040404040E0123868A02E
:100E400000E040404040E0025767F04848E848482A
:100E5000F0025868285088C8A898888802586840C6
:100E60002070888888887002586810207088888868
:100E70008870025868205070888888887002586886
:100E80002850708888888870025868500070888858
:100E9000888870025565885020508802576770987E
:100EA00098A8C8C8700258684020888888888870C8
:100EB00002586810208888888888700258682050F6
:100EC00000888888887002586850008888888888D8
:100ED00070025868102088885020202002576780B0
:100EE000F088F0808080025767708890A09088B06A
:100EF00002586840200070087888780258681020EE
:100F00000070087888780258682050007008788847
:100F1000780258682850007008788878025767501F
:100F20000070087888780258682050207008788807
:100F30007802656578147C907C005767708880889B
:100F40007020400258684020007088F88070025875
:100F5000681020007088F880700258682050007077
:100F600088F8807002576750007088F880701238D7
:100F700068804000C0404040E0123868408000C0B7
:100F8000404040E012386840A000C0404040E012BD
:100F90003767A000C0404040E0025767C03070880B
:100FA000888870025868285000B0C888888802581D
:100FB000684020007088888870025868102000708F
:100FC000888888700258682050007088888870026D
:100FD00058682850007088888870025767500070E1
:100FE000888888700355652000F8002002556578D0
:100FF00098A8C8F00258684020008888889868023D
:101000005868102000888888986802586820500026
:101010008888889868025767500088888898680090
:10102000596910208888986808887000586880F08E
:10103000888888F0808000596950008888986808FE
:10104000887000000000250028002B000404040420
:101050000404040402020202020203030303030362
:10106000010204081020408001020408102001023F
:10107000040810200000000800020100000304071B
:101080000000000000000000FFE0FFD1AFFF32FFD2
:10109000D0FFFEFFE0FFD1AEFFD0FFFEFFE0FFD1AB
:1010A0001000FFFEFFD0FFE0FFC1FFD1AED580A84A
:1010B0003FD300408D142000A1C8DA1281CFD9F1AE
:1010C000DB402EA4A6AFFFD0FFFE000000002400EE
:1010D00027002A00361D2E1D11241FBECFEFD8E099
:1010E000DEBFCDBF12E0A0E0B1E0E0E1F6E402C077
:1010F00005900D92A037B107D9F723E0A0E7B2E041
:1011000001C01D92A634B207E1F718E0CBE6D8E0A3
:1011100004C02197FE010E944F20CA36D107C9F7AB
:101120000E94EB1D0C94FB220C940000CF93DF93E4
:10113000EC0180E391E0998388838A819B810E94FE
:10114000FE201B821A82CE0146960E941714CE0101
:1011500040960E941714CE010A960E941714CE01E1
:101160000496DF91CF910C9417140F931F93CF9394
:10117000DF93EC0188E191E0998388838A8D9B8DD0
:101180000E94FE201B8E1A8E8E010E5F1F4F49F0AB
:101190006A96C017D10729F02697CE010E9417142E
:1011A000F8CFDF91CF911F910F910895CF93DF93E7
:1011B000EC010E94B508CE01DF91CF910C94FE2086
:1011C000CF92DF92EF92FF920F931F93CF93DF9313
:1011D0001F92CDB7DEB76C01DC01DC961C91DC9769
:1011E000DB960C917C01B4E0EB0EF11CDC0159960E
:1011F000ED91FC915A97C70169830995482F410FDA
:101200002981602FC7010E94BC17F60123AD082E6B
:10121000000C990B820F911D83AF81E090E00F903D
:10122000DF91CF911F910F91FF90EF90DF90CF90C2
:101230000895AF92BF92CF92DF92FF920F931F93C8
:10124000CF93DF9300D0CDB7DEB7F62E042F6C011D
:1012500044E0C40ED11CDC015996ED91FC915A97E3
:10126000C60129833A830995080F2981A22E3A8164
:10127000B32E10E0F50121915F01222341F0402FB0
:101280006F2DC6010E94BC17F80E180FF3CF812FE7
:101290000F900F90DF91CF911F910F91FF90DF90F2
:1012A000CF90BF90AF900895EF92FF920F931F934E
:1012B000CF93DF93EC018DAD8E010C5F1F4F811139
:1012C00005C081E08DAFC8010E94FA16EE80FF8054
:1012D000EDA9FEA982E00995EDA9FEA981E0099595
:1012E00020E030E044E1B701C8010E94C4169E012D
:1012F000295C3F4F47E1B701C8010E94C416EDA920
:10130000FEA980E0DF91CF911F910F91FF90EF90A8
:1013100009942F923F924F925F926F927F928F9299
:101320009F92AF92BF92CF92DF92EF92FF920F9374
:101330001F93CF93DF93CDB7DEB7C654D1400FB61E
:10134000F894DEBF0FBECDBF2DB63EB688E491E067
:101350009A838983CE018B965E012DEBA21A2EEF24
:10136000B20AF0E48F2EF1E09F2EA8E36A2EA1E0EE
:101370007A2ECC24CA94DC2C28E231E0FC01B6970A
:10138000918280827C0144E2E41AF108D70111962F
:101390007C926E921396DC92CE9212971596DC9206
:1013A000CE9214971796DC92CE9216971996DC92ED
:1013B000CE9218971B96DC92CE921A97BCE0EB0E59
:1013C000F11CE816F90611F78EE390E0CB5BDE4FD7
:1013D0002883C554D140CA5BDE4F3883C654D14000
:1013E0000E9469208C01FC011382128240E251E0CC
:1013F0005183408313AE14AE15AE2C0154E0450E5C
:10140000511CC2010E949E16E8E0F1E0D801179637
:10141000FC93EE931697FAE09B96FC939B9749E01A
:101420009C964C939C975CE099965C9399978BE083
:1014300098968C93989798E097969C93C2010E94F7
:10144000FA16CB5BDE4F2881C554D140CA5BDE4F14
:101450003881C654D140D8012D933C93F7011183B4
:101460000083C70188968A159B0509F087CF8EE314
:1014700090E00E9469208C01DC0113961C921E9260
:10148000129780E291E011969C938E93DB961C92CA
:10149000DB97DC961C92DC97DD961C927801B4E019
:1014A000EB0EF11CC7010E949E1688E091E0F80146
:1014B000978386838AE083A789E084A78CE081A74D
:1014C0008BE080A788E087A3C7010E94FA1688E214
:1014D00091E0D8018D939C931C830B83412C512C5C
:1014E0008B819C810E94540988E2849D8001859DA6
:1014F000100D11240A5F1F4FB201CE0101960E9408
:10150000211BCB80DC8068EF78E0C60104960E9446
:101510006417EEE17E2EE12CF12CADB6BEB648018B
:101520008E0C9F1CE1E0F0E0EC0FFD1F8E0E9F1E65
:10153000B401CE01835E9E4F0E94661BB401CE01B2
:101540008D5D9E4F0E94B51BB401CE01875D9E4FFD
:101550000E94311C6EE471E0CE01815D9E4F0E94BD
:101560004814BE01675D7E4FCE01815D9E4F0E9493
:1015700090136CE471E00E947713BE016D5D7E4FA5
:101580000E9490136EE471E00E947713BE01635EC7
:101590007E4F0E9490136EE471E00E947713CB5C43
:1015A000DE4F19821882C553D140C95CDE4F1982C3
:1015B0001882C753D140C75CDE4F19821882C953C5
:1015C000D140BC01CE018B5C9E4F0E940014CE0125
:1015D000815D9E4F0E941714CE01875D9E4F0E9431
:1015E0001714CE018D5D9E4F0E941714CE01835EAD
:1015F0009E4F0E941714C75CDE4F48815981C95322
:10160000D1404F5F5F4F2DB73EB7241B350B0FB650
:10161000F8943EBF0FBE2DBF8DB79EB701964C010B
:10162000BC01CE018B5C9E4F0E941F139401472D7D
:1016300061E0C6010E941909CE018B5C9E4F0E9499
:1016400017140FB6F894BEBE0FBEADBE9CE0E90EF7
:10165000F11CAEE07A0EB8E47B125FCF8B819C81E7
:1016600004960E94C816811147CF0E940C136CE8A3
:1016700070E00E943B208B010E94D51201151105DC
:1016800021F441145104A1F578C60230110541F04E
:101690000330110509F430C4012B09F021CF28C013
:1016A00088E2849D8001859D100D1124C55CDE4F6C
:1016B0001882CB53D140C12CD12CE12CF12CF80154
:1016C0003696CD5BDE4FF983E883C354D1402224A4
:1016D0002394312C2C0E3D1E200E311E9101245FCF
:1016E0003F4FC15CDE4F39832883CF53D14028C19F
:1016F00031E0431A5108F4CEB201CE0101960E94A6
:10170000211B4B815C81CF5BDE4F59834883C154E1
:10171000D14068EF78E0CA0104960E9464175E0128
:101720005BECA51A5EEFB50A6FE471E0C5010E949B
:101730004814C35CDE4F19821882CD53D1408EE12C
:10174000C45CDE4F8883CC53D140612C712C6FE494
:1017500071E0C5010E94E9136E147F0409F090C185
:1017600091E0C916D10409F4F0C0A2E0CA16D10470
:1017700009F430C160E571E0C5010E94D313BCE0FB
:10178000B69D4001B79D900C1124800E911EE6E09D
:101790008E0E911C21E030E02C0F3D1F820E931E17
:1017A000B401CE01835E9E4F0E94311CBE01635E78
:1017B0007E4FC5010E94E213CE01835E9E4F0E94C0
:1017C00017146DE372E0C5010E94D3136DE471E05C
:1017D000C5010E94D313B401CE01835E9E4F0E94C7
:1017E000B51BBE01635E7E4FC5010E94E213CE01B0
:1017F000835E9E4F0E9417146EE471E0C5010E9443
:10180000D313B401CE01835E9E4F0E94661BBE01BE
:10181000635E7E4FC5010E94E213CE01835E9E4F40
:101820000E9417146EE471E0C5010E94D313D50124
:1018300014964D915C9115974F5F5F4F8DB69EB694
:10184000EDB7FEB7E41BF50B0FB6F894FEBF0FBE65
:10185000EDBF2DB73EB72F5F3F4FB901C501CB5B41
:10186000DE4F2883C554D140CA5BDE4F3883C6544F
:10187000D1400E941F13CB5BDE4F2881C554D1405D
:10188000CA5BDE4F3881C654D140C45CDE4F48810C
:10189000CC53D14061E0CF5BDE4F88819981C15448
:1018A000D1400E9419090FB6F8949EBE0FBE8DBE9E
:1018B000FFEF6F1A7F0AC45CDE4F2881CC53D14002
:1018C000225FC45CDE4F2883CC53D140C35CDE4F23
:1018D00048815981CD53D140445F5F4FC35CDE4F97
:1018E00059834883CD53D140283409F030CFC50106
:1018F0000E9417148B819C8104960E94C816811146
:10190000FBCE0E940C136CE870E00E943B205B0150
:101910000E94D51255E0A516B10409F415C1C55CA5
:10192000DE4F9881CB53D140911115C1E1E0AE1645
:10193000B10409F4A9C20CF098C2AB2809F49EC204
:101940008B819C810E945409D7CE6EE471E0C50161
:101950000E94D3133CE0369D4001379D900C11242A
:10196000800E911E46E0840E911C81E090E08C0F69
:101970009D1F880E991EB401CE01835E9E4F0E946A
:10198000311CBE01635E7E4FC5010E94E213CE0191
:10199000835E9E4F0E94171462E571E0C5010E94AC
:1019A000D31360E571E0C5010E94D313B401CE01E9
:1019B000835E9E4F0E94B51BBE01635E7E4FC501D4
:1019C0000E94E213CE01835E9E4F0E9417146DE3C6
:1019D00072E014CF6EE471E0C5010E94D3139CE065
:1019E000969D4001979D900C1124800E911EA6E0BB
:1019F0008A0E911CE1E0F0E0EC0FFD1F8E0E9F1EA1
:101A0000B401CE01835E9E4F0E94311CBE01635E15
:101A10007E4FC5010E94E213CE01835E9E4F0E945D
:101A200017146CE471E0C5010E94D313B401CE0118
:101A3000835E9E4F0E94B51BBE01635E7E4FC50153
:101A40000E94E213CE01835E9E4F0E94171460E550
:101A500071E0C5010E94D313B401CE01835E9E4F95
:101A60000E94661BBE01635E7E4FC5010E94E213A9
:101A7000CE01835E9E4F0E9417146DE372E0D4CEB8
:101A8000CD5BDE4F88809980C354D140C35CDE4F6C
:101A900028813981CD53D140820E931E41E050E020
:101AA0004C0F5D1F840E951EB401CE01835E9E4FC8
:101AB0000E94661BB401CE018D5D9E4F0E94B51B36
:101AC000B401CE01875D9E4F0E94311C6EE471E02F
:101AD000CE01815D9E4F0E944814BE01675D7E4F1E
:101AE000CE01815D9E4F0E9490136CE471E00E94D4
:101AF0007713BE016D5D7E4F0E9490136EE471E01E
:101B00000E947713BE01635E7E4F0E9490136EE4C5
:101B100071E00E947713BC01C5010E940014CE0140
:101B2000815D9E4F0E941714CE01875D9E4F0E94DB
:101B30001714CE018D5D9E4F0E941714CE01835E57
:101B40009E4F0E94171473CEC55CDE4F8881CB5325
:101B5000D1408111B6C1E114F104F9F0D701119718
:101B60003D01C114D104A9F18CE08E9DF0018F9D3F
:101B7000F00D1124E00FF11F21E030E02C0F3D1F8C
:101B8000E20FF31F84859585019609F44CC080858A
:101B90009185019609F0EBC346C0C114D10409F444
:101BA000BFC0C15CDE4FA881B981CF53D1408D91B8
:101BB0009C91019609F499C1F10180859185019666
:101BC00009F049C031E0C55CDE4F3883CB53D140CA
:101BD000B7CE85E0A816B10431F58CE08E9DF001FA
:101BE0008F9DF00D1124E00FF11F81E090E08C0F2C
:101BF0009D1FE80FF91F84859585019609F485C11D
:101C00008CE08E9DF0018F9DF00D1124E00FF11FEF
:101C100021E030E02C0F3D1FE20FF31F80859185FE
:101C2000019609F472C18CE0869DF001879DF00D4C
:101C30001124E00FF11F21E030E02C0F3D1FE20FD7
:101C4000F31F84859585019609F441C180859185AE
:101C5000019631F443C1E5E0AE16B10409F470C059
:101C600021E0C216D10409F476C032E0C316D104D3
:101C700009F4C6C041E0A416B10409F0AFC16CE09C
:101C8000B62EBE9C6001BF9CD00C1124C00ED11E8C
:101C9000C6010696A1E0B0E0AC0FBD1F8A0F9B1FE6
:101CA0000E94F01C97012F5F3F4FB29EF001B39E40
:101CB000F00D1124E00FF11F41E050E04C0F5D1FCB
:101CC000E40FF51F8085918597FD81C1DA01AC0D88
:101CD000BD1D1A964D915C911B974817590751F4F9
:101CE0001E964D915C911F97848595858417950765
:101CF0002CF06DC1841795070CF0D5C14CE0429FC4
:101D0000C001439F900D1124800F911F0696A1E002
:101D1000B0E0AC0FBD1F8A0F9B1F0E94F01C57C183
:101D2000F5E0AF16B10409F0A5CFC15CDE4FA88184
:101D3000B981CF53D1408D919C91019609F4F3C2A2
:101D4000F10180859185019609F4EDC221E0C2166A
:101D5000D10409F006C351E0A516B10409F0B3C1DE
:101D60005CE0B52EBE9C6001BF9CD00C1124C00E5F
:101D7000D11EC6010696A1E0B0E0AC0FBD1F8A0FD0
:101D80009B1F0E94CC1C97012F5F3F4FB29ED0013A
:101D9000B39EB00D1124A00FB11FE1E0F0E0EC0FF5
:101DA000FD1FAE0FBF1F18968D919C91199797FD3F
:101DB00083C1E1E0F0E0EC0FFD1FEC0DFD1D42855D
:101DC00053854817590731F4468557851C968D91E0
:101DD0009C911D97841795070CF06EC14CE0429FB3
:101DE000C001439F900D1124800F911F069621E0A2
:101DF00030E02C0F3D1F820F931F0E94F01C5CC12E
:101E000081E0A816B10409F04AC28CE08E9DF00171
:101E10008F9DF00D1124E00FF11FA1E0B0E0AC0F99
:101E2000BD1FEA0FFB1F248535852F3F3F4F09F467
:101E30002FC2208531852F3F3F4F09F429C29701DA
:101E40002F5F3F4F829FF001839FF00D1124E00F21
:101E5000F11F21E030E02C0F3D1FE20FF31F8481C2
:101E6000958101969583848313C222E0A216B10462
:101E7000A1F033E0A316B104D9F062CD41E0C41A59
:101E8000D10808F05DCD15C281E0E81AF10808F02C
:101E900057CD42E0E42EF12C53CDAFEFEA1AFA0A07
:101EA000B3E0EB16F1040CF44BCDE12CF12C48CD52
:101EB000EFEFCE1ADE0AF3E0CF16D10409F040CDE1
:101EC000F8C0C55CDE4F1882CB53D14039CD41E01C
:101ED000C55CDE4F4883CB53D14032CD51E0C55C69
:101EE000DE4F5883CB53D1402BCD21E0C55CDE4F74
:101EF0002883CB53D14024CD4FEF441A540A57E0E6
:101F0000451651040CF4ECCAE9CA8CE0869DF00138
:101F1000879DF00D1124E00FF11F41E050E04C0FC0
:101F20005D1FE40FF51F84859585019629F4808552
:101F30009185019609F477CE2CE02E9DC0012F9D4E
:101F4000900D1124800F911F88248394912C8C0E66
:101F50009D1E880E991E269DF001279DF00D1124CF
:101F6000E00FF11FA1E0B0E0AC0FBD1FEA0FFB1FB7
:101F700026853785D4011D963C932E931C97428568
:101F8000538519965C934E9318971B965C934E93CA
:101F90001A971F963C932E931E970696E1E0F0E069
:101FA000EC0FFD1F8E0F9F1F0E94CC1CD4011E96AC
:101FB0008D919C911F97C3970CF435CEF401178631
:101FC0001686828593850196938782872CCEE1E0E1
:101FD000C55CDE4FE883CB53D1406BC0F2E0AF1657
:101FE000B10409F057C06CE06E9DF0016F9DF00DDB
:101FF0001124E00FF11FCF01069621E030E02C0FF5
:102000003D1F820F931F97012150310941E050E09D
:102010004C0F5D1FE40FF51F629FD001639FB00D51
:102020001124A00FB11FA40FB51F448555851E961E
:102030002D913C911F974217530799F520853185C3
:102040001A964D915C911B972417350751F58FEF28
:102050009FEF91878087938782879587848797876B
:10206000868797012F5F3F4F629FF001639FF00DBE
:102070001124E00FF11F41E050E04C0F5D1FE40F11
:10208000F51F9583848351E0C55CDE4F5883CB53A5
:10209000D1400FC021E0C55CDE4F2883CB53D14037
:1020A00008C00E94AB1C81E0C55CDE4F8883CB5327
:1020B000D140C12CD12C44CC91E0C55CDE4F98833B
:1020C000CB53D140A3C0A2E0AA16B10409F080C04E
:1020D0008CE08E9DF0018F9DF00D1124E00FF11F1B
:1020E00041E050E04C0F5D1FE40FF51F248535855E
:1020F000A70141505109849FD001859FB00D112443
:10210000A00FB11F41E050E04C0F5D1FA40FB51FA1
:102110001E964D915C911F972417350731F5408528
:1021200051851A966D917C911B9746175707E9F4D4
:102130002FEF3FEF3187208733872287358724872A
:1021400037872687A7014F5F5F4F849FF001859FE8
:10215000F00D1124E00FF11F41E050E04C0F5D1F26
:10216000E40FF51F358324834BC02F3F3F4F09F405
:1021700088C02CE02E9DF0012F9DF00D1124E00F62
:10218000F11F81E090E08C0F9D1FE80FF91F808503
:102190009185019609F467C0868597850A97978788
:1021A000868797FD37C02CE02E9DC0012F9D900D96
:1021B0001124800F911FE1E0F0E0EC0FFD1FE80F0C
:1021C000F91F40855185228533854217530739F021
:1021D000B1E0C55CDE4FB883CB53D14017C0468514
:1021E0005785248535854217530709F043C0069665
:1021F00041E050E04C0F5D1F840F951F0E94AB1C07
:1022000051E0C55CDE4F5883CB53D140CC24C394FE
:10221000D12C96CB8285938501979387828797FFF0
:102220001DC08FEF9FEF9187808793878287958767
:10223000848797878687A7014F5F5F4F249FF001B0
:10224000259FF00D1124E00FF11F21E030E02C0F4D
:102250003D1FE20FF31F95838483A5CF82E390E0B7
:1022600097878687A0CFA1E0C55CDE4FA883CB53BC
:10227000D140CCCFE1E0C55CDE4FE883CB53D14009
:10228000C5CF31E0C55CDE4F3883CB53D140BECFE4
:1022900091E0C55CDE4F9883CB53D14051CBB2E087
:1022A000AB16B10451F0A1E0C55CDE4FA883CB535F
:1022B000D14082E0C82ED12C43CB8CE08E9DF00122
:1022C0008F9DF00D1124E00FF11F41E050E04C0F05
:1022D0005D1FE40FF51F248535852F3F3F4FE1F04B
:1022E000208531852F3F3F4F09F4FFCD97012F5FA8
:1022F0003F4F829FF001839FF00D1124E00FF11FEB
:10230000A1E0B0E0AC0FBD1FEA0FFB1F84819581F7
:102310000197958384831EC0F1E0C55CDE4FF8838E
:10232000CB53D1400DCBC15CDE4FE881F981CF5357
:10233000D14011821082D10119961C921E921897D9
:102340008AE090E01F969C938E931E971B961C929A
:102350001E921A97B1E0C55CDE4FB883CB53D140D3
:10236000EFCA32E0C316D10409F49DCF83CC45E017
:10237000A416B10409F057CC43CCCE0101960E94BB
:102380002B1A0FB6F8943EBE0FBE2DBECA5BDE4FB1
:102390000FB6F894DEBF0FBECDBFDF91CF911F9176
:1023A0000F91FF90EF90DF90CF90BF90AF909F90F4
:1023B0008F907F906F905F904F903F902F900895F7
:1023C0003FB7F8948091350390913603A09137037D
:1023D000B091380326B5A89B05C02F3F19F0019690
:1023E000A11DB11D3FBFBA2FA92F982F8827820F9B
:1023F000911DA11DB11DBC01CD0142E0660F771FEB
:10240000881F991F4A95D1F70895CF92DF92EF92D6
:10241000FF920F931F93CF93DF936C017A018B018F
:10242000C0E0D0E0CE15DF0589F0D8016D918D01B7
:10243000D601ED91FC910190F081E02DC601099546
:10244000892B11F47E0102C02196ECCFC701DF91E8
:10245000CF911F910F91FF90EF90DF90CF90089553
:102460000895DC011696ED91FC91179712968C91C8
:10247000481B477081E090E001C0880F4A95EAF759
:10248000E60FF11D3081222311F0832B02C08095CD
:102490008323808308950E9460220F931F93CF931C
:1024A000DF93EC0188819981009729F02A813B8193
:1024B0002617370788F48B016F5F7F4F0E949621A4
:1024C000009761F0998388831B830A832C813D8167
:1024D000232B11F4FC01108281E001C080E0DF9128
:1024E000CF911F910F910895EF92FF920F931F9339
:1024F000CF93DF93FC01248135816115710511F4BF
:1025000080E019C041155105A9F07B01EC018A0159
:10251000020F131FB8010E944D12882389F32881EE
:1025200039818C819D81B701820F931F0E946E2299
:102530001D830C8381E0DF91CF911F910F91FF905C
:10254000EF900895CF93DF93EC01888199810097F4
:1025500011F00E94FE20198218821D821C821B82AB
:102560001A82DF91CF910895EF92FF920F931F93FC
:10257000CF93DF93EC017B018A01BA010E944D12D7
:10258000811104C0CE010E94A21207C01D830C83DA
:10259000B701888199810E946E22CE01DF91CF918F
:1025A0001F910F91FF90EF9008958F929F92AF929D
:1025B000BF92CF92DF92EF92FF920E94E0114B0107
:1025C0005C0182E8C82ED12CE12CF12C0E94E01194
:1025D000DC01CB0188199909AA09BB09883E9340FF
:1025E000A105B10558F021E0C21AD108E108F108AF
:1025F00088EE880E83E0981EA11CB11CC114D10482
:10260000E104F10419F7FF90EF90DF90CF90BF90B5
:10261000AF909F908F90089581E480937C0080918B
:102620007A00806480937A0080917A0086FDFCCFE6
:10263000809178002091790090E0922B08950F937B
:102640001F93CF93DF9341155105E9F06115710593
:10265000D1F0FC01248135812115310519F4FB01EC
:10266000108211C0EA0121972C173D0708F4E901F7
:102670008B01FC0160817181AE01C8010E9475224D
:10268000C00FD11F1882DF91CF911F910F91089534
:10269000DF92EF92FF920F931F93CF93DF93EC01A2
:1026A0008CA99EA99F30D8F08031C8F48BA98038BE
:1026B000B0F410E08FE0D82E0FEF7E018CE1E80E31
:1026C000F11C6A817B811C8FDD8E1F8E0E8F97011E
:1026D0004BE3CE010E94C416185F103891F7DF91CA
:1026E000CF911F910F91FF90EF90DF900895CF93BE
:1026F000DF93EC016115710561F0FB010190002091
:10270000E9F73197AF01461B570B0E9474128111F4
:1027100003C0CE010E94A212CE01DF91CF91089595
:10272000CF93DF93EC01FB0144815581608171817E
:102730000E947412811103C0CE010E94A212CE0128
:10274000DF91CF910895EF92FF920F931F93CF9354
:10275000DF93CDB7DEB728970FB6F894DEBF0FBE74
:10276000CDBF7C01CB014AE08E010F5F1F4FB80146
:102770000E948F22F80101900020E9F73197AF0104
:10278000401B510BB801C7010E94741228960FB666
:10279000F894DEBF0FBECDBFDF91CF911F910F9197
:1027A000FF90EF9008956115710551F0FB010190C4
:1027B0000020E9F73197AF01461B570B0C947412B8
:1027C00080E00895FB0144815581608171810C9402
:1027D0007412CF93DF93EC016115710559F0FB0181
:1027E00001900020E9F73197AF01461B570B0E947B
:1027F000B41202C00E94A212CE01DF91CF910895BF
:10280000CF93DF93EC01FB018617970761F060819E
:1028100071816115710529F0448155810E94B412BE
:1028200002C00E94A212CE01DF91CF910895FC0157
:10283000808191810C94FE200F931F93CF93DF939F
:10284000CDB7DEB762970FB6F894DEBF0FBECDBF2F
:102850008C01CB01F8011182108213821282158241
:10286000148250E0BE016F5F7F4F0E948422BE0140
:102870006F5F7F4FC8010E94E91362960FB6F8940C
:10288000DEBF0FBECDBFDF91CF911F910F91089595
:10289000FC0111821082138212821582148261154A
:1028A000710551F0FB0101900020E9F73197AF016C
:1028B000461B570B0C94B412089590E0FC01EC58A1
:1028C000FF4E3491FC01E05AFF4E2491FC01E45B81
:1028D000FF4EE491EE2309F43BC0332339F133304A
:1028E00091F038F43130A9F0323001F584B58F7DA4
:1028F00012C0373091F03830A1F03430B9F4809103
:1029000080008F7D03C0809180008F77809380004E
:102910000DC084B58F7784BD09C08091B0008F77DA
:1029200003C08091B0008F7D8093B000F0E0EE0F87
:10293000FF1FEE5BFF4EA591B4918FB7F894EC9119
:10294000611103C020952E2301C02E2B2C938FBF25
:1029500008951F920F920FB60F9211242F933F9359
:102960008F939F93AF93BF938091310390913203E4
:10297000A0913303B09134033091300323E0230F4F
:102980002D3720F40196A11DB11D05C026E8230FA7
:102990000296A11DB11D20933003809331039093C3
:1029A0003203A0933303B0933403809135039091A5
:1029B0003603A0913703B09138030196A11DB11DD4
:1029C0008093350390933603A0933703B093380375
:1029D000BF91AF919F918F913F912F910F900FBE1B
:1029E0000F901F901895FB014181DC0112962C91EC
:1029F0001297421768F013962C911397241740F002
:102A0000608115962C91621718F424810C94311270
:102A10000895FC0180819281980F92832181921701
:102A200060F494819F5F94839381890F821710F0E3
:102A30008FEF820F838381E0089580E00895FC0189
:102A400012828081815083831482089580E00895EA
:102A50000B96FC01849108950A96FC0184910895D7
:102A6000FC01849108950E943015882321F0823062
:102A700011F083E0089586E00895FC01E60FF11D52
:102A8000849190E0982F88273196E4918E0F911DC4
:102A9000089568E00C943D1566E00C943D158F9206
:102AA0009F92AF92BF92CF92DF92FF920F931F93AC
:102AB000CF93DF9300D0CDB7DEB76C018B01F42E3E
:102AC000490120E1421709F467C0241700F13AE0F8
:102AD000431729F18FE0481369C041E0C6010E9405
:102AE000A81A40E0B801C6010E949F1A41E8B80147
:102AF000C6010E94961AF4014081B801C6010E94E5
:102B0000961A40E0B801C6010E94A81A08C1A1E1C6
:102B10004A1709F444C0B5E14B1791F047C0DB01F7
:102B20001496ED91FC91159720E030E042E061E0D1
:102B3000099544EA50E1B801C6010E94B11A36C0B5
:102B4000FB01A280B3804CE950E10E94B11AD5018B
:102B500014964C91406BB801C6010E94961A41E050
:102B6000B801C6010E949F1AF50126813781D8015C
:102B70001496ED91FC911597D50115964C9166E050
:102B8000C6010995811102C080E0CAC040E0B801C9
:102B9000C6010E94A81A0AC043E950E102C048E8F1
:102BA00050E1B801C6010E94B11AB9C0D80112960D
:102BB0000D911C911397B2E3FB1609F474C0BF1575
:102BC000B8F0E5E1FE1609F47BC0F7E1FF1609F461
:102BD0008DC024E1F212A3C0D8011696ED91FC91AC
:102BE000179715968C919F01280F311DC90160C060
:102BF00036E4F31609F48AC087E4F81609F48AC0AB
:102C0000ABE3FA128CC0F40181819381913029F0F9
:102C1000933031F4482F885004C048E0480F01C079
:102C2000482F21E0D80113963C91381708F420E092
:102C300031E0F8015281451708F430E051E04817BF
:102C400008F050E0822F852B382319F4252309F44E
:102C500066C0D4011296FC90913051F030F0923061
:102C600049F0933051F42FEF09C020E031E007C064
:102C700021E004C020E03FEF02C020E030E0F7FE9A
:102C800008C0B401C8012A8339830E94F314398132
:102C90002A81F4018081830F80838181820F818367
:102CA000FF0C69F73CC0B401C8010E94F31437C09F
:102CB0001192E817F907E1F7C8010E941F152FC00C
:102CC000C8010E940915882309F45ECFD801169621
:102CD000ED91FC91179715968C919F01280F311D4E
:102CE000C9011192E817F907E1F719C0D4011C9244
:102CF000F801828111968C931197858181501296EB
:102D00008C931297838113968C9309C0D8011596E2
:102D10008C9103C0D80111968C91F401808381E0DD
:102D20000F900F90DF91CF911F910F91FF90DF9047
:102D3000CF90BF90AF909F908F900895FC01158227
:102D4000148217821682118681E0808782E2828750
:102D500017861686DF019396CF01C1962FEF2D932C
:102D6000A817B907E1F781E080A326E235E1368BA9
:102D7000258B878B108E118E80E4828F138E80E3DB
:102D800092E192AB81AB0895DB01ED91FC91099446
:102D9000EF92FF921F93CF93DF93EC01EE85FF85B7
:102DA000309709F00995EA80FB80E9A9FAA982E049
:102DB0000995E9A9FAA981E0099520E030E045E10B
:102DC000B701CE010E94C416182F882341F09E013E
:102DD0002D5C3F4F47E1B701CE010E94C416E9A91F
:102DE000FAA980E00995812FDF91CF911F91FF9083
:102DF000EF900895EF92FF920F931F93CF93DF937D
:102E00001F92CDB7DEB78C01DC011296ED90FC90DD
:102E10001397D196ED91FC91D29782E0099520E02D
:102E200030E04AE0B701C8010E94C416F82ED8016C
:102E3000D196ED91FC91D29783E00995D801D19676
:102E4000ED91FC91D29780E00995FF20A1F1F80166
:102E5000628173819E012F5F3F4F46E4C8010E944B
:102E6000C4168981D8018C9312966D917C91139729
:102E70009E012F5F3F4F47E4C8010E94C41689811D
:102E8000F80181836281738120E030E048E4C80169
:102E90000E94C416D8011B968C931B9798012D5C39
:102EA0003F4F12966D917C91139747E1C8010E94A4
:102EB000C41681E001C080E00F90DF91CF911F9197
:102EC0000F91FF90EF900895DC0114968D919C91E5
:102ED00015978617970709F44EC015967C936E9345
:102EE00014976115710509F440C057968C91579756
:102EF000FB01811108C03596E4915896EC935897E0
:102F0000FB013C9611C0813041F43F96E491589604
:102F1000EC935897FB01709607C03D96E491589644
:102F2000EC935897FB013E96649159966C93599790
:102F300058968C915897082E000C990B59962C9105
:102F40005997821B910927FD93955A962C915A9770
:102F5000203441F0829FC001112426E09695879588
:102F60002A95E1F75B968C935B9786E295E15696FE
:102F70009C938E93559708954F925F926F927F9294
:102F80008F929F92AF92BF92CF92DF92EF92FF9279
:102F90000F931F93CF93DF931F92CDB7DEB72C0112
:102FA000E62EF42EC22EDC0114960D911C9115977D
:102FB000C8010E943015D82EF201848195810E94AB
:102FC0003315982EF1E0DF1203C02FE0A22E02C0CD
:102FD000AA24AA94D20114968D919C9115970E94CF
:102FE0002C15D82EF201848195810E942815B82EC7
:102FF000D20114968D919C9115970E944915B0E6C7
:10300000BC1538F4009729F0080F191F91E6D92E46
:1030100011C0F201848195810E944C15F0E4FC15E9
:1030200038F4009729F0080F191F81E4D82E02C048
:103030000F5E1F4FBC1480F4D20150961C92509723
:1030400053961C92539754961C92549751961C92E7
:10305000519752961C92A0C0BD1470F3892D90E038
:10306000F80124912F3F19F40F5F1F4F5AC0DC1055
:103070004FC0D20114968D919C9115970E943015E6
:1030800098012F5F3F4FF801882311F08230E1F45F
:103090008491D20153968C935397F90124915496BD
:1030A0002C935497F8013396E4915096EC935097F3
:1030B000F8013496E4915196EC935197F8013596C6
:1030C000E4915296EC9320C08491982F9F70925077
:1030D000D20152969C93529782958F7051968C9301
:1030E0005197F9012491822F8F7054968C935497A5
:1030F00022952F7053962C935397F8013296E491B2
:10310000E295EF705096EC930115110579F444C0E7
:10311000F8013296E491EA219C012E0F311D020F35
:10312000131FDB1409F488CFD3949ACFF201848162
:1031300095810E943315D20153963C915397549632
:103140002C91549751965C91519752969C9152971D
:10315000920FF91A9FEF920F9F0DD4964C91D4972E
:10316000D6966C916F1518F0941728F402C0941736
:1031700080F09F1570F4E50E9FEF930F9E0DD20126
:10318000D3964C91D397D5965C915E1538F49417ED
:1031900038F4F20180893FC080E03DC0941710F4FC
:1031A0009E15B8F7080F111D395F732E769476942B
:1031B00076946F2C620E5201FCE1AF0EB11C872C8D
:1031C000912CF61431F35E2D68018C2D801B871530
:1031D000F0F4F6018491D20112966D917C911397CF
:1031E0005C965C935C975D96FC925D975F961C92F3
:1031F0005F975E968C9395014BE3C20159830E94C1
:10320000C416BFEFCB1ADB0A5981585FDECF080D19
:10321000191DF394D6CF0F90DF91CF911F910F918D
:10322000FF90EF90DF90CF90BF90AF909F908F90E6
:103230007F906F905F904F9008952EE93FE0009748
:1032400029F0F9013197F1F70197F9CF08955091DD
:1032500041036091400340913F0330913E03A091B0
:103260003C03B0913D03E0913A03F0913B039FB7DB
:1032700090933903F89498E02C9187FF02C0252B96
:1032800001C026232C932081242B2083880F2081AA
:1032900023232083915081F7809139038FBF0895B4
:1032A000282F30E0F901E45BFF4EE491F0E0EE0FEF
:1032B000FF1FEE5BFF4E8591949190933D038093A9
:1032C0003C0370E0FB01E45BFF4E9491E92FF0E0DA
:1032D000EE0FFF1FEE5BFF4E8591949190933B03A1
:1032E00080933A03F901E05AFF4E24912093410361
:1032F000FB01E05AFF4E649160933F036095609339
:103300003E0320952093400308950895860F911D54
:10331000FC0183A18F3F19F0642F0C945D14089574
:10332000CF92DF92EF92FF920F931F93CF93DF9391
:103330001F92CDB7DEB76C018901862F90E0FC01AA
:103340003197E730F10508F07BC0EC5CFF4F0C943F
:103350004F20760183E2E80EF11C8601005D1F4FCD
:10336000F70120812F3F21F130E0F901E05AFF4EB3
:103370004491F901E45BFF4E24912223A1F030E057
:10338000220F331FF901E653FF4EA591B491F901C5
:10339000EE5BFF4E859194918FB7F8949C91E92F45
:1033A000E42BEC938FBF61E0F70180810E945D14F4
:1033B000FFEFEF1AFF0AE016F10691F640E064E035
:1033C000C6010E94861940E065E012C0F60183A1A3
:1033D0008F3FB1F160E031C0411103C041E062E0D4
:1033E0002CC040E064E0C6010E94861940E062E023
:1033F000C6010E948619F60167A180A50E94501996
:103400001FC0842F0E9427191BC04423C9F0F80154
:1034100081918F0149830E94271949814150F5CF3D
:10342000442371F0F801849149830E9427190F5FAA
:103430001F4F49814150F4CF61E0C6010E948619B7
:1034400081E00F90DF91CF911F910F91FF90EF904E
:10345000DF90CF9008950F931F93CF93DF93EC01EC
:1034600088E491E0998388838A819B810E94FE2071
:103470001B821A828E010C5F1F4F71F0C45EDE4FFB
:10348000C017D10749F0A897E881F9810190F08130
:10349000E02DCE010995F4CFDF91CF911F910F91CF
:1034A0000895CF93DF93EC010E942B1ACE01DF9198
:1034B000CF910C94FE200F931F93CF93DF93EC01D9
:1034C00080E491E0998388838EA19FA10E94FE20D1
:1034D0001FA21EA28E010E5F1F4F69F0A696C01795
:1034E000D10749F02C97E881F9810190F081E02D16
:1034F000CE010995F4CFDF91CF911F910F910895DF
:10350000CF93DF93EC010E945B1ACE01DF91CF9144
:103510000C94FE200C94FE20CF93DF93EC010E94CC
:103520009608CE01DF91CF910C94FE20DB0114961A
:10353000ED91FC91159720E030E065E00994DB0106
:103540001496ED91FC91159720E030E062E009942B
:10355000DB011496ED91FC91159720E030E063E0DB
:103560000994CF92DF92EF92FF920F931F93CF9324
:10357000DF938C017B016A0180E0F601C491811127
:103580000BC0CF3F09F44CC04C2FB701C8010E94BB
:10359000961A811143C049C0CF3F11F44FEFF5CFC8
:1035A000CE3F09F444C0C03FC8F5C03E38F04C2FB0
:1035B0004F70B701C8010E949F1A30C0C03D38F05B
:1035C0004C2F4F70B701C8010E94A81A27C0C03CF9
:1035D000F8F0D7011496ED91FC91159720E030E0BA
:1035E00040E064E0C8010995C295C07FCE5FD0E09D
:1035F000CE010E941D19D7011496ED91FC911597EB
:1036000020E030E041E064E0C8010995CE0104C04B
:10361000C7FD04C08C2F90E00E941D1980E001C0FE
:1036200081E0BFEFCB1ADB0AA8CF80E001C081E0C8
:10363000DF91CF911F910F91FF90EF90DF90CF908E
:1036400008950F931F93CF93DF938C01EB01DC015F
:1036500012968D919C91139768E870E004960E94F1
:103660006417C930D10540F5FE01E55CFF4FD80174
:1036700012968D919C9113970C944F2025EA31E07E
:1036800017C02BEB31E014C021ED31E011C027EE63
:1036900031E00EC02DEF31E00BC023E132E008C075
:1036A00029E232E005C02FE332E002C025E532E036
:1036B0004DE060E00E941909F8018281938104962F
:1036C000DF91CF911F910F910C944813EF92FF92CD
:1036D0000F931F93CF93DF9300D000D000D0CDB7CE
:1036E000DEB78C017B016FE471E00E944814F701A2
:1036F000628573856F3FFFEF7F0731F46BE672E001
:10370000C8010E94D3131EC06A30710564F466E9D3
:1037100071E0C8010E94D313F70162857385C80167
:103720000E94A3130FC04AE0CE0101960E941C1410
:10373000BE016F5F7F4FC8010E94E213CE01019668
:103740000E94171462EA71E0C8010E94D313C801F5
:1037500026960FB6F894DEBF0FBECDBFDF91CF9196
:103760001F910F91FF90EF900895EF92FF920F93AA
:103770001F93CF93DF9300D000D000D0CDB7DEB73A
:103780008C017B016FE471E00E944814F701848191
:1037900095818F3FFFEF9F0731F46BE672E0C80120
:1037A0000E94E91320C00A9764F466E971E0C80139
:1037B0000E94D313F70164817581C8010E94A3138D
:1037C00012C0F701628173814AE0CE0101960E9426
:1037D0001C14BE016F5F7F4FC8010E94E213CE012F
:1037E00001960E9417146EE672E0C8010E94D3137E
:1037F000F701608571856F3FFFEF7F0731F46BE65E
:1038000072E0C8010E94D3131EC06A30710564F4CF
:1038100066E971E0C8010E94D313F70160857185E4
:10382000C8010E94A3130FC04AE0CE0101960E9476
:103830001C14BE016F5F7F4FC8010E94E213CE01CE
:1038400001960E941714C80126960FB6F894DEBFA1
:103850000FBECDBFDF91CF911F910F91FF90EF90E1
:103860000895EF92FF920F931F93CF93DF9300D0B1
:1038700000D000D0CDB7DEB78C017B016FE471E0E2
:103880000E944814F701628173816F3FFFEF7F0749
:1038900031F46BE672E0C8010E94D3131EC06A3097
:1038A000710564F466E971E0C8010E94D313F70161
:1038B00062817381C8010E94A3130FC04AE0CE0148
:1038C00001960E941C14BE016F5F7F4FC8010E94C9
:1038D000E213CE0101960E9417146EE672E0C80151
:1038E0000E94D313F701668177816F3FFFEF7F0757
:1038F00031F46BE672E0C8010E94D3131EC06A3037
:10390000710564F466E971E0C8010E94D313F70100
:1039100066817781C8010E94A3130FC04AE0CE01DF
:1039200001960E941C14BE016F5F7F4FC8010E9468
:10393000E213CE0101960E941714C80126960FB615
:10394000F894DEBF0FBECDBFDF91CF911F910F91D5
:10395000FF90EF900895FC01868197810A979783E5
:10396000868397FF18C08281938101979383828316
:1039700097FF0DC08FEF9FEF93838283958384839E
:10398000978386839187808793878287089582E3D0
:1039900090E0978386830895FC0186819781019644
:1039A000F1F0828193810196D1F080859185019615
:1039B00041F484819581019621F411861086158247
:1039C0001482808591850A9691878087CC9739F4F7
:1039D000848195810196958384831186108608954C
:1039E000CF93DF93EC018E819F81019641F48A8110
:1039F0009B81019621F41F821E821B821A828E8176
:103A00009F81892B39F48A819B81892B19F4CE01FE
:103A10000E94CC1C8E819F810A969F838E83CC97B7
:103A200039F48A819B8101969B838A831F821E823F
:103A30002A813B818C819D812817390761F4288573
:103A400039858E819F812817390729F4CE01DF91AE
:103A5000CF910C94CC1CDF91CF91089580EF92E030
:103A60000E94B50880E193E00C9496080F931F9391
:103A7000CF93DF9380E391E0909311038093100341
:103A80006FE471E084E193E00E9448146FE471E018
:103A90008AE193E00E9448146FE471E080E293E0D1
:103AA0000E9448146FE471E086E293E00E9448149B
:103AB0008EE390E00E946920EC011B821A8280E272
:103AC00091E0998388831BAE1CAE1DAE8E010C5F06
:103AD0001F4FC8010E949E1688E091E09F838E834D
:103AE0008AE08BA789E08CA78CE089A78BE088A768
:103AF00088E08FA3C8010E94FA1688E291E09983BA
:103B00008883D0931303C093120388E191E09093CC
:103B1000F1028093F002C0E0D0E06FE471E0CE01EA
:103B20008E509D4F0E9448142696C831D105A9F7A2
:103B30008EE390E00E946920EC011B821A8280E2F1
:103B400091E0998388831BAE1CAE1DAE8E010C5F85
:103B50001F4FC8010E949E1688E091E09F838E83CC
:103B60008AE08BA789E08CA78CE089A78BE088A7E7
:103B700088E08FA3C8010E94FA1688E291E0998339
:103B80008883D0930B03C0930A0310920D03109205
:103B90000C038FEF9FEF90930F0380930E0365E567
:103BA00071E082EF92E00E94E91363E671E088EF32
:103BB00092E00E94E91361E771E08EEF92E00E94CB
:103BC000E9136BE771E084E093E0DF91CF911F91FF
:103BD0000F910C94E913CF93DF9300D000D000D065
:103BE000CDB7DEB7789484B5826084BD84B581603A
:103BF00084BD85B5826085BD85B5816085BD8091B8
:103C00006E00816080936E0010928100809181002F
:103C10008260809381008091810081608093810027
:103C2000809180008160809380008091B1008460E9
:103C30008093B1008091B00081608093B00080914A
:103C40007A00846080937A0080917A008260809309
:103C50007A0080917A00816080937A0080917A0066
:103C6000806880937A001092C1000CE810E033E085
:103C7000432E512C80912C0390912D03813091057E
:103C800061F18230910519F426E0D22E82C1892B90
:103C900009F0BBC180911203909113030E94540953
:103CA000809112039091130368E870E004960E94DB
:103CB00064172FE431E04DE06AE0809112039091A7
:103CC00013030E9419098091120390911303049623
:103CD0000E94C8168111E4CF98C16DB67EB667E820
:103CE00071E084E193E00E94E91362E971E08AE106
:103CF00093E00E94E91368E971E080E293E00E949A
:103D0000E91360EA71E086E293E00E94E9134091D2
:103D10001803509119034F5F5F4F2DB73EB7241B17
:103D2000350B0FB6F8943EBF0FBE2DBF8DB79EB7B3
:103D300001964C0180911E0390911F030196281B50
:103D4000390B0FB6F8943EBF0FBE2DBF8DB79EB78F
:103D500001965C0180912403909125030196281B14
:103D6000390B0FB6F8943EBF0FBE2DBF8DB79EB76F
:103D700001966C0180912A0390912B030196281BD8
:103D8000390B0FB6F8943EBF0FBE2DBF8DB79EB74F
:103D900001967C01B40184E193E00E941F134091DD
:103DA0001E0350911F034F5F5F4FB5018AE193E0FF
:103DB0000E941F1340912403509125034F5F5F4FD2
:103DC000B60180E293E00E941F1340912A035091B4
:103DD0002B034F5F5F4FB70186E293E00E941F13F2
:103DE00080911203909113030E9454098091120351
:103DF0009091130368E870E004960E9464179401A0
:103E00004DE06AE080911203909113030E9419091A
:103E100095014DE06BE480911203909113030E9491
:103E20001909960146E268E280911203909113030A
:103E30000E941909970147E368E28091120390916B
:103E400013030E94190980911203909113030496A1
:103E50000E94C8168111CACF0FB6F8947EBE0FBE5D
:103E60006DBED3C080910A0390910B0368EF78E098
:103E700004960E9464176FE471E0CE0101960E94DF
:103E8000481482EFA82E82E0B82E9AE0C92EE12CC9
:103E9000F12C8DB69EB66FE471E0CE0101960E94C2
:103EA000E91380910C0390910D038E159F0509F085
:103EB00077C060E571E0CE0101960E94D313DE9CCD
:103EC000B001DF9C700D11246E507D4FCE01019624
:103ED0000E94E2136DE372E0CE0101960E94D313BB
:103EE0004D815E814F5F5F4F2DB73EB7241B350B71
:103EF0000FB6F8943EBF0FBE2DBF8DB79EB701968B
:103F00003C01BC01CE0101960E941F1393014C2D70
:103F10006AE080910A0390910B030E9419090FB681
:103F2000F8949EBE0FBE8DBE9FEFE91AF90A2FE0EE
:103F3000C20E36E0A30EB11C86E4C812AACFCE0191
:103F400001960E94171480910A0390910B03049626
:103F50000E94C816811186CF0E940C13B8010E94DE
:103F60003B2070930F0360930E030E94D512809143
:103F70000E0390910F038230910561F18530910518
:103F8000D9F10197D9F080910E0390910F03892BFD
:103F9000E1F180910A0390910B030E94540962CFD2
:103FA0006EE471E0CE0101960E94D313B501CE01FB
:103FB00001960E94E2136EE471E08ECF80910C03B3
:103FC00090910D03019797FF0DC050920D03409201
:103FD0000C03D9CF80910C0390910D03019684308E
:103FE00091052CF490930D0380930C03CCCF109289
:103FF0000D0310920C03C7CF80910C0390910D0319
:10400000892B09F60E948909BECF0E940C13B801C2
:104010000E943B207B0170932F0360932E030E942C
:10402000D512E114F10429F095E0E916F10469F0E4
:104030001AC080912C0390912D03019797FF0FC018
:1040400010922D0310922C030EC080912C0390919E
:104050002D0301968330910514F082E090E0909357
:104060002D0380932C0380E090E0892B09F402CE8D
:104070000E940000FCCD97FB072E16F4009407D099
:1040800077FD09D00E94552007FC05D03EF490959D
:1040900081959F4F0895709561957F4F0895EE0F1C
:1040A000FF1F0590F491E02D0994AA1BBB1B51E161
:1040B00007C0AA1FBB1FA617B70710F0A61BB70B98
:1040C000881F991F5A95A9F780959095BC01CD013D
:1040D0000895CF93DF938230910510F482E090E051
:1040E000E0914403F091450320E030E0C0E0D0E0EF
:1040F000309711F14081518148175907C0F0481796
:10410000590761F482819381209719F09B838A83F8
:104110002BC0909345038093440326C0211531059D
:1041200019F04217530718F49A01BE01DF01EF019D
:104130000280F381E02DDCCF2115310509F1281B28
:10414000390B2430310590F412968D919C91139780
:104150006115710521F0FB019383828304C0909364
:10416000450380934403FD01329644C0FD01E20FF4
:10417000F31F81939193225031092D933C933AC0C0
:104180002091420330914303232B41F420911001ED
:1041900030911101309343032093420320910E018B
:1041A00030910F012115310541F42DB73EB74091F3
:1041B000120150911301241B350BE0914203F09141
:1041C0004303E217F307A0F42E1B3F0B2817390710
:1041D00078F0AC014E5F5F4F2417350748F04E0F63
:1041E0005F1F50934303409342038193919302C016
:1041F000E0E0F0E0CF01DF91CF9108950F931F939E
:10420000CF93DF93009709F48CC0FC01329713829F
:10421000128200914403109145030115110581F4A8
:1042200020813181820F931F2091420330914303FB
:104230002817390779F5F0934303E093420371C0DF
:10424000D80140E050E0AE17BF0750F412962D9110
:104250003C911397AD012115310509F1D901F3CF37
:104260009D01DA013383228360817181860F971F5C
:104270008217930769F4EC0128813981260F371FD3
:104280002E5F3F4F318320838A819B81938382837A
:10429000452B29F4F0934503E093440342C0139661
:1042A000FC93EE931297ED01499159919E01240FD1
:1042B000351FE217F30771F480819181840F951FF8
:1042C000029611969C938E938281938113969C9370
:1042D0008E931297E0E0F0E0D80112968D919C91B8
:1042E0001397009719F0F8018C01F6CF8D919C91EE
:1042F00098012E5F3F4F820F931F20914203309110
:1043000043032817390769F4309729F410924503BD
:104310001092440302C0138212821093430300934D
:104320004203DF91CF911F910F910895A0E0B0E07B
:10433000ECE9F1E20C94C822EC01009721F4CB01E6
:104340000E946920B8C0FC01E60FF71F9C012250B3
:104350003109E217F30708F4ACC0D9010D911C91A3
:10436000119706171707B0F00530110508F49FC024
:10437000C80104978617970708F499C002501109DD
:10438000061B170B019311936D937C93CF010E9431
:10439000FE208DC05B01A01AB10A4C01800E911E57
:1043A000A0914403B091450340E050E0E12CF12C92
:1043B000109709F44AC0A815B905D1F56D907C9005
:1043C0001197630182E0C80ED11CCA14DB0480F18E
:1043D000A3014A195B096A0182E0C80ED11C12963A
:1043E000BC9012971396AC91B5E0CB16D10440F077
:1043F000B282A38351834083D9016D937C930AC019
:104400000E5F1F4FC301800F911FF90191838083BD
:10441000EB2DFA2FE114F10431F0D7011396FC9340
:10442000EE93129744C0F0934503E09344033FC0DA
:104430008D919C9111974817590708F4AC017D01A3
:1044400012960D90BC91A02DB3CF80914203909114
:10445000430388159905E1F446175707C8F480917E
:104460000E0190910F01009741F48DB79EB74091D6
:10447000120150911301841B950BE817F907C8F43A
:10448000F0934303E0934203F901718360830FC00B
:10449000CB010E9469207C01009759F0A801BE0160
:1044A0000E946522CE010E94FE20C70104C0CE01F9
:1044B00002C080E090E0CDB7DEB7EEE00C94E422DD
:1044C00081E090E0F8940C94FB22FB01DC0102C037
:1044D00001900D9241505040D8F70895FB01DC0146
:1044E00001900D920020E1F70895FB01DC0141509D
:1044F000504048F001900D920020C9F701C01D9274
:1045000041505040E0F708954532510520F44230C3
:1045100010F00C948F22FB011082CB010895BB2771
:104520004A3031F4992322F4BDE2909581959F4F52
:104530000C949B22BB27FB015527AA27880F991FA4
:10454000AA1FA41710F0A41B83955051B9F7A05DC2
:10455000AA3308F0A95DA193009779F7B111B1933F
:104560001192CB010C94B422DC01FC01672F7191F4
:104570007723E1F7329704C07C916D937083629149
:10458000AE17BF07C8F308952F923F924F925F92E4
:104590006F927F928F929F92AF92BF92CF92DF9253
:1045A000EF92FF920F931F93CF93DF93CDB7DEB7B8
:1045B000CA1BDB0B0FB6F894DEBF0FBECDBF09944C
:1045C0002A88398848885F846E847D848C849B84A3
:1045D000AA84B984C884DF80EE80FD800C811B81B1
:1045E000AA81B981CE0FD11D0FB6F894DEBF0FBEE0
:1045F000CDBFED01089518E0CBE6D8E004C0FE0180
:104600000E944F202196CC36D107C9F7F894FFCFEE
:1046100008400000008070024F1500019019000052
:104620004603800000000000B508D6080000000026
:10463000E008051200000000E0080512000000007C
:1046400096088C1A0000000085198A1A00000000E4
:104650005B1A801A000000002B1A511A202D20002E
:104660005B00202D005345542054494D4554414290
:104670004C450053455420444154452F54494D4521
:104680000053455420414C2F41460053455420537C
:10469000494D2F534D530031322E30332E323031AD
:1046A000360031353A3330004175746F2F414C007C
:1046B00032322043005B505D2055202053202043A0
:1046C00020205020205320204E20002050205B55D9
:1046D0005D205320204320205020205320204E20B6
:1046E000002050202055205B535D20432020502087
:1046F000205320204E2000205020205520205320E1
:104700005B435D205020205320204E20002050206D
:104710002055202053202043205B505D2053202033
:104720004E200020502020552020532020432020C0
:1047300050205B535D204E2000205020205520202B
:1047400053202043202050202053205B4E5D005BEF
:10475000505D5B555D5B535D5B435D5B505D20531E
:1047600020204E2000205020205520205320204380
:10477000202050205B535D5B4E5D002D2D003A00E4
:00000001FF
