:100000000C946C080C9494080C9494080C94940828
:100010000C9494080C9494080C9494080C949408F0
:100020000C9494080C9494080C9494080C949408E0
:100030000C9494080C9494080C9494080C949408D0
:100040000C9473110C9494080C9494080C949408D8
:100050000C9494080C9494080C9494080C949408B0
:100060000C9494080C949408410BB40B840B7E0BF5
:10007000990B9D0BA80B08150B150E1511151415D2
:1000800017151A151D152015000000002400270063
:100090002A00FFE0FFD1AFFF32FFD0FFFEFFE0FFFD
:1000A000D1AEFFD0FFFEFFE0FFD11000FFFEFFD07A
:1000B000FFE0FFC1FFD1AED580A83FD300408D1433
:1000C0002000A1C8DA1281CFD9F1DB402EA4A6AF5F
:1000D000FFD0FFFE01060D00FE09016602D620FFDB
:1000E000FE0BFE0AFE0D0060221969808080808070
:1000F00080800080183363A0A0A00357675050F899
:1001000050F850500259692078A0A0702828F0209B
:1001100002596948A85010204050A89002586840E1
:10012000A0A040A0989068281363808080113B6B4A
:100130002040408080808080404020113B6B804088
:1001400040202020202040408006556520A870A82F
:10015000200455652020F82020113363604080067C
:100160005161F811336340E04002596908081010EA
:1001700020404080800259692050888888888850B3
:10018000200259692060A02020202020F80259690F
:100190007088880810204080F8025969F8081020FB
:1001A0007008088870025969101030505090F8108B
:1001B00010025969F88080B0C8080888700259692F
:1001C00070888080F088888870025969F80810105B
:1001D000202040404002596970888888708888884B
:1001E00070025969708888887808088870113868A2
:1001F00040E040000040E04011386840E04000002E
:100200006040800259690810204080402010080496
:100210005464F80000F8025969804020100810204A
:1002200040800259697088880810202000200259F7
:100230006970888898A8A8B0807802596920508889
:100240008888F8888888025969F048484870484882
:1002500048F00259697088808080808088700259D7
:1002600069F048484848484848F0025969F8808091
:1002700080F0808080F8025969F8808080F080806A
:1002800080800259697088808080988888700259BF
:100290006988888888F888888888123969E04040A9
:1002A0004040404040E002596938101010101010D2
:1002B0009060025969888890A0C0A09088880259EF
:1002C000698080808080808080F80259698888D821
:1002D000A8A88888888802596988C8C8A8A8989852
:1002E0008888025969708888888888888870025947
:1002F00069F0888888F080808080015A6A708888D8
:1003000088888888A87008025969F0888888F0A0D1
:100310009088880259697088808070080888700207
:100320005969F8202020202020202002596988883F
:100330008888888888887002596988888888505099
:1003400050202002596988888888A8A8A8A8500247
:100350005969888850502050508888025969888887
:1003600050502020202020025969F8081010204009
:100370004080F8113B6BE0808080808080808080AE
:10038000E0025969808040402010100808113B6B42
:10039000E0202020202020202020E008536320504F
:1003A00088015161F82A22628040025666700878FE
:1003B000889868025969808080F088888888F0026F
:1003C00056667088808088700259690808087888A5
:1003D000888888780256667088F880887002596923
:1003E00030484040F040404040005868708888885D
:1003F00078088870025969808080B0C888888888A9
:100400001238684000C040404040E0004A6A100096
:10041000301010101090906002596980808090A078
:10042000C0A09088123969C040404040404040E040
:10043000025666D0A8A8A8A888025666B0C88888C0
:100440008888025666708888888870005868F088A6
:100450008888F080808000586878888888780808C4
:1004600008025666B0C88080808002566670886038
:100470001088700258684040F040404048300256B2
:1004800066888888889868025666888888505020D0
:100490000256668888A8A8A8500256668850202070
:1004A000508800586888888898680888700256665E
:1004B000F810204080F8015B6B1820202020C0201D
:1004C0002020201822196980808080808080808090
:1004D000015B6BC0202020201820202020C0085362
:1004E0006348A890FFFFFFFFFFFFFFFFFFFFFFFF35
:1004F000FFFFFFFFFFFFFFFFFFFFFFFFFFFFFFFF0C
:10050000FFFFFFFFFF0D00602219698000808080DF
:10051000808080800358682070A8A0A0A870200266
:10052000596930484040E0404048B0035666887002
:100530005050708802596988885050F820F820205F
:10054000221969808080800080808080124A6A60E1
:100550009080609090601090601A3262A0A0035961
:10056000697088A8D8C8D8A88870045767700878B8
:10057000887800F80356662850A0A05028045363DA
:10058000F80808163161E00359697088E8D8D8E89E
:10059000D888700A5161F8174464609090600357DE
:1005A000672020F8202000F807356540A02040E0B3
:1005B00007356540A04020C02A226240800058686C
:1005C0008888888898E8808002596978E8E8E8E8AF
:1005D00068282828262161C02022624080073565CE
:1005E00040C04040E0045767708888887000F80376
:1005F0005666A050282850A0025A6A40C04040E0E9
:100600000818283808025A6A40C04040E0102808FC
:100610001038025A6A40A04020A048182838080222
:100620005969200020204080888870025A6A402042
:100630000020508888F88888025A6A1020002050CC
:100640008888F88888025A6A30480020508888F8DC
:100650008888025A6A28500020508888F8888802C2
:100660005A6A50500020508888F88888025A6A20B8
:10067000502020508888F8888802596958A0A0A086
:10068000B0E0A0A0B8005B6B70888080808080881C
:10069000702040025A6A402000F88080F08080F884
:1006A000025A6A102000F88080F08080F8025A6AAE
:1006B000304800F88080F08080F8025A6A5050007C
:1006C000F88080F08080F8123A6A804000E0404074
:1006D000404040E0123A6A204000E0404040404044
:1006E000E0124A6A609000E04040404040E0123A28
:1006F0006AA0A000E04040404040E0025969F04854
:100700004848E8484848F0025A6A2850008888C893
:10071000A8988888025A6A4020007088888888884B
:1007200070025A6A10200070888888888870025A7F
:100730006A30480070888888888870025A6A285011
:100740000070888888888870025A6A5050007088C3
:1007500088888888700355658850205088015B6BB5
:1007600008709898A8A8A8C8C87080025A6A402043
:100770000088888888888870025A6A1020008888D3
:100780008888888870025A6A3048008888888888F3
:100790008870025A6A505000888888888888700259
:1007A0005A6A102000888850202020200259698031
:1007B000F0888888F0808080025969609090A0A0BD
:1007C000908888B00259694020007008788898683D
:1007D00002596910200070087888986802596930B9
:1007E0004800700878889868025969285000700895
:1007F000788898680259695050007008788898681D
:10080000025A6A3048300070087888986802566644
:10081000702870A0A8500058687088808088702068
:10082000400259694020007088F880887002596938
:100830001020007088F88088700259693048007074
:1008400088F88088700259695050007088F8808854
:1008500070123969804000C040404040E012396960
:10086000204000C040404040E0124969609000C014
:1008700040404040E0123969A0A000C040404040E4
:10088000E0025A6A50206010708888888870025987
:1008900069285000B0C888888888025969402000BB
:1008A000708888888870025969102000708888884C
:1008B00088700259693048007088888888700259A9
:1008C00069285000708888888870025969505000E3
:1008D000708888888870035767202000F8002020DF
:1008E000015868087098A8A8C8708002596940200B
:1008F000008888888898680259691020008888884C
:100900008898680259693048008888888898680201
:100910005969505000888888889868005B6B10205F
:10092000008888889868088870005A6A8080B0C8F3
:100930008888C8B08080005B6B5050008888889899
:100940006808887001060A00FE070136026820FF69
:10095000FE08FE07FE0A0060221767808080808004
:100960000080163363A0A0A00257675050F850F8DB
:1009700050500257672070A07028702002576748B7
:10098000A8502050A89002576740A0A040A89068A7
:10099000261363808080123767204080808040204B
:1009A000123767804020202040800355658850F82A
:1009B00050880355652020F8202011336360408063
:1009C000055161F811336340E04002576708081091
:1009D0002040808002576720508888885020025726
:1009E000672060A0202020F80257677088083040F8
:1009F00080F8025767F808103008887002576710AF
:100A0000305090F81010025767F880B0C80888700E
:100A1000025767304080B0C88870025767F80810E6
:100A2000102040400257677088887088887002578D
:100A3000677088986808106011376740E040004090
:100A4000E04011376740E040006040801247671087
:100A5000204080402010045363F800F8124767805C
:100A6000402010204080025767708810202000200E
:100A7000025767708898A8B0807002576720508826
:100A800088F88888025767F04848704848F002574D
:100A90006770888080808870025767F048484848AF
:100AA00048F0025767F88080F08080F8025767F8B6
:100AB0008080F0808080025767708880809888707E
:100AC000025767888888F8888888123767E040402E
:100AD000404040E0025767381010101090600257F5
:100AE000678890A0C0A0908802576780808080802F
:100AF00080F80257678888D8A8888888025767884E
:100B000088C8A898888802576770888888888870FD
:100B1000025767F08888F080808001586870888864
:100B20008888A87008025767F08888F0A09088022B
:100B3000576770888070088870025767F8202020F7
:100B40002020200257678888888888887002576725
:100B500088888850505020025767888888A8A8D86D
:100B6000880257678888502050888802576788888D
:100B70005020202020025767F80810204080F812EB
:100B80003767E08080808080E00257678080402067
:100B9000100808123767E02020202020E006536369
:100BA000205088015161F82822628040025565700A
:100BB000087888780257678080B0C888C8B0025526
:100BC00065708880887002576708086898889868F8
:100BD0000255657088F88070025767304840F040D1
:100BE0004040005767788888780888700257678087
:100BF00080B0C88888881237674000C0404040E015
:100C000010496910003010101090906002576780F2
:100C1000808890E09088123767C04040404040E0B4
:100C2000025565D0A8A8A888025565B0C8888888EC
:100C30000255657088888870005767B0C888C8B04A
:100C4000808000576768988898680808025565B0E2
:100C5000C880808002556570807008F00257674038
:100C600040F04040483002556588888898680255B1
:100C70006588885050200255658888A8A85002557C
:100C80006588502050880057678888986808887061
:100C9000025565F8102040F8124767304020C02008
:100CA000403022176780808080808080124767C034
:100CB0002040304020C006536348A890FFFFFFFF4C
:100CC000FFFFFFFFFFFFFFFFFFFFFFFFFFFFFFFF34
:100CD000FFFFFFFFFFFFFFFFFFFFFFFFFF0A0060B7
:100CE000221767800080808080800157672078A06D
:100CF000A0A07820025767304840E04048B0025535
:100D000065887050708801586888885020F82020C5
:100D10002022176780808000808080015868708062
:100D2000E09048380870193161A00257677088A8B0
:100D3000C8A888701346667090B05000F0026565D0
:100D40002448904824144262F010154161F0025783
:100D5000677088E8C8C88870095161F81633634025
:100D6000A0400256662020F82020F81545656090C6
:100D70002040F0154565E0106010E02822624080B8
:100D8000015666888888C8B08002576778E8E868A6
:100D90002828282511618020226240801535654071
:100DA000C04040E01346666090906000F0026565C8
:100DB000904824489001696940C04040E40C143CCC
:100DC0000401696940C04040E81404081C015969E5
:100DD000C0204020C818287808025767200020202B
:100DE0004088700258684020708888F888880258C7
:100DF000681020708888F8888802586820507088A9
:100E000088F8888802586848B0708888F88888020E
:100E100058685000708888F8888802586820507098
:100E20008888F888880267673C50909CF0909C0006
:100E3000596970888080808870204002586840F826
:100E40008080F08080F802586810F88080F0808000
:100E5000F802586820F88080F08080F802586850C6
:100E6000F88080F08080F81238688040E040404090
:100E700040E01238682040E040404040E0123868CE
:100E800040A0E040404040E0123868A000E0404010
:100E90004040E0025767F04848E84848F002586888
:100EA000285088C8A8988888025868402070888888
:100EB0008888700258681020708888888870025866
:100EC0006820507088888888700258682850708818
:100ED00088888870025868500070888888887002F6
:100EE00055658850205088025767709898A8C8C8E0
:100EF0007002586840208888888888700258681076
:100F000020888888888870025868205000888888DF
:100F100088700258685000888888888870025868ED
:100F2000102088885020202002576780F088F080A9
:100F30008080025767708890A09088B002586840FF
:100F400020007008788878025868102000700878AF
:100F500088780258682050007008788878025868AD
:100F60002850007008788878025767500070087819
:100F70008878025868205020700878887802656563
:100F800078147C907C0057677088808870204002BD
:100F900058684020007088F880700258681020005F
:100FA0007088F880700258682050007088F880704F
:100FB00002576750007088F88070123868804000CF
:100FC000C0404040E0123868408000C0404040E0EF
:100FD00012386840A000C0404040E0123767A000CF
:100FE000C0404040E0025767C03070888888700277
:100FF0005868285000B0C888888802586840200087
:1010000070888888700258681020007088888870FE
:1010100002586820500070888888700258682850EC
:1010200000708888887002576750007088888870C0
:101030000355652000F800200255657898A8C8F08F
:1010400002586840200088888898680258681020F4
:101050000088888898680258682050008888889896
:10106000680257675000888888986800596910207E
:101070008888986808887000586880F0888888F0A8
:10108000808000596950008888986808887000003E
:101090000000250028002B000404040404040404B8
:1010A0000202020202020303030303030102040813
:1010B00010204080010204081020010204081020C2
:1010C0000000000800020100000304070000000007
:1010D00000000000DB11D31111241FBECFEFD8E0B8
:1010E000DEBFCDBF12E0A0E0B1E0E4E3F0E302C078
:1010F00005900D92AC35B107D9F723E0ACE5B2E02D
:1011000001C01D92A233B207E1F718E0CBE6D8E0A8
:1011100004C02197FE010E94A115CA36D107C9F764
:101120000E9490120C940D180C940000FC01808118
:101130009281980F92832181921760F494819F5F2E
:1011400094839381890F821710F08FEF820F83832E
:1011500081E0089580E00895FC0112828081815031
:1011600083831482089580E008950B96FC01849196
:1011700008950A96FC0184910895FC0184910895D4
:101180000E94BD08882321F0823011F083E0089589
:1011900086E00895FC01E60FF11D849190E0982F00
:1011A00088273196E4918E0F911D089568E00C9484
:1011B000CA0866E00C94CA082EE93FE0009729F0BF
:1011C000F9013197F1F70197F9CF08955091640231
:1011D000609163024091620230916102A0915F02CE
:1011E000B0916002E0915D02F0915E029FB7909332
:1011F0005C02F89498E02C9187FF02C0252B01C077
:1012000026232C932081242B2083880F20812323C5
:101210002083915081F780915C028FBF0895282F21
:1012200030E0F901E856FF4EE491F0E0EE0FFF1FC9
:10123000E257FF4E859194919093600280935F02F4
:1012400070E0FB01E856FF4E9491E92FF0E0EE0FBD
:10125000FF1FE257FF4E8591949190935E02809319
:101260005D02F901E455FF4E249120936402FB01D5
:10127000E455FF4E64916093620260956093610251
:101280002095209363020895DB011496ED91FC9163
:10129000159720E030E065E00994DB011496ED91AC
:1012A000FC91159720E030E062E00994DB01149690
:1012B000ED91FC91159720E030E063E00994CF9226
:1012C000DF92EF92FF920F931F93CF93DF938C01E6
:1012D0007B016A0180E0F601C49181110BC0CF3F10
:1012E00009F44CC04C2FB701C8010E944409811178
:1012F00043C049C0CF3F11F44FEFF5CFCE3F09F4C3
:1013000044C0C03FC8F5C03E38F04C2F4F70B70105
:10131000C8010E944D0930C0C03D38F04C2F4F70BD
:10132000B701C8010E94560927C0C03CF8F0D70198
:101330001496ED91FC91159720E030E040E064E0D8
:10134000C8010995C295C07FCE5FD0E0CE010E9452
:10135000DC08D7011496ED91FC91159720E030E060
:1013600041E064E0C8010995CE0104C0C7FD04C096
:101370008C2F90E00E94DC0880E001C081E0BFEF8C
:10138000CB1ADB0AA8CF80E001C081E0DF91CF91CA
:101390001F910F91FF90EF90DF90CF9008958F9263
:1013A0009F92AF92BF92CF92DF92FF920F931F93C3
:1013B000CF93DF9300D0CDB7DEB76C018B01F42E55
:1013C000490120E1421709F467C0241700F13AE00F
:1013D000431729F18FE0481369C041E0C6010E941C
:1013E000560940E0B801C6010E944D0941E8B80124
:1013F000C6010E944409F4014081B801C6010E945F
:10140000440940E0B801C6010E94560908C1A1E1A3
:101410004A1709F444C0B5E14B1791F047C0DB010E
:101420001496ED91FC91159720E030E042E061E0E8
:1014300009954EEA50E0B801C6010E945F0936C026
:10144000FB01A280B38046EA50E00E945F09D5010B
:1014500014964C91406BB801C6010E94440941E0CA
:10146000B801C6010E944D09F50126813781D801D6
:101470001496ED91FC911597D50115964C9166E067
:10148000C6010995811102C080E0CAC040E0B801E0
:10149000C6010E9456090AC04DE950E002C042E967
:1014A00050E0B801C6010E945F09B9C0D801129688
:1014B0000D911C911397B2E3FB1609F474C0BF158C
:1014C000B8F0E5E1FE1609F47BC0F7E1FF1609F478
:1014D0008DC024E1F212A3C0D8011696ED91FC91C3
:1014E000179715968C919F01280F311DC90160C077
:1014F00036E4F31609F48AC087E4F81609F48AC0C2
:10150000ABE3FA128CC0F40181819381913029F010
:10151000933031F4482F885004C048E0480F01C090
:10152000482F21E0D80113963C91381708F420E0A9
:1015300031E0F8015281451708F430E051E04817D6
:1015400008F050E0822F852B382319F4252309F465
:1015500066C0D4011296FC90913051F030F0923078
:1015600049F0933051F42FEF09C020E031E007C07B
:1015700021E004C020E03FEF02C020E030E0F7FEB1
:1015800008C0B401C8012A8339830E94BD11398182
:101590002A81F4018081830F80838181820F81837E
:1015A000FF0C69F73CC0B401C8010E94BD1137C0EF
:1015B0001192E817F907E1F7C8010E94AC082FC0A3
:1015C000C8010E949608882309F45ECFD8011696B8
:1015D000ED91FC91179715968C919F01280F311D65
:1015E000C9011192E817F907E1F719C0D4011C925B
:1015F000F801828111968C93119785818150129602
:101600008C931297838113968C9309C0D8011596F9
:101610008C9103C0D80111968C91F401808381E0F4
:101620000F900F90DF91CF911F910F91FF90DF905E
:10163000CF90BF90AF909F908F900895860F911D8F
:10164000FC0183A18F3F19F0642F0C94271108959A
:10165000CF92DF92EF92FF920F931F93CF93DF937E
:101660001F92CDB7DEB76C018901862F90E0FC0197
:101670003197E730F10508F07BC0EC5CFF4F0C942C
:10168000A115760183E2E80EF11C8601005D1F4F73
:10169000F70120812F3F21F130E0F901E455FF4EA1
:1016A0004491F901E856FF4E24912223A1F030E045
:1016B000220F331FF901E857FF4FA591B491F901AB
:1016C000E257FF4E859194918FB7F8949C91E92F42
:1016D000E42BEC938FBF61E0F70180810E9427111A
:1016E000FFEFEF1AFF0AE016F10691F640E064E022
:1016F000C6010E941E0B40E065E012C0F60183A106
:101700008F3FB1F160E031C0411103C041E062E0C0
:101710002CC040E064E0C6010E941E0B40E062E085
:10172000C6010E941E0BF60167A180A50E940F0949
:101730001FC0842F0E94E6081BC04423C9F0F80193
:1017400081918F0149830E94E60849814150F5CF7C
:10175000442371F0F801849149830E94E6080F5FE9
:101760001F4F49814150F4CF61E0C6010E941E0B1A
:1017700081E00F90DF91CF911F910F91FF90EF903B
:10178000DF90CF90089520E431E0FC013183208385
:10179000828193810C945016CF93DF93EC010E94C9
:1017A000C30BCE01DF91CF910C945016CF93DF93F2
:1017B000EC0180E291E0998388838A819B810E9479
:1017C00050161B821A828E899F890E945016888922
:1017D00099890E9450168A859B850E9450168C819B
:1017E0009D81DF91CF910C945016CF93DF93EC0144
:1017F0000E94D60BCE01DF91CF910C9450160F931F
:101800001F93CF93DF93EC0188E191E09983888364
:101810008A8D9B8D0E9450161B8E1A8E8E010E5F34
:101820001F4F51F06A96C017D10731F02697888173
:1018300099810E945016F7CFDF91CF911F910F91A0
:101840000895CF93DF93EC010E94FF0BCE01DF914F
:10185000CF910C945016DC011696ED91FC911797E0
:1018600012968C91481B477081E090E001C0880F70
:101870004A95EAF7E60FF11D3081222311F0832B00
:1018800002C08095832380830895FC011582148211
:1018900017821682118681E0808782E2828717860E
:1018A0001686DF019396CF01C1962FEF2D93A817CF
:1018B000B907E1F781E080A323EB38E0368B258B75
:1018C000878B108E118E80E4828F138E87E090E1DB
:1018D00092AB81AB0895DB01ED91FC910994EF92FD
:1018E000FF921F93CF93DF93EC01EE85FF85309736
:1018F00009F00995EA80FB80E9A9FAA982E0099537
:10190000E9A9FAA981E0099520E030E045E1B701B5
:10191000CE010E946B0C182F882341F09E012D5C94
:101920003F4F47E1B701CE010E946B0CE9A9FAA92C
:1019300080E00995812FDF91CF911F91FF90EF906B
:101940000895EF92FF920F931F93CF93DF931F920F
:10195000CDB7DEB78C01DC011296ED90FC901397A9
:10196000D196ED91FC91D29782E0099520E030E08C
:101970004AE0B701C8010E946B0CF82ED801D1963D
:10198000ED91FC91D29783E00995D801D196ED9124
:10199000FC91D29780E00995FF20A1F1F8016281C6
:1019A00073819E012F5F3F4F46E4C8010E946B0C7C
:1019B0008981D8018C9312966D917C9113979E0129
:1019C0002F5F3F4F47E4C8010E946B0C8981F801EB
:1019D00081836281738120E030E048E4C8010E9485
:1019E0006B0CD8011B968C931B9798012D5C3F4F75
:1019F00012966D917C91139747E1C8010E946B0C80
:101A000081E001C080E00F90DF91CF911F910F9195
:101A1000FF90EF9008954F925F926F927F928F9216
:101A20009F92AF92BF92CF92DF92EF92FF920F936D
:101A30001F93CF93DF931F92CDB7DEB72C01E62E15
:101A4000F42EC22EDC0114960D911C911597C8013D
:101A50000E94BD08D82EF201848195810E94C008A1
:101A6000982EF1E0DF1203C02FE0A22E02C0AA24BC
:101A7000AA94D20114968D919C9115970E94B90851
:101A8000D82EF201848195810E94B508B82ED2012A
:101A900014968D919C9115970E94D608B0E6BC15BE
:101AA00038F4009729F0080F191F91E6D92E11C0BC
:101AB000F201848195810E94D908F0E4FC1538F484
:101AC000009729F0080F191F81E4D82E02C00F5E7D
:101AD0001F4FBC1480F4D20150961C92509753961D
:101AE0001C92539754961C92549751961C9251975E
:101AF00052961C92A0C0BD1470F3892D90E0F8019D
:101B000024912F3F19F40F5F1F4F5AC0DC104FC0B4
:101B1000D20114968D919C9115970E94BD08980151
:101B20002F5F3F4FF801882311F08230E1F4849158
:101B3000D20153968C935397F901249154962C9388
:101B40005497F8013396E4915096EC935097F8012E
:101B50003496E4915196EC935197F8013596E491BF
:101B60005296EC9320C08491982F9F709250D2018E
:101B700052969C93529782958F7051968C93519761
:101B8000F9012491822F8F7054968C93549722954B
:101B90002F7053962C935397F8013296E491E29567
:101BA000EF705096EC930115110579F444C0F801DB
:101BB0003296E491EA219C012E0F311D020F131F72
:101BC000DB1409F488CFD3949ACFF20184819581F4
:101BD0000E94C008D20153963C91539754962C9181
:101BE000549751965C91519752969C915297920FAF
:101BF000F91A9FEF920F9F0DD4964C91D497D696D9
:101C00006C916F1518F0941728F402C0941780F0A7
:101C10009F1570F4E50E9FEF930F9E0DD201D396A2
:101C20004C91D397D5965C915E1538F4941738F49F
:101C3000F20180893FC080E03DC0941710F49E15EA
:101C4000B8F7080F111D395F732E76947694769449
:101C50006F2C620E5201FCE1AF0EB11C872C912C4F
:101C6000F61431F35E2D68018C2D801B8715F0F47E
:101C7000F6018491D20112966D917C9113975C9636
:101C80005C935C975D96FC925D975F961C925F9764
:101C90005E968C9395014BE3C20159830E946B0CB5
:101CA000BFEFCB1ADB0A5981585FDECF080D191D33
:101CB000F394D6CF0F90DF91CF911F910F91FF90AA
:101CC000EF90DF90CF90BF90AF909F908F907F90DC
:101CD0006F905F904F900895CF92DF92EF92FF92B6
:101CE0000F931F93CF93DF931F92CDB7DEB76C0195
:101CF000DC01DC961C91DC97DB960C917C01B4E056
:101D0000EB0EF11CDC015996ED91FC915A97C7013D
:101D100069830995482F410F2981602FC7010E94CF
:101D20000B0DF60123AD082E000C990B820F911DAF
:101D300083AF81E090E00F90DF91CF911F910F91E1
:101D4000FF90EF90DF90CF900895DC0114968D9175
:101D50009C9115978617970709F44EC015967C93AA
:101D60006E9314976115710509F440C057968C91D4
:101D70005797FB01811108C03596E4915896EC9372
:101D80005897FB013C9611C0813041F43F96E49195
:101D90005896EC935897FB01709607C03D96E491D6
:101DA0005896EC935897FB013E96649159966C9324
:101DB000599758968C915897082E000C990B599664
:101DC0002C915997821B910927FD93955A962C9136
:101DD0005A97203441F0829FC001112426E0969545
:101DE00087952A95E1F75B968C935B9783EB98E058
:101DF00056969C938E9355970895AF92BF92CF922B
:101E0000DF92FF920F931F93CF93DF9300D0CDB754
:101E1000DEB7F62E042F6C0144E0C40ED11CDC01A9
:101E20005996ED91FC915A97C60129833A830995F9
:101E3000080F2981A22E3A81B32E10E0F5012191DD
:101E40005F01222341F0402F6F2DC6010E940B0D30
:101E5000F80E180FF3CF812F0F900F90DF91CF91D5
:101E60001F910F91FF90DF90CF90BF90AF9008959A
:101E7000EF92FF920F931F93CF93DF93EC018DAD01
:101E80008E010C5F1F4F811105C081E08DAFC8012D
:101E90000E94A10CEE80FF80EDA9FEA982E00995C9
:101EA000EDA9FEA981E0099520E030E044E1B70109
:101EB000C8010E946B0C9E01295C3F4F47E1B701AE
:101EC000C8010E946B0CEDA9FEA980E0DF91CF91C3
:101ED0001F910F91FF90EF90099481E480937C0013
:101EE00080917A00806480937A0080917A0086FDE8
:101EF000FCCF809178002091790090E0922B08959A
:101F00003FB7F89480912A0390912B03A0912C0362
:101F1000B0912D0326B5A89B05C02F3F19F001965F
:101F2000A11DB11D3FBFBA2FA92F982F8827820F5F
:101F3000911DA11DB11DBC01CD0142E0660F771FAF
:101F4000881F991F4A95D1F708958F929F92AF925B
:101F5000BF92CF92DF92EF92FF920E94800F4B01CF
:101F60005C0182E8C82ED12CE12CF12C0E94800F5C
:101F7000DC01CB0188199909AA09BB09883E934065
:101F8000A105B10558F021E0C21AD108E108F10815
:101F900088EE880E83E0981EA11CB11CC114D104E8
:101FA000E104F10419F7FF90EF90DF90CF90BF901C
:101FB000AF909F908F900895CF92DF92EF92FF9213
:101FC0000F931F93CF93DF936C017A018B01C0E0D5
:101FD000D0E0CE15DF0589F0D8016D918D01D601D5
:101FE000ED91FC910190F081E02DC6010995892BBE
:101FF00011F47E0102C02196ECCFC701DF91CF9191
:102000001F910F91FF90EF90DF90CF90089508956A
:10201000DF92EF92FF920F931F93CF93DF93EC0128
:102020008CA99EA99F30D8F08031C8F48BA9803844
:10203000B0F410E08FE0D82E0FEF7E018CE1E80EB7
:10204000F11C6A817B811C8FDD8E1F8E0E8F9701A4
:102050004BE3CE010E946B0C185F103891F7DF91B3
:10206000CF911F910F91FF90EF90DF9008950F9304
:102070001F93CF93DF9341155105E9F06115710569
:10208000D1F0FC01248135812115310519F4FB01C2
:10209000108211C0EA0121972C173D0708F4E901CD
:1020A0008B01FC0160817181AE01C8010E94C717DC
:1020B000C00FD11F1882DF91CF911F910F9108950A
:1020C0000E94B2170F931F93CF93DF93EC01888187
:1020D0009981009729F02A813B812617370788F4D8
:1020E0008B016F5F7F4F0E94E816009761F0998324
:1020F00088831B830A832C813D81232B11F4FC01EF
:10210000108281E001C080E0DF91CF911F910F919B
:102110000895EF92FF920F931F93CF93DF93FC01EB
:10212000248135816115710511F480E019C04115D4
:102130005105A9F07B01EC018A01020F131FB801C0
:102140000E946210882389F3288139818C819D81C6
:10215000B701820F931F0E94C0171D830C8381E07B
:10216000DF91CF911F910F91FF90EF90089561152E
:10217000710551F0FB0101900020E9F73197AF01A3
:10218000461B570B0C94891080E00895EF92FF9244
:102190000F931F93CF93DF93EC017B018A01BA0168
:1021A0000E9462102881398181110DC021153105ED
:1021B00019F0C9010E945016198218821D821C82D2
:1021C0001B821A8206C01D830C83B701C9010E94BD
:1021D000C017CE01DF91CF911F910F91FF90EF902B
:1021E0000895CF93DF93EC016115710559F0FB0160
:1021F00001900020E9F73197AF01461B570B0E9471
:10220000C6100CC088819981009711F00E94501669
:10221000198218821D821C821B821A82CE01DF91D4
:10222000CF910895FC0111821082138212821582CF
:1022300014826115710551F0FB0101900020E9F74E
:102240003197AF01461B570B0C94C610089590E0D0
:10225000FC01E054FF4E3491FC01E455FF4E249103
:10226000FC01E856FF4EE491EE2309F43BC0332312
:1022700039F1333091F038F43130A9F0323001F5D2
:1022800084B58F7D12C0373091F03830A1F03430F2
:10229000B9F4809180008F7D03C0809180008F779A
:1022A000809380000DC084B58F7784BD09C0809174
:1022B000B0008F7703C08091B0008F7D8093B00015
:1022C000F0E0EE0FFF1FE257FF4EA591B4918FB7DC
:1022D000F894EC91611103C020952E2301C02E2BA0
:1022E0002C938FBF08951F920F920FB60F92112457
:1022F0002F933F938F939F93AF93BF938091260328
:1023000090912703A0912803B091290330912503D0
:1023100023E0230F2D3720F40196A11DB11D05C028
:1023200026E8230F0296A11DB11D2093250380935B
:10233000260390932703A0932803B0932903809149
:102340002A0390912B03A0912C03B0912D030196A9
:10235000A11DB11D80932A0390932B03A0932C03FE
:10236000B0932D03BF91AF919F918F913F912F918A
:102370000F900FBE0F901F901895FB014181DC015B
:1023800012962C911297421768F013962C9113977E
:10239000241740F0608115962C91621718F424815F
:1023A0000C942B0C089585E692E00E94FF0B85E8C3
:1023B00092E00C94D60B0F931F93CF93DF9380E2A0
:1023C00091E090938602809385026BEA71E089E840
:1023D00092E00E9412116BEA71E08FE892E00E9495
:1023E00012116BEA71E085E992E00E9412116BEA2A
:1023F00071E08BE992E00E9412118EE390E00E945E
:10240000BB15EC011B821A8288E291E099838883D4
:102410001BAE1CAE1DAE8E010C5F1F4FC8010E948B
:10242000450C88E091E09F838E838AE08BA789E04A
:102430008CA78CE089A78BE088A788E08FA3C801D0
:102440000E94A10C88E391E099838883D09388024D
:10245000C093870288E191E09093660280936502C1
:10246000C0E0D0E06BEA71E0CE0189599D4F0E9437
:1024700012112696C831D105A9F78EE390E00E948B
:10248000BB15EC011B821A8288E291E09983888354
:102490001BAE1CAE1DAE8E010C5F1F4FC8010E940B
:1024A000450C88E091E09F838E838AE08BA789E0CA
:1024B0008CA78CE089A78BE088A788E08FA3C80150
:1024C0000E94A10C88E391E099838883D0938002D5
:1024D000C0937F0210928202109281028FEF9FEFD1
:1024E000909384028093830264E471E087E692E033
:1024F0000E94F11062E571E08DE692E00E94F11019
:1025000060E671E083E792E00E94F1106AE671E014
:1025100089E792E0DF91CF911F910F910C94F11018
:10252000CF93DF9300D000D000D0CDB7DEB7789442
:1025300084B5826084BD84B5816084BD85B58260C8
:1025400085BD85B5816085BD80916E008160809379
:102550006E001092810080918100826080938100E2
:1025600080918100816080938100809180008160F2
:10257000809380008091B10084608093B10080914D
:10258000B00081608093B00080917A008460809375
:102590007A0080917A00826080937A0080917A003C
:1025A000816080937A0080917A00806880937A00BD
:1025B0001092C1000CE810E040E4442E41E0542E9B
:1025C00080912103909122038130910581F1823025
:1025D000910539F426E0322E38E2632E31E0732E75
:1025E00094C1892B09F063C280918702909188027F
:1025F0000E94380F809187029091880264ED70E00C
:1026000004960E94A50E2BEA31E04DE06AE080912D
:102610008702909188020E94FD0E8091870290911E
:10262000880204960E946F0C8111E4CF40C26DB6FF
:102630007EB666E771E089E892E00E94F11061E8F9
:1026400071E08FE892E00E94F11067E871E085E99F
:1026500092E00E94F1106FE871E08BE992E00E9435
:10266000F11040918D0250918E024F5F5F4F2DB758
:102670003EB7241B350B0FB6F8943EBF0FBE2DBFDF
:102680008DB79EB701964C01809193029091940270
:102690000196EDB7FEB7E81BF90B0FB6F894FEBF35
:1026A0000FBEEDBF2DB73EB72F5F3F4F5901809151
:1026B000990290919A020196E81BF90B0FB6F894D3
:1026C000FEBF0FBEEDBF2DB73EB72F5F3F4F690175
:1026D00080919F029091A0020196E81BF90B0FB622
:1026E000F894FEBF0FBEEDBF2DB73EB72F5F3F4F33
:1026F0007901B40189E892E00E9437104091930279
:10270000509194024F5F5F4FB5018FE892E00E94B5
:1027100037104091990250919A024F5F5F4FB60176
:1027200085E992E00E94371040919F025091A002EB
:102730004F5F5F4FB7018BE992E00E9437108091A5
:102740008702909188020E94380F809187029091B1
:10275000880264ED70E004960E94A50E94014DE09D
:102760006AE080918702909188020E94FD0E950197
:102770004DE06BE480918702909188020E94FD0EEB
:10278000960146E268E280918702909188020E9459
:10279000FD0E970147E368E28091870290918802DD
:1027A0000E94FD0E809187029091880204960E94FB
:1027B0006F0C8111CACF0FB6F8947EBE0FBE6DBEEE
:1027C00076C180917F029091800264E479E0049662
:1027D0000E94A50E6BEA71E0CE0101960E941211D3
:1027E00085E6E82E82E0F82E9AE0292EA12CB12C65
:1027F0008DB69EB66BEA71E0CE0101960E94F11093
:102800008091810290918202F50131966F018A15C3
:102810009B0509F081C064E971E0CE0101960E9438
:10282000B7103C9CF0013D9CF00D1124EB59FD4F7D
:10283000408151813A9CF0013B9CF00D1124EB59F1
:10284000FD4F62817381CE0101960E9489106EE274
:1028500072E0CE0101960E94B7104D815E814F5FFC
:102860005F4F2DB73EB7241B350B0FB6F8943EBF14
:102870000FBE2DBF8DB79EB701965C01BC01CE0186
:1028800001960E9437109501422D6AE080917F02E7
:10289000909180020E94FD0E0FB6F8949EBE0FBE6E
:1028A0008DBE56019FE0290EE6E0EE0EF11CF6E427
:1028B0002F129ECF89819A810E94501680917F02AB
:1028C0009091800204960E946F0C81117ACF0E9431
:1028D0006D0FB8010E948D1570938402609383027E
:1028E0000E94A50F8091830290918402823091050D
:1028F00079F185309105F1F1019701F18091830221
:1029000090918402892B09F4D2C080917F0290912A
:1029100080020E94380F55CF6AEA71E0CE0101961D
:102920000E94B710F7014681578162817381CE0101
:1029300001960E9489106AEA71E08BCF8091810232
:1029400090918202019797FF0BC083E090E008C04E
:1029500080918102909182020196843091052CF43D
:102960009093820280938102C9CF109282021092CA
:102970008102C4CF8091810290918202892B09F05B
:10298000BDCF5A8249828EE390E00E94BB157C0144
:10299000FC01138212827182608213AE14AE15AEF6
:1029A0006C01F4E0CF0ED11CC6010E94450C28E05A
:1029B00031E0F701378326833AE033A789E084A723
:1029C0008CE081A78BE080A788E087A3C6010E94E6
:1029D000A10C88E391E0F70191838083FC82EB8274
:1029E000E12CF12C8B819C810E94380F8B819C8182
:1029F00064ED70E004960E94A50EF9E0EF16F10474
:102A000028F5F701E55CFF4F8B819C810C94A115A3
:102A100026E931E017C02CEA31E014C022EC31E0A5
:102A200011C028ED31E00EC02EEE31E00BC024E0E5
:102A300032E008C02AE132E005C020E332E002C003
:102A400026E432E04DE060E00E94FD0E8B819C8127
:102A500004960E9408108B819C8104960E946F0C42
:102A60008111C4CF0E946D0FB8010E948D156B01BA
:102A70000E94A50FC114D10439F4E114F10491F0BE
:102A800031E0E31AF108AECF23E0C216D10409F019
:102A9000A9CF8FEFE81AF80A97E0E916F1040CF4D1
:102AA000A1CF9ECFCE0101960E94C30B27CF0E94DB
:102AB0006D0FB8010E948D157B0170932403609304
:102AC00023030E94A50FE114F10429F0E5E0EE16BE
:102AD000F10469F01AC080912103909122030197BB
:102AE00097FF0FC010922203109221030EC0809115
:102AF00021039091220301968330910514F082E026
:102B000090E0909322038093210380E090E0892B52
:102B100009F456CD0E9400004FCD97FB072E16F406
:102B2000009407D077FD09D00E94A71507FC05D0B7
:102B30003EF4909581959F4F0895709561957F4FD4
:102B40000895EE0FFF1F0590F491E02D0994AA1B44
:102B5000BB1B51E107C0AA1FBB1FA617B70710F088
:102B6000A61BB70B881F991F5A95A9F780959095BA
:102B7000BC01CD010895CF93DF938230910510F40D
:102B800082E090E0E0913003F091310320E030E00A
:102B9000C0E0D0E0309711F14081518148175907CA
:102BA000C0F04817590761F482819381209719F08A
:102BB0009B838A832BC0909331038093300326C07C
:102BC0002115310519F04217530718F49A01BE0177
:102BD000DF01EF010280F381E02DDCCF211531050B
:102BE00009F1281B390B2430310590F412968D9190
:102BF0009C9113976115710521F0FB0193838283EA
:102C000004C09093310380933003FD01329644C099
:102C1000FD01E20FF31F81939193225031092D930F
:102C20003C933AC020912E0330912F03232B41F483
:102C3000209110013091110130932F0320932E0326
:102C400020910E0130910F012115310541F42DB76E
:102C50003EB74091120150911301241B350BE091B6
:102C60002E03F0912F03E217F307A0F42E1B3F0B66
:102C70002817390778F0AC014E5F5F4F24173507EE
:102C800048F04E0F5F1F50932F0340932E03819304
:102C9000919302C0E0E0F0E0CF01DF91CF91089581
:102CA0000F931F93CF93DF93009709F48CC0FC011F
:102CB0003297138212820091300310913103011573
:102CC000110581F420813181820F931F20912E0301
:102CD00030912F032817390779F5F0932F03E093EC
:102CE0002E0371C0D80140E050E0AE17BF0750F48A
:102CF00012962D913C911397AD012115310509F1E3
:102D0000D901F3CF9D01DA01338322836081718180
:102D1000860F971F8217930769F4EC012881398188
:102D2000260F371F2E5F3F4F318320838A819B817F
:102D300093838283452B29F4F0933103E09330038E
:102D400042C01396FC93EE931297ED01499159916D
:102D50009E01240F351FE217F30771F480819181E2
:102D6000840F951F029611969C938E938281938176
:102D700013969C938E931297E0E0F0E0D8011296A0
:102D80008D919C911397009719F0F8018C01F6CF63
:102D90008D919C9198012E5F3F4F820F931F209140
:102DA0002E0330912F032817390769F4309729F43F
:102DB000109231031092300302C0138212821093DA
:102DC0002F0300932E03DF91CF911F910F91089550
:102DD000A0E0B0E0EEEEF6E10C94DA17EC0100971B
:102DE00021F4CB010E94BB15B8C0FC01E60FF71F10
:102DF0009C0122503109E217F30708F4ACC0D90155
:102E00000D911C91119706171707B0F005301105A9
:102E100008F49FC0C80104978617970708F499C063
:102E200002501109061B170B019311936D937C93AC
:102E3000CF010E9450168DC05B01A01AB10A4C014F
:102E4000800E911EA0913003B091310340E050E01C
:102E5000E12CF12C109709F44AC0A815B905D1F559
:102E60006D907C901197630182E0C80ED11CCA144A
:102E7000DB0480F1A3014A195B096A0182E0C80EF4
:102E8000D11C1296BC9012971396AC91B5E0CB165C
:102E9000D10440F0B282A38351834083D9016D9362
:102EA0007C930AC00E5F1F4FC301800F911FF90171
:102EB00091838083EB2DFA2FE114F10431F0D701D7
:102EC0001396FC93EE93129744C0F0933103E09372
:102ED00030033FC08D919C9111974817590708F412
:102EE000AC017D0112960D90BC91A02DB3CF8091C5
:102EF0002E0390912F0388159905E1F44617570783
:102F0000C8F480910E0190910F01009741F48DB7A4
:102F10009EB74091120150911301841B950BE81745
:102F2000F907C8F4F0932F03E0932E03F90171839E
:102F300060830FC0CB010E94BB157C01009759F044
:102F4000A801BE010E94B717CE010E945016C7010A
:102F500004C0CE0102C080E090E0CDB7DEB7EEE065
:102F60000C94F61781E090E0F8940C940D18FB0196
:102F7000DC0102C001900D9241505040D8F70895F5
:102F8000FB01DC0101900D920020E1F70895FB01A7
:102F9000DC014150504048F001900D920020C9F7EB
:102FA00001C01D9241505040E0F708952F923F928A
:102FB0004F925F926F927F928F929F92AF92BF9249
:102FC000CF92DF92EF92FF920F931F93CF93DF93F5
:102FD000CDB7DEB7CA1BDB0B0FB6F894DEBF0FBE52
:102FE000CDBF09942A88398848885F846E847D849F
:102FF0008C849B84AA84B984C884DF80EE80FD80A1
:103000000C811B81AA81B981CE0FD11D0FB6F89416
:10301000DEBF0FBECDBFED01089518E0CBE6D8E0CE
:1030200004C0FE010E94A1152196CC36D107C9F734
:04303000F894FFCF42
:10303400084000000080A102CF090001280B000015
:103044003203800000000000FF0B210C0000000090
:10305400D60BF50B000000006C0EDC0F0000000026
:103064006010DC0F000000006C0EDC0F000000009C
:10307400C30BCC0B5345542054494D455441424C49
:10308400450053455420444154452F54494D45006F
:1030940053455420414C2F41460053455420534935
:1030A4004D2F534D530031322E30332E32303136C2
:1030B4000031353A3330004175746F2F414C003282
:1030C400322043005B005B505D20552020532020BC
:1030D4004320205020205320204E20002050205BED
:1030E400555D205320204320205020205320204E83
:1030F40020002050202055205B535D204320205089
:1031040020205320204E20002050202055202053E2
:10311400205B435D205020205320204E200020506F
:10312400202055202053202043205B505D20532035
:10313400204E2000205020205520205320204320C2
:103144002050205B535D204E20002050202055202D
:103154002053202043202050202053205B4E5D002C
:103164005B505D5B555D5B535D5B435D5B505D2018
:103174005320204E20002050202055202053202072
:0C31840043202050205B535D5B4E5D003B
:00000001FF
