:100000000C946C080C9494080C9494080C94940828
:100010000C9494080C9494080C9494080C949408F0
:100020000C9494080C9494080C9494080C949408E0
:100030000C9494080C9494080C9494080C949408D0
:100040000C941E130C9494080C9494080C9494082B
:100050000C9494080C9494080C9494080C949408B0
:100060000C9494080C9494081D18901860185A1851
:10007000751879188418A819AB19AE19B119B419E3
:10008000B719BA19BD19C01901060D00FE0901669C
:1000900002D620FFFE0BFE0AFE0D006022196980C9
:1000A0008080808080800080183363A0A0A00357E8
:1000B000675050F850F850500259692078A0A0704D
:1000C0002828F02002596948A85010204050A890D4
:1000D00002586840A0A040A09890682813638080D0
:1000E00080113B6B20404080808080804040201108
:1000F0003B6B8040402020202020404080065565FA
:1001000020A870A8200455652020F8202011336312
:10011000604080065161F811336340E04002596944
:1001200008081010204040808002596920508888BB
:1001300088888850200259692060A0202020202033
:10014000F80259697088880810204080F8025969BF
:10015000F808102070080888700259691010305093
:100160005090F81010025969F88080B0C8080888CB
:100170007002596970888080F08888887002596997
:10018000F808101020204040400259697088888883
:10019000708888887002596970888888780808880B
:1001A0007011386840E040000040E040113868407D
:1001B000E040000060408002596908102040804003
:1001C000201008045464F80000F8025969804020A7
:1001D000100810204080025969708888081020207B
:1001E000002002596970888898A8A8B080780259C0
:1001F000692050888888F8888888025969F04848BA
:100200004870484848F00259697088808080808032
:100210008870025969F048484848484848F00259EF
:1002200069F8808080F0808080F8025969F88080C9
:1002300080F08080808002596970888080809888F2
:10024000887002596988888888F88888888812396F
:1002500069E040404040404040E002596938101099
:10026000101010109060025969888890A0C0A0906A
:1002700088880259698080808080808080F8025957
:10028000698888D8A8A88888888802596988C8C8D1
:10029000A8A898988888025969708888888888886A
:1002A0008870025969F0888888F080808080015ABF
:1002B0006A70888888888888A87008025969F088D8
:1002C0008888F0A0908888025969708880807008BA
:1002D000088870025969F820202020202020200260
:1002E00059698888888888888888700259698888C8
:1002F0008888505050202002596988888888A8A88A
:10030000A8A8500259698888505020505088880207
:100310005969888850502020202020025969F80807
:10032000101020404080F8113B6BE080808080807E
:1003300080808080E0025969808040402010100851
:1003400008113B6BE0202020202020202020E00806
:100350005363205088015161F82A2262804002567E
:1003600066700878889868025969808080F088886B
:100370008888F00256667088808088700259690803
:1003800008087888888888780256667088F8808897
:100390007002596930484040F04040404000586881
:1003A0007088888878088870025969808080B0C811
:1003B000888888881238684000C040404040E0008B
:1003C0004A6A100030101010109090600259698035
:1003D000808090A0C0A09088123969C04040404001
:1003E000404040E0025666D0A8A8A8A888025666F9
:1003F000B0C88888888802566670888888887000A7
:100400005868F0888888F0808080005868788888EC
:100410008878080808025666B0C880808080025636
:10042000667088601088700258684040F040404014
:100430004830025666888888889868025666888898
:10044000885050200256668888A8A8A85002566690
:1004500088502020508800586888888898680888C4
:1004600070025666F810204080F8015B6B1820205F
:100470002020C020202020182219698080808080C0
:1004800080808080015B6BC02020202018202020ED
:1004900020C008536348A890FFFFFFFFFFFFFFFF46
:1004A000FFFFFFFFFFFFFFFFFFFFFFFFFFFFFFFF5C
:1004B000FFFFFFFFFFFFFFFFFF0D006022196980B4
:1004C00000808080808080800358682070A8A0A071
:1004D000A8702002596930484040E0404048B003CD
:1004E000566688705050708802596988885050F854
:1004F00020F8202022196980808080008080808000
:10050000124A6A609080609090601090601A326227
:10051000A0A00359697088A8D8C8D8A888700457C3
:1005200067700878887800F80356662850A0A050B5
:1005300028045363F80808163161E003596970888C
:10054000E8D8D8E8D888700A5161F81744646090F8
:1005500090600357672020F8202000F80735654099
:10056000A02040E007356540A04020C02A2262401C
:10057000800058688888888898E88080025969785F
:10058000E8E8E8E868282828262161C0202262409F
:100590008007356540C04040E00457677088888810
:1005A0007000F8035666A050282850A0025A6A40EE
:1005B000C04040E00818283808025A6A40C040404D
:1005C000E01028081038025A6A40A04020A04818BD
:1005D000283808025969200020204080888870024D
:1005E0005A6A40200020508888F88888025A6A1089
:1005F000200020508888F88888025A6A30480020F5
:10060000508888F88888025A6A28500020508888C4
:10061000F88888025A6A50500020508888F88888E4
:10062000025A6A20502020508888F8888802596928
:1006300058A0A0A0B0E0A0A0B8005B6B708880803C
:1006400080808088702040025A6A402000F88080B4
:10065000F08080F8025A6A102000F88080F08080D4
:10066000F8025A6A304800F88080F08080F8025A18
:100670006A505000F88080F08080F8123A6A80401A
:1006800000E04040404040E0123A6A204000E04034
:1006900040404040E0124A6A609000E040404040E4
:1006A00040E0123A6AA0A000E04040404040E00232
:1006B0005969F0484848E8484848F0025A6A2850C2
:1006C000008888C8A8988888025A6A4020007088E4
:1006D0008888888870025A6A102000708888888804
:1006E0008870025A6A30480070888888888870024A
:1006F0005A6A28500070888888888870025A6A5020
:10070000500070888888888870035565885020500C
:1007100088015B6B08709898A8A8A8C8C870800268
:100720005A6A40200088888888888870025A6A102F
:10073000200088888888888870025A6A3048008833
:10074000888888888870025A6A505000888888880B
:10075000888870025A6A1020008888502020202043
:1007600002596980F0888888F08080800259696029
:100770009090A0A0908888B002596940200070082D
:1007800078889868025969102000700878889868FD
:1007900002596930480070087888986802596928B9
:1007A00050007008788898680259695050007008A5
:1007B00078889868025A6A304830007008788898BB
:1007C00068025666702870A0A8500058687088802B
:1007D00080887020400259694020007088F8808825
:1007E000700259691020007088F880887002596979
:1007F0003048007088F88088700259695050007045
:1008000088F8808870123969804000C040404040BC
:10081000E0123969204000C040404040E012496980
:10082000609000C040404040E0123969A0A000C084
:1008300040404040E0025A6A50206010708888882A
:100840008870025969285000B0C888888888025981
:1008500069402000708888888870025969102000DB
:100860007088888888700259693048007088888844
:1008700088700259692850007088888888700259E9
:10088000695050007088888888700357672020005E
:10089000F8002020015868087098A8A8C870800245
:1008A0005969402000888888889868025969102012
:1008B0000088888888986802596930480088888844
:1008C000889868025969505000888888889868001C
:1008D0005B6B1020008888889868088870005A6AC6
:1008E0008080B0C88888C8B08080005B6B505000A2
:1008F000888888986808887001060A00FE07013613
:10090000026820FFFE08FE07FE0A006022176780CB
:10091000808080800080163363A0A0A002576750BB
:1009200050F850F850500257672070A0702870207F
:1009300002576748A8502050A89002576740A0A0CF
:1009400040A890682613638080801237672040801B
:10095000808040201237678040202020408003554F
:10096000658850F850880355652020F82020113301
:1009700063604080055161F811336340E0400257E5
:1009800067080810204080800257672050888888B8
:1009900050200257672060A0202020F8025767707F
:1009A0008808304080F8025767F8081030088870CF
:1009B00002576710305090F81010025767F880B057
:1009C000C8088870025767304080B0C888700257E6
:1009D00067F80810102040400257677088887088B8
:1009E00088700257677088986808106011376740F0
:1009F000E0400040E04011376740E0400060408048
:100A000012476710204080402010045363F800F81C
:100A1000124767804020102040800257677088107E
:100A200020200020025767708898A8B08070025775
:100A30006720508888F88888025767F048487048CF
:100A400048F002576770888080808870025767F08E
:100A50004848484848F0025767F88080F08080F89E
:100A6000025767F88080F080808002576770888026
:100A700080988870025767888888F8888888123735
:100A800067E04040404040E00257673810101010C7
:100A900090600257678890A0C0A090880257678036
:100AA0008080808080F80257678888D8A8888888E6
:100AB0000257678888C8A89888880257677088880E
:100AC00088888870025767F08888F0808080015895
:100AD000687088888888A87008025767F08888F04E
:100AE000A0908802576770888070088870025767E6
:100AF000F82020202020200257678888888888884E
:100B0000700257678888885050502002576788883D
:100B100088A8A8D8880257678888502050888802FB
:100B2000576788885020202020025767F808102037
:100B30004080F8123767E08080808080E00257674D
:100B400080804020100808123767E02020202020F5
:100B5000E0065363205088015161F82822628040EA
:100B600002556570087888780257678080B0C88819
:100B7000C8B0025565708880887002576708086899
:100B8000988898680255657088F8807002576730B9
:100B90004840F0404040005767788888780888705F
:100BA0000257678080B0C88888881237674000C0C5
:100BB000404040E0104969100030101010909060E3
:100BC00002576780808890E09088123767C0404065
:100BD000404040E0025565D0A8A8A888025565B0FD
:100BE000C88888880255657088888870005767B003
:100BF000C888C8B0808000576768988898680808D7
:100C0000025565B0C880808002556570807008F01C
:100C10000257674040F04040483002556588888858
:100C2000986802556588885050200255658888A8C4
:100C3000A8500255658850205088005767888898CA
:100C400068088870025565F8102040F81247673030
:100C50004020C020403022176780808080808080C4
:100C6000124767C02040304020C006536348A89018
:100C7000FFFFFFFFFFFFFFFFFFFFFFFFFFFFFFFF84
:100C8000FFFFFFFFFFFFFFFFFFFFFFFFFFFFFFFF74
:100C9000FF0A0060221767800080808080800157F3
:100CA000672078A0A0A07820025767304840E04035
:100CB00048B002556588705070880158688888501F
:100CC00020F820202022176780808000808080010B
:100CD00058687080E09048380870193161A0025758
:100CE000677088A8C8A888701346667090B05000D6
:100CF000F00265652448904824144262F0101541C2
:100D000061F00257677088E8C8C88870095161F8B7
:100D100016336340A0400256662020F82020F815C4
:100D2000456560902040F0154565E0106010E028B2
:100D300022624080015666888888C8B08002576762
:100D400078E8E86828282825116180202262408000
:100D500015356540C04040E01346666090906000E5
:100D6000F0026565904824489001696940C04040A0
:100D7000E40C143C0401696940C04040E8140408D4
:100D80001C015969C0204020C818287808025767FC
:100D9000200020204088700258684020708888F821
:100DA00088880258681020708888F88888025868F7
:100DB0002050708888F8888802586848B070888801
:100DC000F888880258685000708888F88888025827
:100DD000682050708888F888880267673C50909C2B
:100DE000F0909C0059697088808080887020400253
:100DF000586840F88080F08080F802586810F880C9
:100E000080F08080F802586820F88080F08080F8B8
:100E100002586850F88080F08080F812386880406E
:100E2000E040404040E01238682040E04040404010
:100E3000E012386840A0E040404040E0123868A02E
:100E400000E040404040E0025767F04848E848482A
:100E5000F0025868285088C8A898888802586840C6
:100E60002070888888887002586810207088888868
:100E70008870025868205070888888887002586886
:100E80002850708888888870025868500070888858
:100E9000888870025565885020508802576770987E
:100EA00098A8C8C8700258684020888888888870C8
:100EB00002586810208888888888700258682050F6
:100EC00000888888887002586850008888888888D8
:100ED00070025868102088885020202002576780B0
:100EE000F088F0808080025767708890A09088B06A
:100EF00002586840200070087888780258681020EE
:100F00000070087888780258682050007008788847
:100F1000780258682850007008788878025767501F
:100F20000070087888780258682050207008788807
:100F30007802656578147C907C005767708880889B
:100F40007020400258684020007088F88070025875
:100F5000681020007088F880700258682050007077
:100F600088F8807002576750007088F880701238D7
:100F700068804000C0404040E0123868408000C0B7
:100F8000404040E012386840A000C0404040E012BD
:100F90003767A000C0404040E0025767C03070880B
:100FA000888870025868285000B0C888888802581D
:100FB000684020007088888870025868102000708F
:100FC000888888700258682050007088888870026D
:100FD00058682850007088888870025767500070E1
:100FE000888888700355652000F8002002556578D0
:100FF00098A8C8F00258684020008888889868023D
:101000005868102000888888986802586820500026
:101010008888889868025767500088888898680090
:10102000596910208888986808887000586880F08E
:10103000888888F0808000596950008888986808FE
:10104000887000000000250028002B000404040420
:101050000404040402020202020203030303030362
:10106000010204081020408001020408102001023F
:10107000040810200000000800020100000304071B
:101080000000000000000000FFE0FFD1AFFF32FFD2
:10109000D0FFFEFFE0FFD1AEFFD0FFFEFFE0FFD1AB
:1010A0001000FFFEFFD0FFE0FFC1FFD1AED580A84A
:1010B0003FD300408D142000A1C8DA1281CFD9F1AE
:1010C000DB402EA4A6AFFFD0FFFE000000002400EE
:1010D00027002A00A01B981B11241FBECFEFD8E0C9
:1010E000DEBFCDBF12E0A0E0B1E0E4EEF2E402C06A
:1010F00005900D92A037B107D9F723E0A0E7B2E041
:1011000001C01D92A634B207E1F718E0CBE6D8E0A3
:1011100004C02197FE010E94B91ECA36D107C9F743
:101120000E94551C0C9465210C940000CF93DF9312
:10113000EC0180E391E0998388838A819B810E94FE
:10114000681F1B821A82CE0146960E948C12CE0125
:1011500040960E948C12CE010A960E948C12CE01FB
:101160000496DF91CF910C948C12CF93DF93EC0116
:101170000E949608CE01DF91CF910C94681F0F93C7
:101180001F93CF93DF93EC0188E191E099838883EB
:101190008A8D9B8D0E94681F1B8E1A8E8E010E5F9A
:1011A0001F4F49F06A96C017D10729F02697CE0144
:1011B0000E948C12F8CFDF91CF911F910F9108956B
:1011C000CF93DF93EC010E94BF08CE01DF91CF9156
:1011D0000C94681FCF92DF92EF92FF920F931F93B0
:1011E000CF93DF931F92CDB7DEB76C01DC01DC96A5
:1011F0001C91DC97DB960C917C01B4E0EB0EF11CAA
:10120000DC015996ED91FC915A97C70169830995C4
:10121000482F410F2981602FC7010E943116F60126
:1012200023AD082E000C990B820F911D83AF81E036
:1012300090E00F90DF91CF911F910F91FF90EF9071
:10124000DF90CF9008950895AF92BF92CF92DF9232
:10125000FF920F931F93CF93DF9300D0CDB7DEB7EC
:10126000F62E042F6C0144E0C40ED11CDC0159960B
:10127000ED91FC915A97C60129833A830995080F8D
:101280002981A22E3A81B32E10E0F50121915F0150
:10129000222341F0402F6F2DC6010E943116F80E17
:1012A000180FF3CF812F0F900F90DF91CF911F91E7
:1012B0000F91FF90DF90CF90BF90AF900895EF9285
:1012C000FF920F931F93CF93DF93EC018DAD8E01AF
:1012D0000C5F1F4F811105C081E08DAFC8010E94D6
:1012E0006F15EE80FF80EDA9FEA982E00995EDA9BA
:1012F000FEA981E0099520E030E044E1B701C80192
:101300000E9439159E01295C3F4F47E1B701C80192
:101310000E943915EDA9FEA980E0DF91CF911F91C0
:101320000F91FF90EF9009942F923F924F925F920E
:101330006F927F928F929F92AF92BF92CF92DF92E5
:10134000EF92FF920F931F93CF93DF93CDB7DEB74A
:10135000C854D1400FB6F894DEBF0FBECDBF2DB735
:101360003EB7CF5BDE4F39832883C154D14088E438
:1013700091E09A838983CE018B965E013DEBA31A9F
:101380003EEFB30A70E4872E71E0972EE8E36E2EED
:10139000E1E07E2ECC24CA94DC2CA8E02A2EA1E029
:1013A0003A2E28E231E0FC01B697918280827C01DE
:1013B00044E2E41AF108D70111967C926E921396DA
:1013C000DC92CE9212971596DC92CE9214971796D5
:1013D000DC92CE9216971996DC92CE9218971B96B5
:1013E000DC92CE921A97BCE0EB0EF11CE816F906DF
:1013F00011F78EE390E0C95BDE4F2883C754D140DC
:10140000C85BDE4F3883C854D1400E94D31E8C0184
:10141000FC011382128280E291E09183808313AEFB
:1014200014AE15AE280194E0490E511CC2010E9471
:101430001315D80117963C922E921697EAE09B96C8
:10144000EC939B97F9E09C96FC939C974CE09996C3
:101450004C9399978BE098968C93989798E09796F1
:101460009C93C2010E946F15C95BDE4F2881C7544F
:10147000D140C85BDE4F3881C854D140D8012D938C
:101480003C93F70111830083C70188968A159B0559
:1014900009F089CF8EE390E00E94D31E8C01DC011D
:1014A00013961C921E92129780E291E011969C93E3
:1014B0008E93DB961C92DB97DC961C92DC97DD9674
:1014C0001C927801B4E0EB0EF11CC7010E941315C9
:1014D00088E091E0F801978386838AE083A789E01A
:1014E00084A78CE081A78BE080A788E087A3C70151
:1014F0000E946F1588E291E0D8018D939C931C8324
:101500000B83C12CD12C8B819C810E945F0928E226
:101510002C9DC0012D9D900D11242C01B6E04B0E89
:10152000511CB601CE0101960E948B19EB80FC8004
:1015300068EF78E0C70104960E94D9156EE1762E17
:1015400000E010E0ADB6BEB64201800E911EE1E0B3
:10155000F0E0EC0FFD1F8E0E9F1EB401CE01835EE6
:101560009E4F0E94D019B401CE018D5D9E4F0E9406
:101570001F1AB401CE01875D9E4F0E949B1A6EE434
:1015800071E0CE01815D9E4F0E94BD12BE01675D7C
:101590007E4FCE01815D9E4F0E9405126CE471E08A
:1015A0000E94EC11BE016D5D7E4F0E9405126EE43B
:1015B00071E00E94EC11BE01635E7E4F0E94051235
:1015C0006EE471E00E94EC11CB5CDE4F1982188250
:1015D000C553D140C95CDE4F19821882C753D14030
:1015E000C75CDE4F19821882C953D140BC01CE01BD
:1015F0008B5C9E4F0E947512CE01815D9E4F0E94B2
:101600008C12CE01875D9E4F0E948C12CE018D5DA3
:101610009E4F0E948C12CE01835E9E4F0E948C12C0
:10162000C75CDE4F48815981C953D1404F5F5F4F3E
:101630002DB73EB7241B350B0FB6F8943EBF0FBE37
:101640002DBF8DB79EB701964C01BC01CE018B5CBE
:101650009E4F0E9494119401472D61E0C7010E94A2
:101660002409CE018B5C9E4F0E948C120FB6F89419
:10167000BEBE0FBEADBE045F1F4F9EE0790EA8E454
:101680007A1260CF8B819C8104960E943D15811156
:1016900048CF0E9481116CE870E00E94A51E8B016A
:1016A0000E944A110115110521F4C114D10459F405
:1016B000D3C40230110559F00330110509F496C264
:1016C000012B09F020CFB1E0CB1AD1081CCFC55CAB
:1016D000DE4F1882CB53D140A12CB12C00E010E09A
:1016E00088E28C9D70018D9DF00C1124E1E0F0E00A
:1016F000EC0FFD1FEE0DFF1DC15CDE4FF983E8838B
:10170000CF53D1403C96CD5BDE4FF983E883C35481
:10171000D140C701069621E030E02C0F3D1F280F75
:10172000391FCB5BDE4F39832883C554D1408B8171
:101730009C810E945F09B601CE0101960E948B191F
:101740008B819C81C35CDE4F99838883CD53D140CC
:1017500068EF78E004960E94D9156FE471E0CE013D
:101760008B5C9E4F0E94BD12212C312C9EE1C45CEB
:10177000DE4F9883CC53D140612C712C6FE471E023
:10178000CE018B5C9E4F0E945E126016710609F0BE
:101790002CC1A1E0AA16B10409F458C0B2E0AB16FE
:1017A000B10409F4C0C0A114B10409F078C160E526
:1017B00071E0CE018B5C9E4F0E944812ECE0E69DEA
:1017C0004001E79D900C11248E0C9F1CF6E08F0EBB
:1017D000911C21E030E02C0F3D1F820E931EB401BE
:1017E000CE01835E9E4F0E949B1ABE01635E7E4FB8
:1017F000CE018B5C9E4F0E945712CE01835E9E4F9E
:101800000E948C126DE372E0CE018B5C9E4F0E94B1
:1018100048126DE471E0CE018B5C9E4F0E9448122D
:10182000B401CE01835E9E4F0E941F1ABE01635E0B
:101830007E4FCE018B5C9E4F0E945712CE01835E7D
:101840009E4F0E948C126EE471E04DC06EE471E018
:10185000CE018B5C9E4F0E9448123CE0369D4001B9
:10186000379D900C11248E0C9F1C46E0840E911C19
:1018700081E090E08C0F9D1F880E991EB401845E5C
:101880009E4F0E949B1ABE01635E7E4FCE018B5C11
:101890009E4F0E945712CE01835E9E4F0E948C1273
:1018A00062E571E0CE018B5C9E4F0E94481260E5BC
:1018B00071E0CE018B5C9E4F0E944812B401CE01B4
:1018C000835E9E4F0E941F1ABE01635E7E4FCE0153
:1018D0008B5C9E4F0E945712CE01835E9E4F0E94EA
:1018E0008C126DE372E0CE018B5C9E4F0E94481219
:1018F000B401CE01835E9E4F0E94D019BE01635E8B
:101900007E4FCE018B5C9E4F0E945712CE01835EAC
:101910009E4F0E948C126EE471E0CE018B5C9E4F54
:101920000E944812BCC06EE471E0CE018B5C9E4FF9
:101930000E9448129CE0969D4001979D900C1124B6
:101940008E0C9F1CA6E08A0E911CE1E0F0E0EC0FEB
:10195000FD1F8E0E9F1EB401CE01835E9E4F0E941E
:101960009B1ABE01635E7E4FCE018B5C9E4F0E9430
:101970005712CE01835E9E4F0E948C126CE471E080
:10198000CE018B5C9E4F0E944812B401CE01835E53
:101990009E4F0E941F1ABE01635E7E4FCE018B5C7C
:1019A0009E4F0E945712CE01835E9E4F0E948C1262
:1019B00060E571E0CE018B5C9E4F0E944812B4013D
:1019C000CE01835E9E4F0E94D019BE01635E7E4FA2
:1019D000CE018B5C9E4F0E945712CE01835E9E4FBC
:1019E0000E948C126DE372E098CF4201820C931C2E
:1019F00021E030E02C0F3D1F820E931EB401CE017A
:101A0000835E9E4F0E94D019B401CE018D5D9E4F22
:101A10000E941F1AB401CE01875D9E4F0E949B1A3F
:101A20006EE471E0CE01815D9E4F0E94BD12BE0149
:101A3000675D7E4FCE01815D9E4F0E9405126CE472
:101A400071E00E94EC11BE016D5D7E4F0E94051297
:101A50006EE471E00E94EC11BE01635E7E4F0E9455
:101A600005126EE471E00E94EC11BC01CE018B5CAA
:101A70009E4F0E947512CE01815D9E4F0E948C1276
:101A8000CE01875D9E4F0E948C12CE018D5D9E4FD0
:101A90000E948C12CE01835E9E4F0E948C12C75C06
:101AA000DE4F48815981C953D1404F5F5F4F8DB69A
:101AB0009EB68DB79EB7841B950B0FB6F8949EBF4C
:101AC0000FBE8DBF2DB73EB72F5F3F4FB901CE017F
:101AD0008B5C9E4FC95BDE4F2883C754D140C85BE7
:101AE000DE4F3883C854D1400E949411C95BDE4F49
:101AF0002881C754D140C85BDE4F3881C854D140DB
:101B0000C45CDE4F4881CC53D14061E0C35CDE4F02
:101B100088819981CD53D1400E9424090FB6F89451
:101B20009EBE0FBE8DBE9FEF691A790AC45CDE4F60
:101B3000A881CC53D140A25FC45CDE4FA883CC53B4
:101B4000D140BCE02B0E311CA83409F017CECE01D9
:101B50008B5C9E4F0E948C128B819C8104960E940C
:101B60003D158111E8CD0E9481116CE870E00E9462
:101B7000A51E4B010E944A11E5E08E16910471F4F6
:101B8000C55CDE4FF881CB53D140FF2309F4AFC1D0
:101B9000C55CDE4F1882CB53D140C9CDC55CDE4F4A
:101BA0002881CB53D14021112AC0E1E08E16910447
:101BB000A9F03CF4892809F0BACD41E0A41AB10893
:101BC000B6CD22E08216910471F033E083169104C1
:101BD00009F0ADCD9FEFA91AB90AA9CD015011099D
:101BE00008F491CCA4CD0F5F1F4FA1CDAFEFCA1A5F
:101BF000DA0AB7E0CB16D1040CF485CC82CC0115FF
:101C00001105D1F0C80101972CE0289FF001299F10
:101C1000F00D1124EE0DFF1D21E030E02C0F3D1FD3
:101C2000E20FF31F84859585019609F407C280852C
:101C30009185019609F409C281E0A816B104B1F1B9
:101C400092E0A916B10409F4C1C0A114B10409F0CD
:101C500047C121E08216910491F42CE0209FC0013D
:101C6000219F900D11248E0D9F1D0696A1E0B0E0DE
:101C7000AC0FBD1F8A0F9B1F0E945A1B2CC0E2E0B5
:101C80008E16910409F0DAC12CE0209FC001219F3B
:101C9000900D11248E0D9F1D069621E030E02C0F33
:101CA0003D1F820F931F0E94151BCFC141E0841678
:101CB0009104C1F42CE0209FC001219F900D1124BC
:101CC0008E0D9F1D0696A1E0B0E0AC0FBD1F8A0FE0
:101CD0009B1F0E94361BB1E0C55CDE4FB883CB531F
:101CE000D14025CDE2E08E16910409F0AEC12CE082
:101CF000209FF001219FF00D1124EE0DFF1D81E0CA
:101D000090E08C0F9D1FE80FF91F84859585019643
:101D100009F4C3C080859185019609F4C5C0868504
:101D200097850A979787868797FF28C0828593852E
:101D300001979387828797FF1DC08FEF9FEF918751
:101D40008087938782879587848797878687A8016E
:101D50004F5F5F4F249FF001259FF00D1124EE0D82
:101D6000FF1D21E030E02C0F3D1FE20FF31F958394
:101D7000848304C082E390E0978786872CE0209FCD
:101D8000C001219F900D11248E0D9F1DE1E0F0E018
:101D9000EC0FFD1FE80FF91F408551852285338523
:101DA0004217530709F087C0468557852485358536
:101DB0004217530709F086C00696A1E0B0E0AC0FC9
:101DC000BD1F8A0F9B1F0E94151B85CFE1E08E1659
:101DD000910481F58CE0809FF001819FF00D11242A
:101DE000EE0DFF1D21E030E02C0F3D1FE20FF31F31
:101DF000248535852F3F3F4F09F46BC02085318501
:101E00002F3F3F4F09F465C098012F5F3F4F829FDE
:101E1000F001839FF00D1124EE0DFF1DA1E0B0E055
:101E2000AC0FBD1FEA0FFB1F84819581019695833E
:101E300084834FC0B2E08B16910409F04CCF8CE044
:101E4000809FF001819FF00D1124EE0DFF1D21E018
:101E500030E02C0F3D1FE20FF31F248535852F3F07
:101E60003F4FB9F1208531852F3F3F4FC9F1980190
:101E70002F5F3F4F829FF001839FF00D1124EE0DE5
:101E8000FF1DA1E0B0E0AC0FBD1FEA0FFB1F848176
:101E900095810197958384831ECF41E0C55CDE4F19
:101EA0004883CB53D14043CC81E0C55CDE4F88836F
:101EB000CB53D1403CCC91E0C55CDE4F9883CB53F3
:101EC000D14035CCA1E0C55CDE4FA883CB53D140D7
:101ED0002ECCE1E0C55CDE4FE883CB53D14027CC6C
:101EE000F1E0C55CDE4FF883CB53D14020CC011527
:101EF000110589F18CE0809FF001819FF00D112484
:101F0000EE0DFF1D81E090E08C0F9D1FE80FF91F83
:101F100084859585019629F080859185019609F043
:101F200071CE9801215031098CE0829FF001839F8E
:101F3000F00D1124EE0DFF1D81E090E08C0F9D1F30
:101F4000E80FF91F848595850196E1F480859185D8
:101F50000196C1F457CECD5BDE4FA881B981C35441
:101F6000D1408D919C91019609F457C0C15CDE4F20
:101F7000E881F981CF53D14080859185019609F0A0
:101F80005BCE4BC04CE0409FC001419F900D11249F
:101F90008E0D9F1D66246394712C6C0E7D1E680E41
:101FA000791E429FF001439FF00D1124EE0DFF1D9D
:101FB00021E030E02C0F3D1FE20FF31F268537850F
:101FC000D3011D963C932E931C97428553851996F9
:101FD0005C934E9318971B965C934E931A971F969B
:101FE0003C932E931E970696E1E0F0E0EC0FFD1F68
:101FF0008E0F9F1F0E94361BD3011E968D919C91C0
:102000001F97C3970CF4FECDF301178616868285C1
:102010009385019693878287F5CDCB5BDE4F8881D0
:102020009981C554D1400E945A1BB1E0C55CDE4F76
:10203000B883CB53D14000E010E079CB21E0C55C00
:10204000DE4F2883CB53D14072CB31E0C55CDE4FED
:102050003883CB53D1406BCBCE0101960E94A1189F
:10206000CF5BDE4F88819981C154D1400FB6F8947F
:102070009EBF0FBE8DBFC85BDE4F0FB6F894DEBFAC
:102080000FBECDBFDF91CF911F910F91FF90EF90C9
:10209000DF90CF90BF90AF909F908F907F906F9088
:1020A0005F904F903F902F9008953FB7F8948091A4
:1020B000350390913603A0913703B091380326B5CC
:1020C000A89B05C02F3F19F00196A11DB11D3FBF70
:1020D000BA2FA92F982F8827820F911DA11DB11DFE
:1020E000BC01CD0142E0660F771F881F991F4A95FA
:1020F000D1F70895CF92DF92EF92FF920F931F9343
:10210000CF93DF936C017A018B01C0E0D0E0CE1554
:10211000DF0589F0D8016D918D01D601ED91FC911B
:102120000190F081E02DC6010995892B11F47E0103
:1021300002C02196ECCFC701DF91CF911F910F9183
:10214000FF90EF90DF90CF9008950895DC011696F0
:10215000ED91FC91179712968C91481B477081E086
:1021600090E001C0880F4A95EAF7E60FF11D308133
:10217000222311F0832B02C080958323808308954E
:102180000E94CA200F931F93CF93DF93EC018881A5
:102190009981009729F02A813B812617370788F417
:1021A0008B016F5F7F4F0E940020009761F0998341
:1021B00088831B830A832C813D81232B11F4FC012E
:1021C000108281E001C080E0DF91CF911F910F91DB
:1021D0000895EF92FF920F931F93CF93DF93FC012B
:1021E000248135816115710511F480E019C0411514
:1021F0005105A9F07B01EC018A01020F131FB80100
:102200000E94C210882389F3288139818C819D81A5
:10221000B701820F931F0E94D8201D830C8381E099
:10222000DF91CF911F910F91FF90EF900895CF9381
:10223000DF93EC0188819981009711F00E94681F5B
:10224000198218821D821C821B821A82DF91CF9113
:102250000895EF92FF920F931F93CF93DF93EC01BA
:102260007B018A01BA010E94C210811104C0CE0113
:102270000E94171107C01D830C83B70188819981C3
:102280000E94D820CE01DF91CF911F910F91FF9036
:10229000EF9008958F929F92AF92BF92CF92DF926C
:1022A000EF92FF920E9455104B015C0182E8C82E0C
:1022B000D12CE12CF12C0E945510DC01CB018819A6
:1022C0009909AA09BB09883E9340A105B10558F0B8
:1022D00021E0C21AD108E108F10888EE880E83E0F7
:1022E000981EA11CB11CC114D104E104F10419F71A
:1022F000FF90EF90DF90CF90BF90AF909F908F9026
:10230000089581E480937C0080917A0080648093BA
:102310007A0080917A0086FDFCCF80917800209130
:10232000790090E0922B08950F931F93CF93DF9342
:1023300041155105E9F061157105D1F0FC012481C9
:1023400035812115310519F4FB01108211C0EA0114
:1023500021972C173D0708F4E9018B01FC016081EE
:102360007181AE01C8010E94DF20C00FD11F188209
:10237000DF91CF911F910F910895DF92EF92FF921D
:102380000F931F93CF93DF93EC018CA99EA99F30ED
:10239000D8F08031C8F48BA98038B0F410E08FE019
:1023A000D82E0FEF7E018CE1E80EF11C6A817B8153
:1023B0001C8FDD8E1F8E0E8F97014BE3CE010E9486
:1023C0003915185F103891F7DF91CF911F910F9158
:1023D000FF90EF90DF900895CF93DF93EC016115AC
:1023E000710561F0FB0101900020E9F73197AF0121
:1023F000461B570B0E94E910811103C0CE010E94B9
:102400001711CE01DF91CF910895CF93DF93EC01A7
:10241000FB0144815581608171810E94E910811125
:1024200003C0CE010E941711CE01DF91CF91089514
:10243000EF92FF920F931F93CF93DF93CDB7DEB749
:1024400028970FB6F894DEBF0FBECDBF7C01CB013D
:102450004AE08E010F5F1F4FB8010E94F920F8017A
:1024600001900020E9F73197AF01401B510BB801F3
:10247000C7010E94E91028960FB6F894DEBF0FBE80
:10248000CDBFDF91CF911F910F91FF90EF900895F5
:102490006115710551F0FB0101900020E9F73197BA
:1024A000AF01461B570B0C94E91080E00895FB0127
:1024B00044815581608171810C94E910CF93DF9341
:1024C000EC016115710559F0FB0101900020E9F75D
:1024D0003197AF01461B570B0E94291102C00E9481
:1024E0001711CE01DF91CF910895CF93DF93EC01C7
:1024F000FB018617970761F0608171816115710595
:1025000029F0448155810E94291102C00E941711AF
:10251000CE01DF91CF910895FC01808191810C94CF
:10252000681F0F931F93CF93DF93CDB7DEB76297EA
:102530000FB6F894DEBF0FBECDBF8C01CB01F80102
:1025400011821082138212821582148250E0BE0121
:102550006F5F7F4F0E94EE20BE016F5F7F4FC8010B
:102560000E945E1262960FB6F894DEBF0FBECDBF1A
:10257000DF91CF911F910F910895FC01118210827C
:1025800013821282158214826115710551F0FB01CC
:1025900001900020E9F73197AF01461B570B0C94CF
:1025A0002911089590E0FC01EC58FF4E3491FC0194
:1025B000E05AFF4E2491FC01E45BFF4EE491EE23D0
:1025C00009F43BC0332339F1333091F038F4313022
:1025D000A9F0323001F584B58F7D12C0373091F00B
:1025E0003830A1F03430B9F4809180008F7D03C081
:1025F000809180008F77809380000DC084B58F77A5
:1026000084BD09C08091B0008F7703C08091B00075
:102610008F7D8093B000F0E0EE0FFF1FEE5BFF4E6A
:10262000A591B4918FB7F894EC91611103C02095F6
:102630002E2301C02E2B2C938FBF08951F920F9233
:102640000FB60F9211242F933F938F939F93AF93C5
:10265000BF938091310390913203A0913303B091E5
:1026600034033091300323E0230F2D3720F40196FB
:10267000A11DB11D05C026E8230F0296A11DB11DA5
:10268000209330038093310390933203A09333035C
:10269000B09334038091350390913603A0913703B2
:1026A000B09138030196A11DB11D8093350390931D
:1026B0003603A0933703B0933803BF91AF919F9136
:1026C0008F913F912F910F900FBE0F901F901895F3
:1026D000FB014181DC0112962C911297421768F0A0
:1026E00013962C911397241740F0608115962C9126
:1026F000621718F424810C94A6100895FC018081BF
:102700009281980F92832181921760F494819F5F48
:1027100094839381890F821710F08FEF820F838348
:1027200081E0089580E00895FC011282808181504B
:1027300083831482089580E008950B96FC018491B0
:1027400008950A96FC0184910895FC0184910895EE
:102750000E94A513882321F0823011F083E00895B0
:1027600086E00895FC01E60FF11D849190E0982F1A
:1027700088273196E4918E0F911D089568E00C949E
:10278000B21366E00C94B2138F929F92AF92BF92F5
:10279000CF92DF92FF920F931F93CF93DF9300D0DE
:1027A000CDB7DEB76C018B01F42E490120E1421751
:1027B00009F467C0241700F13AE0431729F18FE0CC
:1027C000481369C041E0C6010E94121940E0B801F7
:1027D000C6010E94091941E8B801C6010E9400190A
:1027E000F4014081B801C6010E94001940E0B8011F
:1027F000C6010E94121908C1A1E14A1709F444C098
:10280000B5E14B1791F047C0DB011496ED91FC91B7
:10281000159720E030E042E061E0099544EA50E19C
:10282000B801C6010E941B1936C0FB01A280B3800B
:102830004CE950E10E941B19D50114964C91406B54
:10284000B801C6010E94001941E0B801C6010E940A
:102850000919F50126813781D8011496ED91FC9173
:102860001597D50115964C9166E0C6010995811121
:1028700002C080E0CAC040E0B801C6010E9412193F
:102880000AC043E950E102C048E850E1B801C6017E
:102890000E941B19B9C0D80112960D911C91139773
:1028A000B2E3FB1609F474C0BF15B8F0E5E1FE16FB
:1028B00009F47BC0F7E1FF1609F48DC024E1F212A0
:1028C000A3C0D8011696ED91FC91179715968C919F
:1028D0009F01280F311DC90160C036E4F31609F4C9
:1028E0008AC087E4F81609F48AC0ABE3FA128CC0F8
:1028F000F40181819381913029F0933031F4482F94
:10290000885004C048E0480F01C0482F21E0D8019A
:1029100013963C91381708F420E031E0F801528119
:10292000451708F430E051E0481708F050E0822FD6
:10293000852B382319F4252309F466C0D401129697
:10294000FC90913051F030F0923049F0933051F4D6
:102950002FEF09C020E031E007C021E004C020E0F3
:102960003FEF02C020E030E0F7FE08C0B401C8012C
:102970002A8339830E94681339812A81F401808176
:10298000830F80838181820F8183FF0C69F73CC0B4
:10299000B401C8010E94681337C01192E817F90703
:1029A000E1F7C8010E9494132FC0C8010E947E1352
:1029B000882309F45ECFD8011696ED91FC91179704
:1029C00015968C919F01280F311DC9011192E817AE
:1029D000F907E1F719C0D4011C92F8018281119620
:1029E0008C9311978581815012968C9312978381D5
:1029F00013968C9309C0D80115968C9103C0D80109
:102A000011968C91F401808381E00F900F90DF91FB
:102A1000CF911F910F91FF90DF90CF90BF90AF901B
:102A20009F908F900895FC01158214821782168260
:102A3000118681E0808782E2828717861686DF0111
:102A40009396CF01C1962FEF2D93A817B907E1F701
:102A500081E080A32BE933E1368B258B878B108EA9
:102A6000118E80E4828F138E85EA90E192AB81AB68
:102A70000895DB01ED91FC910994EF92FF921F9371
:102A8000CF93DF93EC01EE85FF85309709F0099530
:102A9000EA80FB80E9A9FAA982E00995E9A9FAA9E7
:102AA00081E0099520E030E045E1B701CE010E94C8
:102AB0003915182F882341F09E012D5C3F4F47E1C7
:102AC000B701CE010E943915E9A9FAA980E009955C
:102AD000812FDF91CF911F91FF90EF900895EF929A
:102AE000FF920F931F93CF93DF931F92CDB7DEB763
:102AF0008C01DC011296ED90FC901397D196ED912C
:102B0000FC91D29782E0099520E030E04AE0B701DD
:102B1000C8010E943915F82ED801D196ED91FC918B
:102B2000D29783E00995D801D196ED91FC91D29787
:102B300080E00995FF20A1F1F801628173819E0177
:102B40002F5F3F4F46E4C8010E9439158981D801A3
:102B50008C9312966D917C9113979E012F5F3F4F3E
:102B600047E4C8010E9439158981F8018183628197
:102B7000738120E030E048E4C8010E943915D80193
:102B80001B968C931B9798012D5C3F4F12966D916D
:102B90007C91139747E1C8010E94391581E001C07B
:102BA00080E00F90DF91CF911F910F91FF90EF90F8
:102BB0000895DC0114968D919C91159786179707BF
:102BC00009F44EC015967C936E93149761157105A8
:102BD00009F440C057968C915797FB01811108C0AA
:102BE0003596E4915896EC935897FB013C9611C0AA
:102BF000813041F43F96E4915896EC935897FB014D
:102C0000709607C03D96E4915896EC935897FB0157
:102C10003E96649159966C93599758968C91589713
:102C2000082E000C990B59962C915997821B9109EB
:102C300027FD93955A962C915A97203441F0829F04
:102C4000C001112426E0969587952A95E1F75B96B9
:102C50008C935B978BE993E156969C938E93559753
:102C600008954F925F926F927F928F929F92AF9250
:102C7000BF92CF92DF92EF92FF920F931F93CF9369
:102C8000DF931F92CDB7DEB72C01E62EF42EC22EB5
:102C9000DC0114960D911C911597C8010E94A51393
:102CA000D82EF201848195810E94A813982EF1E01C
:102CB000DF1203C02FE0A22E02C0AA24AA94D201E0
:102CC00014968D919C9115970E94A113D82EF20114
:102CD000848195810E949D13B82ED20114968D9106
:102CE0009C9115970E94BE13B0E6BC1538F400976E
:102CF00029F0080F191F91E6D92E11C0F201848125
:102D000095810E94C113F0E4FC1538F4009729F076
:102D1000080F191F81E4D82E02C00F5E1F4FBC148C
:102D200080F4D20150961C92509753961C92539760
:102D300054961C92549751961C92519752961C92FD
:102D4000A0C0BD1470F3892D90E0F80124912F3FAD
:102D500019F40F5F1F4F5AC0DC104FC0D2011496F8
:102D60008D919C9115970E94A51398012F5F3F4F5D
:102D7000F801882311F08230E1F48491D201539656
:102D80008C935397F901249154962C935497F801FE
:102D90003396E4915096EC935097F8013496E49171
:102DA0005196EC935197F8013596E4915296EC9335
:102DB00020C08491982F9F709250D20152969C937C
:102DC000529782958F7051968C935197F901249167
:102DD000822F8F7054968C93549722952F70539610
:102DE0002C935397F8013296E491E295EF70509648
:102DF000EC930115110579F444C0F8013296E49181
:102E0000EA219C012E0F311D020F131FDB1409F460
:102E100088CFD3949ACFF201848195810E94A81320
:102E2000D20153963C91539754962C9154975196B6
:102E30005C91519752969C915297920FF91A9FEF7D
:102E4000920F9F0DD4964C91D497D6966C916F1596
:102E500018F0941728F402C0941780F09F1570F4AE
:102E6000E50E9FEF930F9E0DD201D3964C91D39711
:102E7000D5965C915E1538F4941738F4F201808988
:102E80003FC080E03DC0941710F49E15B8F7080FBE
:102E9000111D395F732E7694769476946F2C620EA2
:102EA0005201FCE1AF0EB11C872C912CF61431F3CA
:102EB0005E2D68018C2D801B8715F0F4F60184913E
:102EC000D20112966D917C9113975C965C935C97FE
:102ED0005D96FC925D975F961C925F975E968C93D1
:102EE00095014BE3C20159830E943915BFEFCB1AFC
:102EF000DB0A5981585FDECF080D191DF394D6CF38
:102F00000F90DF91CF911F910F91FF90EF90DF9085
:102F1000CF90BF90AF909F908F907F906F905F9079
:102F20004F9008952EE93FE0009729F0F90131977D
:102F3000F1F70197F9CF0895509141036091400353
:102F400040913F0330913E03A0913C03B0913D037B
:102F5000E0913A03F0913B039FB790933903F894C3
:102F600098E02C9187FF02C0252B01C026232C93CB
:102F70002081242B2083880F2081232320839150BC
:102F800081F7809139038FBF0895282F30E0F90130
:102F9000E45BFF4EE491F0E0EE0FFF1FEE5BFF4EAF
:102FA0008591949190933D0380933C0370E0FB01E5
:102FB000E45BFF4E9491E92FF0E0EE0FFF1FEE5B14
:102FC000FF4E8591949190933B0380933A03F901CE
:102FD000E05AFF4E249120934103FB01E05AFF4E3B
:102FE000649160933F03609560933E032095209326
:102FF00040030895860F911DFC0183A18F3F19F0B6
:10300000642F0C94D2120895CF92DF92EF92FF9228
:103010000F931F93CF93DF931F92CDB7DEB76C0151
:103020008901862F90E0FC013197E730F10508F027
:103030007BC0EC5CFF4F0C94B91E760183E2E80E76
:10304000F11C8601005D1F4FF70120812F3F21F108
:1030500030E0F901E05AFF4E4491F901E45BFF4E84
:1030600024912223A1F030E0220F331FF901E6530F
:10307000FF4EA591B491F901EE5BFF4E85919491BD
:103080008FB7F8949C91E92FE42BEC938FBF61E00C
:10309000F70180810E94D212FFEFEF1AFF0AE016BB
:1030A000F10691F640E064E0C6010E94FA1740E0A4
:1030B00065E012C0F60183A18F3FB1F160E031C03D
:1030C000411103C041E062E02CC040E064E0C60171
:1030D0000E94FA1740E062E0C6010E94FA17F6016A
:1030E00067A180A50E94C5171FC0842F0E949C174E
:1030F0001BC04423C9F0F80181918F0149830E94CC
:103100009C1749814150F5CF442371F0F801849117
:1031100049830E949C170F5F1F4F49814150F4CF94
:1031200061E0C6010E94FA1781E00F90DF91CF9114
:103130001F910F91FF90EF90DF90CF9008950C9426
:10314000681F0F931F93CF93DF93EC0188E491E006
:10315000998388838A819B810E94681F1B821A82BF
:103160008E010C5F1F4F71F0C45EDE4FC017D10798
:1031700049F0A897E881F9810190F081E02DCE0116
:103180000995F4CFDF91CF911F910F910895CF93BF
:10319000DF93EC010E94A118CE01DF91CF910C9436
:1031A000681F0F931F93CF93DF93EC0180E491E0AE
:1031B000998388838EA19FA10E94681F1FA21EA2CF
:1031C0008E010E5F1F4F69F0A696C017D10749F018
:1031D0002C97E881F9810190F081E02DCE010995CD
:1031E000F4CFDF91CF911F910F910895CF93DF938B
:1031F000EC010E94D118CE01DF91CF910C94681F91
:10320000DB011496ED91FC91159720E030E065E02C
:103210000994DB011496ED91FC91159720E030E0C4
:1032200062E00994DB011496ED91FC91159720E082
:1032300030E063E00994CF92DF92EF92FF920F9318
:103240001F93CF93DF938C017B016A0180E0F6012D
:10325000C49181110BC0CF3F09F44CC04C2FB70172
:10326000C8010E940019811143C049C0CF3F11F429
:103270004FEFF5CFCE3F09F444C0C03FC8F5C03E84
:1032800038F04C2F4F70B701C8010E94091930C0A7
:10329000C03D38F04C2F4F70B701C8010E94121981
:1032A00027C0C03CF8F0D7011496ED91FC9115971A
:1032B00020E030E040E064E0C8010995C295C07F9D
:1032C000CE5FD0E0CE010E949217D7011496ED9107
:1032D000FC91159720E030E041E064E0C8010995D9
:1032E000CE0104C0C7FD04C08C2F90E00E9492174D
:1032F00080E001C081E0BFEFCB1ADB0AA8CF80E0FD
:1033000001C081E0DF91CF911F910F91FF90EF906D
:10331000DF90CF9008950F931F93CF93DF938C018D
:10332000EB01DC0112968D919C91139768E870E097
:1033300004960E94D915C930D10540F5FE01E55C1F
:10334000FF4FD80112968D919C9113970C94B91E42
:1033500025EA31E017C02BEB31E014C021ED31E05C
:1033600011C027EE31E00EC02DEF31E00BC023E19C
:1033700032E008C029E232E005C02FE332E002C0AB
:1033800025E532E04DE060E00E942409F8018281E9
:1033900093810496DF91CF911F910F910C94BD11F1
:1033A000EF92FF920F931F93CF93DF9300D000D043
:1033B00000D0CDB7DEB78C017B016FE471E00E94D5
:1033C000BD12F701628573856F3FFFEF7F0731F410
:1033D0006BE672E0C8010E9448121EC06A30710597
:1033E00064F466E971E0C8010E944812F701628541
:1033F0007385C8010E9418120FC04AE0CE010196E1
:103400000E949112BE016F5F7F4FC8010E94571248
:10341000CE0101960E948C1262EA71E0C8010E94FE
:103420004812C80126960FB6F894DEBF0FBECDBF76
:10343000DF91CF911F910F91FF90EF900895EF9240
:10344000FF920F931F93CF93DF9300D000D000D053
:10345000CDB7DEB78C017B016FE471E00E94BD1235
:10346000F701848195818F3FFFEF9F0731F46BE671
:1034700072E0C8010E945E1220C00A9764F466E9F7
:1034800071E0C8010E944812F70164817581C8018A
:103490000E94181212C0F701628173814AE0CE01C6
:1034A00001960E949112BE016F5F7F4FC8010E947A
:1034B0005712CE0101960E948C126EE672E0C8018E
:1034C0000E944812F701608571856F3FFFEF7F070B
:1034D00031F46BE672E0C8010E9448121EC06A30E7
:1034E000710564F466E971E0C8010E944812F701B1
:1034F00060857185C8010E9418120FC04AE0CE0194
:1035000001960E949112BE016F5F7F4FC8010E9419
:103510005712CE0101960E948C12C80126960FB652
:10352000F894DEBF0FBECDBFDF91CF911F910F91F9
:10353000FF90EF900895EF92FF920F931F93CF9318
:10354000DF9300D000D000D0CDB7DEB78C017B0177
:103550006FE471E00E94BD12F701628173816F3FD9
:10356000FFEF7F0731F46BE672E0C8010E9448125A
:103570001EC06A30710564F466E971E0C8010E94FA
:103580004812F70162817381C8010E9418120FC0AE
:103590004AE0CE0101960E949112BE016F5F7F4FFB
:1035A000C8010E945712CE0101960E948C126EE64D
:1035B00072E0C8010E944812F701668177816F3F6F
:1035C000FFEF7F0731F46BE672E0C8010E944812FA
:1035D0001EC06A30710564F466E971E0C8010E949A
:1035E0004812F70166817781C8010E9418120FC046
:1035F0004AE0CE0101960E949112BE016F5F7F4F9B
:10360000C8010E945712CE0101960E948C12C80177
:1036100026960FB6F894DEBF0FBECDBFDF91CF91D7
:103620001F910F91FF90EF900895FC018681978183
:103630000A979783868397FF18C0828193810197A9
:103640009383828397FF0DC08FEF9FEF93838283D5
:1036500095838483978386839187808793878287E6
:10366000089582E390E0978386830895FC01868124
:1036700097810196F1F0828193810196D1F0808546
:103680009185019641F484819581019621F41186FA
:10369000108615821482808591850A96918780878D
:1036A000CC9739F484819581019695838483118622
:1036B00010860895CF93DF93EC018E819F81019650
:1036C00041F48A819B81019621F41F821E821B8214
:1036D0001A828E819F81892B39F48A819B81892B63
:1036E00019F4CE010E94361B8E819F810A969F831A
:1036F0008E83CC9739F48A819B8101969B838A8340
:103700001F821E822A813B818C819D812817390767
:1037100061F4288539858E819F812817390729F41E
:10372000CE01DF91CF910C94361BDF91CF9108959C
:1037300080EF92E00E94BF0880E193E00C9496082D
:103740000F931F93CF93DF9380E391E09093110346
:10375000809310036FE471E084E193E00E94BD1256
:103760006FE471E08AE193E00E94BD126FE471E0C2
:1037700080E293E00E94BD126FE471E086E293E084
:103780000E94BD128EE390E00E94D31EEC011B82CA
:103790001A8280E291E0998388831BAE1CAE1DAE35
:1037A0008E010C5F1F4FC8010E94131588E091E045
:1037B0009F838E838AE08BA789E08CA78CE089A702
:1037C0008BE088A788E08FA3C8010E946F1588E26C
:1037D00091E099838883D0931303C093120388E107
:1037E00091E09093F1028093F002C0E0D0E06FE4AA
:1037F00071E0CE018E509D4F0E94BD122696C831B9
:10380000D105A9F78EE390E00E94D31EEC011B8244
:103810001A8280E291E0998388831BAE1CAE1DAEB4
:103820008E010C5F1F4FC8010E94131588E091E0C4
:103830009F838E838AE08BA789E08CA78CE089A781
:103840008BE088A788E08FA3C8010E946F1588E2EB
:1038500091E099838883D0930B03C0930A0310925D
:103860000D0310920C038FEF9FEF90930F03809343
:103870000E0365E571E082EF92E00E945E1263E65E
:1038800071E088EF92E00E945E1261E771E08EEFD6
:1038900092E00E945E126BE771E084E093E0DF91BA
:1038A000CF911F910F910C945E12CF93DF9300D0B4
:1038B00000D000D0CDB7DEB7789484B5826084BDE7
:1038C00084B5816084BD85B5826085BD85B5816024
:1038D00085BD80916E00816080936E0010928100A2
:1038E000809181008260809381008091810081605D
:1038F000809381008091800081608093800080911E
:10390000B10084608093B1008091B00081608093A9
:10391000B00080917A00846080937A0080917A0070
:10392000826080937A0080917A00816080937A002F
:1039300080917A00806880937A001092C1000CE830
:1039400010E033E0432E512C80912C0390912D03F5
:103950008130910561F18230910519F426E0D22E73
:1039600082C1892B09F0BBC180911203909113038E
:103970000E945F09809112039091130368E870E040
:1039800004960E94D9152FE431E04DE06AE0809161
:103990001203909113030E942409809112039091C5
:1039A000130304960E943D158111E4CF98C16DB6B2
:1039B0007EB667E871E084E193E00E945E1262E9FE
:1039C00071E08AE193E00E945E1268E971E080E2B2
:1039D00093E00E945E1260EA71E086E293E00E944A
:1039E0005E1240911803509119034F5F5F4F2DB73E
:1039F0003EB7241B350B0FB6F8943EBF0FBE2DBF4C
:103A00008DB79EB701964C0180911E0390911F03C4
:103A10000196281B390B0FB6F8943EBF0FBE2DBF81
:103A20008DB79EB701965C01809124039091250388
:103A30000196281B390B0FB6F8943EBF0FBE2DBF61
:103A40008DB79EB701966C0180912A0390912B034C
:103A50000196281B390B0FB6F8943EBF0FBE2DBF41
:103A60008DB79EB701967C01B40184E193E00E947A
:103A7000941140911E0350911F034F5F5F4FB5019A
:103A80008AE193E00E949411409124035091250310
:103A90004F5F5F4FB60180E293E00E949411409126
:103AA0002A0350912B034F5F5F4FB70186E293E0EB
:103AB0000E94941180911203909113030E945F0958
:103AC000809112039091130368E870E004960E94BD
:103AD000D91594014DE06AE080911203909113038F
:103AE0000E94240995014DE06BE4809112039091AE
:103AF00013030E942409960146E268E280911203B2
:103B0000909113030E942409970147E368E2809192
:103B10001203909113030E94240980911203909143
:103B2000130304960E943D158111CACF0FB6F89475
:103B30007EBE0FBE6DBED3C080910A0390910B0371
:103B400068EF78E004960E94D9156FE471E0CE0129
:103B500001960E94BD1282EFA82E82E0B82E9AE054
:103B6000C92EE12CF12C8DB69EB66FE471E0CE012A
:103B700001960E945E1280910C0390910D038E15A8
:103B80009F0509F077C060E571E0CE0101960E94C3
:103B90004812DE9CB001DF9C700D11246E507D4FE9
:103BA000CE0101960E9457126DE372E0CE0101969C
:103BB0000E9448124D815E814F5F5F4F2DB73EB727
:103BC000241B350B0FB6F8943EBF0FBE2DBF8DB72B
:103BD0009EB701963C01BC01CE0101960E94941152
:103BE00093014C2D6AE080910A0390910B030E948F
:103BF00024090FB6F8949EBE0FBE8DBE9FEFE91A42
:103C0000F90A2FE0C20E36E0A30EB11C86E4C812FA
:103C1000AACFCE0101960E948C1280910A03909146
:103C20000B0304960E943D15811186CF0E948111DD
:103C3000B8010E94A51E70930F0360930E030E94AB
:103C40004A1180910E0390910F038230910561F12A
:103C500085309105D9F10197D9F080910E039091AB
:103C60000F03892BE1F180910A0390910B030E94CD
:103C70005F0962CF6EE471E0CE0101960E944812A6
:103C8000B501CE0101960E9457126EE471E08ECF0D
:103C900080910C0390910D03019797FF0DC05092F6
:103CA0000D0340920C03D9CF80910C0390910D032A
:103CB0000196843091052CF490930D0380930C03AE
:103CC000CCCF10920D0310920C03C7CF80910C0340
:103CD00090910D03892B09F60E949409BECF0E9492
:103CE0008111B8010E94A51E7B0170932F03609380
:103CF0002E030E944A11E114F10429F095E0E9161F
:103D0000F10469F01AC080912C0390912D03019762
:103D100097FF0FC010922D0310922C030EC08091BC
:103D20002C0390912D0301968330910514F082E0CD
:103D300090E090932D0380932C0380E090E0892BFA
:103D400009F402CE0E940000FCCD97FB072E16F46A
:103D5000009407D077FD09D00E94BF1E07FC05D054
:103D60003EF4909581959F4F0895709561957F4F92
:103D70000895EE0FFF1F0590F491E02D0994AA1B02
:103D8000BB1B51E107C0AA1FBB1FA617B70710F046
:103D9000A61BB70B881F991F5A95A9F78095909578
:103DA000BC01CD010895CF93DF938230910510F4CB
:103DB00082E090E0E0914403F091450320E030E0A0
:103DC000C0E0D0E0309711F1408151814817590788
:103DD000C0F04817590761F482819381209719F048
:103DE0009B838A832BC0909345038093440326C012
:103DF0002115310519F04217530718F49A01BE0135
:103E0000DF01EF010280F381E02DDCCF21153105C8
:103E100009F1281B390B2430310590F412968D914D
:103E20009C9113976115710521F0FB0193838283A7
:103E300004C09093450380934403FD01329644C02F
:103E4000FD01E20FF31F81939193225031092D93CD
:103E50003C933AC02091420330914303232B41F419
:103E600020911001309111013093430320934203BC
:103E700020910E0130910F012115310541F42DB72C
:103E80003EB74091120150911301241B350BE09174
:103E90004203F0914303E217F307A0F42E1B3F0BFC
:103EA0002817390778F0AC014E5F5F4F24173507AC
:103EB00048F04E0F5F1F509343034093420381939A
:103EC000919302C0E0E0F0E0CF01DF91CF9108953F
:103ED0000F931F93CF93DF93009709F48CC0FC01DD
:103EE0003297138212820091440310914503011509
:103EF000110581F420813181820F931F20914203AB
:103F0000309143032817390779F5F0934303E09381
:103F1000420371C0D80140E050E0AE17BF0750F433
:103F200012962D913C911397AD012115310509F1A0
:103F3000D901F3CF9D01DA0133832283608171813E
:103F4000860F971F8217930769F4EC012881398146
:103F5000260F371F2E5F3F4F318320838A819B813D
:103F600093838283452B29F4F0934503E093440324
:103F700042C01396FC93EE931297ED01499159912B
:103F80009E01240F351FE217F30771F480819181A0
:103F9000840F951F029611969C938E938281938134
:103FA00013969C938E931297E0E0F0E0D80112965E
:103FB0008D919C911397009719F0F8018C01F6CF21
:103FC0008D919C9198012E5F3F4F820F931F2091FE
:103FD0004203309143032817390769F4309729F4D5
:103FE000109245031092440302C013821282109370
:103FF000430300934203DF91CF911F910F910895E6
:10400000A0E0B0E0E6E0F0E20C943221EC01009791
:1040100021F4CB010E94D31EB8C0FC01E60FF71FAC
:104020009C0122503109E217F30708F4ACC0D90112
:104030000D911C91119706171707B0F00530110567
:1040400008F49FC0C80104978617970708F499C021
:1040500002501109061B170B019311936D937C936A
:10406000CF010E94681F8DC05B01A01AB10A4C01EC
:10407000800E911EA0914403B091450340E050E0B2
:10408000E12CF12C109709F44AC0A815B905D1F517
:104090006D907C901197630182E0C80ED11CCA1408
:1040A000DB0480F1A3014A195B096A0182E0C80EB2
:1040B000D11C1296BC9012971396AC91B5E0CB161A
:1040C000D10440F0B282A38351834083D9016D9320
:1040D0007C930AC00E5F1F4FC301800F911FF9012F
:1040E00091838083EB2DFA2FE114F10431F0D70195
:1040F0001396FC93EE93129744C0F0934503E0931C
:1041000044033FC08D919C9111974817590708F4BB
:10411000AC017D0112960D90BC91A02DB3CF809182
:1041200042039091430388159905E1F44617570718
:10413000C8F480910E0190910F01009741F48DB762
:104140009EB74091120150911301841B950BE81703
:10415000F907C8F4F0934303E0934203F901718334
:1041600060830FC0CB010E94D31E7C01009759F0E1
:10417000A801BE010E94CF20CE010E94681FC70186
:1041800004C0CE0102C080E090E0CDB7DEB7EEE023
:104190000C944E2181E090E0F8940C946521FB0191
:1041A000DC0102C001900D9241505040D8F70895B3
:1041B000FB01DC0101900D920020E1F70895FB0165
:1041C000DC014150504048F001900D920020C9F7A9
:1041D00001C01D9241505040E0F70895453251050D
:1041E00020F4423010F00C94F920FB011082CB0136
:1041F0000895BB274A3031F4992322F4BDE290950B
:1042000081959F4F0C940521BB27FB015527AA27B9
:10421000880F991FAA1FA41710F0A41B8395505153
:10422000B9F7A05DAA3308F0A95DA193009779F7CB
:10423000B111B1931192CB010C941E21DC01FC0150
:10424000672F71917723E1F7329704C07C916D93CA
:1042500070836291AE17BF07C8F308952F923F9203
:104260004F925F926F927F928F929F92AF92BF9286
:10427000CF92DF92EF92FF920F931F93CF93DF9332
:10428000CDB7DEB7CA1BDB0B0FB6F894DEBF0FBE8F
:10429000CDBF09942A88398848885F846E847D84DC
:1042A0008C849B84AA84B984C884DF80EE80FD80DE
:1042B0000C811B81AA81B981CE0FD11D0FB6F89454
:1042C000DEBF0FBECDBFED01089518E0CBE6D8E00C
:1042D00004C0FE010E94B91E2196CC36D107C9F751
:0442E000F894FFCF80
:1042E4000840000000807002C4130001041800009C
:1042F4004603800000000000BF08E0080000000042
:10430400EA087A1000000000EA087A1000000000B1
:104314009608B5080000000023099F18000000005B
:10432400D118F61800000000A118C718202D20008D
:104334005B00202D005345542054494D45544142BF
:104344004C450053455420444154452F54494D4550
:104354000053455420414C2F4146005345542053AB
:10436400494D2F534D530031322E30332E323031DC
:10437400360031353A3330004175746F2F414C00AB
:1043840032322043005B505D2055202053202043CF
:1043940020205020205320204E20002050205B5508
:1043A4005D205320204320205020205320204E20E5
:1043B400002050202055205B535D204320205020B6
:1043C400205320204E200020502020552020532010
:1043D4005B435D205020205320204E20002050209D
:1043E4002055202053202043205B505D2053202063
:1043F4004E200020502020552020532020432020F0
:1044040050205B535D204E2000205020205520205A
:1044140053202043202050202053205B4E5D005B1E
:10442400505D5B555D5B535D5B435D5B505D20534D
:1044340020204E20002050202055202053202043AF
:10444400202050205B535D5B4E5D002D2D003A0013
:00000001FF
