:100000000C9430060C948E0C0C94670C0C94040C1D
:100010000C94A10B0C94300B0C9458060C945806BD
:100020000C9458060C9458060C9458060C945806D8
:100030000C9458060C9458060C9458060C945806C8
:100040000C949C1D0C9458060C948F0E0C94690E05
:100050000C9458060C9458060C9458060C945806A8
:100060000C94B3090C945806081108110811D0110A
:10007000D011301145115C11691177119211D01115
:10008000D011D011B81139159215A615B215B615A3
:10009000BF15C715CB15D415E01536153015005E04
:1000A000BCE2613FDD83C29C7E20A3FD1F419DC356
:1000B000217FFCA2401E5F01E3BD3E6082DC237D08
:1000C0009FC1421CFEA0E1BF5D0380DE3C62BEE03A
:1000D000025CDF81633D7C22C09E1D43A1FF461868
:1000E000FAA427799BC584DA3866E5BB5907DB8516
:1000F0006739BAE406581947A5FB7826C49A653BC8
:10010000D987045AB8E6A7F91B45C6987A24F8A6F9
:10011000441A99C7257B3A6486D85B05E7B98CD227
:10012000306EEDB3510F4E10F2AC2F7193CD114FD5
:10013000ADF3702ECC92D38D6F31B2EC0E50AFF187
:10014000134DCE90722C6D33D18F0C52B0EE326CB9
:100150008ED0530DEFB1F0AE4C1291CF2D73CA94E7
:100160007628ABF517490856B4EA6937D58B570995
:10017000EBB536688AD495CB2977F4AA4816E9B747
:10018000550B88D6346A2B7597C94A14F6A8742A79
:10019000C896154BA9F7B6E80A54D7896B351F1CCA
:1001A0001F1E1F1E1F1F1E1F1E1FF4113600102AA8
:1001B000A00000A0FF0062007F102BB00000B0FF85
:1001C0000062009F102C7000F410101028F500F44D
:1001D000113680113680102AA00000A0FF00A00078
:1001E00000A0FF00102BB00000B0FF0062009F10C5
:1001F0002C7000F4113640113640102AA00000A0E7
:10020000FF0062007F102BB80100B0FF0062009F6A
:10021000102C7000F4113600102AA00000A0FF007E
:10022000A00000A0FF00102BB00000B0FF00620093
:100230009F102C7000F4113600102AA00000A0FFBF
:100240000062007F102BB00000B0FF0062009F1022
:100250002C7000FDF1F58005F08005F18032F4107E
:1002600011800A10131020113A06102911360014BB
:100270002A0000007F142B0000009F102CF50000C6
:100280000102030405060700010203040500010240
:1002900003040500000000230026002900040404D4
:1002A000040404040402020202020203030303031F
:1002B00003010204081020408001020408102001FC
:1002C0000204081020BF0203020304010204060A0C
:1002D00000FE07FE0700017E03082007D6F8F92379
:1002E00000210AD6F891B43B985300220BD6F8812E
:1002F000244BB224E70D2310D6F881244BA2414AA7
:10030000A2414AB22427240DD6F891704AC23189FD
:10031000C69C02250ED6F88128694AC24A9434E563
:1003200004260ED6F88130C992B0D29429390C2710
:1003300009D6F891B4CE23002809D6F8A1B05AAE58
:1003400013290AD6F881B85AAC93002A0ED6F8D1F0
:100350002C4AA2414AA22CA7022B0BD6F8096936D7
:100360006869CE002C09D6F87913EB18002D09D650
:10037000F8D9069D1B002E09D6F8790BC71C022F51
:100380000AD6F8B134EC9AD3003010D6F8913089FF
:10039000B2244BB22809730A00310CD6F891504BA5
:1003A000D2B6418701320DD6F881294B332D4C0747
:1003B0001D06330CD6B807350CE5248B7602340DB8
:1003C000D6F8A1504BA2D220A63901350DD6B807D8
:1003D000254D24294DB26827360DD6F8112D4C1322
:1003E000494AB26827370BD6B807354CC36A4E0264
:1003F000380ED6F881294BB268CA922CDA09390D29
:10040000D6F881294B224B1A663A053A0CD6F809E0
:10041000E19883E19843003B0BD6F809E1988362A9
:100420001D033C09D6F8B1B0B91D063D0BD6F889BD
:10043000830E0C3A23003E09D6F881B8B19D043FE3
:100440000CD6F881290BAB39985300400DD6F881B2
:10045000294B22A58B14EF044110D6F8913089B2B4
:10046000244B06254BB21C06420CD6B8872C6ADA00
:10047000A2962127430BD6F881294BD2B668274490
:100480000BD6B8872CEA5F869C00450DD6B80725A9
:100490004D87284D071D06460CD6B807254D8728E1
:1004A000ADD300470DD6F881294BD29292453B013E
:1004B0004810D6B8B3244BB26450B2244BB21C06D9
:1004C0004909D6F88131EDB8134A0BD6F891316D50
:1004D000AAE914004B0ED6B8B324AA64629245B5BB
:1004E0001C064C09D6B8D35E071D064D0ED6B8B310
:1004F000244B2CDD922CC972184E0FD6B8B3244B66
:10050000A4A4939225590E034F0FD6F881294BB21C
:10051000244BB2248B7602500DD6B887284BB26498
:1005200088D23A0D510FD6F881294BB2244BB2A490
:1005300069CE015210D6B887284BB26488922CAA93
:10054000E53000530DD6F881294BE239C9A29D0050
:100550005409D6B8072DED9D02550FD6B8B3244BDC
:10056000B2244BB2248B76025610D6B8B3244BB2C9
:1005700028C9922C09730A00570ED6B8B3244BB27F
:10058000A42F962C8701580FD6B8B3248B92B012A3
:10059000654996C300590CD6B8B3248B92306DA729
:1005A000005A0BD6B80735EC3AE830005B09D6F8AC
:1005B000812DEDBA135C09D6B8D3B86B0E035D0973
:1005C000D6F881B5B79D005E0BD6F8913089B29C04
:1005D00027005F08D6F8F93CE8006008D6B8E29C2E
:1005E0005F00610DD6F8A97334245934E4300062F9
:1005F0000DD6B8D38A2425592225894E630BD6F807
:10060000A95396A459B413640ED6F8B134524A4A89
:100610009644961C06650BD6F8A953960C4ABC1353
:10062000660CD6F8112D2A0E595A2701670FD6F8F5
:10063000A94392255934A449164D00680ED6B8D363
:100640008A2425599225590E03690AD6F8911C531C
:100650001B77026A0BD6F8B11C539BBA49006B0D8D
:10066000D6B8D35A12455B54CB61006C09D6F80159
:10067000B5C79D006D0BD6F8894A94F46F390C6E9E
:100680000ED6F889892425599225590E036F0CD668
:10069000F8A95396644916ED04700FD6F889892499
:1006A000255922258994A600710DD6F8A94A49C971
:1006B00092C8925600720BD6F889892425699D0646
:1006C000730AD6F8A9533C27434E740CD6F88134EC
:1006D0001CB2B494E904750DD6F8895992255912C3
:1006E000597218760DD6F88959924549968439057C
:1006F000770CD6F8895992257D4A7202780DD6F882
:10070000895994849528CB6100790ED6F88959923D
:100710002591254DB268027A0BD6F88983D838E83E
:1007200030007B0CD6F8212DCEE430D661007C0958
:10073000D6F891B4EF14007D0CD6F801398CB53899
:10074000D329007E0AD6F88128E994F306A007D6BB
:10075000F8F92300A10AD6F8911C4CBB5300A20F54
:10076000D6F809E190D4922C09872C8700A30DD6E6
:10077000F8112D2A8E6994243A01A40DD6F88959CE
:10078000B425D994E53000A50ED6B8B3248B9230A9
:100790001BB4B40E01A60BD6F891B40EA6750A00D0
:1007A000A70ED6F88129DDA22CCAD6684700A80773
:1007B000D678EAFC01A90DD6F881294B5AA4A45B8E
:1007C000B413AA0DD6F891A9454B7264C8A900AB21
:1007D0000ED6F8C9511225511665518E02AC09D6B4
:1007E000F81987346704AD09D6F819879C1B00AE49
:1007F0000FD6F881294B96444AA4248B7602AF0881
:10080000D638069D9F01B00AD6F8913009731E01B3
:10081000B10DD6F8096936686936E83000B20BD6F2
:10082000B8B4282C0E393700B30AD678E64C8E7649
:100830008E00B408D6F8C29C9F00B50FD6F889592F
:10084000922559222589948300B611D6F881215921
:10085000922552B2244BB2248701B708D6F85973B7
:10086000AE00B808D6F8F929CC00B909D6B842B517
:10087000B87304BA0CD6F8112D6AD3A121A702BB14
:100880000DD6F889511665511225514EBC0DD678FA
:1008900042B538855A120D690CBD0DD67842B5B8EF
:1008A00084491A863300BE0ED638E430CEA4504BAD
:1008B000A221CD01BF0BD6F8911C4CC35AB413C072
:1008C0000FD678E270CA922C19942CC97218C10FF5
:1008D000D6F8C270CA922C19942CC97218C210D6BC
:1008E000B8C2249BB2244B06254BB21C06C311D6BA
:1008F00078A224D1A62CC99241C9922C8701C41098
:10090000D678EAD094255932285992E53000C5109E
:10091000D6B8C2249BB2244B06254BB21C06C60E89
:10092000D6F8912129350D43D4B4A300C70CD6F8CD
:1009300081294BD2B6682C02C80ED678C24149D361
:10094000214AD3418701C90ED6F8A24149D3214A91
:10095000D3418701CA0ED6B8B24149D3214AD34107
:100960008701CB0ED6784A8392A64394A6830E03C2
:10097000CC0AD678E2704C1B7702CD0AD6F8C2704A
:100980004C1B7702CE0BD6B8C2241BD3C69D00CF1A
:100990000AD678EAD09836EE04D00CD6B8872C6AFE
:1009A00059A22E434ED111D6B8922889B2444A3A60
:1009B000295992E53000D20ED678E270CA922CC93D
:1009C000922CDA09D30ED6F8C270CA922CC9922C96
:1009D000DA09D40FD6B8C2249BB2244BB2248B764A
:1009E00002D510D6B89228C9A62CC9922CC9A29DAE
:1009F00000D60ED678EAD0942559922559B413D74B
:100A00000DD6F8895994849528CB6100D80ED6F874
:100A100081295222A5454AA46827D90ED678E2AC8E
:100A2000922559922559B413DA0ED6F8C2AC922504
:100A300059922559B413DB0FD6B8C22447B2244BC0
:100A4000B2248B7602DC0FD678EA48966449966425
:100A50004916ED04DD0DD6F8C2AC92454998D62969
:100A600000DE0DD6B8D321CA92214AEB3400DF0E46
:100A7000D6F881294BA24A16D5924427E00ED678A3
:100A8000E21C9BA321C9A2218701E10ED6F8C21C5A
:100A90009BA321C9A2218701E20FD6B8C22487E611
:100AA0006848B268C86100E30FD6B89228C9A13976
:100AB0001A922C1A7218E40FD6F8812487E6684837
:100AC000B268C86100E50FD6B8C2240CE76848B226
:100AD00068C86100E60DD6F8A9439824C3940D3A7E
:100AE0000AE70CD6F8A95396A459341601E80DD696
:100AF00078E21C9BB26450E29D00E90DD6F8C21C5E
:100B00009BB26450E29D00EA0DD6B8C22487A62CA1
:100B100019947827EB0DD6F8812487A62C199478A0
:100B200027EC0AD678E21C531B7702ED0AD6B8C22E
:100B30001C541B7702EE0BD6B8C22487D4C69D0086
:100B4000EF0BD6F8812487D4C69D00F00CD6B86D83
:100B50005396644916ED04F111D6B89228C9914410
:100B600092922CC9922C8701F20DD678E21C9BB28E
:100B7000244BB26827F30DD6F8C21C9BB2244BB2AB
:100B80006827F40ED6B8C22487A62CC9922CDA099D
:100B9000F50FD6B89228C9A1294BB2248B7602F65C
:100BA0000ED6F8812487A62CC9922CDA09F70BD629
:100BB000F8093934E850CE00F80DD6F8A9431229C7
:100BC0002D5232E404F90FD678E21CCA922CC99255
:100BD000C892C300FA0FD6F8C21CCA922CC992C898
:100BE00092C300FB10D6B8C22447B2244BB224B241
:100BF000E43000FC10D6F8812447B2244BB224B272
:100C0000E43000FD0FD6F8A130AB64496449932C61
:100C10009A00FE0FD6F8D17488B2244BB26488D201
:100C200014FF10D6F8812447B2244B224B9A64D18A
:100C300004000000000000240027002A000000003B
:100C400000250028002B0000000008000201000021
:100C50000304070000000000000000009322091EAA
:100C600011241FBECFEFD8E0DEBFCDBF11E0A0E062
:100C7000B1E0E8E6F1E502C005900D92AE3EB107A5
:100C8000D9F724E0AEEEB1E001C01D92AD3BB20752
:100C9000E1F716E0CFE2D6E004C02197FE010E9402
:100CA000F824CE32D107C9F70E94151E0C94A7284C
:100CB0000C94000008950895E091180380911703A3
:100CC000E81730F4F0E0E95BFB4F808190E0089595
:100CD0008FEF9FEF08959091180380911703981755
:100CE00050F4E92FF0E0E95BFB4F208130E09F5F9B
:100CF0009093180302C02FEF3FEFC9010895809130
:100D0000170390E020911803821B9109089585ED47
:100D10008093BC008091BC0084FDFCCF10928D04B8
:100D2000089540911802262F30E0240F311D213202
:100D30003105DCF420918D042430C9F4FC0180E0FD
:100D400090E0861758F4309118022191DC01AA50E6
:100D5000BE4FA30FB11D2C930196F3CF80911802C3
:100D6000680F6093180280E0089581E0089582E0A2
:100D70000895CF92DF92EF92FF920F931F93CF933C
:100D8000DF937C01262F972F8A0180918E04882380
:100D900091F0C62FD72F6E01C40ED51ECC15DD05E0
:100DA00071F06991D701ED91FC910190F081E02DF6
:100DB000C7010995F3CF642F822F0E949106C801C5
:100DC000DF91CF911F910F91FF90EF90DF90CF9027
:100DD0000895CF93DF931F92CDB7DEB7698320913B
:100DE0008E042223D1F020911503203240F021E01F
:100DF00030E0FC013383228380E090E015C08091D5
:100E00001603E82FF0E0E157FB4F998190838F5F45
:100E1000809316038093150305C061E0CE0101960F
:100E20000E94910681E090E00F90DF91CF910895AC
:100E30000C94C925CF92DF92EF92FF92C090F201FD
:100E4000D090F301E090F401F090F50186E9C80E2E
:100E5000D11CE11CF11C0E94901DC616D706E806A5
:100E6000F90680F410923D020E94901D6093F201F9
:100E70007093F3018093F4019093F50110920101B6
:100E800010920001FF90EF90DF90CF900895CF92E5
:100E9000DF92EF92FF92C090F201D090F301E090C8
:100EA000F401F090F50186E9C80ED11CE11CF11C9B
:100EB0000E94901DC616D706E806F90690F4109217
:100EC0003D020E94901D6093F2017093F3018093A4
:100ED000F4019093F50181E090E0909301018093FB
:100EE0000001FF90EF90DF90CF900895CF92DF92B6
:100EF000EF92FF92C090EE01D090EF01E090F001F0
:100F0000F090F10186E9C80ED11CE11CF11C0E9491
:100F1000901DC616D706E806F90680F410923E0228
:100F20000E94901D6093EE017093EF018093F00199
:100F30009093F1011092030110920201FF90EF9043
:100F4000DF90CF900895FC0123893489E45AFF4F44
:100F500040815181241B350B37FD0AC0349681E056
:100F600090E0408151812417350724F080E00895F6
:100F700080E090E00895FC0126818081280F208385
:100F80004485558582859385840F951F9587848731
:100F900040855185841795073CF03281230F2083CB
:100FA000841B950B958784870895CF92DF92EF92EB
:100FB000FF920F931F93CF93DF93EC011EA21FA20A
:100FC00018A60E944E18EB80FC80C980DA8000E0F1
:100FD00010E0C701801B910B18161906A4F48EA10E
:100FE0008F8B8FA1888F88A5898F1C8A1B8A1E8B67
:100FF0000D8BDB8ECA8E1D8E1C8ECE010E9451166B
:101000000F5F1F4FE6CF8FEF8EA38FA388A7DF91CF
:10101000CF911F910F91FF90EF90DF90CF900895A7
:10102000DC01E0E0615038F08D91E827F0E0E25615
:10103000FF4FE491F7CF8E2F0895FC01908101803E
:10104000F281E02DF8948181892B81832281892F7F
:10105000809528232283A7E0B0E01197F1F7218142
:1010600082238183A3E2B0E01197F1F78081789425
:10107000EFECF0E03197F1F7982381E009F480E09C
:101080000895FC0190810180F281E02D892F8095E7
:1010900060FF12C0F8942281822382838181892B90
:1010A0008183A3E2B0E01197F1F78281982B9283BC
:1010B000789487ED90E011C0F89422818223828396
:1010C0008181892B8183AFEFB0E01197F1F78281A5
:1010D000982B928378948FE090E00197F1F7089530
:1010E000CF92DF92EF92FF920F931F93CF93DF93F4
:1010F0001F92CDB7DEB76C01E62E08E010E0FF24AA
:10110000F39461E08F2D8E2109F460E0C6014983DC
:101110000E944108FF0C0150110949810115110578
:1011200081F7411115C0F894D6011196ED91FC910B
:10113000129791818C918095892381831196ED91ED
:10114000FC91129792818C91809589238283789467
:101150000F90DF91CF911F910F91FF90EF90DF9053
:10116000CF900895CF92DF92EF92FF920F931F934B
:10117000CF93DF931F92CDB7DEB78C01F62E40E000
:1011800065E579830E947008CF2C7981D72E76018E
:1011900088E0E80EF11CF60161916F0140E0C801A2
:1011A0000E947008CE14DF04B1F70F90DF91CF9149
:1011B0001F910F91FF90EF90DF90CF900895FC0169
:1011C00090810180F281E02DF8948181292F209572
:1011D0008223818378948DE743E050E0815021F1B0
:1011E000DA011197F1F730813923C1F3F894828144
:1011F000822382838181892B81837894ABE7B7E056
:101200001197F1F7F894818128232183A3E1B1E0BC
:101210001197F1F78081982381E009F080E07894BC
:10122000E3E6F6E03197F1F708956F927F928F929F
:101230009F92AF92BF92CF92DF92EF92FF920F9365
:101240001F93CF93DF9300D0CDB7DEB78C017A0127
:10125000FC018581968169837A830E94DF08698118
:101260007A81882391F1F801858196810E94B208E4
:1012700040E06EEBF801858196810E94700837018D
:101280005701F9E0AF0EB11CF8018580968088E027
:10129000C82ED12CEE24E394F12CC4010E941D0829
:1012A0008111FE28EE0CF1E0CF1AD108B1F7F3015D
:1012B000F1923F01EA15FB0539F7F8018581968126
:1012C0000E94DF0891E0813009F090E0892F0F90B3
:1012D0000F90DF91CF911F910F91FF90EF90DF90D2
:1012E000CF90BF90AF909F908F907F906F90089518
:1012F000CF93DF93CDB7DEB729970FB6F894DEBF53
:101300000FBECDBFFB012081203119F1AE014F5F2F
:101310005F4F0E941509882379F068E0CE0101969D
:101320000E9410089985891307C008C0803458F0BE
:101330008F3569F08F3769F080E00CC08D818F3375
:10134000A9F78AE007C08F31B9F789E003C08BE0C5
:1013500001C08CE029960FB6F894DEBF0FBECDBF5A
:10136000DF91CF9108951F920F920FB60F92112423
:101370002F933F934F935F936F937F938F939F939D
:10138000AF93BF93EF93FF938091B900887F80362E
:1013900009F49CC068F5883209F45BC090F4803190
:1013A00009F454C038F4882309F4F6C0883009F4ED
:1013B0004DC0F6C0883109F44CC0803209F45DC0DC
:1013C000EFC0803409F468C048F4803309F455C094
:1013D000883309F0E5C080938B04D8C0803509F4C8
:1013E0004FC0883509F45DC0883409F0D9C0D6C033
:1013F000883909F4C7C0A8F4883709F467C038F4FD
:10140000883609F463C0803709F460C0C9C08838E1
:1014100009F4B8C0803909F45FC0803809F0C0C051
:101420005BC0803B09F486C038F4803A09F466C09A
:10143000883A09F47FC0B4C0803C09F4A7C0883C56
:1014400009F4A4C0883B09F48AC0AAC0809168044A
:1014500010C090918A0480918904981770F5E091EA
:101460008A0481E08E0F80938A04F0E0E759FB4FF5
:1014700080818093BB0085EC86C080938B048EC0F6
:10148000E0918A0481E08E0F80938A048091BB00F2
:10149000F0E0E759FB4F808390918A0480918904A2
:1014A0006EC0E0918A0481E08E0F80938A0480915F
:1014B000BB00F0E0E759FB4F808380918C048111E1
:1014C0006DC081E08093670484EA61C083E080930B
:1014D0008D0410923C02CFCF80913C02803208F004
:1014E00051C0E0913C0281E08E0F80933C028091DC
:1014F000BB00F0E0E45EFD4F8083BDCF85EC8093C0
:10150000BC0010928D0480913C02803230F4E09156
:101510003C02F0E0E45EFD4F108260913C0270E01E
:10152000E0911A02F0911B028CE192E00995109271
:101530003C0236C084E080938D0410921902109210
:101540001802E0911602F091170209958091180295
:10155000811105C081E0809318021092F601E0919C
:10156000190281E08E0F80931902F0E0EA50FE4FDD
:1015700080818093BB009091190280911802981786
:1015800008F479CF85E88093BC000AC085EC80938D
:10159000BC0010928D0404C010928B040E94870638
:1015A000FF91EF91BF91AF919F918F917F916F913B
:1015B0005F914F913F912F910F900FBE0F901F9011
:1015C000189510928D0481E080938C04109267042A
:1015D00061E082E10E94E31C61E083E10E94E31C80
:1015E000E9EBF0E080818E7F808380818D7F808336
:1015F00088E48093B80085E48093BC0008950F933D
:101600001F93CF93DF938C0184E791E0F8019183DE
:101610008083E801C45FDE4F888199810E94C925DB
:10162000198218820E5F1F4F61F0C017D10749F071
:10163000A697E881F9810190F081E02DCE0109950E
:10164000F4CFDF91CF911F910F910895CF93DF9346
:10165000EC010E94FF0ACE01DF91CF910C94C925C5
:101660001F920F920FB60F9211242F933F934F9317
:101670005F936F937F938F939F93AF93BF93CF931A
:10168000EF93FF9329B1C091470290917502809129
:101690007202322F309583239223892B90916D0013
:1016A000C227C923C82320934702CC23C1F1C0FF1E
:1016B00005C0E0914802F09149020995C1FF05C0BB
:1016C000E0914A02F0914B020995C2FF05C0E091FA
:1016D0004C02F0914D020995C3FF05C0E0914E0206
:1016E000F0914F020995C4FF05C0E0915002F091BE
:1016F00051020995C5FF05C0E0915202F0915302D5
:101700000995C6FF05C0E0915402F0915502099574
:10171000C7FF05C0E0915602F09157020995FF916D
:10172000EF91CF91BF91AF919F918F917F916F91E9
:101730005F914F913F912F910F900FBE0F901F908F
:1017400018951F920F920FB60F9211242F933F936B
:101750004F935F936F937F938F939F93AF93BF93B9
:10176000CF93EF93FF9326B1C091580290917602E8
:1017700080917302322F309583239223892B90918D
:101780006C00C227C923C82320935802CC2351F1EF
:10179000C0FF05C0E0915902F0915A020995C1FFBE
:1017A00005C0E0915B02F0915C020995C2FF05C0A3
:1017B000E0915D02F0915E020995C3FF05C0E091E2
:1017C0005F02F09160020995C4FF05C0E0916102DB
:1017D000F09162020995C5FF05C0E0916302F091A6
:1017E00064020995FF91EF91CF91BF91AF919F91C5
:1017F0008F917F916F915F914F913F912F910F90BA
:101800000FBE0F901F9018951F920F920FB60F9258
:1018100011242F933F934F935F936F937F938F93F5
:101820009F93AF93BF93CF93EF93FF9323B1C09157
:1018300065029091770280917402322F3095832354
:101840009223892B90916B00C227C923C823209330
:101850006502CC2351F1C0FF05C0E0916602F09112
:1018600067020995C1FF05C0E0916802F091690225
:101870000995C2FF05C0E0916A02F0916B020995DB
:10188000C3FF05C0E0916C02F0916D020995C4FFA1
:1018900005C0E0916E02F0916F020995C5FF05C089
:1018A000E0917002F09171020995FF91EF91CF9153
:1018B000BF91AF919F918F917F916F915F914F9168
:1018C0003F912F910F900FBE0F901F9018951F9270
:1018D0000F920FB60F9211242F933F934F935F9364
:1018E0006F937F938F939F93AF93BF93EF93FF93E8
:1018F000E0914502F09146020995FF91EF91BF9169
:10190000AF919F918F917F916F915F914F913F9197
:101910002F910F900FBE0F901F9018951F920F924E
:101920000FB60F9211242F933F934F935F936F93B2
:101930007F938F939F93AF93BF93EF93FF93E09128
:101940004302F09144020995FF91EF91BF91AF914D
:101950009F918F917F916F915F914F913F912F91C7
:101960000F900FBE0F901F9018950F931F93CF935A
:10197000DF9324E631E0FC01219331938F01EF2BBB
:1019800071F0EC01A696C017D10749F02C97E881B9
:10199000F9810190F081E02DCE010995F4CFDF911E
:1019A000CF911F910F910895CF93DF93EC010E9487
:1019B000B50CCE01DF91CF910C94C9250895CF933A
:1019C000DF93EC0184E591E0998388838A819B8190
:1019D0000E94C9251B821A828C819D81DF91CF9143
:1019E0000C94C925CF93DF93EC010E94DF0CCE014C
:1019F000DF91CF910C94C9252CE431E0FC013183B7
:101A00002083828193810C94C925CF93DF93EC01CD
:101A10000E94FC0CCE01DF91CF910C94C9258F92CE
:101A20009F92AF92BF92CF92DF92EF920F931F934C
:101A3000CF93DF931F92CDB7DEB74C015B016A01F4
:101A4000FC01138212828EE091E091838083C401B5
:101A500029830E948A1886E191E0F40191838083B2
:101A6000C4010E948A18F401E353FF4FB182A0829F
:101A70003296D182C082F997E08231962981208303
:101A8000319600834E2D50E0FA01E356FD4F8491CC
:101A9000E82FF0E0EE0FFF1FE35CF34F8591949188
:101AA000F401ED55FF4F91838083FA01EF54FD4F10
:101AB0004491F401E354FF4F408330E0F901E356D1
:101AC000FD4F8491E82FF0E0EE0FFF1FE35CF34F32
:101AD00085919491F401EB55FF4F91838083F90137
:101AE000EF54FD4F2491F401E254FF4F208310E0A6
:101AF000F801E356FD4FE491F0E0EE0FFF1FE35CC9
:101B0000F34F85919491F401E955FF4F91838083C0
:101B1000F801EF54FD4F0491F401E154FF4F0083AD
:101B20000F90DF91CF911F910F91EF90DF90CF90A9
:101B3000BF90AF909F908F900895FC01918D828D02
:101B4000981761F0828DDF01A80FB11D5D968C9111
:101B5000928D9F5F9F73928F90E008958FEF9FEF1C
:101B60000895FC01918D828D981731F0828DE80FD8
:101B7000F11D858D90E008958FEF9FEF0895FC0192
:101B8000918D228D892F90E0805C9F4F821B91095F
:101B90008F739927089588E792E00E94BF0D21E096
:101BA000892B09F420E0822F0895FC01848DDF0148
:101BB000A80FB11DA35ABF4F2C91848D90E00196C0
:101BC0008F739927848FA689B7892C93A089B189AF
:101BD0008C9180648C93938D848D981306C00288B9
:101BE000F389E02D80818F7D80830895EF92FF92AD
:101BF0000F931F93CF93DF93EC0181E0888F9B8D30
:101C00008C8D981305C0E889F989808185FD24C0F1
:101C1000F62E0B8D10E00F5F1F4F0F731127E02E74
:101C20008C8DE8120CC00FB607FCFACFE889F98951
:101C3000808185FFF5CFCE010E94D50DF1CF8B8D30
:101C4000FE01E80FF11DE35AFF4FF0820B8FEA8986
:101C5000FB898081806207C0EE89FF896083E88903
:101C6000F98980818064808381E090E0DF91CF9169
:101C70001F910F91FF90EF900895CF93DF93EC01A8
:101C8000888D8823C9F0EA89FB89808185FD05C09C
:101C9000A889B9898C9186FD0FC00FB607FCF5CFD6
:101CA000808185FFF2CFA889B9898C9185FFEDCF1E
:101CB000CE010E94D50DE7CFDF91CF91089580E04E
:101CC00090E0892B29F00E94CB0D81110C9400002B
:101CD00008951F920F920FB60F9211242F933F93E6
:101CE0004F935F936F937F938F939F93AF93BF9324
:101CF000EF93FF9388E792E00E94D50DFF91EF915B
:101D0000BF91AF919F918F917F916F915F914F9113
:101D10003F912F910F900FBE0F901F9018951F921B
:101D20000F920FB60F9211242F938F939F93EF93DF
:101D3000FF93E0918802F09189028081E0918E0208
:101D4000F0918F0282FD12C09081809191028F5F8D
:101D50008F7320919202821751F0E0919102F0E08E
:101D6000E858FD4F958F8093910201C08081FF91CB
:101D7000EF919F918F912F910F900FBE0F901F9019
:101D8000189581E090E008956C30710559F0673145
:101D9000710589F4DC011796ED91FC91189767E1C4
:101DA00070E00994DC01A45ABF4F88E0FA01019069
:101DB0000D928A95E1F781E090E00895EF92FF920D
:101DC0000F931F93CF93DF937C01EA018A01060FE3
:101DD000171FC017D10781F0FE01449150E0D701D1
:101DE0005196ED91FC91529720E030E060E170E077
:101DF000C70109952196EDCFDF91CF911F910F91EA
:101E0000FF90EF900895AB01DC015196ED91FC91AC
:101E1000529720E030E06CE070E009940F931F933C
:101E2000CF93DF938C01EB01209739F068EE73E0DC
:101E3000C8010E94030F2197F7CFDF91CF911F9127
:101E40000F910895EF92FF920F931F93CF93C42F9A
:101E50008C010A531F4FAC0149535F4F7A01611146
:101E60001BC0D8013C913C2329F0FA0130813C236E
:101E70003C132EC0622F70E0DC015196ED91FC9175
:101E8000529720E030E040E050E009959C2F90957B
:101E9000F7018081892317C0F80130813C2321F0AC
:101EA000DA013C913C23A1F4462F50E0622F70E010
:101EB000DC015196ED91FC91529720E030E00995BC
:101EC000F70180818C2B8083D8018C91C82BCC9317
:101ED000CF911F910F91FF90EF9008952FE041E077
:101EE0000C94220FCF93DF93EC01A881B981EB0111
:101EF000E881F981A217B30784F44E175F076CF4E9
:101F0000A417B5071CF4DC014D935C932E173F0713
:101F10003CF4EB013983288303C080E090E002C0E9
:101F200081E090E0DF91CF910895FC012589368909
:101F3000E25AFF4F40815181241B350B37FD0AC007
:101F4000349681E090E0408151812417350724F0D8
:101F500080E0089580E090E00895EF92FF920F9363
:101F60001F93CF93DF9300D000D0CDB7DEB78C01A5
:101F7000FC01178E168EE48CF58CF1E0EF16F1045F
:101F800009F446C01CF4EF2861F0E7C052E0E51602
:101F9000F10409F472C083E0E816F10409F4A5C065
:101FA000DCC00E94950F892B19F4E12CF12CD8C0CC
:101FB000F801238934893C832B83828D938D820F92
:101FC000931F9A838983E45AFF4F4081518134964D
:101FD00020813181240F351FBE016F5F7F4FCE01FD
:101FE00003960E94720F892B01F32B813C81F8012B
:101FF00083899489A901481B590B578F468F348BCD
:10200000238B89819A81821B930B938F828FA5C02A
:102010000E94A307892B49F2F801258936893C8360
:102020002B83828D938D820F931F9A838983E25A2B
:10203000FF4F40815181349620813181240F351F1B
:10204000BE016F5F7F4FCE0103960E94720F892BF6
:1020500009F4ABCF2B813C81F80185899689A901D0
:10206000481B590B578F468F368B258B89819A8158
:10207000821B930B938F828F73C00E94950F892BC5
:1020800009F493CFF8018389948901969A8389830F
:10209000228D338D821B930B9C838B83E45AFF4FDD
:1020A00040815181349620813181240F351FBE013A
:1020B0006F5F7F4FCE0103960E94720F892B09F448
:1020C00074CF89819A812B813C81AC01421B530BD7
:1020D000F801538F428F019723893489281B390BCC
:1020E000378F268F948B838B38C0C8010E94A3073B
:1020F000892B09F45ACFF8018589968901969A832C
:102100008983228D338D821B930B9C838B83E25AB0
:10211000FF4F40815181349620813181240F351F3A
:10212000BE016F5F7F4FCE0103960E94720F892B15
:1021300009F43BCF89819A812B813C81AC01421B00
:10214000530BF801538F428F019725893689281B3D
:10215000390B378F268F968B858BEE24E394F12CE9
:10216000C7010F900F900F900F90DF91CF911F91AB
:102170000F91FF90EF900895CF93DF93EC0188814A
:1021800080FF0BC0ED81FE8140E050E06BE070E02D
:10219000CE01099588818E7F8883ED81FE8140E0A4
:1021A00050E06AE070E0CE010995009719F02881AF
:1021B00021602883DF91CF9108956F927F928F9253
:1021C0009F92AF92BF92CF92DF92EF92FF920F93C6
:1021D0001F93CF93DF938C01EB016C0188ECC80E49
:1021E000D11C66246394FE016491E62EE2942FE0F4
:1021F000E222F62FFF707F2E8E2D90E0FC013197AA
:10220000EF30F10508F0CCC0EC5CFF4F0C94F824E3
:102210004E018FEF881A980AD6016C91669561700D
:10222000C8010E946E0FF12CA401B701C8010E94E1
:10223000DE0EA72CB12C772069F08E0C9F1CF601C6
:1022400060816170C8010E946E0FA401B501C801D0
:102250000E94DE0EFFEFEF1AFF0AEA0CFB1C12C011
:10226000D6016C916170C8010E946E0FAE014F5F84
:102270005F4FE72CF12CB701C8010E94DE0EBFEFC3
:10228000EB1AFB0ACE0DDF1DAECFF601608166951D
:1022900061706625C8010E946E0FE72CF12C772033
:1022A00039F0AE014F5F5F4FB701C8010E94DE0EEB
:1022B000FFEFEF1AFF0AE6CFFE013196E491672D9A
:1022C00070E0762F66276E0F711DC8010E940E0FF9
:1022D0000CC0FE013196E491672D70E0762F6627E1
:1022E0006E0F711DC8010E94030F22967CCFFE0164
:1022F0003196E4903196F4902396D6016C916170FA
:10230000C8010E946E0FF8014389548902C0559597
:1023100047957A94E2F74E21E42FEF294E2F50E0B3
:10232000D8011BC0FE013196E4903196F4902396BB
:10233000F60160816170C8010E946E0FD801559648
:102340004D915C91569702C0559547957A94E2F766
:102350004E21E42FEF294E2F50E05196ED91FC9144
:10236000529720E030E060E170E0C80109953BCF72
:10237000872D86958695813059F030F0833071F441
:102380006370F60160830AC061702DE044E003C011
:1023900061702EE042E0C8010E94220F219623CFF7
:1023A000DF91CF911F910F91FF90EF90DF90CF9031
:1023B000BF90AF909F908F907F906F9008954F92B5
:1023C0005F926F927F928F929F92AF92BF92CF92C5
:1023D000DF92EF92FF920F931F93CF93DF9300D082
:1023E0001F92CDB7DEB7FC016731710509F028C136
:1023F000828D938D7C0121E0E21AF1083701F7FC10
:102400003C01759467946F0189E2C80ED11C9F014D
:102410002D5C3F4F2F01ADE54A0E511CAA24A39419
:10242000B12C88248A94982CD6010D916D011497B3
:102430004C91D9014C9310E0041B110914961C9384
:102440000E9313971896FC92EE9217971296BC92E1
:10245000AE921197C801B7010E94E424D9011696E3
:102460007C936E93159717FF0BC011950195110979
:1024700014961C930E93139712969C928E9211971A
:10248000D90113968D919C911497B7010E94E42471
:10249000D9011A969C938E9319971C967C926E92F2
:1024A0001B9711974C93225F3F4F2415350509F078
:1024B000BBCF8F01CF010E94AD0F892B09F4C0C0A3
:1024C000F801C68CD78C7C2CF29658012CE5A20E14
:1024D000B11C9E2E8F2E4681749E402D1124408368
:1024E000E084F18482859385C89EB001C99E700DF9
:1024F000D89E700D1124C701F7FC01969C013595FB
:102500002795260F371F8281938197FD06C0C90149
:10251000B7010E94E424460F05C0C901B7010E941B
:10252000E424461B4083C901B7010E94E424958737
:10253000848790818181890F80833E96EA15FB050F
:1025400051F6D8015C968D919C915D9781309105F3
:1025500031F464E172E0C8010E94DD1019C08230DC
:10256000910509F052C0D8015396ED90FC90549714
:102570008FE790E08E199F0954969C938E93539702
:1025800063EF71E0C8010E94DD10F801F48AE38A6C
:10259000E12CF12C6801F0E4CF0ED11C58012EE49F
:1025A000A20EB11CF801828D938DE816F90634F560
:1025B000D801D2968C918983F60180818A83D501D6
:1025C0008C918B83D8015196ED91FC9152979E018D
:1025D0002F5F3F4F41E050E063E170E0C801099593
:1025E000892D982D0E94BB07C6010E94BB07C5011B
:1025F0000E94BB07BFEFEB1AFB0AD4CF2EE042E0EC
:1026000061E0C8010E94220F1BC0892B19F465E309
:1026100072E0A1CFD8015596ED90FC9056978FE9C6
:1026200090E08E199F0956969C938E9355976FEC68
:1026300071E0C8010E94DD10F801F68AE58AA8CF92
:1026400081E090E00F900F900F90DF91CF911F915C
:102650000F91FF90EF90DF90CF90BF90AF909F9041
:102660008F907F906F905F904F900895EF92FF92C0
:102670000F931F93CF93DF9300D000D0CDB7DEB779
:102680006F30710509F454C08C016031710564F438
:102690006A30710591F06B30710509F0C9C068ECC2
:1026A00071E00E94DD10D2C06431710509F44DC0A3
:1026B0006531710509F469C0BBC084E690E09A8376
:1026C000898382E490E09C838B83780187ECE80E19
:1026D000F11CD7018C9183FF0DC0D8015196ED916B
:1026E000FC91529720E030E040E050E06BE070E079
:1026F000C8010995F7018081877F8083F801EA533B
:10270000FF4F1082D8015196ED91FC9152979E0196
:102710002F5F3F4F40E050E06AE070E0C80109954C
:10272000009709F495C0F70120812860208390C0AC
:1027300080E890E0DA0111969C938E9380EA90E015
:1027400013969C938E93129781C00E94A307892BA6
:1027500009F47CC0C8010E94950F892B09F476C04A
:102760006AEA71E0C8010E94DD10F8018789898357
:10277000808D8A83818D8B830188F289E02D9E0173
:102780002F5F3F4F41E050E057C00E94AD0F892BB3
:1027900009F45CC0F801848D958D8130910541F07C
:1027A0008230910559F0892BD1F465E372E002C0C3
:1027B00064E172E0C8010E94DD1021C0E388F48862
:1027C0008FE790E08E199F09948B838B63EF71E004
:1027D000C8010E94DD10F801F48AE38A10C0E58880
:1027E000F6888FE990E08E199F09968B858B6FECA8
:1027F00071E0C8010E94DD10F801F68AE58AD8016F
:1028000057968C915797898358968C9158978A83BD
:1028100059968C9159978B835A964D915C915B9701
:102820005196ED91FC9152979E012F5F3F4F04C04E
:10283000C8010E94C40E0CC063E170E0C801099594
:102840002EE042E061E0C8010E94220F81E090E0AA
:102850000F900F900F900F90DF91CF911F910F91DC
:10286000FF90EF9008958EBD00000DB407FEFDCFE0
:102870008EB508950F931F93CF93DF93DC01EA0188
:102880001996ED91FC911A97663171055CF46431EB
:1028900071055CF56C30710549F06F30710509F414
:1028A0004FC047C06731710501F143C04C815D8164
:1028B0009A012150310988819981280F391F398364
:1028C00028831D968D919C911E970A811B81821BE6
:1028D000930B01979B838A83198308838E819F8141
:1028E0009D838C835F834E8324C05C962D913C91A5
:1028F0005D972D5F3F4F237033275D963C932E935A
:102900005C971D962D913C911E9755968D919C91AB
:10291000569753964D915C915497241B350B21503B
:10292000310956963C932E93559754969C938E93CB
:102930005397AE01CD01DF91CF911F910F91099473
:102940008A01EC01AC01455F5F4F6FE070E00995D3
:102950008B859C85F801938382838D859E859183E9
:10296000808381E090E0DF91CF911F910F910895D6
:1029700080E090E00895213069F038F0223079F459
:10298000861B910967FD93950895860F911D67FD3C
:102990009A950895841B910947FD93950895840F96
:1029A000911D47FD9A950895213069F038F0223045
:1029B00079F4841B910947FD93950895840F911D27
:1029C00047FD9A950895860F911D67FD9A95089584
:1029D000861B910967FD93950895DC011A964C9129
:1029E0001A97ED91FC911197249130E0042E02C0CA
:1029F000359527950A94E2F7862F840F883010F4D6
:102A0000E22F0EC031961196FC93EE939491E92F2C
:102A100098E0941B01C0EE0F9A95EAF7E22B8850DC
:102A20001A968C9381E090E001C0880F6A95EAF7CE
:102A300081508E2308950E942B27EF92FF920F93CF
:102A40001F93CF93DF937C01EA018901FB013A9741
:102A5000EC30F10508F0E6C0ED5BFF4F0C94F82474
:102A60000F5F1F4F8D569F4F7C01CFC0C20FD31FEA
:102A7000B7C0FC01EE56FF4F80818F3F19F061E037
:102A80000E942F1DF701ED56FF4F61E080810E94EB
:102A90002F1DF701EC56FF4F80818F3F19F061E049
:102AA0000E942F1DCFB7F89480914202811127C058
:102AB000E7EAF2E08491EBEBF2E09491E82FF0E0AA
:102AC000EE0FFF1FED5CF34FA591B491EC91E9235C
:102AD00021F461E08AE00E94E31C61E08AE00E9448
:102AE0002F1D8CB580618CBD8CB580648CBD61E080
:102AF0008DE00E942F1D61E08BE00E942F1D8091D0
:102B000042028F5F80934202CFBF8CB58C7F8CBD19
:102B10008DB581608DBD8CB5837F8CBD8CB58F7D6F
:102B20008CBD80C09FB7F89480914202882319F031
:102B300081508093420280914202811105C08CB580
:102B40008F7B8CBD109241029FBF6CC042305105FB
:102B500008F468C0CC0FDD1FCC0FDD1F259721972F
:102B6000F1F760C0FC01EE56FF4F03C0FC01EC56CC
:102B7000FF4F80818F3F09F455C06C2F05C0FC01C9
:102B8000ED56FF4F642F80810E94E31C4BC0842FC1
:102B90000E94331447C0209709F444C0F801808193
:102BA0000E9433142197F7CF2097E1F1F80180813B
:102BB0000E943314F80181810E9433142197F4CFCD
:102BC000209781F1F80180810E943314F8018181FE
:102BD0000E943314F80182810E9433142197F0CFB0
:102BE0000C171D07F9F0F80181918F010E94331431
:102BF000F7CFF8013197808181110AC0F8018081F7
:102C00000E94331421970E5F1F4F209791F70AC03F
:102C1000813011F460E001C061E0F70180810E9421
:102C2000E31CECCF81E090E0DF91CF911F910F91F9
:102C3000FF90EF900895CF93DF936B30710599F07B
:102C40006F30710599F06A307105E1F4EC016AE0CA
:102C500070E00E9436130097C9F063E572E0CE0180
:102C60000E94DD100CC06BE070E00CC080E890E0CA
:102C7000FA019183808380EA90E09383828381E0EC
:102C800090E004C0DF91CF910C943613DF91CF9187
:102C90000895FC01EA59FF4F88EB94E1918380830A
:102CA0000895AC014D5E5F4FDC011596ED91FC91EE
:102CB000169765E170E009945F926F927F928F9210
:102CC0009F92AF92BF92CF92DF92EF92FF920F93BB
:102CD0001F93CF93DF93EC01D62EA42E8C010859BD
:102CE0001F4FF801E680B780F801C084CE185C2C35
:102CF000DC1408F45D2CF80184809580F4842F2D79
:102D00004B2D6E2D828193810E94BB143C012F2D8F
:102D10004B2D6E2DC4010E94D414AA2031F02EA197
:102D20002F8B2FA1288F28A509C0F80123852111F9
:102D300015C029A52F8B2AA5288F2BA5298F7C8A22
:102D40006B8A9E8B8D8B852D90E09B8F8A8F2F2D8C
:102D500030E03D8F2C8FCE010E945116DC1420F004
:102D6000DC18B394E12CC0CF6D2D6E0DF801668395
:102D7000B782DF91CF911F910F91FF90EF90DF907D
:102D8000CF90BF90AF909F908F907F906F905F900B
:102D900008952F923F924F925F926F927F928F92FF
:102DA0009F92AF92BF92CF92DF92EF92FF920F93DA
:102DB0001F93CF93DF9300D000D0CDB7DEB79C83B5
:102DC0008B83462E8B529F4F9A838983FC015080C0
:102DD000EB80FC80F3EDEF0EF11CF701A080B180D9
:102DE000CB80DC80F1EDCF0ED11CF601808091808C
:102DF0000B811C810C5F1F4FF1E05F1601F15F1624
:102E000090F022E0521639F133E053122FC0EB81DB
:102E1000FC81E659FF4F0190F081E02DC801099532
:102E2000880E991E23C0EB81FC81E659FF4F01906B
:102E3000F081E02DC8010995A80EB91E17C0EB81DD
:102E4000FC81E659FF4F0190F081E02DC801099502
:102E5000881A990A0BC0EB81FC81E659FF4F01905B
:102E6000F081E02DC8010995A81AB90AEB81FC810F
:102E7000E259FF4F91828082EB81FC81E059FF4F44
:102E8000B182A082EB81FC81E858FF4F5082EB8138
:102E9000FC81E859FF4F808191814596E0E6E41579
:102EA00028F4EB81FC81E457FF4F07C0F0E4F415F0
:102EB00040F4EB81FC81E657FF4F20813181820F86
:102EC000931F9C012F5F3F4FF9014491442309F464
:102ED000AFC0FC014491441103C0009731F4A8C075
:102EE000F9012491820F911DECCFAB80BC80FCE6F0
:102EF000AF0EB11CF5011286029691838083EB819F
:102F0000FC81E358FF4F6081C5010E94ED14F5017B
:102F10008087EB81FC81E258FF4F6081C5010E94F0
:102F2000ED14582EF5018187EB81FC81E158FF4FAC
:102F30009080692DC5010E94ED149A9466246394D3
:102F4000712CA30101C0440F9A94EAF7382E341A69
:102F5000EB81FC81E058FF4F9080692DC5010E94F4
:102F6000ED149A94930102C0220F331F9A94E2F752
:102F70004901252C280EEB81FC81EF57FF4F408043
:102F8000642DC5010E94ED144A94930101C0220FE3
:102F90004A94EAF7482E421AF5018085181624F063
:102FA000042C000C550846C0F50194848218292D84
:102FB000482D632D828193810E94BB14F501938378
:102FC0008283292D482D632D848195810E94D414FC
:102FD000F50195838483168217828B809C80FBE7A2
:102FE0008F0E911C6B807C802CE7620E711CF401AB
:102FF0006081C5010E94ED14282EF3016081C50196
:103000000E94ED14382E40E0622DC8010E945C162B
:1030100041E0632DC8010E945C1661E0C5010E9479
:10302000ED148111F0CFF5018781851504F3B8CF38
:10303000412C512CE981FA818081813039F020F0D6
:10304000823061F4F6010BC0F60101C0F701808106
:103050009181480E591E5182408207C0F70180813C
:103060009181841995099183808381E090E00F908C
:103070000F900F900F90DF91CF911F910F91FF90C4
:10308000EF90DF90CF90BF90AF909F908F907F9008
:103090006F905F904F903F902F900895CF93DF9364
:1030A000CDB7DEB728970FB6F894DEBF0FBECDBF01
:1030B000DC0111964D915D916D917C9114974D833A
:1030C0005E836F8378871A8219821C821B82159611
:1030D000ED91FC911697AE014F5F5F4F6CE070E091
:1030E000099528960FB6F894DEBF0FBECDBFDF91CD
:1030F000CF910895CF93DF93EC01AC014F5F5F4F09
:10310000ED81FE816FE070E00995CE01DF91CF91F6
:103110000C944E180F931F93CF93DF93EC018C0107
:103120000C5F1F4F8C818E7F8C831E861D8681E0F5
:1031300090E09DA38CA3FE01E859FF4F11821082FD
:103140003F968083ED5AFF4F108231961082319660
:10315000108281EC9EE09C878B8784EC9EE09A87AE
:1031600089871E8A1D8AC8010E944916C8010E94CB
:10317000BC10C8010E947A18FE01EF52FF4F118265
:10318000108232961182108232961082FF97CD55AE
:10319000DF4F8FEF8193EC17FD07E1F7DF91CF91C0
:1031A0001F910F910895CF93DF93EC0189859A8544
:1031B000009721F09E838D831A861986CE010E9486
:1031C0007A18CE010E944E188D819E819A87898738
:1031D0008AE394E19E838D83CE010E947A18CE010A
:1031E000DF91CF910C944E18E82FEF7787FD05C043
:1031F0008EEF8E0F823008F47CC08E2F90E0FC01A1
:10320000EF54FD4F2491FC01E356FD4F34913230D1
:1032100031F440917702422B409377020FC0333054
:1032200031F440917602422B4093760207C034304D
:1032300029F440917502422B40937502FC01E1583C
:10324000FD4FA4913230C1F4B0E0AA0FBB1FAA59C0
:10325000BD4F6D937C93E7E9F2E0A591B4918C9119
:10326000809365028BE690E090934604809345043A
:1032700080916800816033C03330C1F4B0E0AA0FA0
:10328000BB1FA75ABD4F6D937C93E9E9F2E0A5916E
:10329000B4918C91809358028CE690E09093460410
:1032A0008093450480916800826019C03430C9F46D
:1032B000B0E0AA0FBB1FA85BBD4F6D937C93EBE9F9
:1032C000F2E0A591B4918C91809347028DE690E055
:1032D00090934604809345048091680084608093B5
:1032E0006800A0914504B0914604EC912E2B2C93DC
:1032F00008959FB7F894E23099F470934402609374
:103300004302E898809169008C7F809369008091E6
:103310006900836080936900E09AE89A9FBF0895EE
:103320007093460260934502E99880916900837F1B
:1033300080936900809169008C6080936900E19AB4
:10334000E99AECCFAF92BF92CF92DF92EF92FF92C9
:103350000F931F93CF93DF931F92CDB7DEB75C011E
:10336000D62EE72EFC018585811105C0C5010E947E
:10337000DF08811106C0F50113861586148680E0EA
:1033800065C040E060EFC5010E94700801E0F12CCB
:10339000C12C11E0C5010E941D08682FC501698379
:1033A0000E941D086981613019F48130B9F433C07D
:1033B0004F2D50E068131BC0F5018385181730F4BA
:1033C000E40FF51F8381802349F402C0181731F000
:1033D00060E0193058F4F501148708C0F501EF0DCD
:1033E000F11D8381802B838361E009C0C12EF5012B
:1033F000E40FF51F9381802F809589238383C50176
:103400000E9441081F5F000F11F4F39401E0F7E000
:10341000FF1508F0BFCF113408F4ADCFF501C38616
:10342000C11002C081E08587F5018381882309F4FA
:10343000A2CFD5011396ED2DFE2D9501255F3F4FAF
:103440008D918193A217B307D9F781E00F90DF9197
:10345000CF911F910F91FF90EF90DF90CF90BF9091
:10346000AF900895E82FF0E0EB53FD4F849190E08A
:10347000982F88273196E4918E0F911D0895089515
:10348000CF92DF92EF92FF920F931F93CF93DF9330
:103490006C017A018B01C0E0D0E0CE15DF0589F028
:1034A000D8016D918D01D601ED91FC910190F081D3
:1034B000E02DC6010995892B11F47E0102C02196E9
:1034C000ECCFC701DF91CF911F910F91FF90EF904B
:1034D000DF90CF9008950F931F93CF93DF93EC016C
:1034E00088819981009729F02A813B812617370727
:1034F00088F48B016F5F7F4F0E946126009761F017
:10350000998388831B830A832C813D81232B11F4AB
:10351000FC01108281E001C080E0DF91CF911F911A
:103520000F910895382F209115039091AF04213207
:1035300008F049C080918D048111FCCF42E0409396
:103540008D0430938C043FEF30938B0410928A04E7
:1035500020938904AFE8B4E049E654E0FA013E2F35
:10356000341B321718F43D913193F9CF109268044F
:1035700020916804990F922B9093680490916704AE
:10358000913061F410926704909168049093BB00AD
:103590009091BC0093FDF8CF95EC01C095EE90930F
:1035A000BC0090918D049230E1F390918B049F3F89
:1035B00079F080918B04803241F080918B048033CC
:1035C00031F084E005C081E003C082E001C083E007
:1035D000109216031092150310928E040895909184
:1035E0008D049111FCCF813208F080E291E090933C
:1035F0008D0490938C042FEF20938B0410928A04F7
:10360000280F209389049093680490916804906D2A
:103610009093680490916704913061F4109267046C
:10362000909168049093BB009091BC0093FDF8CFFB
:1036300095EC01C095EE9093BC0090918D04913073
:10364000E1F390918A04981710F480918A04A9E616
:10365000B4E027E434E0F9019E2F921B981718F488
:103660009D919193F9CF10921803809317030895B9
:10367000EF92FF920F931F93CF93DF937C0124E689
:10368000E20EF11CD7012D913C91255C324009F4EA
:1036900090C08C01E5ECF2E0D701ED93FC93E4914E
:1036A000EC01CB58DF4FE883E6ECF2E0E491E983EC
:1036B000E7ECF2E0E491EA83E8ECF2E0E491EB83FA
:1036C000E9ECF2E0E491EC83EAECF2E0E491ED83E2
:1036D000EBECF2E0E491EE83ECECF2E0E491EF83CA
:1036E000EDECF2E0E491E887EEECF2E0E491E987BA
:1036F000EFECF2E0E491EA87E0EDF2E0E491EB87B1
:10370000E1EDF2E0E491EC87E2EDF2E0E491ED87A7
:10371000E3EDF2E0E491EE87E4EDF2E0E491EF878F
:10372000E5EDF2E0E491E88B81E10E94321A9A8B98
:10373000898B83E10E94321A9C8B8B8BF7018081ED
:103740009181892BB1F17E9680816B968883319629
:103750004081D801AF56BF4F4C933C96908199233E
:1037600041F1913069F43B97908189170CF498836B
:10377000F801EB57FF4F80818417DCF48C9319C05C
:10378000F801E158FF4F308132962081082E000C5D
:10379000990B622F022E000C770B630F711D37FD02
:1037A0007A958617970714F4320F388324170CF490
:1037B0002C93DF91CF911F910F91FF90EF9008957F
:1037C0000F931F93CF93DF93FC01DC01A153BF4FF5
:1037D0008D919C91119712974D915C911197EF01EA
:1037E000249624812E7F24831686158621E030E0DE
:1037F00035A324A3A556B1091D921C928F01095827
:103800001F4FD8012C93AD5ABF4F1C9211961C929A
:1038100011961C92009711F481EC9EE094878387A7
:10382000528741878DE195E1968B858BCE010E9471
:103830004916CE010E94BC10CE010E947A18F801F0
:103840001082DF91CF911F910F910895EF92FF9217
:103850000F931F93CF93DF93FC0124813581611572
:10386000710511F480E019C041155105A9F07B01E3
:10387000EC018A01020F131FB8010E946B1A882302
:1038800089F3288139818C819D81B701820F931F33
:103890000E9439271D830C8381E0DF91CF911F9116
:1038A0000F91FF90EF900895EF92FF920F931F9367
:1038B000CF93DF9300D000D0CDB7DEB77C01862F49
:1038C0004AE08E010F5F1F4FB80190E00E94402731
:1038D000F80101900020E9F73197AF01401B510B2F
:1038E000B801C7010E94261C0F900F900F900F90F7
:1038F000DF91CF911F910F91FF90EF900895CF939B
:10390000DF93EC0188819981009711F00E94C9250D
:10391000198218821D821C821B821A82DF91CF912C
:103920000895EF92FF920F931F93CF93DF93EC01D3
:103930007B018A01BA010E946B1A811104C0CE0179
:103940000E947F1C07C01D830C83B7018881998169
:103950000E943927CE01DF91CF911F910F91FF90E7
:10396000EF900895CF93DF93EC016115710559F045
:10397000FB0101900020E9F73197AF01461B570B7F
:103980000E94911C02C00E947F1CCE01DF91CF914A
:103990000895FC01808191810C94C925FC0111825C
:1039A000108213821282158214826115710551F002
:1039B000FB0101900020E9F73197AF01461B570B3F
:1039C0000C94911C089590E0FC01E95BF34F349155
:1039D000FC01EF54FD4F2491FC01E356FD4FE491AF
:1039E000EE2309F43BC0332339F1333091F038F43E
:1039F0003130A9F0323001F584B58F7D12C03730F7
:103A000091F03830A1F03430B9F4809180008F7D8E
:103A100003C0809180008F77809380000DC084B5B3
:103A20008F7784BD09C08091B0008F7703C08091EB
:103A3000B0008F7D8093B000F0E0EE0FFF1FE35CDD
:103A4000F34FA591B4918FB7F894EC91611103C035
:103A500020952E2301C02E2B2C938FBF0895CF933A
:103A6000DF9390E0FC01EF54FD4F2491FC01E356FD
:103A7000FD4F8491882361F190E0880F991FFC012C
:103A8000ED5CF34FC591D491FC01E35CF34FA5913C
:103A9000B491611109C09FB7F89488812095822361
:103AA0008883EC912E230BC0623061F49FB7F894A9
:103AB0003881822F809583238883EC912E2B2C9341
:103AC0009FBF06C08FB7F894E8812E2B28838FBF45
:103AD000DF91CF9108953FB7F8948091B50490910C
:103AE000B604A091B704B091B80426B5A89B05C050
:103AF0002F3F19F00196A11DB11D3FBFBA2FA92F6D
:103B0000982F8827820F911DA11DB11DBC01CD01E9
:103B100042E0660F771F881F991F4A95D1F70895D5
:103B20002FB7F8946091B1047091B2048091B304FE
:103B30009091B4042FBF08951F920F920FB60F9269
:103B400011242F933F938F939F93AF93BF938091B3
:103B5000B1049091B204A091B304B091B404309137
:103B6000B00423E0230F2D3720F40196A11DB11DD1
:103B700005C026E8230F0296A11DB11D2093B004B5
:103B80008093B1049093B204A093B304B093B404AF
:103B90008091B5049091B604A091B704B091B80497
:103BA0000196A11DB11D8093B5049093B604A09316
:103BB000B704B093B804BF91AF919F918F913F919B
:103BC0002F910F900FBE0F901F90189561157105E2
:103BD00079F0FB0101900020E9F73197AF01461B16
:103BE000570BDC01ED91FC910280F381E02D0994EB
:103BF00080E090E00895DC01ED91FC91DB011496EA
:103C00004D915C9115976D917C910280F381E02D2F
:103C1000099485E293E00E94FC0C89E293E00E9403
:103C2000DF0C83E393E00C94FF0ACF93DF93CDB7CF
:103C3000DEB7E6970FB6F894DEBF0FBECDBF78941F
:103C400084B5826084BD84B5816084BD85B58260A1
:103C500085BD85B5816085BD80916E008160809352
:103C60006E001092810080918100826080938100BB
:103C700080918100816080938100809180008160CB
:103C8000809380008091B10084608093B100809126
:103C9000B00081608093B00080917A00846080934E
:103CA0007A0080917A00826080937A0080917A0015
:103CB000816080937A0080917A00806880937A0096
:103CC0001092C100E0918802F091890282E0808325
:103CD000E0918402F09185021082E0918602F091D9
:103CE000870280E1808310929002E0918C02F09133
:103CF0008D0286E08083E0918A02F0918B028081C0
:103D000080618083E0918A02F0918B0280818860DB
:103D10008083E0918A02F0918B02808180688083A9
:103D2000E0918A02F0918B0280818F7D808362E036
:103D300083E00E942F1D62E084E00E942F1D62E05C
:103D400085E00E942F1D62E086E00E942F1D62E048
:103D500087E00E942F1D61E08FE00E94E31C772422
:103D600073946EE1E62EF12C8EE991E0272D281B4D
:103D70002EAB80913F02909140028130910569F114
:103D80008230910509F442C3892B09F070C367E4BE
:103D900077E086E00E94F41870923D0280913D0227
:103DA000882389F080912B0390912C03FC01EF5222
:103DB000FF4F118210823296118210826DEB71E0FA
:103DC0000E94E61DEBCF80913F0290914002019648
:103DD0009093400280933F024AC367E477E086E015
:103DE0000E94F4186AE177E083E00E94F418709270
:103DF0003D026DEB71E0CE01C0960E94CE1C6DEBD2
:103E000071E0CE018A960E94CE1C6DEB71E0CE016E
:103E100084960E94CE1C6DEB71E0CE014E960E94FE
:103E2000CE1C6DEB71E0CE0148960E94CE1C6DEB6E
:103E300071E0CE0142960E94CE1C70928E0418E66C
:103E40001093AF04109216031092150360E089E1FD
:103E500093E00E94E90681E00E94921A81E090E0DE
:103E60000E94EF1A89E193E00E946B0687FD2FC242
:103E700070928E041093AF041092160310921503E3
:103E800060E089E193E00E94E90681E00E94921AD5
:103E900087E090E00E94EF1A89E193E00E946B06B0
:103EA00089E193E00E946B069C013327F4E035958D
:103EB0002795FA95E1F7AAEFDA2E182FD29E100D6A
:103EC000112489E193E00E946B069C013327B4E042
:103ED00035952795BA95E1F7082FD29E000D11244C
:103EE00089E193E00E946B0689E193E00E946B06F2
:103EF0009C01332794E0359527959A95E1F7C82ED4
:103F0000D29EC00C112489E193E00E946B069C01B3
:103F1000332744E0359527954A95E1F7682ED29EE0
:103F2000600C112489E193E00E946B069C01332709
:103F300054E0359527955A95E1F7D29E800D1124CE
:103F4000282F30E0490140E3841A48EF940AD12C2D
:103F5000EEE9F1E0A6018EA98E0F861528F4849172
:103F6000480F511D3196F7CF82E0861538F4C9010C
:103F700083709927892B11F44F5F5F4F8DE691E095
:103F8000289FB001299F700D389F700D1124C40126
:103F90008D5C97409695879596958795860F971F88
:103FA0000596840F951F67E070E00E94D02483304F
:103FB000A1F028F4813059F0823061F005C08530DD
:103FC00091F070F0863091F068E771E011C06FE712
:103FD00071E00EC066E871E00BC06EE871E008C0E9
:103FE00068E971E005C061EA71E002C068EA71E069
:103FF000CE0184960E94B21C0A3018F06DEB71E07D
:1040000002C061EB71E0CE0148960E94B21C602FA5
:10401000CE0148960E94541C1A3018F06DEB71E0E6
:1040200002C061EB71E0CE0142960E94B21C612F8A
:10403000CE0142960E94541C1A8219821C821B8255
:104040001E821D82688D798D8E010F5F1F4F611555
:10405000710531F04C8D5D8DC8010E94911C03C02B
:10406000C8010E947F1C41E050E063EB71E0C80191
:104070000E94261C882309F4FDC14E895F896A8944
:104080007B89C8010E94261C811103C0C8010E94BF
:104090007F1C69817A816115710539F04D815E81DE
:1040A000CE01C0960E94911C04C0CE01C0960E9411
:1040B0007F1CC8010E94C91C1B861A861D861C868F
:1040C0001F861E864AE0B801C6010E944B27B80130
:1040D000CE010A960E94B21C8AA59BA50097A9F062
:1040E0006A857B856115710571F04CA55DA52E85EE
:1040F0003F854217530738F00E9439278E859F85E8
:104100009FA78EA712C00E94C9258A859B859BA761
:104110008AA78C859D859DA78CA78E859F859FA747
:104120008EA71B861A861D861C861F861E86CE01BC
:104130000A960E94C91C41E050E065EB71E0CE0197
:104140008A960E94261C662DCE018A960E94541CD7
:1041500041E050E065EB71E0CE018A960E94261C9A
:104160004AE0B801C4010E944B27F80101900020E9
:10417000E9F73197AF01401B510BB801CE018A9688
:104180000E94261CC0903103D0903203D6011596B0
:104190008D919C9116970E94DF0840E06CECF6012F
:1041A000858196810E947008D6014C9164E4159631
:1041B0008D919C9116970E947008F6018281811161
:1041C00010C0C0903103D0903203D6011596ED9106
:1041D000FC911697138615861486DF011B9633967D
:1041E00039C0E181E950E33040F4F0E0EE0FFF1F09
:1041F000E65EFE4F2081318102C02EEE32E04901A1
:10420000330FAA08BB080E946B1D1B012C018114EF
:104210009104A104B104A9F20E946B1DDC01CB0141
:1042200082199309A409B509883E9340A105B105F7
:1042300070F3B1E08B1A9108A108B108E8EE2E0ED8
:10424000E3E03E1E411C511C81149104A104B10401
:1042500019F7DDCF1E92AE17BF07E1F7BE01665F0B
:104260007F4FD60115968D919C9116970E94A219A9
:10427000882349F067E0CE010A960E9410089989C8
:10428000891709F4FBC0812C912C9EEFA92E92EC8A
:10429000B92E67EB71E0CE014E960E94B21CC501AB
:1042A000B4010E94FE24DC01CB014AE0B8010E9467
:1042B0004027F80101900020E9F73197AF01401B3A
:1042C000510BB801CE014E960E94261C06C06EEB23
:1042D00071E0CE01C0960E94B21C0BE410E0209168
:1042E0003D0280912B0390912C03222309F457C0A7
:1042F000FC01EF52FF4FF182E08232962FE030E076
:104300003183208361ED71E00E94E61D80912B03D3
:1043100090912C03FC01EF52FF4FF182E082329624
:10432000F182E082BE01605D7F4F0E94FB1D8091A3
:104330002B0390912C03FC01EF52FF4FF182E0829E
:1043400032964DE250E051834083BE01665D7F4F5F
:104350000E94FB1D80912B0390912C03FC01EF52D6
:10436000FF4FF182E0823296ACE3B0E0B183A083EC
:10437000BE016C5D7F4F0E94FB1D80912B039091CD
:104380002C03FC01EF52FF4FF182E0823296118341
:104390000083BE01625E7F4F0E94FB1DA0CF209173
:1043A0000001309101012115310539F420913F02BE
:1043B000309140022150310909C02130310551F4BA
:1043C00020913F02309140022F5F3F4F30934002D7
:1043D00020933F0204960E94D507CE0142960E9488
:1043E000C91CCE0148960E94C91CCE014E960E945F
:1043F000C91CCE0184960E94C91CCE018A960E94D7
:10440000C91CCE01C0960E94C91C31C070923E02E8
:1044100066E777E083E00E94F41820913E028091E5
:10442000270390912803222379F0FC01EF52FF4FDC
:10443000F182E08232962FE030E0318320836FED0D
:1044400071E00E94E61DE9CF209102013091030145
:10445000232B51F420913F02309140022150310929
:104460003093400220933F0204960E94D5070E9499
:104470005F0E7FCCC8010E947F1CFFCDA801BE014A
:10448000665F7F4FC6010E941509882339F068E0F6
:10449000C8010E94100899858917B1F060E874EE90
:1044A0006138F4EE7F070CF4EECE072E000C880B7B
:1044B000990B0E94772720E030E040E05CE30E9407
:1044C000B2274B015C01E5CE698138E0639FB00102
:1044D00011242A8130E0322F2227330F330F330F7C
:1044E000262B372B8A858031E1F4688570E08F8137
:1044F000FB01E81BF109CF019695982F8827979526
:1045000087950E94E424CB014097B901607F9B010D
:1045100053E0220F331F5A95E1F7BC01620F731F5E
:10452000BFCFB901BDCFAF92BF92CF92DF92EF92D2
:10453000FF920F931F93CF93DF93CDB7DEB76197B1
:104540000FB6F894DEBF0FBECDBF10927B02109263
:104550007A0288EE93E0A0E0B0E080937C02909332
:104560007D02A0937E02B0937F0224E231E030937B
:1045700079022093780225EC30E030938502209375
:10458000840224EC30E0309387022093860220ECF2
:1045900030E0309389022093880221EC30E03093A0
:1045A0008B0220938A0222EC30E030938D0220931C
:1045B0008C0226EC30E030938F0220938E02109212
:1045C0009102109292021092930210929402109211
:1045D0001C0310921B0380931D0390931E03A09352
:1045E0001F03B093200384E391E090931A03809318
:1045F000190384E791E09093340380933303A3E39A
:10460000B3E024E631E04CE551E08FEF9FEF6AE044
:1046100070E013963C932E931297FD0134968D0112
:10462000085D1F4F518340839383828395838483E6
:104630009783868391878087738762873C96E0178C
:10464000F10781F79696E4E0AD33BE0711F71092BB
:10465000410410924204109243041092440486EDE7
:1046600090E00E9434256C0128E0E22E0AE029E067
:104670004FED51E16BE176E10E940F0D8CE691E088
:10468000D6018D939C93D0924004C0923F04C60102
:104690000E94E01B80913F049091400404960E9488
:1046A000D31880913F049091400404960E94D5074E
:1046B00080913F049091400404960E94381BE09141
:1046C0003F04F09140048FEF82A713A614A686E062
:1046D00085A786A787A784E591E090932A03809316
:1046E00029038EE090E00E9434257C0160E082E0A6
:1046F0000E942F1DE3EBF2E0E491D701EC93EFE988
:10470000F2E0E491F0E0EE0FFF1FED56FD4F8591D2
:104710009491F7019283818313861586148667012D
:10472000FBE0CF0ED11C570183E0A80EB11CF601AF
:104730001292EA15FB05E1F7F0923003E0922F03A5
:1047400083E190E00E9434258C018AE596E0D8014F
:1047500052969C938E9351971696FC92EE921597D3
:1047600014961C9214971C9289E011968C931197C1
:1047700081E012968C93129713968C9310933203C8
:1047800000933103F60112926F01EA15FB05D1F790
:10479000FF24F394BE01665F7F4FD80115968D917B
:1047A0009C9116970E94A219882309F456C067E0CD
:1047B000CE010A960E94100899898913EBCFD8017F
:1047C0008C91811127C015968D919C9116970E940E
:1047D000DF08BE01665F7F4FF801858196810E94E8
:1047E000B20840E064EBD80115968D919C91169724
:1047F0000E947008F801858196810E941D08E82EAC
:10480000D80115968D919C9116970E94DF08EE2095
:1048100009F4C3C0AE014F5F5F4FBE01665F7F4FBB
:10482000C8010E941509F801E180BE01665F7F4F53
:10483000C8010E9478098E1520F4D80111968C9138
:1048400006C0BE01665F7F4FC8010E947809F8016B
:10485000818384818F5F84839DCF81E090E00E947B
:10486000342590932E0380932D03109218031092F9
:10487000170310921603109215030E94E10A0E947A
:10488000E10A86ED90E00E9434256C0188E0E82E74
:104890000AE029E04FED51E16BE176E1C6010E94AB
:1048A0000F0D9CE6A92E91E0B92EF601B182A082EF
:1048B000D0922C03C0922B03C6010E94E01B809172
:1048C0002B0390912C0304960E94D31880912B0304
:1048D00090912C0304960E94D50780912B03909110
:1048E0002C0304960E94381BE0912B03F0912C03BB
:1048F000FF24FA94F2A613A614A616E015A716A78D
:1049000017A78CE491E0909326038093250386ED0E
:1049100090E00E9434256C0129E04FED51E16BE1FC
:1049200076E10E940F0DD601AD92BC92D092280381
:10493000C0922703C6010E94E01B8091270390913B
:10494000280304960E94D31880912703909128038E
:1049500004960E94D507809127039091280304961E
:104960000E94381BE0912703F0912803F2A613A6BA
:1049700014A615A716A717A761960FB6F894DEBF61
:104980000FBECDBFDF91CF911F910F91FF90EF90A0
:10499000DF90CF90BF90AF900895F801F0823ACFAA
:1049A000AA1BBB1B51E107C0AA1FBB1FA617B70755
:1049B00010F0A61BB70B881F991F5A95A9F7809571
:1049C0009095BC01CD01089597FB072E16F4009435
:1049D00007D077FD09D00E94D02407FC05D03EF413
:1049E000909581959F4F0895709561957F4F08959B
:1049F000EE0FFF1F0590F491E02D09940E9405250C
:104A00006894B1110C946A2808950E944F2888F088
:104A10009F5798F0B92F9927B751B0F0E1F0660F82
:104A2000771F881F991F1AF0BA95C9F714C0B130C3
:104A300091F00E946928B1E008950C946928672FCD
:104A4000782F8827B85F39F0B93FCCF386957795F2
:104A50006795B395D9F73EF49095809570956195DB
:104A60007F4F8F4F9F4F0895CF93DF9382309105F3
:104A700010F482E090E0E091BB04F091BC0420E0EF
:104A800030E0C0E0D0E0309711F14081518148170B
:104A90005907C0F04817590761F482819381209724
:104AA00019F09B838A832BC09093BC048093BB0432
:104AB00026C02115310519F04217530718F49A0141
:104AC000BE01DF01EF010280F381E02DDCCF211573
:104AD000310509F1281B390B2430310590F4129669
:104AE0008D919C9113976115710521F0FB019383C2
:104AF000828304C09093BC048093BB04FD01329672
:104B000044C0FD01E20FF31F8193919322503109BC
:104B10002D933C933AC02091B9043091BA04232BD1
:104B200041F420910601309107013093BA0420939B
:104B3000B90420910401309105012115310541F49A
:104B40002DB73EB74091080150910901241B350B48
:104B5000E091B904F091BA04E217F307A0F42E1B18
:104B60003F0B2817390778F0AC014E5F5F4F2417D1
:104B7000350748F04E0F5F1F5093BA044093B904B5
:104B80008193919302C0E0E0F0E0CF01DF91CF91FB
:104B900008950F931F93CF93DF93009709F48CC070
:104BA000FC013297138212820091BB041091BC0465
:104BB0000115110581F420813181820F931F20910D
:104BC000B9043091BA042817390779F5F093BA047B
:104BD000E093B90471C0D80140E050E0AE17BF07C0
:104BE00050F412962D913C911397AD01211531058A
:104BF00009F1D901F3CF9D01DA013383228360816A
:104C00007181860F971F8217930769F4EC01288141
:104C10003981260F371F2E5F3F4F318320838A81D2
:104C20009B8193838283452B29F4F093BC04E0930A
:104C3000BB0442C01396FC93EE931297ED01499189
:104C400059919E01240F351FE217F30771F48081FB
:104C50009181840F951F029611969C938E93828169
:104C6000938113969C938E931297E0E0F0E0D80125
:104C700012968D919C911397009719F0F8018C0171
:104C8000F6CF8D919C9198012E5F3F4F820F931F1D
:104C90002091B9043091BA042817390769F4309784
:104CA00029F41092BC041092BB0402C01382128239
:104CB0001093BA040093B904DF91CF911F910F9123
:104CC0000895A0E0B0E0E7E6F6E20C947428EC0169
:104CD000009721F4CB010E943425B8C0FC01E60FF7
:104CE000F71F9C0122503109E217F30708F4ACC00A
:104CF000D9010D911C91119706171707B0F00530D7
:104D0000110508F49FC0C80104978617970708F497
:104D100099C002501109061B170B019311936D9353
:104D20007C93CF010E94C9258DC05B01A01AB10AF6
:104D30004C01800E911EA091BB04B091BC0440E0D8
:104D400050E0E12CF12C109709F44AC0A815B905E0
:104D5000D1F56D907C901197630182E0C80ED11C53
:104D6000CA14DB0480F1A3014A195B096A0182E0DD
:104D7000C80ED11C1296BC9012971396AC91B5E058
:104D8000CB16D10440F0B282A38351834083D90172
:104D90006D937C930AC00E5F1F4FC301800F911F5C
:104DA000F90191838083EB2DFA2FE114F10431F0A6
:104DB000D7011396FC93EE93129744C0F093BC0472
:104DC000E093BB043FC08D919C9111974817590700
:104DD00008F4AC017D0112960D90BC91A02DB3CFCB
:104DE0008091B9049091BA0488159905E1F44617A9
:104DF0005707C8F48091040190910501009741F490
:104E00008DB79EB74091080150910901841B950B05
:104E1000E817F907C8F4F093BA04E093B904F9016C
:104E2000718360830FC0CB010E9434257C01009701
:104E300059F0A801BE010E943027CE010E94C92569
:104E4000C70104C0CE0102C080E090E0CDB7DEB75C
:104E5000EEE00C94902881E090E0F8940C94A72860
:104E6000FB01DC0102C001900D9241505040D8F787
:104E70000895FB01DC0101900D920020E1F70895F7
:104E8000BB274A3031F4992322F4BDE290958195F5
:104E90009F4F0C944C27BB27FB015527AA27880F4F
:104EA000991FAA1FA41710F0A41B83955051B9F79E
:104EB000A05DAA3308F0A95DA193009779F7B1111D
:104EC000B1931192CB010C946527DC01FC01672F93
:104ED00071917723E1F7329704C07C916D937083D1
:104EE0006291AE17BF07C8F30895E89409C097FB15
:104EF0003EF490958095709561957F4F8F4F9F4FB1
:104F00009923A9F0F92F96E9BB279395F6958795F4
:104F100077956795B795F111F8CFFAF4BB0F11F4B7
:104F200060FF1BC06F5F7F4F8F4F9F4F16C088235E
:104F300011F096E911C0772321F09EE8872F762F94
:104F400005C0662371F096E8862F70E060E02AF0D5
:104F50009A95660F771F881FDAF7880F96958795C1
:104F600097F908950E94C5270C9436280E94282896
:104F700038F00E942F2820F0952311F00C941F2860
:104F80000C94252811240C946A280E94472870F359
:104F9000959FC1F3950F50E0551F629FF001729FDE
:104FA000BB27F00DB11D639FAA27F00DB11DAA1FED
:104FB000649F6627B00DA11D661F829F2227B00D3A
:104FC000A11D621F739FB00DA11D621F839FA00DC5
:104FD000611D221F749F3327A00D611D231F849F15
:104FE000600D211D822F762F6A2F11249F5750406C
:104FF0009AF0F1F088234AF0EE0FFF1FBB1F661FE7
:10500000771F881F91505040A9F79E3F510580F0AF
:105010000C941F280C946A285F3FE4F3983ED4F365
:10502000869577956795B795F795E7959F5FC1F753
:10503000FE2B880F911D9695879597F9089597F9FE
:105040009F6780E870E060E008959FEF80EC08952E
:1050500000240A9416161706180609060895002457
:105060000A9412161306140605060895092E0394D1
:10507000000C11F4882352F0BB0F40F4BF2B11F445
:1050800060FF04C06F5F7F4F8F4F9F4F089557FDA4
:105090009058440F551F59F05F3F71F04795880FA6
:1050A00097FB991F61F09F3F79F08795089512163D
:1050B00013061406551FF2CF4695F1DF08C01616E9
:1050C00017061806991FF1CF86957105610508949A
:1050D0000895E894BB2766277727CB0197F90895B1
:1050E0002F923F924F925F926F927F928F929F92F8
:1050F000AF92BF92CF92DF92EF92FF920F931F93E6
:10510000CF93DF93CDB7DEB7CA1BDB0B0FB6F89496
:10511000DEBF0FBECDBF09942A88398848885F84D6
:105120006E847D848C849B84AA84B984C884DF8047
:10513000EE80FD800C811B81AA81B981CE0FD11D2B
:105140000FB6F894DEBF0FBECDBFED01089516E097
:10515000CFE2D6E004C0FE010E94F8242196C033BD
:08516000D107C9F7F894FFCF55
:10516800FFFFFFFF0000BD04800000000000C9161B
:10517800401A00000000C916401A5E00BC00770102
:1051880000000000F60D401ABF0D9D0DB10D3D0E3B
:1051980000000000E906B9067F066B065C065B06A0
:1051A800000000001B15401A00000000FC0C050D53
:1051B80000000000DF0CF20C00000000DE0C1807F5
:1051C80000000000B50CD40C00000000C916401AFD
:1051D80000000000FF0A260B53756E646179004DCC
:1051E8006F6E646179005475657364617900576501
:1051F800646E65736461790054687572736461796B
:1052080000467269646179005361747572646179EA
:105218000030003A002D0054656D703A2000525459
:1052280043206973206E6F742072756E6E696E67A5
:105238000053797374656D20537461747573004DF0
:0E524800656E752041637469766974790000A3
:00000001FF
